:1000000060040020F50D0000DD0D0000DD0D000096
:1000100000000000000000000000000000000000E0
:10002000000000000000000000000000DD0D0000E6
:100030000000000000000000DD0D0000DD0D0000EC
:10004000DD0D0000DD0D0000DD0D0000DD0D000008
:10005000DD0D0000DD0D0000DD0D0000DD0D0000F8
:10006000DD0D0000DD0D0000DD0D0000DD0D0000E8
:10007000DD0D0000DD0D0000DD0D0000DD0D0000D8
:10008000DD0D0000DD0D0000DD0D0000DD0D0000C8
:10009000DD0D0000DD0D0000DD0D0000DD0D0000B8
:1000A000DD0D0000DD0D0000DD0D0000DD0D0000A8
:1000B00038B5AA48016820220A430260A8490120F5
:1000C0000A7F02430A770A78F02313400B70062256
:1000D0000B7806241C430C704B7F03434B770B7843
:1000E0001B071B0F0B700B7860241C430C7000BFA8
:1000F0002AA1096800919B490B889B4C1C40224314
:100100000A800A886B461B88984C1C402243822335
:10011000DB0113430B8096490A7802430A708A7800
:100120000242FCD11F20934A13685B0B03401F2B34
:1001300000D105230C8D904D25409B012B430B8551
:1001400013689B0C18401F2800D11D200B8D8B4C71
:100150001C402043088510688001400F072800D10B
:1001600003200A8D864B1340000318430885087846
:100170004006400E08700878042202430A70814845
:1001800048620A89804B13400B810A897F4B1340D8
:100190000B81802100F01EFB31BD0000000000003B
:1001A0000160002101714171794981607949C16023
:1001B0007949016101680A78022313430B70704783
:1001C00070B5040021688020400008180A31082218
:1001D0004B8A134228D04B8A1A434A8280220A70E3
:1001E00011210170402141710271C0239B05B84D5E
:1001F000644A56682E401E435660566935402B436C
:100200005361664B13601300943313615368644D5C
:100210001D40CB022B43536053689B0B9B035360E1
:1002200001710020207105E0C079C00602D52000D0
:1002300000F0C6F8207970BDF2B582B000680024E5
:100240000094A2214900451801264E485349554BB8
:100250001B78002B10D10B0040330364436C9B0BC5
:100260009B034364436C4E4F1F4047642B784027E9
:100270001F432F704B4B1E70EB78DB0713D54A4B97
:10028000476C1F40974203D2406C0340009300E04C
:100290000092009A4031029800F09EFAE8780643F6
:1002A000EE70404804700098FEBDF8B51400056873
:1002B000002B01D1002000E040205A010092314A79
:1002C000009BD618012377697F007F0FFF1CBB407E
:1002D0009C4205D37069802212060243726106E0D7
:1002E000171894372200380000F076FA390031618F
:1002F0007069800B8003A104890C014371617069EE
:1003000027490140716100982818FF21891D401874
:10031000022182780A43827002788023134303709B
:1003200082780A42FCD02000F2BD80B50023FFF79E
:10033000BCFF01BD13494A69920B92034A61FF2138
:10034000891D4018022182780A4382700278802336
:100350001343037082780A42FCD070471C040040AB
:100360003C440041020C0040C0FF0000FF70000050
:1003700000500041246080003FF80000E0FF0000D2
:10038000FF8F000064000020F3FF0000FEFF00006C
:10039000C1010000AB02000039020000780100201A
:1003A000FF3F00F05C020020FF3F0000FF22921D93
:1003B0008018002901D0202100E010210170704731
:1003C000F8B50568822149006918C97810220A43E6
:1003D000822149006918CA70BA4CBB4F3978217024
:1003E00079786170B978A180A188FA7812020A43FD
:1003F000A2803979E180E1887A7912020A43E280A9
:10040000B97921812189FA7912020A432281402196
:1004100082225200A95462780F218026120223788A
:100420001A43803A012A00D879E0921E00D179E07F
:100430007F3A15D0521E00D1B4E0B84BD21A0FD07B
:10044000521E00D18FE05B1ED21A2DD07E3BD21AF5
:1004500011D08033D21A5FD0803A2CD0B04BD21A50
:1004600000D1F0E0C0235B00D21A00D1EFE0803A67
:1004700000D1F7E0F9E0A1887200914208D121890A
:10048000132901D3122200E0228900BF79A1E6E0FE
:10049000A18852009142EDD12189442901D3432200
:1004A00000E022890C34D9E02800FFF743FFA08840
:1004B0000643AE72F1BDA18801712800FFF73AFF33
:1004C000032092214900691808770007004901E0DC
:1004D000FFFFFF8FAD4A536C0B4003435364FF2370
:1004E0004633EB1840241C704037176430248227B1
:1004F0007F00EF193C77546B0C40204350639220EF
:1005000040002E541000D43010634020D876506F35
:1005100001405167DE77F1BD0122011D9FE00021FE
:1005200061811DE06281E28850231340A370E2885C
:100530001140E180E188042923DAA1780029E188CB
:1005400006D04901691883225200895C8A0605E0B9
:100550004901691883225200895CCA06D20F628160
:1005600002220A347AE0E0880640A670E088014062
:10057000E180A088002878D1E088002875D0E08844
:10058000042872DAA0780028E08805D040012818F5
:10059000FF21891D202255E040012818FF21891DD7
:1005A00010224FE0E0880640A670E0880140E1801C
:1005B000A088002859D1E088002856D0E088042877
:1005C00053DAA0780028E0881ED040012818832143
:1005D0004900405C800636D5E08840012818891E15
:1005E00020224254E08840012818C91C405C400683
:1005F00029D5E0884001281840224254E088400173
:100600002818C91E02221DE0400128188321490034
:10061000405CC00617D5E08840012818891E1022CA
:100620004254E08840012818C91C405C80060AD565
:10063000E0884001281820224254E0884001281810
:10064000C91E012242542800FFF774FEF1BD218922
:10065000092901D3082200E0228950342100FFF744
:1006600064FEF1BDA1884171EDE701212800FFF78B
:100670009DFEF1BD1201100102000040EB03246158
:10068000100100000001000010B5414C41482060FD
:10069000FFF70EFD21682000FFF782FD200010BD4E
:1006A00001B50123012269463948FFF7FEFD01200B
:1006B00002BD80B5012269463548FFF7BDFD684699
:1006C000007802BD040000207801002010B5304CF5
:1006D0002000FFF775FD002805D02068FF21483174
:1006E000415CC807C00F10BD10B50C0001232200EB
:1006F00001002748FFF7D9FD200010BD70B50500A7
:100700000E00234C2000FFF75BFD002804D03200D0
:1007100029002000FFF790FD70BD0000FF010000E0
:1007200021170000F8B505000F00184E3400803482
:100730002000FFF745FD002826D02068A2214900AF
:100740004018402214490B78002B05D043784024F0
:100750001C43447000230B703564716C890B890352
:100760007164716C0D4B0B40B9030D4C0C401C4374
:10077000746401780A430270C178C907FCD5C17856
:1007800001220A43C2703800F2BD0000640000205C
:10079000E4000020005000415C020020FF3F00F018
:1007A00000C0FF0F130030B414001500103902D33D
:1007B00010393CC0FCD2490700D30CC000D504C09E
:1007C000890002D30280801C002900D5027030BC51
:1007D000704700000022E5E7124207D08B0706D0E1
:1007E0000B78491C0370401C521EF7D870478307D2
:1007F00006D00B78491C0370401C521EF9D170477B
:1008000070B4103A03D378C9103A78C0FBD25307BA
:1008100001D318C918C001D508C908C0D20704D32C
:100820000B880380891C801C002A01D50B7803707B
:1008300070BC7047002802D101A0B94948607047D8
:10084000A1060000B3060000CD060000E906000086
:10085000FD060000E906000025070000F0B585B0A0
:10086000AF4A1378002B2ED0042901D1006804E090
:10087000022901D1008800E0007801AB4C001C196E
:100880000094651C0026302404E037372F700009DF
:100890006D1E761C4F00BE4205D207073F0F0A2F80
:1008A000F3DA2743F2E71C70782058700A20009B87
:1008B00098700D20009BD8704900091D01A852684E
:1008C000D268904702E05268D268904705B0F0BD08
:1008D00072B6BFF35F8F0021924A1170EFF3088167
:1008E0008F4A9160016881F308884068004770472B
:1008F000F8B500258A4CA5617A20A070402120001F
:100900002430626812699047606120002430E06101
:10091000256107E0A070E560E069401CE0612069A6
:10092000401C2061206961698842E7D2E069007853
:100930000100FF29F3D0232900D0D6E02078002839
:1009400004D0022178A06268D2689047A178A0699B
:1009500053292BD1616922698A4216D2E3695B1C53
:10096000E361521C2261891AE268914200D31100AE
:1009700021620A461946FFF72FFF206A21690918EC
:100980002161E1690918E161E0702069401E206180
:10099000E069401EE061E078E168884204D2091A0B
:1009A000A06962689269904700BF92E0522904D121
:1009B000E1686268526990478BE04F2902D1E16893
:1009C000017086E0482902D1E168018081E0572961
:1009D00002D1E16801607CE06F2901D101210CE0C6
:1009E000682903D10088E060022104E0772907D15B
:1009F0000068E060042120000C30FFF72FFF68E062
:100A00000126472912D1E068FFF762FFA06880F352
:100A1000088844480670BFF35F8F62B6607800288C
:100A200057D0062061680968884752E0542901D1EF
:100A3000267049E04E2909D12078002804D10221EE
:100A400039A06268D2689047257042E0562940D1AB
:100A5000012136A06268D268904700BF3CA000F038
:100A600079F801003AA06268D2689047012130A06D
:100A70006268D268904700BF2FA0E061256101E065
:100A8000491C2161E069411CE1612169007800286D
:100A9000F6D100BF28A06268D2689047012124A047
:100AA0006268D2689047256126A0E06101E0491C98
:100AB0002161E069411CE161216900780028F6D1DB
:100AC00020A06268D2689047022117A06268D268AD
:100AD00090477A20A070E5602078002804D001219A
:100AE00014A06268D268904716E70600E268130116
:100AF0003700303F0A2F03D230391943E1600BE74A
:100B00003700413F062F01D23739F6E7613E062E06
:100B100001D25739F1E72C2900D0FBE6A261FAE6B1
:100B2000F80100205D0000200A0D000076000000A2
:100B3000200000003E000000417072203130203261
:100B40003031350031393A32383A35300000000062
:100B5000312E3100010000E0491C0A78002AFBD147
:100B6000081A7047F8B55F4801681E2291430222B7
:100B70000A4302605C4841695C4A0A40426100BF26
:100B800068A10B685A49C91C0A680F24A2430A606D
:100B9000C91E0A781206FCD4C91C0C68554A1340B9
:100BA0001D0083235B022B431C430C60C91E0C7881
:100BB0002406FCD45CA42468009400BF5BA42468D1
:100BC0004D4E3568AD0E3F2D00D11F257668B60518
:100BD000B60D970DBE4200D1D60D240C2404AD02F3
:100BE0002E43264334006D462D88444E2E409125D9
:100BF0006D0035436E463580058B414E2E40068391
:100C00000568ED06FCD53F4D0562C4616C4624883D
:100C1000048300BF46A000680090491C0888BC01FE
:100C200004400C8008886C462488374D25402843B2
:100C30000C0C04430C80891C08680F24A043012479
:100C400004430C60C91E08780006FCD4C91C08685F
:100C50001A4010432D4A02430A60C91E0878000654
:100C6000FCD4F1BDF8B58024A40500202060600C00
:100C7000416805460022D243914214D0244AC30061
:100C800013600626234F3E705361D2691204D30FBE
:100C90006A4613701278002A05D0006880F308882D
:100CA0001D4805600847FFF75DFF01261B480670D9
:100CB000BFF35F8F62B6206840192060FFF7E4FC45
:100CC0000400174D2000A1688847002800D02E702E
:100CD00028780028F6D00020FFF7ACFDFFF708FECB
:100CE000FCE70000044000410C080040FFFCFFFF4F
:100CF000010C0040FFE0DFFF24608000FFF90000EE
:100D00007FFF000080BB0000FF70000000070100B3
:100D1000044400414F44004108ED00E05D00002024
:100D20005D02002000000000000000000000000044
:100D30000000000030B401210268001D002A0FD01D
:100D40000368C318446808300C4202D04D466D1E3B
:100D500064191D6825601B1D241D121FECD0F8E7C7
:100D600030BC704730B4012100220368001D002B05
:100D70000BD00468001D0C4202D04D466D1E641954
:100D80002260241D1B1FF0D0FAE730BC7047000022
:100D900010B5074979441831064C7C44163404E0F8
:100DA000081D0A68891888470100A142F8D110BDC2
:100DB0000800000028000000ADFFFFFFFC0100005C
:100DC00064000020000000006DFFFFFF60000000D5
:100DD0007C0000000400002000000000FEE7034843
:100DE000FF2188430249086001207047000000008D
:100DF00008ED00E080B500F001F801BDC046C04636
:100E0000C046C04600F000F8FFF7E9FF002801D017
:100E1000FFF7BEFF0020C046C046FFF723FF00F0EB
:100E200000F880B500F002F801BD00000746384622
:100E300000F002F8FBE7000080B5C046C046024A59
:100E400011001820ABBEFBE72600020000000000E6
:100E5000000000000000000009024300020100C081
:100E60000009040000010202000005240010010432
:100E70002402000524060001052401000107058362
:100E8000030800FF09040100020A000000070581B1
:100E900002400000070502024000000000C20100FD
:0C0EA0000000080000010000000000003D
:0400000500000DFDED
:00000001FF
