S0170000437562657361744672656552544F532E737265637C
S113000000220020452E0000C92E0000C92E000049
S113001000000000000000000000000000000000DC
S11300200000000000000000000000005D1E000051
S11300300000000000000000791E0000BD1E00004A
S1130040C92E0000C92E0000C92E0000C92E0000D0
S1130050C92E0000C92E0000C92E0000C92E0000C0
S1130060C92E0000B9110000CD110000E1110000FB
S1130070F5110000091200001D120000C92E000035
S1130080C92E0000C92E0000C92E0000C92E000090
S1130090C92E0000C92E0000C92E0000C92E000080
S11300A0C92E0000C92E0000C92E0000C92E000070
S11300B010B5064C2378002B07D1054B002B02D03A
S11300C0044800E000BF0123237010BD7800002025
S11300D0000000005C78000008B5084B002B03D03A
S11300E00748084900E000BF07480368002B00D117
S11300F008BD064B002BFBD09847F9E70000000031
S11301005C7800007C0000205C78000000000000A7
S113011080B582B000AF0F4B1B68002B12D1EFF3F8
S113012010837B607B68002B09D172B6BFF35F8FAD
S1130130094B00221A70094B01221A7002E0074B86
S113014000221A70034B1B685A1C024B1A60BD46EE
S113015002B080BD94000020000000209800002020
S113016080B500AF0A4B1B685A1E094B1A60084B36
S11301701B68002B0AD1074B1B78DBB2002B05D080
S1130180054B01221A70BFF35F8F62B6BD4680BD76
S113019094000020980000200000002080B582B068
S11301A000AF78607B6800221A70BD4602B080BD43
S11301B080B582B000AF021C3960FB1D1A70FB1DB4
S11301C01B78012B0AD0022B0FD0002B14D10E4B1D
S11301D00D4A91693A680A439A610FE00A4B0A4A48
S11301E0D1693A680A43DA6108E0074B064A116AA2
S11301F03A680A431A6201E0172300E00023181C3E
S1130200BD4602B080BDC0460004004080B582B047
S113021000AF78607B6880221A707B6800225A7075
S11302207B6801229A707B680022DA70BD4602B0B6
S113023080BDC04680B500AF054B9B78DBB21A1C6D
S1130240022313405A1E9341DBB2181CBD4680BDE5
S11302500020004180B584B000AF78607B681B68E3
S1130260FB60FB68DB69072213405A1E9341DBB233
S1130270181CBD4604B080BD80B582B000AF786064
S1130280C0467B68181C034B9847031EF9D1BD4632
S113029002B080BD5502000090B58DB000AF78600B
S11302A039602723FB1800221A707B681B68BB6126
S11302B07B681B687B611323FC187B69181C854BC6
S11302C09847031C23700823FB18181C824B98477B
S11302D03B68DB693B623B681B6AFB613B6A002B42
S11302E006D17B69181C00217C4B9847031C3B6298
S11302F03B6ADAB20823FB181A700823FB1802229F
S11303005A703B6A1B0CDAB20823FB18101C191C28
S1130310734B9847FB69002B06D17B69181C01219C
S11303206E4B9847031CFB61FB69DAB20823FB1888
S11303301A700823FB1802225A70FB691B0CDAB2EC
S11303400823FB18101C191C654B98473B689A8AB4
S11303507B68DA803B68DA8A7B681A813B681B7E9B
S1130360002B03D15F4B9847031E02D08023FB620E
S113037001E00023FB623B681B69002B04D03B684F
S11303801B69FA6A1343FB623B689B68FA6A13436E
S1130390FB623B6824229B5C002B04D0FB6A802216
S11303A0D2051343FB623B689B6A002B04D03B6875
S11303B09B6AFA6A1343FB623B682C229B5C002B0A
S11303C004D0FB6A802212051343FB623B682D2292
S11303D09B5C002B04D0FB6A802212041343FB6253
S11303E03B682E229B5C002B04D0FB6A8022D20344
S11303F01343FB62BB691A68FB6A1A43BB691A6040
S1130400BB69802252005A601323FB181B781433F3
S1130410DBB2181C344B9847011C3B681B68FA225A
S1130420D2005343CB18591E3B681B68FA22D200F2
S11304305A432E4B081C111C9847031C053BFB60B8
S1130440FB68FF2B02DCFB68002B04DA2723FB1874
S113045040221A7025E01323FB181B781433DBB2F7
S1130460181C214B9847011C3B685B68FA22D20098
S11304705343CB18591E3B685B68FA22D2005A4397
S11304801A4B081C111C9847031C013BBB62BB6A36
S1130490FF2B02DCBB6A002B03DA2723FB18402264
S11304A01A702723FB181B78402B0BD0FB68FF2204
S11304B01A40BB6A1B04191CFF231B040B401A437C
S11304C0BB69DA602723FB181B78181CBD460DB0E6
S11304D090BDC046991000000D020000DD0E000022
S11304E0C52D000035020000FD2B0000ED3D00008D
S11304F080B58AB000AFF860B9607A60FB68BA680A
S11305001A60FB681B687B62FB681B68181C254B20
S11305109847031C3B623B6A0233FB613B6A14331A
S1130520BB61FB6901229A40131C0220191C1E4B5B
S113053098471423FB18181C1C4B98477B681A7B9C
S11305401423FB181A70BB69DAB21423FB18101CAD
S1130550191C174B9847BB69DBB2181C154B9847FD
S11305607B681B7B181C0021134B98477B6A1B6814
S11305700222134001D01C2310E07B6A1B68012275
S1130580134001D0052309E07B6A14221A60FA683B
S11305907B68101C191C094B9847031C181CBD468A
S11305A00AB080BD99100000B10100009D01000057
S11305B0D92A00001D2B0000510E000099020000F2
S11305C080B584B000AF78607B681B68FB60FB6813
S11305D01B7EDBB21A1C022313400BD0FB680222E1
S11305E01A76FB685B8B9BB21A1C0223134011D052
S11305F0412310E0FB685B8B9BB21A1C042313405D
S113060008D0FB685B68C02292021A43FB685A60F8
S1130610182300E00023181CBD4604B080BDC0466A
S113062080B584B000AF78607B681B68BB600E2324
S1130630FB1800221A800FE00E23FB180E22BA18B2
S1130640128801321A807B681B890E22BA1812881C
S11306509A4201D312230EE0BB681B7EDBB21A1C44
S11306600123134006D1BB681B7EDBB21A1C022394
S11306701340E1D00023181CBD4604B080BDC04621
S113068090B585B000AF78600A1CFB1C1A707B68BB
S11306901B68FB60FB685B688022D2021A43FB681C
S11306A05A60FB1C1A78FB685A620B23FC187B689F
S11306B0181C074B9847031C2370FB6801221A7609
S11306C00B23FB181B78181CBD4605B090BDC04613
S11306D02106000090B587B000AF786039607B6870
S11306E01B68FB601423FB183A6852881A80122393
S11306F0FB1800221A80FB681B68DB0E1A1C0123FE
S11307001340DBB21A1C0B23FB18511E8A411A70CA
S11307103B685B7A002B06D03B689B7A7A68101C96
S1130720191C7A4B9847FB685B68794A1A40FB6846
S11307305A603B681B7A002B42D03B681B885A00E6
S11307403B685B7A9B0313431A1C80231B021A43E6
S1130750FB685A621723FC187B68181C6D4B98477A
S1130760031C2370FB685B68694A1A40FB685A6083
S11307701723FB181B78002B07D11723FC187B6861
S1130780181C654B9847031C23701723FB181B7810
S1130790002B11D13B681B881B0A9BB278221343A0
S11307A09BB25A003B685B7A9B03134301221343B9
S11307B01A1CFB685A620FE01723FB181B78A0E091
S11307C03B681B885B0001221A433B685B7A9B03EE
S11307D013431A1CFB685A621723FC187B68181C05
S11307E04C4B9847031C2370FB685B68484A1A40CB
S11307F0FB685A601723FB181B78002B07D11723BB
S1130800FC187B68181C444B9847031C237017235F
S1130810FB181B78002B00D070E048E0FB685B8B72
S11308209BB21A1C2023134001D1412369E00B23FE
S1130830FB181B7801225340DBB2002B04D0142395
S1130840FB181B88002B09D00B23FB181B78002BEB
S11308500CD01423FB181B88012B07D1FB685B68A1
S11308608022D2021A43FB685A601AE07B68181C83
S11308702A4B98473B685A681223FB181B8812219D
S11308807918581C0880D318FA682821525CD2B20F
S11308901A701723FC187B68181C1E4B9847031CFE
S11308A023701723FB181B78002B00D008E01423B7
S11308B0FB181B881422BA18591E1180002BADD1C5
S11308C07B689B7A002B0AD07B68181C134B9847D3
S11308D0FB685B68C02292021A43FB685A607B681B
S11308E0181C0E4B98473B685A681223FB181B8848
S11308F0D318FA682821525CD2B21A701723FB1855
S11309001B78181CBD4607B090BDC0468106000088
S1130910FFFFFBFF21060000C10500007902000073
S113092080B582B000AF786039607B6801229A722A
S11309307A683B68101C191C034B9847031C181C4D
S1130940BD4602B080BDC046D506000090B587B054
S113095000AF786039607B681B68FB601423FB1868
S11309603A6852881A807B68181C514B98473B6838
S11309705B7A002B06D03B689B7A7A68101C191CA2
S11309804C4B9847FB685B684B4A1A40FB685A60BB
S11309903B681B7A002B0DD03B681B885A003B68D0
S11309A05B7A9B0313431A1C80231B021A43FB68C4
S11309B05A6209E03B681B885A003B685B7A9B03D8
S11309C013431A1CFB685A621723FC187B68181C13
S11309D03A4B9847031C23701723FB181B78002BF2
S11309E007D11723FC187B68181C354B9847031C48
S11309F023701723FB181B78002B51D11223FB18EB
S1130A0000221A8034E0FB685B8B9BB21A1C202303
S1130A10134001D1412346E07B68181C244B9847BE
S1130A203B685A681223FB181B8812217918581C3A
S1130A300880D3181978FB68282299541723FC18C6
S1130A407B68181C1D4B9847031C23701723FB1845
S1130A501B78002B00D014E0FB685B8B9BB21A1C44
S1130A600423134004D01723FB181E221A7008E035
S1130A701423FB181B881422BA18591E1180002B4A
S1130A80C1D17B689B7A002B0AD07B68181C084B69
S1130A909847FB685B68C02292021A43FB685A605D
S1130AA01723FB181B78181CBD4607B090BDC04621
S1130AB07902000081060000FFFFFBFF2106000011
S1130AC0C105000080B582B000AF786039607B68F2
S1130AD001229A727A683B68101C191C034B9847D0
S1130AE0031C181CBD4602B080BDC0464D09000061
S1130AF080B582B000AF78607B6800221A70BD4672
S1130B0002B080BDF0B58DB000AFB860F9603A6056
S1130B107B60002300243B627C6200230024BB61D1
S1130B20FC613F23FB6253E0FB6A203B002B04DBA8
S1130B3001229A40131C7B610BE0FB6A2022D31A2A
S1130B400122DA40131C0021FA6A91400A1C134363
S1130B507B610122FB6A9A40131C3B61BB69FC69FF
S1130B60DB186441BB61FC61BB683A691A40151C1F
S1130B70FB687A691A40161C2B1C334307D0BB69E7
S1130B8001221343BB61FB6900221343FB617A68B2
S1130B90FB699A4219D87A68FB699A4203D13A6888
S1130BA0BB699A4211D8B969FA693B687C68C91A69
S1130BB0A2410B1C141CBB61FC613A6A3B691343E0
S1130BC03B627A6A7B6913437B62FB6A013BFB628B
S1130BD0FB6A002BA8DA3B6A7C6A181C211CBD4600
S1130BE00DB0F0BD80B586B000AFF860B9607A6032
S1130BF01623FB1800221A80BB683B61BB685A08A5
S1130C00FB689A4201D2402326E0BB685B083B6143
S1130C100AE03A69FB68D31A3B611623FB181A8869
S1130C201623FB1801321A803A69FB689A42F0D203
S1130C301623FB181622BA181288013A1A801623B2
S1130C40FB181B88FF2B01D9402305E07B68162283
S1130C50BA1812881A800023181CBD4606B080BD3D
S1130C60F0B59DB000AFF863B9637A633322BA1864
S1130C70137000230024BB65FC65002300243B653E
S1130C807C6500230024BB66FC6600233B66582376
S1130C9030229446BC4463441A78FB6B5A43BB6BC2
S1130CA09A4201D94023C9E03323FB181B78002B57
S1130CB03FD1582330229446BC4463441B78DBB2B2
S1130CC03B6100237B61FB6BBB600023FB605D4CDD
S1130CD038697969BA68FB68A047031C0C1C1B00BF
S1130CE0FB640023BB64BB6B3B6000237B60BB6C79
S1130CF0FC6C181C211C3A687B68534CA047031CED
S1130D000C1CBB65FC6500210122BB6DFC6DC91A7E
S1130D10A2410B1C141C3B657C653B6D1B0C7A6D5E
S1130D2016041E433B6D1D043300BB660023FB66A3
S1130D307EE03323FB181B78012B00D078E03723A7
S1130D4030229446BC44634400221A7051E0BB6BC9
S1130D50BB620023FB62B86AF96A031C5B0F0A1CBE
S1130D60D2001343FB64031CDB00BB64FB6B3B62DC
S1130D7000237B62582330229446BC4463441B788E
S1130D80DBB2BB610023FB612E4C386A796ABA6915
S1130D90FB69A047031C0C1C3B647C64B96CFA6CB3
S1130DA03B6C7C6C081C111C1A1C231C264CA04791
S1130DB0031C0C1C3B66372330229446BC4463441A
S1130DC01B783A6ED31A3B663B6EDB083B663B6E80
S1130DD01E4A934200D814E0372330229446BC4480
S1130DE063441A78372330218C46BC44634401326F
S1130DF01A70372330229446BC4463441B78072B73
S1130E00A5D9372330229446BC4463441B78082B6D
S1130E1001D1402312E0372330229446BC4463447A
S1130E201B785B031A1C3B6E1343BB660023FB66F3
S1130E30BB6EFC6E9AB27B6B1A800023181CBD46F5
S1130E401DB0F0BD01400000050B0000FF1F0000B5
S1130E5080B584B000AF021CFB1D1A70BB1D0A1CB8
S1130E601A701A4B1B7801225340DBB2002B03D1BA
S1130E70BB1D1B78002B1BD00C23FB18181C144B18
S1130E8098470C23FB18FA1D12781A700C23FB18D0
S1130E901320191C0F4B984713200F4B98470B4BEB
S1130EA0FA1D12785A70094B01221A70002308E0C7
S1130EB0064B5B78FA1D12789A4201D1002300E0B8
S1130EC01D23181CBD4604B080BDC0469C000020F4
S1130ED0F10A0000D92A00001D2B000080B582B061
S1130EE000AF78600A1CFB1C1A707B684D4A934261
S1130EF03FD04C4A934206D84B4A93420FD04B4AB8
S1130F00934221D089E04A4A934200D15BE0494AA6
S1130F10934200D16CE0484A93423FD07DE0FB1CF1
S1130F201B78012B0AD002DC002B05D075E0022BC4
S1130F3006D0032B06D070E0404B6FE0404B6DE0D1
S1130F40404B6BE0404B69E0FB1C1B78012B0AD043
S1130F5002DC002B05D060E0022B06D0032B06D068
S1130F605BE003235AE0394B58E0394B56E0394BE8
S1130F7054E0FB1C1B78012B0AD002DC002B05D0AB
S1130F804BE0022B06D0032B06D046E0324B45E063
S1130F90324B43E0324B41E0324B3FE0FB1C1B78C9
S1130FA0012B0AD002DC002B05D036E0022B06D040
S1130FB0032B06D031E02C4B30E02C4B2EE02C4B95
S1130FC02CE02C4B2AE0FB1C1B78012B0AD002DC02
S1130FD0002B05D021E0022B06D0032B06D01CE009
S1130FE0254B1BE0254B19E0254B17E0254B15E05D
S1130FF0FB1C1B78012B0AD002DC002B05D00CE073
S1131000022B06D0032B06D007E01F4B06E01F4B34
S113101004E01F4B02E01F4B00E00023181CBD46F8
S113102002B080BD0010004200080042000C0042E3
S113103000180042001C0042001400420300040097
S1131040030005000300060003000700030001007D
S113105003001E0003001F00030008000300090032
S113106003000A0003000B0003001000030011003A
S1131070030012000300130003000C0003000D0022
S113108003000E0003000F00030016000300170006
S1131090030018000300190090B58BB000AF78600E
S11310A00C23FB180E4A13CA13C313CA13C3002319
S11310B07B620DE07B680C22BA18796A89008A5831
S11310C0934202D17B6ADBB206E07B6A01337B6226
S11310D07B6A052BEED90023181CBD460BB090BDCE
S11310E01075000080B582B000AF021CFB1D1A70A1
S11310F0BD4602B080BDC04680B584B000AF021CBE
S11311003960FB1D1A70134B1B7801225340DBB26C
S1131110002B15D00023FB600CE00F4BFA68920003
S11311200E49D1500E4BFA6892000021D150FB6851
S11311300133FB60FB68052BEFD9064B01221A70C3
S1131140FB1D1A78044B92003968D150BD4604B097
S113115080BDC0469E000020A0000020E5100000D5
S1131160D401002090B585B000AF78600823FA1848
S11311700E4B111C1A1C0623081C111C1A1C0C4BA8
S113118098470F23FC187B68181C0A4B9847031CCC
S113119023700F23FB181B780822BA18D35CDBB228
S11311A05BB2181CBD4605B090BDC0462875000052
S11311B0E16400009910000080B500AF024B1B6889
S11311C000209847BD4680BDA000002080B500AF38
S11311D0024B5B6801209847BD4680BDA0000020FB
S11311E080B500AF024B9B6802209847BD4680BD86
S11311F0A000002080B500AF024BDB6803209847B5
S1131200BD4680BDA000002080B500AF024B1B6925
S113121004209847BD4680BDA000002080B500AFE3
S1131220024B5B6905209847BD4680BDA0000020A5
S113123080B582B000AF78607B6800221A70BD462A
S113124002B080BD80B582B000AF021C3960FB1DC6
S11312501A70FB1D1B78012B0AD0022B0FD0002B18
S113126014D10E4B0D4A91693A680A439A610FE012
S11312700A4B0A4AD1693A680A43DA6108E0074B23
S1131280064A116A3A680A431A6201E0172300E029
S11312900023181CBD4602B080BDC04600040040B7
S11312A080B582B000AF78607B6880221A707B685A
S11312B000225A707B6801229A707B680022DA70DF
S11312C0BD4602B080BDC04680B500AF054B9B78DB
S11312D0DBB21A1C022313405A1E9341DBB2181CC2
S11312E0BD4680BD0020004180B584B000AF786069
S11312F07B681B68FB60FB68DB695A1E9341DBB2A9
S1131300181CBD4604B080BD80B582B000AF7860C3
S1131310C0467B68181C034B9847031EF9D1BD4691
S113132002B080BDE9120000F0B58DB002AF786064
S113133039607B681B68BB617B681B68181CAE4BFB
S11313409847031C7B617B6914333B6100237B62F8
S113135000233B620E23FB1800221A801F23FB1874
S113136000221A701E23FB1810221A703B681B8A75
S11313708022D20193421CD08022D201934206DC07
S1131380002B0DD080229201934224D035E0C0225C
S1131390D201934228D080221202934212D02CE030
S11313A01F23FB1800221A701E23FB1810221A7028
S11313B023E01F23FB1800221A701E23FB180822A7
S11313C01A701AE01F23FB1800221A701E23FB1840
S11313D003221A7011E01F23FB1801221A701E2326
S11313E0FB1810221A7008E01F23FB1801221A7040
S11313F01E23FB1808221A70C0463B681A683B6813
S1131400DB681A433B685B6913433A68128A1343E7
S11314103A68127E120213433A682621525C52073C
S113142013437B621D23FB1800221A703B685B6820
S1131430002B20D080225205934250D13B682722B2
S11314409B5C01225340DBB2002B13D03B681D6A26
S11314503B69DBB2181C694B9847021C1D23FC181E
S11314600E23FB18281C111C1A1C654B9847031CDF
S1131470237034E033E03B6827229B5C002B14D0BC
S11314803B68186A3B68996A1D23FC180E23FA18F6
S11314901F23FB181D781E23FB181B7800932B1C9D
S11314A0584DA847031C237018E03B681E6A3B692B
S11314B0DBB2181C514B9847011C1D23FC180E234A
S11314C0FA181F23FB181D781E23FB181B780093A2
S11314D0301C2B1C4B4DA847031C2370C0461D23F6
S11314E0FB181B78002B03D01D23FB181B787EE010
S11314F03B685B7E002B03D03B689A7EBB699A7382
S11315007B68181C404B98470E23FB181A88BB694C
S11315109A813B685B687A6A13437B623B68272243
S11315209B5C01225340DBB2002B03D07B6A042274
S113153013437B623B689A7A3B68DB7A1343DBB2E2
S11315401A1C3B685B7E9B0213433A68127F52026B
S113155013433A68527F120213433A682421525CBF
S1131560520413433A682521525C120413433B622C
S11315703B681B89FF2B15D03B68DB7E002B05D015
S11315807B6AA022D20413437B6204E07B6A80223C
S1131590520413437B623B681B891A1C3B6A134346
S11315A03B6208E03B68DB7E002B04D07B6A802230
S11315B0D20413437B623B682C229B5C002B03D137
S11315C0124B9847031E03D07B6A802213437B622D
S11315D07B68181C0C4B9847BB693A6A5A607B6855
S11315E0181C094B9847BB697A6A1A600023181CB7
S11315F0BD460BB0F0BDC04699100000FD2B0000A5
S1131600E50B0000610C000009130000C912000082
S113161090B593B000AFF860B9607A603B23FB18D3
S113162000221A70FB68BA681A60FB681B687B6347
S1131630FB681B68181C854B9847031C3B633B6B7A
S11316400233FB623B6B1433BB627B6B1B6801226E
S1131650134001D00523F5E07B6B1B680222134085
S113166001D01C23EEE0FB6A01229A40131C0220E5
S1131670191C774B98472423FB18181C754B984763
S11316807B682D229A5C2423FB181A70BB6ADAB299
S11316902423FB18101C191C6F4B9847BB6ADBB240
S11316A0181C6E4B98477B682D229B5C181C0021EC
S11316B06B4B98477B68DA7AFB685A717B68242203
S11316C09A5CFB689A717B6825229A5CFB68DA71E4
S11316D07B68DA7EFB681A727B681A7FFB685A7231
S11316E03B23FC18FA687B68101C191C5D4B984757
S11316F0031C23703B23FB181B78002B03D03B23D4
S1131700FB181B789EE02023FB18181C564B9847A7
S11317102023FB1800225A702023FB1800229A7001
S11317207B681A6B1023FB181A607B685A6B1023B2
S1131730FB185A607B689A6B1023FB189A607B68CD
S1131740DA6B1023FB18DA604723FB1800221A70A7
S11317502CE04723FB181A781023FB189200D35867
S11317603B643B6C002B09D1BA684723FB181B78F8
S1131770101C191C3D4B9847031C3B643B6C013304
S11317800DD03B6CDAB22023FB181A703B6C1B0C97
S1131790DAB22023FB18101C191C354B9847472339
S11317A0FB181A784723FB1801321A704723FB18D9
S11317B01B78032BCDD90023FB6309E0FA68FB6B8C
S11317C002339B00D31800225A60FB6B0133FB6386
S11317D0FB6B052BF2D9FB6800229A62FB6800229E
S11317E05A62FB680022DA85FB6800229A85FB684E
S11317F0302200219954FB68312200219954FB685E
S1131800322200219954FB68332200219954FB6849
S11318101B682722BC18181C0C4B9847031C237008
S11318202723FB181A78134B101C191C124B9847CA
S11318302723FB181A78114B9200F968D1503B23E7
S1131840FB181B78181CBD4613B090BD99100000FE
S11318504512000031120000D92A00001D2B00009F
S1131860510E000029130000A1120000DD0E00003B
S1131870C52D0000251A0000F9100000D401002035
S113188080B584B000AF78600A1CBB1C1A807B68EA
S11318901B68FB607B68DB7901225340DBB2002BC1
S11318A001D01C2317E07B68DB8D9BB2002B01D099
S11318B0052310E07B68181C094B9847FB68BA1C89
S11318C012881A85C046FB681B7EDBB21A1C0223F1
S11318D01340F8D00023181CBD4604B080BDC04698
S11318E00913000080B584B000AF786039607B686C
S11318F01B68FB607B689B7901225340DBB2002BA1
S113190001D01C2368E07B689B8D9BB2002B01D027
S1131910052361E0FB681B7EDBB21A1C0423134021
S113192001D1052358E07B68181C2D4B9847FB68B0
S11319305B8B9BB2DAB20B23FB183F210A401A706F
S11319400B23FB181B78002B40D00B23FB181B78B0
S11319500222134004D0FB6802225A831A233BE07C
S11319600B23FB181B780422134004D0FB680422C9
S11319705A831E2330E00B23FB181B7801221340EB
S113198004D0FB6801225A83132325E00B23FB18A0
S11319901B781022134009D0FB685B8B9BB210228A
S11319A013439AB2FB685A83422315E00B23FB18B6
S11319B01B782022134009D0FB685B8B9BB220224A
S11319C013439AB2FB685A83412305E0FB681B8DDD
S11319D09AB23B681A800023181CBD4604B080BD2F
S11319E00913000080B584B000AF78607B681B6881
S11319F0FB60FB68DB695A1E9341DBB2181CBD46D1
S1131A0004B080BD80B582B000AF7860C0467B680A
S1131A10181C034B9847031EF9D1BD4602B080BD84
S1131A20E519000080B588B000AF021CFB1D1A70D8
S1131A30FB1D1A78B04B9200D358BB61BB691B687D
S1131A407B61BB69181CAD4B98477B691B7EDAB27E
S1131A501223FB181A807B699B7DDBB29AB2122396
S1131A60FB181221791809880A401A80BB693022B0
S1131A709B5CBA693121525C1340DAB21023FB1823
S1131A801A801223FB181B880122134044D0BB691F
S1131A90DB8D9BB2002B3CD0BB699B6A1B78DAB20E
S1131AA01C23FB181A80BB699B6A5A1CBB699A6287
S1131AB0BB695B79012B12D1BB699B6A1B78DBB2D2
S1131AC01B029AB21C23FB181B8813439AB21C23D3
S1131AD0FB181A80BB699B6A5A1CBB699A621C2357
S1131AE0FB181B88DB05DB0D9AB27B691A85BB6981
S1131AF0DB8D9BB2013B9BB2BA69191CD185002BCB
S1131B0006D17B6901221A757B6902229A7503E06A
S1131B1002E07B6901221A751223FB181B8802223A
S1131B20134011D07B6902221A75BB69332200214C
S1131B3099541023FB181B880122134004D0BB695D
S1131B40DB68BA69101C98471223FB181B8804220F
S1131B50134000D1D7E0BB699B8D9BB2002B00D111
S1131B60CEE07B695B8B9BB2DAB21F23FB183F216B
S1131B700A401A701F23FB181B780822134007D051
S1131B801F23FB181F22BA18127808218A431A70DF
S1131B901F23FB181B78002B00D169E01F23FB18BF
S1131BA01B78022213400CD0BB6932221A219954AB
S1131BB07B695B8B9BB2022213439AB27B695A8383
S1131BC04AE01F23FB181B78042213400CD0BB6986
S1131BD032221E2199547B695B8B9BB204221343EE
S1131BE09AB27B695A8337E01F23FB181B780122C2
S1131BF013400CD0BB693222132199547B695B8B4F
S1131C009BB2012213439AB27B695A8324E01F23B7
S1131C10FB181B78102213400CD0BB6932224221DE
S1131C2099547B695B8B9BB2102213439AB27B69F4
S1131C305A8311E01F23FB181B78202213400BD07A
S1131C40BB693222412199547B695B8B9BB2202270
S1131C5013439AB27B695A831023FB181B8804220E
S1131C60134050D0BB695B69BA69101C98474AE0BD
S1131C707B691B8D9AB20E23FB18D205D20D1A80F4
S1131C80BB695B6A0E22BA181288D2B21A70BB6999
S1131C905B6A5A1CBB695A62BB695B79012B0DD123
S1131CA0BB695B6A0E22BA181288120A92B2D2B2C7
S1131CB01A70BB695B6A5A1CBB695A62BB699B8D0B
S1131CC09BB2013B9BB2BA69191C9185002B12D1BE
S1131CD07B6904221A75BB693222002199541023AE
S1131CE0FB181B880222134005D0BB691B69BA6923
S1131CF0101C984707E006E0D4010020051A0000F4
S1131D007B6904221A751223FB181B8810221340C6
S1131D1010D07B6910221A757B6910221A76102361
S1131D20FB181B881022134004D0BB69DB69BA6915
S1131D30101C98471223FB181B882022134010D034
S1131D407B6920221A757B6920221A761023FB18DE
S1131D501B880822134004D0BB699B69BA69101C14
S1131D6098471223FB181B880822134010D07B6964
S1131D7008221A757B6908221A761023FB181B881F
S1131D802022134004D0BB691B6ABA69101C98470F
S1131D90BD4608B080BDC04680B586B000AFF860CF
S1131DA0B9607A6000237B61FB68002B02D00123B9
S1131DB05B4215E010E00C4B1A680C4B1968BB68C9
S1131DC0081C191C9047BB680133BB607B69013355
S1131DD07B617B68013B7B607B68002BEBDC7B6970
S1131DE0181CBD4606B080BDEC010020F4010020A3
S1131DF080B586B000AFF860B9607A6000237B617B
S1131E00FB68012B08D0FB68022B05D0FB68032B71
S1131E1002D001235B4219E014E00E4B1A680E4B0A
S1131E201868BB68591CB9601B78191C9047031EBD
S1131E3002DA01235B4209E07B6901337B617B6841
S1131E40013B7B607B68002BE7D17B69181CBD4696
S1131E5006B080BDF0010020F401002080B500AF81
S1131E60BD4680BDEFF3108072B670470023181C86
S1131E7080F310887047C046EFF309800E4B1A6850
S1131E8020381060F0C044464D4656465F46F0C0C8
S1131E9008B572B600F036F962B60CBC1168086871
S1131EA01030F0C8A046A946B246BB4680F3098864
S1131EB02038F0C81847C046B800002080B582B06A
S1131EC000AF094B9847031C7B60084B9847031EDF
S1131ED003D0074B802252051A607B68181C054BFF
S1131EE09847BD4602B080BD651E00008D1F0000EE
S1131EF004ED00E0711E000080B584B000AF78608E
S1131F0039607B685B68FB603B68FA685A60FB6811
S1131F109A683B689A60FB689B683A685A60FB68F9
S1131F203A689A603B687A681A617B681B685A1C35
S1131F307B681A60BD4604B080BDC04680B584B0DD
S1131F4000AF78607B681B69FB607B685B687A68BC
S1131F5092689A607B689B687A6852685A60FB68EA
S1131F605A687B689A4203D17B689A68FB685A6016
S1131F707B6800221A61FB681B685A1EFB681A60A2
S1131F80FB681B68181CBD4604B080BD80B586B0D4
S1131F9000AF00237B614D4B1B68002B00D084E015
S1131FA04B4B1B685A1C4A4B1A60494B1B683B61DC
S1131FB03B69002B17D1474B1B681B68002B01D0D2
S1131FC072B6FEE7434B1B68FB60434B1A68414BF8
S1131FD01A60414BFA681A60404B1B685A1C3F4B0D
S1131FE01A603F4B98473F4B1B683A699A424ED35D
S1131FF0384B1B681B68002B01D1012300E0002330
S1132000002B04D0374B012252421A603FE0314B7F
S11320101B68DB68DB68BB60BB685B687B603A6934
S11320207B689A4203D22F4B7A681A602FE0BB6810
S11320300433181C2C4B9847BB689B6A002B04D0B4
S1132040BB681833181C284B9847BB68DA6A274BBF
S11320501B689A4203D9BB68DA6A244B1A60BB68CE
S1132060DA6A131C9B009B189B00214A9A18BB68D0
S11320700433101C191C1F4B9847BB68DA6A1E4BAB
S11320801B68DB6A9A4201D301237B61B0E71A4BD8
S11320901B68DA6A1649131C9B009B189B005B584B
S11320A0012B07D901237B6104E0144B1B685A1CE4
S11320B0124B1A60124B1B68002B01D001237B6169
S11320C07B69181CBD4606B080BDC0463C0100209B
S11320D028010020200100202401002038010020D4
S11320E0A5210000040000203D1F00002C01002059
S11320F0BC000020F91E0000B800002030010020C0
S11321003401002080B582B000AF214B1B68002B46
S113211003D0204B01221A6036E01E4B00221A60C5
S11321200AE01D4B1B68002B01D172B6FEE71A4B67
S11321301B685A1E184B1A60174B1A681749131C50
S11321409B009B189B005B58002BEAD0124B1A682B
S1132150131C9B009B189B00104A9B187B607B6898
S11321605B685A687B685A607B685A687B68083386
S11321709A4204D17B685B685A687B685A607B68C2
S11321805B68DA68064B1A60BD4602B080BDC04683
S11321903C010020340100202C010020BC00002060
S11321A0B800002080B582B000AF0D4B1B681B68DF
S11321B0002B01D1012300E00023002B04D0094BA4
S11321C0012252421A6008E0054B1B68DB68DB6899
S11321D07B607B685A68034B1A60BD4602B080BDC1
S11321E0200100200400002080B584B000AF021C50
S11321F0FB1D1A700F23FB18FA1D1278D2091A70EE
S11322000E23FB18FA1D127852091A700D4BBB608D
S11322100F23FB181B78002B0FD10F23FB181B78FF
S11322209B0010229446BC446344083B1A680E2366
S1132230FB181B78DB01D31800E00023181CBD46F3
S113224004B080BD0044004180B582B000AF021CE0
S1132250FB1D1A70FB1D1B78181C034B9847031CAD
S1132260181CBD4602B080BDE921000080B582B0D3
S113227000AF78607B6800221A707B6801225A7074
S11322807B6800229A70BD4602B080BD80B584B0E0
S113229000AF021CFB1D1A70BB1D0A1C1A70FB1D2B
S11322A01B78181C0C4B9847031CFB60FB1D1B7808
S11322B01F22134001229A40131CBB60BB1D1B78D4
S11322C0002B03D0FB68BA689A6102E0FB68BA6825
S11322D05A61BD4604B080BD4922000080B582B079
S11322E000AF3B1D181C0E4B98473B1D01221A7072
S11322F03B1D3E20191C0B4B98473E2001210A4BE5
S113230098473B1D00221A703B1D01225A703B1D49
S11323100F20191C034B9847BD4602B080BDC04630
S11323206D220000552300008D22000080B582B08C
S113233000AF78607B6880221A707B6800225A7034
S11323407B6801229A707B680022DA70BD4602B075
S113235080BDC04680B584B000AF021C3960FB1D4F
S11323601A700C23FB18181C0F4B98470C23FB18EE
S113237080221A703B681A780C23FB185A703B6849
S11323805A780C23FB189A703B689A780C23FB1834
S1132390DA70FB1D1A780C23FB18101C191C034B54
S11323A09847BD4604B080BD2D230000C52D000014
S11323B080B582B000AF78607B6801225A607B6888
S11323C000225A707B6806221A707B6800221A72F7
S11323D07B6800225A72BD4602B080BD80B582B0CF
S11323E000AF78607B6803221A707B6800225A7001
S11323F07B6801229A70BD4602B080BD80B582B070
S113240000AF021CFB1D1A70034AFB1D1B781372DC
S1132410BD4602B080BDC0460004004080B582B015
S113242000AF021CFB1D1A70BB1D0A1C1A70FB1D99
S11324301B78012B08D0022B0BD0002B0ED10B4A9A
S1132440BB1D1B7853720BE0084ABB1D1B789372AB
S113245006E0064ABB1D1B78D37201E0172300E097
S11324600023181CBD4602B080BDC04600040040D5
S113247080B582B000AF021CFB1D1A70084BFA1D18
S113248012780F210A40D2B20F210A405200596833
S11324901E2081430A435A60BD4602B080BDC04637
S11324A00040004180B500AFC046034BDB681022FA
S11324B01340FAD0BD4680BD0008004080B500AF8F
S11324C00C4A0D4B1B689BB280218B439BB29384B7
S11324D00A4B9847074A084B9B68D362054A064B48
S11324E05B689362034A044B1B689BB29384BD46AA
S11324F080BDC0460008004040010020A524000023
S113250080B582B000AF021CFB1D1A70FB1D1B7846
S1132510082B42D89A00234BD3181B689F46224BA2
S11325201B693BE0214B1B6A1B0A1A1C0323134043
S1132530DBB21A1C1E4BD34030E080231B022DE07B
S113254080231B022AE0184B5B6927E0164B1B68AB
S11325500222134001D1002320E0164B9847124B6E
S11325601B680422134009D00020134B9847021C17
S11325700D4B9B681B041B0C53430FE00F4B0DE0EA
S11325800A4A5023D35CDBB21A1C0423134001D142
S1132590002303E0044BDB6800E00023181CBD4665
S11325A002B080BD307500004001002000080040EA
S11325B000127A00A5240000FD2B0000006CDC0250
S11325C080B584B000AF78601A4B1B6AFB607B68EF
S11325D01B781A1C03231340DAB20D23FB180321C2
S11325E00A40101C1A7803218A43111C021C0A4356
S11325F01A707B689A780C23FB18D0011A787F2113
S11326000A40111C021C0A431A707B685A780C2376
S1132610FB1801210A4090011A7840218A43111CB9
S1132620021C0A431A70034BFA681A62BD4604B0CE
S113263080BDC0460008004080B582B000AF021CD7
S1132640FB1D1A70FB1D1B78082B3BD89A00214BED
S1132650D3181B689F46204B1F4A126A02210A4363
S11326601A62002331E01C4B1B4A926902210A437F
S11326709A6129E0184A184B1B8A9BB202210B432A
S11326809BB2138220E0144A134B9B8A9BB2022113
S11326900B439BB2938217E0104B1B6802221A4330
S11326A00E4B1A600E4B98470EE00B4A0A4944231E
S11326B0CB5CDBB202210B43D9B24423D15403E0F7
S11326C0002302E0172300E00023181CBD4602B0DB
S11326D080BDC04654750000000800404001002041
S11326E0BD24000080B59CB000AF244BC222D200B0
S11326F09A600020224B98476C23FB18181C214B2E
S113270098476C23FB1800221A706C23FB180122D3
S11327109A706C23FB1800225A706C23FB18181C47
S1132720194B98470620194B9847194B9847002096
S1132730184B984700200021174B9847012000218F
S1132740154B98473B1C181C144B98473B1C0622FE
S11327501A703B1C01225A603B1C00221A723B1C5B
S113276000225A723B1C0020191C0D4B9847002074
S11327700C4B9847BD461CB080BDC04600080040C5
S113278071240000DD230000C1250000392600006B
S113279049280000FD2300001D240000B12300008F
S11327A0792800009929000080B500AF064B5B78BA
S11327B0DBB2DBB25BB2002B01DA012300E00023C1
S11327C0181CBD4680BDC046000C004080B582B0D8
S11327D000AF021C3960FB1D1A70FB1D1B78012B16
S11327E00AD0022B0FD0002B14D10E4B0D4A916945
S11327F03A680A439A610FE00A4B0A4AD1693A6877
S11328000A43DA6108E0074B064A116A3A680A4348
S11328101A6201E0172300E00023181CBD4602B031
S113282080BDC0460004004080B500AF014B98470E
S1132830BD4680BD1101000080B500AF014B984733
S1132840BD4680BD6101000080B500AF00200821B5
S1132850074B9847074B01221A70C046054B1B785B
S1132860DBB21A1C01231340F8D1BD4680BDC0461B
S1132870CD270000000C004080B586B000AF021CDC
S11328803960FB1D1A70FB1D1B787B61FB1D1B78D7
S11328903B613B681B781B021A1C7B6913437B61F9
S11328A03B685B78002B04D07B698022D2021343FF
S11328B07B613B685B7A002B04D07B698022120326
S11328C013437B613B685B68012B2CD93B685A68D6
S11328D03B685B68013B13401AD10023FB60022371
S11328E0BB6005E0FB680133FB60BB685B00BB6059
S11328F03B685A68BB689A42F4D8FB681B023A6981
S113290013433B617B698022520313437B610AE0DA
S11329103B685B681B023A6913433B617B69802215
S1132920920213437B613B681B7A002B04D07B69C2
S11329308022920313437B61C046124B9847031EC7
S1132940FBD1114B9847114AFB1D1B781370C046ED
S11329500C4B9847031EFBD10D4B3A699A60C04655
S1132960084B9847031EFBD1094B094A5168802242
S1132970520211407A690A435A60064B9847BD4691
S113298006B080BDA927000029280000080C0040DB
S1132990000C00403928000080B582B000AF021C52
S11329A0FB1D1A70C0460D4B9847031EFBD10C4B00
S11329B098470C4AFB1D1B781370C046074B984779
S11329C0031EFBD1084B084A5268802149020A437E
S11329D05A60064B9847BD4602B080BDA927000047
S11329E029280000040C0040000C00403928000095
S11329F080B586B000AF021CFB1D1A70C0462E4B7A
S1132A009847031EFBD12D4B98472D4AFB1D1B787D
S1132A101370C046284B9847031EFBD1294B5B68B3
S1132A201B0A1A1C1F231340DBB2181C264B9847A1
S1132A30031C7B61224AFB1D1B781370214B5B68CE
S1132A401B0D1A1C01231340DAB21323FB181A704E
S1132A501E4AFB1D1B781370C046174B9847031E74
S1132A60FBD1184B9B681B0A1A1C00239A43131CA6
S1132A709BB2FB60164B98471323FB181B78002B63
S1132A8009D1FB68012B06D9124B7869F96898477C
S1132A90031C7B610AE01323FB181B78002B05D071
S1132AA0FB6801331A1C7B69D3407B617B69181C6A
S1132AB0BD4606B080BDC046A927000029280000F5
S1132AC0040C0040000C004001250000080C0040EC
S1132AD039280000ED3D000080B584B000AF021C31
S1132AE03960FB1D1A70FB1D1B78FB603B681B786B
S1132AF01B021A1CFB681343FB60FB1D1B78181C8C
S1132B00044B9847044BFA6892B25A80BD4604B00D
S1132B1080BDC046612B0000000C004080B582B02F
S1132B2000AF021CFB1D1A70094B9847094AFB1D94
S1132B301B7813700849084B5B889BB28022D20132
S1132B4013439BB24B80054B9847BD4602B080BDF2
S1132B5029280000020C0040000C00403928000025
S1132B6080B584B000AF021CFB1D1A701D4B984742
S1132B701D4AFB1D1B7813701C4B5B889BB21B0A00
S1132B801A1C0F231340DBB2FB60184B5A881849F8
S1132B900A405A80154A154B5B889BB215490B4075
S1132BA09BB25380C046114B5B889BB21A1C802396
S1132BB0DB011340F7D10D4BFA68D2B2111C0F227E
S1132BC00A40D2B2111C0F220A4010025A88084946
S1132BD00A40111C021C0A435A80074B9847BD4601
S1132BE004B080BD29280000020C0040000C004005
S1132BF0FFF0FFFFFFBFFFFF3928000080B584B05E
S1132C0000AF021CFB1D1A700E4B98470E4AFB1DA9
S1132C101B7813700D4B5B889BB21B0A1A1C0F2385
S1132C201340DAB20F23FB181A70094B98470F238D
S1132C30FB181B78181C074B9847031C181CBD462F
S1132C4004B080BD29280000020C0040000C0040A4
S1132C5039280000F129000080B584B000AF021CBF
S1132C60FB1D1A700F23FB18FA1D1278D2091A7073
S1132C700E23FB18FA1D127852091A700D4BBB6013
S1132C800F23FB181B78002B0FD10F23FB181B7885
S1132C909B0010229446BC446344083B1A680E23EC
S1132CA0FB181B78DB01D31800E00023181CBD4679
S1132CB004B080BD0044004180B588B000AFF86026
S1132CC0B9607A600023FB617B68DB7801225340A2
S1132CD0DBB2002B35D07B681B78802B0BD0FB69D3
S1132CE0802252021343FB617B681B781B061A1C6B
S1132CF0FB691343FB617B685B78002B03D07B6823
S1132D005B78022B10D1FB69802292021343FB6192
S1132D107B689B78002B04D0FB698022D20213438A
S1132D20FB61FB68BA685A607B685B78012B03D04F
S1132D307B685B78022B07D1FB69214A1340FB6156
S1132D4002E0FB68BA685A60BB681B041B0CBB61D9
S1132D50BB681B0C7B61BA69FB691343A022D205D3
S1132D601A43FB689A627A69FB691343D0221206FC
S1132D701A43FB689A627B68DB7801225340DBB21A
S1132D80002B1AD0FA698023DB0213400AD07B6837
S1132D909B78012B03D1FB68BA689A6102E0FB6857
S1132DA0BA685A617B685B78012B03D07B685B78D7
S1132DB0022B02D1FB68BA689A60BD4608B080BD98
S1132DC0FFFFFBFF80B584B000AF021C3960FB1D20
S1132DD01A70FB1D1B78181C0B4B9847031CFB60D7
S1132DE0FB1D1B781F22134001229A40131CBB6059
S1132DF0F968BA683B68081C111C1A1C034B9847F5
S1132E00BD4604B080BDC046592C0000B92C00005A
S1132E1080B500AFC046BD4680BDC04680B500AF9A
S1132E20044B9847044B9847044B9847044B9847E6
S1132E30BD4680BDE5260000DD220000112E000005
S1132E40112E000080B582B000AF164B7B60164B8C
S1132E503B607A683B689A420CD007E03B681A1DD5
S1132E603A607A68111D796012681A603A680F4BEB
S1132E709A42F3D30E4B3B6004E03B681A1D3A6060
S1132E8000221A603A680B4B9A42F6D30A4B7B60D5
S1132E900A4B7A687F218A439A60094B9847094B09
S1132EA09847FEE75C7800000000002078000020CE
S1132EB078000020FC0100200000000000ED00E08C
S1132EC0956400009937000080B500AFFEE7C04666
S1132ED080B584B000AF78600A4B1B68002B02D128
S1132EE0084B094A1A60074B1B68FB60054B1A68BC
S1132EF07B68D218034B1A60FB68181CBD4604B0EB
S1132F0080BDC046580100200022002080B582B058
S1132F1000AF786001235B42181CBD4602B080BD3F
S1132F2080B582B000AF786039603B68802292013E
S1132F305A600023181CBD4602B080BD80B582B023
S1132F4000AF78600123181CBD4602B080BDC046A6
S1132F5080B584B000AFF860B9607A600023181CB3
S1132F60BD4604B080BDC04690B587B000AF0C2309
S1132F70FB18094A13CA13C33B1C084A13CA13C3D8
S1132F800C23FB18181C064B98473B1C181C044BBD
S1132F909847BD4607B090BD787500008475000061
S1132FA03534000090B589B000AF78601423FB1865
S1132FB01E221A801423FB1806225A801423FB189D
S1132FC07A685A601423FB1800221A721423FB181F
S1132FD000225A721423FB1800229A720823FB1849
S1132FE0074A13CA13C30823FB18181C054B984738
S1132FF01423FB18181C044B9847BD4609B090BD18
S113300090750000353400005934000080B584B058
S113301000AF786039607B681B781B029AB27B68CA
S113302001331B789BB213439AB20E23FB181A8008
S11330307B6802331B781B029AB27B6803331B78CC
S11330409BB213439AB20C23FB181A807B68043397
S11330501B781B029AB27B6805331B789BB213431F
S11330609AB20A23FB181A800E23FB181A883B68AD
S11330701A803B6802330C22BA1812881A803B6803
S113308004330A22BA1812881A80BD4604B080BDDF
S1133090F0B587B000AF041C081C111CBB1D221C1A
S11330A01A803B1D021C1A80BB1C0A1C1A80BB1C04
S11330B000229A5E3F4B101C9847051C0E1CBB1D3A
S11330C000229A5E3B4B101C9847031C0C1C281CC6
S11330D0311C1A1C231C384CA0470A1C011C374BFA
S11330E0081C111C9847031C7B61354B3B61354B15
S11330F0786939699847031C7B61334B78690021EF
S11331009847031E14D0314B78699847021C0B1C56
S11331102F4C101C191C2F4A2F4BA047031C0C1CAE
S1133120191C221C254B081C111C9847031C7B618D
S1133130264B78699847021C0B1C284C101C191C40
S1133140244A254BA047031E14D0204B7869984786
S1133150021C0B1C224C101C191C1E4A1E4BA0479F
S1133160031C0C1C191C221C144B081C111C984712
S1133170031C7B611B4B78691B499847031C1A1C71
S1133180124B101C9847021C0B1C184C101C191CC9
S1133190104A174BA047031C0C1C191C221C074B7C
S11331A0081C111C9847031CFB60FB68181CBD46D7
S11331B007B0F0BD19620000F9380000396300005F
S11331C0D6357A3E55400000B13F000091620000C0
S11331D025470000182D4454FB211940653F000089
S11331E0255B0000C144000000003443754D00001D
S11331F0FB21094080B584B000AF78607B681B6810
S1133200FB60FB68DB69072213405A1E9341DBB263
S1133210181CBD4604B080BD80B582B000AF786094
S1133220C0467B68181C034B9847031EF9D1BD4662
S113323002B080BDF531000080B582B000AF786087
S11332407B6864221A607B68194A5A607B68002292
S11332509A607B6800221A737B6800221A767B6866
S1133260802292031A617B6801225242DA827B68CF
S1133270012252429A827B680022DA617B68002232
S11332801A627B682422002199547B6800229A6286
S11332907B682C22002199547B682D2200219954AB
S11332A07B682E2200219954BD4602B080BDC046E1
S11332B0480D000080B584B000AF78607B681B685F
S11332C0BB600023FB607B68181C104B9847BB68ED
S11332D01B6802221A43BB681A600CE0FB680133C6
S11332E0FB607B68DB881A1EFB689A4203D8BB68C4
S11332F010225A8306E0BB685B8B9BB21A1C102316
S11333001340EBD0BD4604B080BDC0461932000066
S113331080B582B000AF184B181C184B9847164B59
S113332001225242DA82164A1649134B101C1A1C07
S1133330154B9847031C7B60144A7B68101C191CAE
S1133340134B98470EE00E4A0E490B4B101C1A1CE7
S11333500D4B9847031C7B600E4A7B68101C191C9C
S11333600B4B98477B68002BEDD1054B181C0A4B7F
S11333709847BD4602B080BDA40100203932000048
S11333809801002000100042F10400009C75000028
S113339005650000BC750000B532000080B584B03E
S11333A000AF786039600E23FB1800221A801B4995
S11333B07A683B68081C111C9847031CBB60BB68F7
S11333C0002B00D127E00E23FB181A88144B101C85
S11333D0642198470B1C9BB2002B05D1114ABB6892
S11333E0101C191C104B98470E23FB181B880E2227
S11333F0BA18591C1180FA229200934204D10B4B43
S1133400181C0B4B984706E0064ABB68101C191C95
S1133410054B9847CBE7BD4604B080BD980100201A
S1133420F93E0000E0750000056500000C76000020
S1133430FD65000080B582B000AF78607A68044B07
S1133440101C191C034B9847BD4602B080BDC046F2
S1133450C50A00009D33000080B584B000AF7860D9
S11334600E23FB1800221A800BE00E23FB181B8886
S11334700E22BA18591C1180FA229200934200D1EC
S113348007E0054A7B68101C191C044B9847031E6F
S1133490EBD1BD4604B080BD980100202109000095
S11334A080B582B000AF021CFB1D1A70064BFA1DDA
S11334B01278111C1F220A40012191400A1C1A6033
S11334C0BD4602B080BDC04600E100E080B584B0D6
S11334D000AF78607B681B68FB60FB68DB695A1E81
S11334E09341DBB2181CBD4604B080BD80B582B0E8
S11334F000AF7860C0467B68181C034B9847031ED6
S1133500F9D1BD4602B080BDCD34000080B582B093
S113351000AF78607B688022D2051A607B68002245
S11335205A607B68FF221A817B6800229A727B684A
S11335300022DA727B68962292011A627B68242246
S1133540012199547B682522012199547B68262204
S1133550002199547B682722002199547B6800221A
S11335609A627B6888225203DA607B682C220021ED
S113357099547B682D22002199547B6800221A6398
S11335807B6800225A637B6800229A637B6800226E
S1133590DA637B6800225A617B6800221A827B68A6
S11335A00022DA767B6800221A767B6800221A777A
S11335B07B6800225A767B6813229A767B68002205
S11335C05A77BD4602B080BD80B584B000AF786044
S11335D07B681B68FB607B681B68181C094B984759
S11335E0031C181C084B98477B68181C074B98470A
S11335F0FB681B6802221A43FB681A60BD4604B0CC
S113360080BDC04665110000A1340000ED34000007
S113361080B584B000AFF860B9607A60F968BA68C0
S11336207B68081C111C1A1C054B9847031E01D10A
S1133630012300E00023181CBD4604B080BDC04631
S11336401116000080B582B000AF78600A1CFB1C24
S11336501A70C046FB1C1B789BB27A68101C191C9C
S1133660044B9847031EF5D10023181CBD4602B035
S113367080BDC0468118000080B584B000AF78607A
S113368039600E23FB1800221A80C0467A680E2384
S1133690FB18101C191C064B9847031EF6D10E2369
S11336A0FB181B88DAB23B681A70BD4604B080BDB3
S11336B0E518000080B584B000AFF860B9607A60A6
S11336C0104BFA681A60104B104A1A60104B114ADA
S11336D01A60F968BA687B68081C111C1A1C0E4B26
S11336E098470E4B1B689B68181C00210C4B98478D
S11336F00A4B1B685B68181C0021094B9847BD46A0
S113370004B080BDF4010020F00100204536000023
S1133710EC0100207936000011360000740000200E
S11337201166000080B590B000AF3B1C181C134B11
S113373098473B1C80225203DA603B1C104A1A63F0
S11337403B1C104A5A633B1C012252429A633B1CA5
S113375001225242DA633B1C962212021A620A4A7E
S11337600A493B1C101C1A1C094B9847064B181C91
S1133770084B9847BD4610B080BDC0460D350000CB
S113378002001600020017005C0100200014004231
S1133790B5360000C935000090B589B000AF454B7F
S11337A09847454B9847454B181C454B9847454A05
S11337B0454B101C191C424B98474449444A454BFD
S11337C0081C111C1A1C3E4B9847434B9847434B0B
S11337D098470023FB6165E00823FB1800221A7058
S11337E00823FB1800225A700823FB1800229A7041
S11337F00823FB180022DA700823FB1800221A7130
S11338000823FB1800225A710823FB18181C344B98
S113381098473B1C00221A803B1C00225A803B1C08
S113382000229A800823FA183B1C101C191C2D4BEB
S113383098470023BB610DE00823FA18BB69D3182D
S11338401B781A1C284B181C111C1D4B9847BB696C
S11338500133BB61BB69052BEEDD244B181C184BEF
S113386098473B1C1B8819B23B1C5B881AB23B1C53
S11338709B881BB21E48124CA0473B1C19883B1C5A
S11338805A883B1C9B8809B212B21BB2081C111C3B
S11338901A1C184B9847031C7B6100233B61FB698E
S11338A00133FB61FB690E2B96DD0023181CBD461A
S11338B009B090BD1D2E00002537000024760000BD
S11338C00565000040760000487600005C76000044
S11338D0747600008076000011330000692F000028
S11338E0A52F00000D3000008C76000090760000BB
S11338F0947600009130000008B500F001F808BD8E
S1133900F8B54F4646460C1C89465142C0B4051CC6
S113391011435800564E4008C90F9C460143B1421A
S11339203DD8610049088846474669422943C90F82
S11339303943B14233D84F495918114347D002266D
S113394099170E40E10F0E434146294331D0011C23
S1133950114336D04649884249D04549884530D03C
S11339604146081A00153C283BDC614600295ADB15
S1133970281C211C01F0FEF900F034FA00F094F840
S1133980012E40D0022E43D0002E0ED03A4A3B4B9B
S113399002F0C8F83A4A3B4B02F0C4F805E0101CA8
S11339A0191C2A1C231C00F0BDFE0CBC9046994631
S11339B0F8BD022E18D00FDC002EC8DB281C211CF9
S11339C0F3E74B462E48002B1BDB2F49EDE7281C61
S11339D0211C00F069F8E8E7032EB8D128482B49E8
S11339E0E3E727482849CBE725482649DDE7804512
S11339F01ED0012E2CD025DD022EF5D0032EEDD0C5
S1133A00ABE72349D1E7802424060B19191CCCE722
S1133A10194A1A4B02F086F8021C0B1C1848194963
S1133A2002F080F8C1E73C30A2DA00200021A7E7C9
S1133A30012E19D010DD022E13D0032EC1D115484A
S1133A401549B2E7002E00D087E700200021ACE73B
S1133A50802100200906A8E7002EB2D108480F49AA
S1133A60A3E70C480E49A0E705480E499DE7C04668
S1133A700000F07F000010C0075C143326A6A13CB0
S1133A80182D4454FB210940FB21F93FFB2109C0B7
S1133A90FB21F9BFD221337F7CD902C0FB21E93F4E
S1133AA07CD90240FB21E9BFF8B556464D46444651
S1133AB05F46A54BF0B44E00804689468A46760898
S1133AC09E420CDDA14B9E4200DDA0E000D19BE0B4
S1133AD05346002B00DCDEE09D4B9E4A9FE09E4B4C
S1133AE09E4200DDB1E09D4B9E4200DC9FE001233D
S1133AF05B429B4642464B464046494601F078FDB0
S1133B00061C0F1C321C3B1C01F072FD041C0D1C16
S1133B10934A944B01F06CFD934A944B00F002FEDF
S1133B20221C2B1C01F064FD914A924B00F0FAFD1B
S1133B30221C2B1C01F05CFD8F4A904B00F0F2FD1F
S1133B40221C2B1C01F054FD8D4A8E4B00F0EAFD23
S1133B50221C2B1C01F04CFD8B4A8C4B00F0E2FD27
S1133B60321C3B1C01F044FD894A8A4B061C0F1C85
S1133B70201C291C01F03CFD874A884B01F0D2FF30
S1133B80221C2B1C01F034FD854A864B01F0CAFF30
S1133B90221C2B1C01F02CFD834A844B01F0C2FF34
S1133BA0221C2B1C01F024FD814A824B01F0BAFF38
S1133BB0221C2B1C01F01CFD0B1C5946021C01315C
S1133BC000D170E05946301CCC00391C00F0AAFD2D
S1133BD042464B4601F00CFD774D784B2D191C19CC
S1133BE02268636801F09EFF42464B4601F09AFF4B
S1133BF0021C0B1C2868696801F094FF53460A1CD8
S1133C00002B4BDB031C0AE0002800D160E742468E
S1133C104B464046494600F085FD031C0A1C181C0F
S1133C20111C3CBC90469946A246AB46F8BD644A7A
S1133C30644B00F077FD0022634B00F093F90028F9
S1133C4000D154E743464A46E9E700F0CBF85F4B1E
S1133C50041C0D1C9E4237DC5D4B9E425DDC221C25
S1133C602B1C00F05FFD0022574B01F05BFF80230B
S1133C70061C0F1C0022DB05201C291C00F052FD31
S1133C800B1C021C391C301C01F074F80023804604
S1133C9089469B462EE72E4B4E4AC0E780221206E9
S1133CA0031C8A18BBE7301C391C00F03BFD42465C
S1133CB04B4601F09DFC021C0B1C4046494601F09A
S1133CC031FF031C0A1CAAE7434B9E421ADC002264
S1133CD0424B01F027FF0022061C0F1C3F4B201C07
S1133CE0291C01F085FC0022374B00F01BFD0B1C46
S1133CF0021C391C301C01F03DF802238046894621
S1133D009B46F7E62B1C00203549221C01F032F8B3
S1133D100323804689469B46ECE600222A4B01F0A9
S1133D2001FF0022061C0F1C274B201C291C00F03D
S1133D30F9FC0B1C021C391C301C01F01BF801237C
S1133D40804689469B46D5E6FFFF0F440000F07F7E
S1133D50182D4454FB21F93FFFFFDB3FFFFF1F3EBB
S1133D6011DA22E33AAD903FEB0D76244B7BA93F69
S1133D70513DD0A0660DB13F6E204CC5CD45B73F37
S1133D80FF8300922449C23F0D5555555555D53FE3
S1133D902F6C6A2C44B4A2BF9AFDDE522DDEAD3FD7
S1133DA06D9A74AFF2B0B33F711623FEC671BC3F77
S1133DB0C4EB98999999C93FC0760000A076000099
S1133DC09C7500883CE4377E0000F03FFFFFF23F23
S1133DD0FFFFE53FFB21F9BFFF7F03400000F83FF1
S1133DE00000F0BF49004B08191C7047002243082B
S1133DF08B4274D303098B425FD3030A8B4244D3AF
S1133E00030B8B4228D3030C8B420DD3FF220902F0
S1133E1012BA030C8B4202D31212090265D0030BAF
S1133E208B4219D300E0090AC30B8B4201D3CB03A5
S1133E30C01A5241830B8B4201D38B03C01A5241E7
S1133E40430B8B4201D34B03C01A5241030B8B42E9
S1133E5001D30B03C01A5241C30A8B4201D3CB02D4
S1133E60C01A5241830A8B4201D38B02C01A5241B9
S1133E70430A8B4201D34B02C01A5241030A8B42BC
S1133E8001D30B02C01A5241CDD2C3098B4201D3D4
S1133E90CB01C01A524183098B4201D38B01C01A52
S1133EA0524143098B4201D34B01C01A52410309C9
S1133EB08B4201D30B01C01A5241C3088B4201D378
S1133EC0CB00C01A524183088B4201D38B00C01A25
S1133ED0524143088B4201D34B00C01A5241411A4C
S1133EE000D20146524110467047FFE701B5002059
S1133EF000F00CF802BDC0460029F7D003B5FFF767
S1133F0075FF0EBC4243891A1847C0467047C04625
S1133F108446101C62468C46191C634600E0C04669
S1133F201FB501F0FFFA002801D40021C8421FBDCB
S1133F3010B501F043FA4042013010BD10B501F054
S1133F40F1FA002801DB002010BD012010BDC0469D
S1133F5010B501F0E7FA002801DD002010BD0120B2
S1133F6010BDC04610B501F06DFA002801DC002038
S1133F7010BD012010BDC04610B501F063FA002841
S1133F8001DA002010BD012010BDC0468446081C83
S1133F906146FFE71FB500F04DFA002801D4002167
S1133FA0C8421FBD10B500F0D1F94042013010BD28
S1133FB010B500F03FFA002801DB002010BD0120FD
S1133FC010BDC04610B500F035FA002801DD002010
S1133FD010BD012010BDC04610B500F0E1F9002865
S1133FE001DC002010BD012010BDC04610B500F05A
S1133FF0D7F9002801DA002010BD012010BDC04609
S1134000F0B54F46464605042D0C2C1CC0B41704CD
S1134010160C3F0C9946030C7C4375435F43734372
S11340207D19260CAD199C46AF4203D980235B024F
S11340309846C4444B465143434324042E0C240C59
S11340402D0466442C1959188919201C0CBC90465F
S11340509946F0BDF8B54A00430244004E02C50F2C
S1134060240E281C9B09120EC90FB7098D4240D09B
S1134070A01A002800DC84E0002A1CD1002F5CD1A7
S11340805A0704D00F221A40042A00D00433802295
S1134090D2041A40281C002A24D00134FF2C00D159
S11340A07BE09B015B0AE4B25B02E4055B0A234309
S11340B0C0071843F8BDFF2CE2D08022D204174376
S11340C001261B2808DC391C20223E1CC140101A82
S11340D08640771EBE410E439B1B5A0133D4281CD5
S11340E05A07CFD1DB08FF2C1ED05B025B0AE4B277
S11340F0DAE7A11A002957DD002A3AD0FF2CBFD0F5
S11341008022D204174301261B2972DD9B195A0110
S1134110E5D50134FF2C00D187E001218A4A1940FA
S113412013405B080B43ABE7002B36D08022D2034D
S113413013435B025B0AFF24B6E7013800283FD132
S1134140DB1B5A01CBD59B019E09301C02F084F97C
S113415005388640844223DC001B1F24321C431C88
S1134160201ADA408640131C741EA64100243343EF
S113417086E7002F00D183E70139002950D1DB19EC
S1134180C5E7002820D1621CD2B2012A5EDDDE1B05
S1134190720128D5FE1A0D1CD7E7FF24002383E7FC
S11341A0694B241A33406BE7002958D1621CD1B201
S11341B001293CDDFF2A37D0FB185B08141C5FE79C
S11341C0FF2C00D07CE75BE7002C1ED0FF2A23D015
S11341D08024E404404223431B285BDD0123FB1AB3
S11341E0141C0D1CADE7002EAFD1002300200024C9
S11341F078E73A1CCA40944620223E1C511A8E404D
S11342006246771EBE41164380E7002B3ED0C04372
S11342100028E4D0FF2ADFD13B1CFF240D1C2FE72C
S1134220FF2C00D06FE72BE7FF2400235AE7002C74
S11342305AD1002B7FD0002F00D121E7DB195A017E
S113424000D44CE7404A0134134019E7002C15D13F
S1134250002B2FD1002F5DD03B1C0D1C10E7002C30
S113426021D1002B53D0C943002904D0FF2A4BD0BD
S11342701B2957DD0123DB19141C48E7002B22D12D
S1134280002F4AD03B1C0D1CFF24F9E63B1C141CD8
S11342900D1CF5E61D1C2024C540201A8340581E21
S11342A083412B439BE7FF2A2ED08024E404494218
S11342B02343DDE7002F00D1E2E6DA1B50013CD5B1
S11342C0FB1A0D1CDCE6FF24002F00D1D8E6802267
S11342D0DB08D203134204D0FE08164201D1331C7A
S11342E00D1CDB00FF24CBE6002B0DD0FF24002F98
S11342F000D1C5E68022DB08D2031342F1D0FE08C8
S11343001642EED1331CECE73B1CFF24B8E63B1C01
S1134310141CB5E6231C0020E4E6802300209B0443
S1134320FF24DFE61E1C2024CE40611A8B40591E58
S11343308B4133439FE73B1CA2E6131E00D0CEE61D
S113434000230020CEE6C046FFFFFFFB430270B50A
S113435042004C005D0AC30F4802120E460A240EA6
S1134360C90FFF2A05D0FF2C08D00120A2420BD090
S113437070BD0120002DFBD1FF2CF6D10120002EB1
S1134380F6D10120A242F3D1B542F1D18B4205D03E
S1134390002AEDD1281C431E9841E9E70020E7E7F5
S11343A0F0B543024D024A0044005E0A240EC30FD6
S11343B06D0A120EC90FFF2C0DD0FF2A31D0002C2C
S11343C00DD177427741002A23D1002D21D100203D
S11343D0002F0BD107E0002E28D1FF2A21D0002A7C
S11343E005D08B4207D0584201231843F0BD002D5D
S11343F0F9D08B42F7D19442F5DC04DBAE42F2D81B
S11344000020AE42F2D25842434101205B4218439D
S1134410ECE7002FE5D048424141012049420843DE
S1134420E4E7002D02D1002CCBD0DAE70220404291
S1134430DCE7C0464302F0B542004C005E0AC30FFD
S11344404802120E450A240EC90FFF2A0FD0FF2C72
S11344501AD0002A10D177427741002C29D0002F9E
S113446017D0484241410120494208430BE0022051
S1134470002E08D1FF2C07D0002C0AD1002D08D122
S1134480584201231843F0BD0220002DFBD1002A1D
S1134490E1D08B42F4D1A242F2DC04DBAE42EFD88D
S11344A00020AE42EFD25842434101205B42184300
S11344B0E9E7002DD3D10020002FE4D1E0E7C04686
S11344C0F0B55F4656464D464446F0B445024600B4
S11344D0C40F83B00F1C6D0A360EA34645D0FF2EC1
S11344E025D080231B041D4300239A46ED007F3E04
S11344F001937B025B0A98467800FB0F000E9946F5
S113450040D0FF2838D0802342461B041343DB00ED
S1134510984600237F384A46019F30186240411C68
S11345201F430F2F69D87D4EBF00F659B746002DA3
S113453045D108230193063B9A46DAE7934653464E
S1134540022B2FD15B46012400251C40FF236D0262
S1134550DB056D0AE4071D432543281C03B03CBC5E
S113456090469946A246AB46F0BD002D2CD10423BB
S11345700193033B9A46BCE743465A425341032204
S1134580D31AC8E742460123002AC4D0404601F0AA
S113459063FF4246431F9A4076235B42181A9046B3
S11345A00023B8E7032B00D1ADE0012B00D08CE051
S11345B05B4654461C40E4B200230025C7E70C23A5
S11345C00193093B9A4694E7281C01F045FF76269F
S11345D0431F9D4000237642361A01939A4688E78A
S11345E080250024ED03FF23B1E74546CB469A46D8
S11345F0A5E7454693469A46A1E743462C041B0C7F
S11346009C46230C444626041C1C360C2F0C744375
S1134610351C66467D4373437743EB18260C9E197D
S1134620B54203D980235B029C46674424043304C7
S1134630240C1B199D016C1EA5419B0E360C2B43AB
S1134640BD19AD011D432B0104D5012368081D408C
S11346500543081C031C7F33002B2CDD690704D0A1
S11346600F212940042900D00435290103D52C4BFE
S11346701D40031C8033FE2B17DD0124FF2314404F
S1134680002564E78020C003054209D04346034265
S113469006D1454605436D026D0A4C46FF2356E795
S11346A005436D026D0AFF2351E70124AD016D0A34
S11346B0DBB214404BE77E235B421B1A1B2B07DD46
S11346C0012400231440002541E7081C5A46C1E791
S11346D09E30291C8540D940681E85410D436B07D7
S11346E004D00F232B40042B00D004356B0104D5D8
S11346F0012401231440002529E70124AD016D0A9A
S11347001440002323E78023DB031D4301245B467D
S11347106D0223401C1C6D0AFF2318E7E07600009D
S1134720FFFFFFF7F0B5454657464E4694464C000A
S11347300A03C90FE0B488460E1C1903470FC500CD
S1134740480A6146490F01436046520A1743C000B4
S11347505A00640D520DDB0F8446984500D1A7E042
S1134760A01A002800DC01E1002A3DD163460B4376
S113477000D0D4E06B0700D188E00F232B40042B3A
S113478000D183E02A1DAA42AD4180236D427F19E6
S11347901B043B404646151C002B00D17CE0CC4B4F
S11347A001349C4200D1FDE03A1CCA4BED081A408A
S11347B05007640552020543120B640D00211203D5
S11347C00B0D1B056405120B1A436308C24CF60754
S11347D014401C43640064083443281C211C1CBC82
S11347E090469946A246F0BDB94B9C42C2D0802364
S11347F01B041943382800DDECE01F2800DD21E10B
S113480020220E1C6346121A9640C3403343664668
S11348109640321C561EB24113430A1CC240EB1A86
S11348209D42B6411D1CBA1A7642971B3B0200D426
S113483097E07A02560A002E00D1B6E0301C01F04F
S11348400BFE031C083B1F2B00DDB7E09E40371C0A
S113485028262A1C361AF240161C9D403E439C42D0
S113486000DDB2E01C1B621C1F2A00DDD8E01F2300
S1134870291C1C1B331CA540A340D1406C1EA54120
S1134880D64019430D43371C002473E780231B04CF
S11348903B40464600D082E78D4BED087807054340
S11348A0FA089C4232D012036405120B640D85E7AA
S11348B0A31A002B00DC94E0002A3CD0844A9442E2
S11348C000D157E7802212041143382B00DC05E1A4
S11348D063461943481E81410022C8B24019A842C8
S11348E09B41051CD2195B42D7183B0239D5784B42
S11348F001349C4200D14CE10120764A6B083A40D5
S113490028401843D5070543570833E72B1C1343A6
S113491048D080231B031A431203120B4EE70138BD
S1134920002878D16346EE1AB5429B417A1A5B425D
S1134930D71A351C7AE7021C0A4300D11AE7013B57
S1134940002B00D0F2E04019A8429B41CA195B42F7
S1134950D718051CC9E7131C334300D118E1171CF1
S1134960351C46466B0700D007E795E700287AD147
S1134970621C5205520D012A00DCFBE06246AA1AB1
S11349809542B6419146781A7242861A320200D490
S113499093E06246551BAC458041CF1B40423E1A12
S11349A0984648E70022002508E7281C01F054FD3A
S11349B02030031C083B1F2B00DC47E728388540C8
S11349C02E1C00259C4200DC4CE7424AE41A1640A7
S11349D0371CCFE6634619434B1E99410022CBB2E4
S11349E01DE7002B00D0F2E0601C43055B0D012B9A
S11349F000DCA4E0364B984200D121E163465C1907
S1134A00AC429B41CF195B42FA186408D507254391
S1134A105708041CAEE62E4B9C4200D0EAE6A9E6F9
S1134A20211C331C1F39CB40191C202A00D182E0E1
S1134A303F231C1BA64035436E1EB54100270D4382
S1134A4000248EE7031C0E1C203BDE40202874D07B
S1134A5040231B1A99400B1C62461343591E8B4179
S1134A6000223343DBE6002C50D0194CA24200D183
S1134A70A8E08024240440422743382800DDD9E0FC
S1134A801F2800DD39E120243E1C241AA640B0462C
S1134A902E1CA146C640444626434C46A5406C1EE7
S1134AA0A541C74035436046451BCF1BAC458941F2
S1134AB049427F1A141C9846B8E64B464D46334388
S1134AC000D0B8E60026002700240025E4E6C0460E
S1134AD0FF070000FFFF7FFFFFFF0F801F2B5BDC42
S1134AE02022081CD21A9040814660469246D84043
S1134AF04A4610438146524660469040021C501E6E
S1134B008241484610430A1CDA40E7E63C1C2C4329
S1134B1058D0C043002851D16046451BAC45804164
S1134B20CF1B40423F1A141C98467FE68F4A94429A
S1134B3000D0CAE61EE600267DE700238CE73B1C76
S1134B402B43002C00D0BDE0002B00D1F5E06346E0
S1134B500B4300D10EE663465B19AB428041CA1990
S1134B60404217183A0200D4FCE0814A1D1C174049
S1134B700134FFE53A1C2A43002C51D1002A00D00D
S1134B8085E062460A4303D00F1C65469846F1E56A
S1134B900026002700257FE6181C0A1C2038C24086
S1134BA0202B00D1A7E04020C01A8140081C634696
S1134BB01843411E8841104300228FE66B4CA242E9
S1134BC000D05AE70F1C6546141C9846D2E5002C09
S1134BD03AD1381C284371D0DB43002B18D06348EA
S1134BE082426BD0382B00DD9DE01F2B00DDA7E057
S1134BF020203C1CC01A8440A1462C1C8246DC4068
S1134C004846044350468540681E8541DF4025439D
S1134C10654465459B417F185B42FF18141C64E69C
S1134C20002A19D162460A4377D00F1C654698467C
S1134C304E4C9FE53D436F1EBD410027EDB232E768
S1134C40041C0027002527E64848824236D08020ED
S1134C5000045B420743C5E762460A4349D0802407
S1134C60ED087807FA0824032843224209D0CE0825
S1134C70264206D162464F07381CD2081043984694
S1134C80321CD200470F1743C500384C72E5624608
S1134C900A4300D16EE56246AE1AB5429241781AD3
S1134CA05242821A100200D455E66246551BAC45A6
S1134CB08041CA1B4042171A98465BE50F1C6546A3
S1134CC0141C57E5002B34D063460B4311D08024C9
S1134CD0ED087807FA08240328432242D1D0CB08F0
S1134CE02342CED162464F07381CD20810431A1C07
S1134CF0C7E71E4C3EE5002059E7041C3E1C203C3F
S1134D00E640341C20282BD04026301A87403D43EF
S1134D106F1EBD4100272543C5E680270026FF03FB
S1134D20124C0025B8E53D436F1EBD410027EDB28E
S1134D306EE70F1C65460D4C1CE50F1C654619E516
S1134D401C1C381C203CE040041C202B0CD04020B0
S1134D50C31A9F403D436F1EBD410027254357E7BB
S1134D600027D4E71D1CFCE50027F3E7FF0700003C
S1134D70FFFF7FFFF0B55F4656464D464446F0B40C
S1134D800F0387B098464D003B0BCC0F061C924690
S1134D9081469B466D0D01946BD0664B9D4235D088
S1134DA080275B467F031F43F3009946624BFF0055
S1134DB0400F9C4607430023BB46002665440093EE
S1134DC0424617035000D20F53463F0B400D904606
S1134DD000D172E0574A904267D080235B031F439F
S1134DE05346554A5B0FFF001F4394465346002128
S1134DF0DB0060444246624092462D1A0E430F2E59
S1134E0000D9A1E04D48B600805987465B461E4351
S1134E1000D076E000239B4699460233082600938F
S1134E20CEE799464346BB4601930091009B022B73
S1134E306BD1019B9A4600215346012200278946E3
S1134E401A403C4B00213F030C0D24053F0B274324
S1134E503B4C1B0527401F437F00D2077F081743A5
S1134E604846391C07B03CBC90469946A246AB461E
S1134E70F0BD03433ED05B46002B00D19CE1584675
S1134E8001F0EAFA2823311C1B1A021C5F46D940A0
S1134E90083A97400B1C96403B439B46B14600237F
S1134EA0284D00262D1A00938AE7524603213A43DF
S1134EB0A0D10027002302219CE752463A4315D093
S1134EC0002F00D185E1381C01F0C6FA021C28210C
S1134ED05046891A131CC8405146083B99409F40CC
S1134EE00B1C074317480021801A83E7002700237F
S1134EF001217FE700239B46994601330426009352
S1134F005EE703230C2600935AE7032B00D13CE20F
S1134F10012B00D0BFE11A1C019B1A400021002381
S1134F20002789468EE700238027994600223F0305
S1134F30004B87E7FF07000001FCFFFF207700001C
S1134F40FFFF0F800DFCFFFFBB4500D951E100D1ED
S1134F504CE14A46039200225C469046013D180EFD
S1134F603F0238431B020193030C994603041B0CB4
S1134F704946061C201C1F1C0093FEF737FF021C29
S1134F807A4302904946201C171CFEF7B5FF039B89
S1134F9009041B0C19438F420CD9029B8919013B4C
S1134FA08E4200D952E18F4200D84FE1029B891909
S1134FB0023B0293CC1B201C4946FEF717FF009FBF
S1134FC0834647434946201CFEF796FF039A0B0489
S1134FD01404240C23439F420DD95A469B19013AC9
S1134FE09E4200D930E19F4200D82DE10222524274
S1134FF094469B19E344029ADB1B17045A463A432E
S11350009346019C170C220C101C04925A4611045E
S11350102204120C141C090C7C4305924A4341439C
S113502047436118100C09188C4203D980204002B0
S1135030844667440C0C12040804120C3C198118B1
S1135040A34200D2E5E000D1DFE01F1B43465C1A17
S1135050A04592415242BF1AB74200D10EE1381C1A
S11350604946FEF7C3FE009B029043434946381C61
S11350709846FEF741FF230C0F041F43B8450CD993
S1135080029BBF19013BBE4200D9FBE0B84500D8E2
S1135090F8E0029BBF19023B02934346FF1A4946BC
S11350A0381CFEF7A3FE009B039043434946381C7B
S11350B09846FEF721FF24040904240C2143884563
S11350C00CD9039B8919013B8E4200D9DCE0884549
S11350D000D8D9E0039B8919023B03934346C91ABC
S11350E0029B039A1B04059C1A43100C130491465B
S11350F0221C049F1B0C5A4344437B437843E3180C
S1135100170CDB199C4203D980246402A446604432
S11351101C0C12041B04120C00199B18814200D2AF
S113512096E000D1FCE04A4601231A4391469B4B8A
S1135130EB18002B00DC99E04A4652070AD00F22F4
S113514049460A40042A05D004314945924189461A
S1135150524293445A46D20106D55A46904B1A40BD
S113516080239346DB00EB188E4A934200DD62E60F
S11351704A465946D208490711435A4689465702B6
S1135180514601225B053F0B5B0D0A405AE6802025
S11351905A460003024208D0074206D107433F03A0
S11351A099463F0B4246804B4CE65F4607433F031C
S11351B03F0B221C7C4B45E601F04EF9031C2030CA
S11351C0272800DC5EE6083B9E400023B346994650
S11351D065E6504601F040F9021C2032272A00DC23
S11351E075E657460838874000237BE6994500D288
S11351F0AFE65A46594654084A46C807520802437D
S113520003924A46D2079046A9E60027884500D370
S11352101CE7019F5A46BC46E044B845BF417F4263
S1135220BF19FF18013ABE4206D2BC425FD800D172
S11352309FE03F1B934609E7B742FAD1019B4345E0
S1135240F3D9371B934601E79346D4E60293B1E6BC
S11352504A468919013A8E4218D99146814200D0B2
S113526061E7019A9A4200D05DE760E74F4F7F1BE8
S1135270382F13DD012253461A404FE601235B42C7
S1135280994654E7029308E7039327E788423CD8FA
S113529074D0914647E7019B9A4648E71F2F44DCA8
S11352A0434B4A469C465B466544FA40AB40134335
S11352B04A46AA40151C6A1E95415A46FA402B4399
S11352C0171C5A0709D00F221A40042A05D01A1DA8
S11352D09A429B415B42FF18131C3A023ED5534647
S11352E0012200211A40002701238946AAE502234E
S11352F05B429C46019AE3449446E04490459B41BA
S11353005B429B19DF193F1BA0E6019F4A467C00C4
S1135310BC42BF417F42BF19023AC91901949CE7BC
S1135320002B95D1002201929BE75A46214B5B1B2F
S1135330DA40202F27D0204B9C465B466544AB4087
S113534049460B43591E8B411343072200271A4039
S113535007D00F2200271A40042AB8D17A077F0207
S11353603F0BDB0813439946012253461A4000239E
S113537068E54145BBD89346002767E6019C9C42FB
S1135380C3D391466DE70023DAE780275B463F03EA
S11353901F433F033F0B019A034B53E5FF030000F8
S11353A0FFFFFFFEFE070000FF07000002FCFFFFF7
S11353B01E040000E2FBFFFF3E040000F0B55F4660
S11353C04D4644465646F0B41F035C00DB0F994635
S11353D01B4B0E034D00C90F8446360B6D0D8B46D7
S11353E090463F0B640D9D420CD0154B9C4210D04F
S11353F00123A54214D0181C3CBC90469946A246F1
S1135400AB46F0BD311C01230143F4D10C4B9C424B
S1135410EED13A430123002AEDD10123A542EAD17A
S1135420BE42E8D1C445E6D1CB4506D0002DE2D139
S11354303043031C581E8341DDE70023DBE7C046ED
S1135440FF070000F0B5574645464E46E0B40F034B
S11354504E00C90F8A4632491D035C0084463F0B47
S1135460760D90462D0B640DDB0F8E420FD08C42CF
S113547039D0002E10D13843414241418946002C95
S113548027D12A4325D1002000290ED108E0391C58
S113549001432ED1B44226D0002C0BD09A450DD016
S11354A05346594201231943081C1CBC9046994693
S11354B0A246F0BD2A43F3D09A45F1D1A642EFDCCF
S11354C01ADA504641424841012341421943081C1B
S11354D0EBE74A46002AE1D05842584101224142B2
S11354E01143081CE1E7291C114302D1002EC2D04C
S11354F0D4E702204042D8E7AF42D1D809D00020F7
S1135500AF42D2D25046414248410123404218435F
S1135510CBE7C445C4D80020C445F3D3C5E7C0468F
S1135520FF070000F0B55F464D46444656468046A8
S1135530F0B4061C0803000B84462C484C001F03DF
S11355405D00C90F640D8B4691463F0B6D0DDB0F5B
S1135550844212D0854225D0002C14D161460E43DA
S113556070424641002D35D0002E21D0584258417A
S1135570012143420B43181C0EE0614602203143D3
S11355800AD1A5420ED0002D12D13A4310D15B4668
S1135590594201231943081C3CBC90469946A24633
S11355A0AB46F0BD391C02201143F5D1002CD5D0F7
S11355B09B45ECD1AC42EADC05DBBC45E7D80FD017
S11355C00020BC45E8D258464142484141420120AE
S11355D00843E1E73A43C7D10020002EDCD1D6E7E7
S11355E0C845D4D80020C845EDD3D5E7FF0700004F
S11355F0F0B55F4656464D464446F0B4051C061CBD
S1135600080387B099464F00030BCC0F92469B4684
S11356107F0D019467D06C4B9F4236D080205B464F
S113562040031843C0006B0F1843684B83469C46E5
S113563000239846EE00674400934B4649461D03F9
S1135640C90F5B0052462D0B5B0D894600D16EE0FD
S11356505D498B4264D080205C4940038C46002124
S11356600543ED00500F0543D20063444846FF183C
S11356707B1C9A46009B604002900B430F2B00D981
S1135680ACE053489B00C3589F465B461D4300D083
S113569082E00823009300239B46023300269846A9
S11356A0CBE7029B01934346022B59D101240025E9
S11356B00026019B1C40444B00212D030A0D1205BA
S11356C02D0B1543434A1B0515401D436D00E4078C
S11356D06D082543301C291C07B03CBC90469946F4
S11356E0A246AB46F0BD2B434ED05B46002B00D107
S11356F085E1584600F0B0FE021C2823291C9B1AA1
S1135700161C5846D940083EB0400B1CB540034314
S11357109B462E1C0023304F0093BF1A98468CE7FB
S1135720514629432ED10025002202219EE75146ED
S1135730294323D0002D00D154E1281C00F08CFE15
S1135740031C28215046C91A1A1CC8405146083A5D
S1135750914095400A1C05431F480021C31A85E760
S1135760032B00D1C2E1012B00D06DE14446019B23
S113577000251C40E4B2002300269DE700250022FA
S1135780012173E7032171E70423009300239B465F
S113579001330026984650E70C230093093B9846B2
S11357A04BE7802500242D030026074B84E74B4656
S11357B0AB46161C0193884675E7029BAB46161C44
S11357C0019388466FE7C046FF07000001FCFFFF16
S11357D060770000FFFF0F800DFCFFFF330C3604E1
S11357E0360C9C46331C140C1204120C534398467A
S11357F0634653439946634663430193331C4146CE
S11358006343090C4B445B18994505D98020400239
S11358108146019949440191190C039141460904B7
S1135820090C1B045B1804932B0C9846331C2D04A1
S1135830290C4B43604600934346654658435E43F8
S1135840009B4D431B0C9946AE194E448446B54209
S113585003D980235B029946CC44350C2B1C039856
S1135860634484460593009B36041B041B0CF31805
S11358709C446046039058460504060C280C844654
S11358805043351C81466046654344434846000CFA
S11358908346724314195C44A24203D98022520203
S11358A093465D44220CAD184A461204120C24049B
S11358B04046A41862464A437143464360460096F4
S11358C0464670438046100C84468844E044414573
S11358D005D9802149028C460099614400910198C0
S11358E003998446614499429B415B4299460598D9
S11358F0434684461204120C1B049B1863449C46C2
S1135900AB4683429B4140460A19CC44A24289419A
S1135910E344CC45B6415C46000C8046494276429D
S11359205B426418334398448C428941AB459B41A4
S113593049425B4219430D1C009B4544EE18760214
S1135940E50D2E43B346049B56021E43731E9E412F
S11359505B46D20D324366021643DB010AD50123AE
S1135960334076081E435B46DB071E435B465B08F9
S11359709B465746634BFB18002B5ADD720709D030
S11359800F223240042A05D0321DB242B64176427B
S1135990B344161C5A46D20106D55A465A4B1A40ED
S11359A080239346DB00FB18584A934234DD0124DC
S11359B0029B00251C400026554B7DE680205B465B
S11359C00003034208D0054206D105432D032D0BE5
S11359D04C46161C4E4B6FE65D4605432D032D0BBE
S11359E04B4B69E6504600F037FD031C2033272B50
S11359F000DCA6E65546083885400022ACE6281CA3
S1135A0000F02AFD021C2032272A00DC75E6083843
S1135A1085400026AB467DE65A46F60852071643F3
S1135A205A4601245502029A5B052D0B5B0D144066
S1135A3042E6384DED1B382D0ADD0124029B00257A
S1135A401C400026002337E6019B5746029391E74A
S1135A501F2D25DC304B321C9C466744BE405B4600
S1135A60BB40371CEA407E1EB74113433B431E1C18
S1135A705B46EB401D1C730709D00F233340042BF6
S1135A8005D0331DB342B6417642AD191E1C2B021C
S1135A9020D50124029B00251C40002601230BE68F
S1135AA05A461E4BDB1BDA40131C202D1CD01C4A0B
S1135AB094465A466744BA40171C3E43721E9641A8
S1135AC01E4307230025334007D00F23002533400E
S1135AD0042BD6D16B076D022D0B0124F6081E434F
S1135AE0029B1C400023E7E50027E6E780255B4690
S1135AF001242D031D43019B2D0323401C1C2D0B4E
S1135B00034BD9E5FF030000FFFFFFFEFE07000083
S1135B10FF07000002FCFFFF1E040000E2FBFFFF82
S1135B203E040000F0B54D4644465F465646F0B488
S1135B300E1C111C3203520A470F1743C5001A03E7
S1135B405800DB0F9946520A4B0F83B01A43CB001F
S1135B500193CF4B7400F60F640DB046400D98428C
S1135B6000D1E8E00123494659400B1C9E4200D174
S1135B70B1E0261A002E00DC1CE1002842D1131CDF
S1135B8001990B4300D0E6E06B0700D18EE00F23B0
S1135B902B40042B00D189E02A1DAA42AD41802369
S1135BA0012641466D427F191B043B400E40151CE3
S1135BB0002B00D183E0B64B01349C4200D116E1A6
S1135BC03A1CB44BED081A405007640552020543D1
S1135BD0120B640D002112030B0D1B056405120B3F
S1135BE01A436308AC4CF60714401C436400640871
S1135BF03443281C211C03B03CBC90469946A24661
S1135C00AB46F0BDA24B9C42BED080231B041A437A
S1135C10382E00DD03E11F2E00DD3FE12020831B31
S1135C209946131C49468B409C46019B6046F340B1
S1135C3003430198F2408840011C481E81410B43F4
S1135C40EB1A9D4280411D1CBA1A4042171A3B02AE
S1135C5000D4A8E07A02560A002E00D1CAE0301C13
S1135C6000F0FAFB031C083B1F2B00DDCBE02822CD
S1135C70291C121AD1409E400A1C9D4032439C426A
S1135C8000DDC8E01C1B671C1F2F00DDEDE01F2397
S1135C90291C1C1B131CA540A340F9406C1EA541E4
S1135CA0FA4019430D43171C00246DE78023012695
S1135CB042461B043B401640002B00D07BE7744B4C
S1135CC0ED0878070543FA089C423BD012036405AB
S1135CD0120B640D7EE7231A9A46002B00DCA5E024
S1135CE0002844D06A48844200D14DE78020000453
