:10000000385C0020F51B0000F11B0000F11B000014
:1000100000000000000000000000000000000000E0
:10002000000000000000000000000000910200003D
:100030000000000000000000F90200003D03000085
:10004000F11B0000F11B0000F11B0000F11B000080
:10005000F11B0000F11B0000F11B0000F11B000070
:10006000F11B0000DD010000ED010000FD010000BA
:100070000D0200001D0200002D020000F11B000017
:10008000F11B0000F11B0000F11B0000F11B000040
:10009000F11B0000F11B0000F11B0000F11B000030
:1000A000F11B0000F11B0000F11B0000F11B000020
:1000B00008B5064B064803331B1A062B00D808BDAB
:1000C000044B002BFBD09847F9E7C046681E0000A0
:1000D000681E00000000000008B50748074B1B1A07
:1000E0009B10DA0FD318591000D108BD044A002A1A
:1000F000FBD09047F9E7C046681E0000681E00006C
:100100000000000010B5074C2378002B09D1FFF741
:10011000CFFF054B002B02D0044800E000BF0123B5
:10012000237010BD0C00002000000000681E0000BD
:1001300008B5094B002B03D00848094900E000BF6F
:1001400008480368002B03D0074B002B00D09847CA
:10015000FFF7C2FF08BDC04600000000681E000097
:1001600010000020681E0000000000000C4B1B68FF
:10017000002B10D1EFF31083002B09D172B6BFF31F
:100180005F8F0022074B1A700122074B1A7002E0A2
:100190000022054B1A70024B1A6801321A60704730
:1001A00028000020000000202C000020084B1A68C6
:1001B000013A1A601B68002B09D1064B1B78002BF3
:1001C00005D00122044B1A70BFF35F8F62B67047EF
:1001D000280000202C0000200000002008B5024B61
:1001E0001B680020984708BD3000002008B5024B6E
:1001F0005B680120984708BD3000002008B5024B1D
:100200009B680220984708BD3000002008B5024BCB
:10021000DB680320984708BD3000002008B5024B7A
:100220001B690420984708BD3000002008B5024B28
:100230005B690520984708BD30000020034B1B6810
:10024000013301D072B6FEE772B6FEE7040000206B
:10025000064A13681868203080F30988022080F36A
:1002600014883FBCAE4662B600BDC0469C3B002031
:1002700010B5031F802464041C60043B1960043B18
:1002800002491960143B1A60403810BD3D0200005D
:100290007047C04680225205034B1A60BFF34F8F50
:1002A000BFF36F8F7047C04604ED00E072B6044B99
:1002B0001A6801321A60BFF34F8FBFF36F8F704718
:1002C00004000020064B1B68002B01D172B6FEE72C
:1002D000013B034A1360002B00D162B67047C04651
:1002E00004000020EFF3108072B670470020C04673
:1002F00080F310887047C046EFF309800E4B1A68F0
:1003000020381060F0C044464D4656465F46F0C067
:1003100008B572B600F022FF62B60CBC116808681E
:100320001030F0C8A046A946B246BB4680F3098803
:100330002038F0C81847C0469C3B002010B5074B3A
:100340009847041C064B9847002803D0802252058A
:10035000044B1A60201C044B984710BDE5020000B6
:10036000590E000004ED00E0F10200000022044BF1
:100370001A60044A044B1A600722044B1A60704743
:1003800018E000E03F1F000014E000E010E000E093
:1003900008B50A4B1968FF2212040A431A6019684B
:1003A000FF2212060A431A60054B98470022054BAC
:1003B0001A60054B9847054B9847C04620ED00E072
:1003C0006D03000004000020510200003D02000007
:1003D00038B5041C430702D007239C430834104B54
:1003E0009847104B1B68002B05D107230E4A083293
:1003F0009A430C4B1A600D4B1B68E4180C4A94424C
:1004000007D8A34207D2074A1568ED18074B1C60AE
:1004100002E0002500E00025064B9847281C38BD67
:10042000290E0000E43A00204C0000204800002083
:100430008F3A0000850F0000002801D072B6FEE759
:100440007047C046031C0833436001225242826059
:10045000C3600361002303607047C046002303614B
:100460007047C04643684B609A688A609A685160DA
:1004700099600861036801330360704730B50C6808
:10048000021C0832631C01D1026905E053681D6833
:10049000AC4201D31A1CF9E753684B6099608A603B
:1004A0005160086103680133036030BD036942682D
:1004B000816891608268416851605A68824201D1C6
:1004C00092685A600022026118680138186070470B
:1004D00038B5041C151C026C002A08D101680029DB
:1004E0002AD14068164B98470023636024E0002D12
:1004F0000CD18068134B9847A268216C5318A360F5
:100500006268934218D32368A36015E0C0680D4B5E
:100510009847216C4A42E1688B18E36021688B425E
:1005200002D263689A18E260022D05D1A36B002BFA
:1005300002D0A36B013BA363A36B0133A36338BD5C
:100540005D1400005D1D000010B582B001900A1C12
:10055000C46C002C01D172B6FEE7A16BE36B99422B
:1005600001D372B6FEE7A16B00208B420DD9201C8F
:1005700001A9074B98470020636A002B05D0201C77
:100580002430044B9847431E984102B010BDC0462A
:10059000D10400008D12000038B50468002C0CD086
:1005A000026CC568AB18C3604568AB4200D3C46039
:1005B000C368081C191C014B984738BD5D1D00001D
:1005C000F8B5041C234B9847A36C002B1CDD224E6E
:1005D000224DE36C002B07D0201C0021A8470128E6
:1005E0000CD11F4B984709E0636A002B0CD0201CEC
:1005F0002430B047002801D0194B9847A36C013B29
:10060000A364A36C002BE4DC01235B42A364154BC1
:100610009847104B9847636C002B15DD2369002B1E
:1006200012D0271C10370C4E0D4D02E02369002B11
:100630000AD0381CB047002800D0A847636C013BA3
:100640006364636C002BF1DC01235B426364054B44
:100650009847F8BDAD0200008D120000490500006A
:10066000A5130000C502000038B5041C0D1C0028AD
:1006700001D172B6FEE7154B98472368226CE06BF8
:100680005043191861600021A163A360821A9B186E
:10069000E36001235B426364A364002D0BD12169F5
:1006A00000290FD0201C1030094B9847012809D190
:1006B000084B984706E0201C1030074DA847201C27
:1006C0002430A847054B9847012038BDAD020000F3
:1006D0008D1200009502000045040000C5020000D4
:1006E00070B5051C0E1C002811D050200E4B9847E9
:1006F000041E0CD0301C684301300B4B984720601F
:10070000002806D1201C094B984700E0FEE772B68E
:10071000FCE7E5632664201C0121054B9847002374
:10072000E364201C70BDC046D10300003904000002
:1007300069060000F0B557464E464546E0B484B021
:10074000041C0E1C01921D1C002801D172B6FEE78C
:10075000002904D1026C002A01D072B6FEE7022DF6
:1007600004D1E36B012B01D072B6FEE7414B9847F1
:10077000002802D1019A002A03D100273E4B984657
:1007800001E072B6FEE7C047A36BE26B934201D370
:10079000022D1FD1201C311C2A1C384B9847E36CBA
:1007A000002B08D0201C291C354B984701280DD15F
:1007B000344B98470AE0626A002A07D0201C243094
:1007C000314B9847012801D12E4B98472F4B984722
:1007D000012049E0019B002B03D12C4B98470020BE
:1007E00042E0002F03D102A8294A90470127274B56
:1007F0009847284B9847204B9847636C013301D1A9
:1008000000236364A36C013301D10023A3641F4B55
:10081000984702A801A9204B984700281ED1164BE3
:100820009847A26B9246E36B9946184B9847CA4586
:100830000ED1201C10300199184B9847201C184BE2
:100840009847184B984700289DD10E4B98479AE738
:10085000201C134B9847134B984794E7201C104BD0
:100860009847104B9847002004B01CBC904699460E
:10087000A246F0BDBD130000AD020000D10400008F
:1008800049050000950200008D120000C50200001D
:1008900015130000290E000035130000F5110000AB
:1008A000C1050000850F0000F0B5474680B4041C68
:1008B0008846161C1D1C002801D172B6FEE70029CF
:1008C00004D1036C002B01D072B6FEE7022D33D1A8
:1008D000E26B012A39D072B6FEE7201C41462A1C81
:1008E000204B9847A36C01331DD1E36C002B0BD038
:1008F000201C291C1C4B9847012501282AD1002EB9
:1009000016D00123336025E00125626A002A21D038
:10091000201C2430154B984700281BD0002E09D0EE
:100920000123336016E0A36C0133A364012511E0B9
:1009300001250FE001250DE00D4B9847071CA36B27
:10094000E26B9342C9D3002504E0094B9847071C8A
:10095000A36BC2E7381C074B9847281C04BC904681
:10096000F0BDC046D1040000490500008D12000012
:10097000E5020000F1020000F0B54F464646C0B463
:1009800085B0041C0D1C01921F1C002801D172B6F9
:10099000FEE7002904D1036C002B01D072B6FEE7FC
:1009A0004A4B9847002802D1019B002B03D1002617
:1009B000474B984601E072B6FEE7C047A36B002B99
:1009C0002BD0E668201C291C424B9847002F14D1DD
:1009D000A36B013BA3632368002B02D13E4B9847D6
:1009E00060602369002B14D0201C10303B4B9847CB
:1009F00001280ED13A4B98470BE0E660636A002B62
:100A000007D0201C2430354B9847002801D0344BA8
:100A10009847344B9847012052E0019B002B03D1AB
:100A2000304B984700204BE0002E03D102A82E4BFC
:100A3000984701262B4B98472C4B9847244B9847B7
:100A4000636C013301D100236364A36C013301D1D2
:100A50000023A364234B984702A801A9244B98477D
:100A6000002827D11A4B9847A36B99461D4B9847EE
:100A70004B46002B18D12368002B06D1144B984706
:100A800060681C4B9847174B9847201C24300199ED
:100A9000194B9847201C194B9847194B9847002829
:100AA0008BD10F4B984788E7201C144B9847144B69
:100AB000984782E7201C114B9847114B984700201C
:100AC00005B00CBC90469946F0BDC046BD13000071
:100AD000AD02000099050000B11300008D12000066
:100AE00095020000C502000015130000290E000049
:100AF00035130000DD130000F5110000C1050000F2
:100B0000850F000038B5041C0D1C0D4B9847636C15
:100B1000013301D100236364A36C013301D10023AD
:100B2000A364084B9847A36B002B04D1201C2430EE
:100B3000291C054B9847201C044B984738BDC046DC
:100B4000AD020000C50200004D120000C10500000A
:100B5000084B1B681B68002B04D101225242064B34
:100B60001A6006E0034B1B68DB68DB685A68024BBF
:100B70001A607047EC3A00200800002010B5041CF1
:100B80000E4B1B6858600E4B1B68984207D20D4BEA
:100B900018680A4B196804310B4B98470CE00B4B53
:100BA0001868064B19680431074B9847084B1B68B7
:100BB0009C4201D2064B1C6010BDC0469C3B0020ED
:100BC000B83B0020BC3B00207D040000EC3A002034
:100BD00008000020F8B55F4656464D464446F0B43E
:100BE000071C0E1C91469A460A9D002801D172B638
:100BF000FEE7042D01D972B6FEE740205B4B984713
:100C0000041E00D1AAE00C9A002A00D092E04B46C4
:100C10009800564B98472063002800D08CE0201C99
:100C2000534B98479AE0F15CE21834321170F25C51
:100C3000002A02D00133082BF5D100223B23E254D5
:100C40002E1E042E00D90426E662E663221D90467D
:100C5000101C484B99469847201C1830C8472461FF
:100C600005239E1BA66164625846391C5246424BBE
:100C7000984720600B9A002A00D014603F4B984799
:100C80003F4B1A6801321A603E4B1B68002B23D180
:100C90003C4B1C603A4B1B68012B28D13A4E642315
:100CA0009B199946394F301CB84714364E45FAD136
:100CB000374A9146101C354EB047364F381CB04766
:100CC0003548B0473548B0473548B047354B4A46B8
:100CD0001A60354B1F600AE0344B1B68002B06D1AD
:100CE000284B1B68DB6A9D4201D3264B1C60304BAE
:100CF0001A6801321A60E36A2E4A1268934201D9D7
:100D00002C4A13609A00D3189B001F48C018414614
:100D1000294B9847294B9847244B1B680120002BEF
:100D20001ED0184B1B68DB6A9D4219D9244B98478B
:100D3000012015E00C9B0363224A131C4B449B00CB
:100D4000226BD318072293439B4632783423E25414
:100D50003378002B00D170E7012364E70120404283
:100D60003CBC90469946A246AB46F8BDD103000074
:100D7000390400005D04000071020000AD020000B3
:100D8000C43B00209C3B0020243B00204504000085
:100D9000F83A00200C3B0020A03B0020883B0020BC
:100DA000C83B0020EC3A0020BC3B0020F03A002079
:100DB000C03B0020DC3B002065040000C5020000B1
:100DC00095020000FFFFFF3F10B584B000230093A1
:100DD0000193029303930D480D4964220D4CA047E3
:100DE00001280DD10C4B9847012809D172B6012278
:100DF0000A4B1A6000220A4B1A600A4B984703E01C
:100E0000002801D172B6FEE704B010BDD910000071
:100E1000E01D0000D50B000061150000F03A002035
:100E2000B83B002091030000024B1A6801321A609F
:100E30007047C046B43B002010B5044B9847044BA4
:100E40001C68044B9847201C10BDC046AD02000032
:100E5000B83B0020C5020000F0B5474680B43B4BCC
:100E60001B68002B61D13A4B1A6801321A601F6867
:100E7000002F12D1374B1B681B68002B01D072B6B4
:100E8000FEE7344A1168344B186810601960334B20
:100E90001A6801321A60324B9847324B1B680024A3
:100EA0009F4237D32B4E00E0012433681B68002B90
:100EB00004D1012252422B4B1A602BE0254A1368C1
:100EC000DB68DD686B689F4202D2264A136021E02E
:100ED0002B1D9846181C244A9047AB6A002B03D060
:100EE000281C1830204B9847EB6A204A126893421E
:100EF00001D91E4A13609A00D3189B001C48C018E1
:100F000041461C4B98471C4B1B68EA6ADB6A9A42B5
:100F1000CAD2CAE7184B1B68DB6A9A00D3189B0039
:100F2000134A9B58012B06D806E0144B1A6801326D
:100F30001A60002400E00124114B1B68002B00D034
:100F40000124201C04BC9046F0BDC046B43B0020E8
:100F5000B83B0020EC3A0020BC3B0020E83A0020DF
:100F6000510B000008000020AD040000DC3B002015
:100F7000243B0020650400009C3B0020203B002017
:100F8000E03B0020F8B52F4B1B68002B01D172B657
:100F9000FEE72D4B98472B4B1A68013A1A601B68E5
:100FA0000024002B49D1294B1B68002B45D0284D2C
:100FB0002F1C21E0FB68DC68201C1830254B98476B
:100FC000261D301C234B9847E36A234A126893423C
:100FD00001D9214A13609A00D3189B001F48C018FA
:100FE000311C1F4B98471F4B1B68E26ADB6A9A4211
:100FF00002D301221C4B1A602B68002BDAD11B4B49
:101000001B68002B11D0194B1B68002B0DD0184EFC
:10101000154D164CB047002801D001232B602368E2
:10102000013B23602368002BF4D10F4B1B68002485
:10103000012B02D10F4B984701240F4B9847201CDE
:10104000F8BDC046B43B0020AD020000C43B002008
:10105000A03B0020AD040000DC3B0020243B00202E
:10106000650400009C3B0020E03B0020203B00206A
:10107000590E000095020000C502000010B5041EC4
:1010800016D00D4B1B68002B01D072B6FEE70B4B40
:1010900098470B4B1B68E4180A4B186804300A4B3E
:1010A0009847201C094B9847094B9847002801D1C5
:1010B000084B984710BDC046B43B0020290E0000E5
:1010C000B83B00209C3B0020AD0400007D0B0000DD
:1010D000850F000095020000F8B5154E154F1EE073
:1010E000154B9847154B1C68154B9847002C16D08C
:1010F000144B9847114BDB68DC68201D124B984756
:10110000124B1A68013A1A60094B1A68013A1A60C0
:101110000F4B9847206B0F4DA847201CA8473368FA
:10112000002BDDD13B68012BF9D90B4B9847F6E733
:10113000F43A0020243B0020290E0000883B0020C8
:10114000850F0000AD020000AD040000C43B00208C
:10115000C5020000390400009502000010B5204BC4
:101160001B68002B03D001221E4B1A6036E00022C0
:101170001C4B1A601C4B1B689A00D3189B001B4A1F
:101180009B58002B16D1184B1B68002B05D102E091
:101190000268002A04D172B6FEE7134B134C181CE8
:1011A0001A68013A1A601A6891008A189200125956
:1011B000002AEDD00C4B1B689A00D3189B000B4AF9
:1011C000D3185A6852685A60191C08318A4201D1F2
:1011D00052685A605B68DA68054B1A6010BDC046F9
:1011E000B43B0020E03B0020DC3B0020243B0020FF
:1011F0009C3B002038B50C1C002801D172B6FEE7DC
:101200000B4D296818310B4B9847286804300A4B5E
:101210009847631C06D1064B196804310748084BF0
:10122000984704E0074B18682018074B984738BDCB
:101230009C3B00207D040000AD040000C83B002062
:1012400065040000B83B00207D0B000038B50D1C84
:10125000002801D172B6FEE7074C21681831074B10
:10126000984720680430064B9847064B18682818A2
:10127000054B984738BDC0469C3B002065040000E4
:10128000AD040000B83B00207D0B000038B5C368FA
:10129000DC68002C01D172B6FEE7251C1835281C2D
:1012A000144B9847144B1B68002B13D1251D281C89
:1012B000104B9847E36A114A1268934201D90F4ACA
:1012C00013609A00D3189B000D48C018291C0D4BC1
:1012D000984703E00C48291C0A4B98470B4B1B68A6
:1012E000E26ADB6A00209A4203D90122084B1A60A5
:1012F000012038BDAD040000B43B0020DC3B0020E1
:10130000243B002065040000A03B00209C3B002003
:10131000E03B0020002801D172B6FEE7034B1B68BA
:101320000360034B1B6843607047C046E83A0020E7
:10133000B83B002070B5041C0E1C002801D172B609
:10134000FEE7002901D172B6FEE7114B9847114B19
:101350001A683368581C15D00F49096820688842FC
:1013600003D0012561688A420DD26168501A0125B7
:10137000834208D98A1AD3183360201C074B984738
:10138000002500E00025064B9847281C70BDC0468C
:10139000AD020000B83B0020E83A00201513000021
:1013A000C50200000122014B1A607047E03B00209B
:1013B000014B18687047C0469C3B0020054B1B68DA
:1013C0000120002B04D0044B1868434258414000D0
:1013D0007047C046F03A0020B43B002038B5041EE8
:1013E00031D0C36A184A1268D26A93422BD28269FA
:1013F000002A05DB144A1268D26A05218A1A826122
:101400009A00D3189B00114AD31862699A4216D1E8
:10141000251D281C0E4B98470B4B1B68DB6AE362AB
:101420000C4A1268934201D90A4A13609800C31803
:101430009B000648C018291C074B984703E0024B45
:101440001B68DB6AE36238BD9C3B0020243B002024
:10145000AD040000DC3B00206504000038B5041E2C
:101460001DD0C26AC36B9A4219D0051D281C0C4BB3
:101470009847E36BE362A269002A02DB0522D21AD5
:10148000A261084A1268934201D9064A1360980083
:10149000C3189B000448C018291C044B984738BD4A
:1014A000AD040000DC3B0020243B0020650400006C
:1014B00010B5041C4160206191420BD8D21A012062
:1014C000A3699A4211D2094B1868211D084B98470D
:1014D00000200AE09A4202D20120994205D2054B2F
:1014E0001868211D024B9847002010BD183C0020B1
:1014F0007D040000E43B002070B5104B9847104B72
:101500001B68002B16D10F4D281C0F4EB0470F4CF7
:10151000201CB0470E4B1D600E4B1C6002200C219E
:1015200000220D4B9847002802D0054B186001E0BF
:1015300072B6FEE7094B984770BDC046AD02000089
:10154000143C0020E83B002045040000FC3B002048
:10155000E43B0020183C0020E1060000C50200002A
:1015600010B584B00B4B98470B4B1B68002B0CD06D
:101570000223009300230193029303930748084931
:101580005022084CA047002801D172B6FEE704B0F3
:1015900010BDC046F9140000143C0020C91600001C
:1015A000101E0000D50B000010B584B0134C246849
:1015B000002C1FD0019102920390052913DC104BDF
:1015C0009847022807D10D4B186801A9069A0023F5
:1015D0000C4CA0470FE0094B186801A9002200231A
:1015E000084CA04707E0201C01A91A1C0023064C48
:1015F000A04700E0002004B010BDC046143C00200D
:10160000BD13000035070000A9080000F0B55746DB
:101610004E464546E0B482B08146244B984780460A
:10162000234B1B68984234D2224E234F24E0DB68C0
:1016300018688246DC68251D281CB847201C616A92
:101640008847E269012A17D1A069031C5344534516
:1016500007D963602461174B1868291C174B9847FA
:101660000AE000230093201C00215246144CA0479E
:10167000002801D172B6FEE7336818680028D6D179
:10168000104A0C4914680C6013600123484603603B
:1016900002E0002349460B60054B42461A60404673
:1016A00002B01CBC90469946A246F0BD390E00001F
:1016B000103C0020E43B0020AD0400007D0400004D
:1016C000A9150000183C0020F0B5474680B486B04C
:1016D0004E48804641460B681A68002A00D18AE0CD
:1016E000DB681C684A4B984703A84A4B9847051C7F
:1016F000039B002B31D1844223D8474B9847434B5F
:101700001B68DB68DE68301D444B9847F769012F82
:1017100013D1B0692118301C2A1C231C404DA84746
:1017200001280AD100230093301C0021221C3D4CCB
:10173000A047002801D172B6FEE7736A301C9847B3
:101740000DE0394B1868611B384B9847324B98476E
:10175000002804D1364B984701E02F4B9847324D73
:10176000344C40E0039900293DDB059E7269002A54
:1017700002D0301D294B984702A8264B9847031CDE
:10178000039F092F2FD8BA002B498A589746049FE8
:10179000B269B918301C1A1C3B1C214FB8470128EC
:1017A00021D1301C716A8847F269012A1BD1B369C3
:1017B000049FDA1900230093301C0021194EB04712
:1017C000002810D172B6FEE70499B161002901D159
:1017D00072B6FEE75918301C1A1C114EB04702E0D1
:1017E000301C164B9847286803A900220023A04705
:1017F0000028B7D16EE70648804703A80549884707
:10180000051C0024039AA2429BD0A6E7E43B0020DB
:10181000290E00000D160000850F0000AD04000029
:10182000B1140000A9150000143C0020050B0000B5
:101830009502000079090000E81D0000390400004D
:10184000F0B583B001AC012565700027A770257045
:101850003E20211C064EB0478022D205054B9A61DE
:10186000277065700F20211CB04703B0F0BDC04643
:10187000791800008044004100B583B001AB80229C
:101880001A700A785A704A789A708A78DA70191C35
:10189000014B984703B000BD9D1B000070B50C4B79
:1018A0001C6A01788578407801221040800140262A
:1018B000B44304432A40D00180229443221C0243B3
:1018C000032001400902034802400A431A6270BD26
:1018D00000080040FFFCFFFF082846D88000244B8A
:1018E0001B589F46002041E0224B196A02220A43FE
:1018F0001A6200203AE01F4B996902220A439A615A
:10190000002033E01B4B1A6992B202210A431A826B
:1019100000202BE0174B5A6992B202210A439A82A7
:10192000002023E0144B196802220A431A601A6847
:10193000124B1A400F4B9A84191C1022CB681A4282
:10194000FCD00D4A91680B4BD962516899621268BC
:1019500092B29A84002009E0064B596CC9B2022267
:10196000114344229954002000E017207047C046DC
:10197000181E0000000800401C3C00207FFF0000F3
:1019800030B585B0C222D200134B9A60134B5A680F
:101990001E218A435A6003A80024447001258570E3
:1019A00004700F4B984706200E4B98470E4B9847F4
:1019B0000E4B1C725C729C7201956A465470062331
:1019C00013701472547200206946094B9847002026
:1019D000084B984705B030BD00080040004000416A
:1019E0009D180000D9180000F919000000040040FB
:1019F0001D1A0000CD1A0000064B996908220A43FF
:101A00009A610122044B1A70191C0B681342FCD115
:101A10007047C04600040040000C0040F8B5061CAA
:101A2000071C0D782D0205434B78002B02D0802334
:101A3000DB021D434B7A002B02D080231B031D4386
:101A40004C68012C17D9631E1C420FD1022C06D9F9
:101A50000223002201325B009C42FBD800E00022FE
:101A60001702374380235B031D4304E027023743FB
:101A700080239B021D430B7A002B02D080239B0303
:101A80001D430E4A13681904FCD40D4B98470D4BA7
:101A90001E700A490B681A04FCD4084B9F601A1C7C
:101AA00013681904FCD4054B5968802252020A407D
:101AB00015435D60044B9847F8BDC046000C0040DC
:101AC0006D010000080C0040AD01000010B5041CC1
:101AD0000A4A13681904FCD4094B9847094B1C7037
:101AE000064A13681904FCD4044B59688022520238
:101AF0000A435A60044B984710BDC046000C004092
:101B00006D010000040C0040AD01000030B5D37839
:101B1000002B1FD11378802B04D01B068024640275
:101B2000234300E0002354780225AC430AD1947883
:101B3000002C03D18024A402234302E0C024E40249
:101B4000234341605478013CE4B2012C04D8124C88
:101B5000234001E0416000230D042D0CA024E40586
:101B60002C431C4384620D0CD02424062C431C43BC
:101B70008462D478002C0DD15C0305D59378012BB9
:101B800001D1816100E041615378013BDBB2012B5F
:101B900000D8816030BDC046FFFFFBFF08B5031CC5
:101BA0000A1CC1090020002903D15809C0010449B9
:101BB00040181F210B4001219940024B984708BD56
:101BC000004400410D1B00007047C04608B5044B9F
:101BD0009847044B9847044B9847044B984708BDD7
:101BE0008119000041180000C91B0000C91B00003A
:101BF000FEE7C04610B5194B194A9A4203D0194B5B
:101C0000164A9A4204D3184B184A9A4210D31BE042
:101C1000174B14480330C01A80080130800000239D
:101C20000E490F4AD458CC5004338342FAD1EAE724
:101C30000E4B1A1D0C490331891A89088900521864
:101C4000002102C39342FCD10A4B7F210A4A8A43F6
:101C50009A600A4B98470A4B9847FEE7000000201D
:101C6000681E00000C000020343C00200C00002006
:101C70000400002000ED00E000000000151D000041
:101C8000B91C0000F8B5054F8026F605FA25AD0011
:101C9000034CFE61281CA047FBE7C046804400417E
:101CA0007D10000038B5FA25AD00024C281CA04775
:101CB000FCE7C0467D10000030B585B00E4B98475C
:101CC000002400940194029403940C480C4980224F
:101CD000920000230B4DA8470094019402940394B2
:101CE00009480A49802252000023A847084B984718
:101CF000002005B030BDC046CD1B0000A51C000073
:101D00003C1E0000D50B0000851C0000441E000096
:101D1000C90D000070B50D4E0D4D0024AD1BAD106A
:101D200005D0A300F35801349847A542F9D100F03B
:101D30008BF8084E084D0024AD1BAD1005D0A30054
:101D4000F35801349847A542F9D170BD541E0000E4
:101D5000541E0000541E0000581E0000F0B50F2A4B
:101D600035D9031C0B439C0735D1161C103E360990
:101D70003501451910350C1C031C27681F60676866
:101D80005F60A7689F60E7681034DF601033AB4284
:101D9000F3D1731C1B01C518C9180F231340032B63
:101DA0001BD91C1FA4080134A4000023CE58EE50F8
:101DB0000433A342FAD1ED18C91803231A4005D001
:101DC0000023CC5CEC5401339342FAD1F0BD051CE6
:101DD000002AF5D1FAE7051CF2E71A1CF8E7C0461D
:101DE00049444C45000000008E1700008E1700008B
:101DF0008E170000E6170000C8170000E01700006B
:101E00008E1700008E170000E6170000C8170000AC
:101E1000546D722053766300041900006A190000A3
:101E20006A190000E4180000F618000014190000F8
:101E3000E818000024190000581900004D6F6E6961
:101E4000746F72004C656400F8B5C046F8BC08BCFD
:101E50009E46704731010000F8B5C046F8BC08BC8A
:081E60009E46704705010000D9
:0C1E680001000000AAAAAAAAFFFFFFFFC9
:0400000300001BF5E9
:00000001FF
