:1000000000220020452E0000C92E0000C92E00004D
:1000100000000000000000000000000000000000E0
:100020000000000000000000000000005D1E000055
:100030000000000000000000791E0000BD1E00004E
:10004000C92E0000C92E0000C92E0000C92E0000D4
:10005000C92E0000C92E0000C92E0000C92E0000C4
:10006000C92E0000B9110000CD110000E1110000FF
:10007000F5110000091200001D120000C92E000039
:10008000C92E0000C92E0000C92E0000C92E000094
:10009000C92E0000C92E0000C92E0000C92E000084
:1000A000C92E0000C92E0000C92E0000C92E000074
:1000B00010B5064C2378002B07D1054B002B02D03E
:1000C000044800E000BF0123237010BD7800002029
:1000D00000000000AC4A000008B5084B002B03D01C
:1000E0000748084900E000BF07480368002B00D11B
:1000F00008BD064B002BFBD09847F9E70000000035
:10010000AC4A00007C000020AC4A00000000000067
:1001100080B582B000AF0F4B1B68002B12D1EFF3FC
:1001200010837B607B68002B09D172B6BFF35F8FB1
:10013000094B00221A70094B01221A7002E0074B8A
:1001400000221A70034B1B685A1C024B1A60BD46F2
:1001500002B080BD94000020000000209800002024
:1001600080B500AF0A4B1B685A1E094B1A60084B3A
:100170001B68002B0AD1074B1B78DBB2002B05D084
:10018000054B01221A70BFF35F8F62B6BD4680BD7A
:1001900094000020980000200000002080B582B06C
:1001A00000AF78607B6800221A70BD4602B080BD47
:1001B00080B582B000AF021C3960FB1D1A70FB1DB8
:1001C0001B78012B0AD0022B0FD0002B14D10E4B21
:1001D0000D4A91693A680A439A610FE00A4B0A4A4C
:1001E000D1693A680A43DA6108E0074B064A116AA6
:1001F0003A680A431A6201E0172300E00023181C42
:10020000BD4602B080BDC0460004004080B582B04B
:1002100000AF78607B6880221A707B6800225A7079
:100220007B6801229A707B680022DA70BD4602B0BA
:1002300080BDC04680B500AF054B9B78DBB21A1C71
:10024000022313405A1E9341DBB2181CBD4680BDE9
:100250000020004180B584B000AF78607B681B68E7
:10026000FB60FB68DB69072213405A1E9341DBB237
:10027000181CBD4604B080BD80B582B000AF786068
:10028000C0467B68181C034B9847031EF9D1BD4636
:1002900002B080BD5502000090B58DB000AF78600F
:1002A00039602723FB1800221A707B681B68BB612A
:1002B0007B681B687B611323FC187B69181C854BCA
:1002C0009847031C23700823FB18181C824B98477F
:1002D0003B68DB693B623B681B6AFB613B6A002B46
:1002E00006D17B69181C00217C4B9847031C3B629C
:1002F0003B6ADAB20823FB181A700823FB180222A3
:100300005A703B6A1B0CDAB20823FB18101C191C2C
:10031000734B9847FB69002B06D17B69181C0121A0
:100320006E4B9847031CFB61FB69DAB20823FB188C
:100330001A700823FB1802225A70FB691B0CDAB2F0
:100340000823FB18101C191C654B98473B689A8AB8
:100350007B68DA803B68DA8A7B681A813B681B7E9F
:10036000002B03D15F4B9847031E02D08023FB6212
:1003700001E00023FB623B681B69002B04D03B6853
:100380001B69FA6A1343FB623B689B68FA6A134372
:10039000FB623B6824229B5C002B04D0FB6A80221A
:1003A000D2051343FB623B689B6A002B04D03B6879
:1003B0009B6AFA6A1343FB623B682C229B5C002B0E
:1003C00004D0FB6A802212051343FB623B682D2296
:1003D0009B5C002B04D0FB6A802212041343FB6257
:1003E0003B682E229B5C002B04D0FB6A8022D20348
:1003F0001343FB62BB691A68FB6A1A43BB691A6044
:10040000BB69802252005A601323FB181B781433F7
:10041000DBB2181C344B9847011C3B681B68FA225E
:10042000D2005343CB18591E3B681B68FA22D200F6
:100430005A432E4B081C111C9847031C053BFB60BC
:10044000FB68FF2B02DCFB68002B04DA2723FB1878
:1004500040221A7025E01323FB181B781433DBB2FB
:10046000181C214B9847011C3B685B68FA22D2009C
:100470005343CB18591E3B685B68FA22D2005A439B
:100480001A4B081C111C9847031C013BBB62BB6A3A
:10049000FF2B02DCBB6A002B03DA2723FB18402268
:1004A0001A702723FB181B78402B0BD0FB68FF2208
:1004B0001A40BB6A1B04191CFF231B040B401A4380
:1004C000BB69DA602723FB181B78181CBD460DB0EA
:1004D00090BDC046991000000D020000DD0E000026
:1004E000C52D000035020000FD2B00007D36000008
:1004F00080B58AB000AFF860B9607A60FB68BA680E
:100500001A60FB681B687B62FB681B68181C254B24
:100510009847031C3B623B6A0233FB613B6A14331E
:10052000BB61FB6901229A40131C0220191C1E4B5F
:1005300098471423FB18181C1C4B98477B681A7BA0
:100540001423FB181A70BB69DAB21423FB18101CB1
:10055000191C174B9847BB69DBB2181C154B984701
:100560007B681B7B181C0021134B98477B6A1B6818
:100570000222134001D01C2310E07B6A1B68012279
:10058000134001D0052309E07B6A14221A60FA683F
:100590007B68101C191C094B9847031C181CBD468E
:1005A0000AB080BD99100000B10100009D0100005B
:1005B000D92A00001D2B0000510E000099020000F6
:1005C00080B584B000AF78607B681B68FB60FB6817
:1005D0001B7EDBB21A1C022313400BD0FB680222E5
:1005E0001A76FB685B8B9BB21A1C0223134011D056
:1005F000412310E0FB685B8B9BB21A1C0423134061
:1006000008D0FB685B68C02292021A43FB685A60FC
:10061000182300E00023181CBD4604B080BDC0466E
:1006200080B584B000AF78607B681B68BB600E2328
:10063000FB1800221A800FE00E23FB180E22BA18B6
:10064000128801321A807B681B890E22BA18128820
:100650009A4201D312230EE0BB681B7EDBB21A1C48
:100660000123134006D1BB681B7EDBB21A1C022398
:100670001340E1D00023181CBD4604B080BDC04625
:1006800090B585B000AF78600A1CFB1C1A707B68BF
:100690001B68FB60FB685B688022D2021A43FB6820
:1006A0005A60FB1C1A78FB685A620B23FC187B68A3
:1006B000181C074B9847031C2370FB6801221A760D
:1006C0000B23FB181B78181CBD4605B090BDC04617
:1006D0002106000090B587B000AF786039607B6874
:1006E0001B68FB601423FB183A6852881A80122397
:1006F000FB1800221A80FB681B68DB0E1A1C012302
:100700001340DBB21A1C0B23FB18511E8A411A70CE
:100710003B685B7A002B06D03B689B7A7A68101C9A
:10072000191C7A4B9847FB685B68794A1A40FB684A
:100730005A603B681B7A002B42D03B681B885A00EA
:100740003B685B7A9B0313431A1C80231B021A43EA
:10075000FB685A621723FC187B68181C6D4B98477E
:10076000031C2370FB685B68694A1A40FB685A6087
:100770001723FB181B78002B07D11723FC187B6865
:10078000181C654B9847031C23701723FB181B7814
:10079000002B11D13B681B881B0A9BB278221343A4
:1007A0009BB25A003B685B7A9B03134301221343BD
:1007B0001A1CFB685A620FE01723FB181B78A0E095
:1007C0003B681B885B0001221A433B685B7A9B03F2
:1007D00013431A1CFB685A621723FC187B68181C09
:1007E0004C4B9847031C2370FB685B68484A1A40CF
:1007F000FB685A601723FB181B78002B07D11723BF
:10080000FC187B68181C444B9847031C2370172363
:10081000FB181B78002B00D070E048E0FB685B8B76
:100820009BB21A1C2023134001D1412369E00B2302
:10083000FB181B7801225340DBB2002B04D0142399
:10084000FB181B88002B09D00B23FB181B78002BEF
:100850000CD01423FB181B88012B07D1FB685B68A5
:100860008022D2021A43FB685A601AE07B68181C87
:100870002A4B98473B685A681223FB181B881221A1
:100880007918581C0880D318FA682821525CD2B213
:100890001A701723FC187B68181C1E4B9847031C02
:1008A00023701723FB181B78002B00D008E01423BB
:1008B000FB181B881422BA18591E1180002BADD1C9
:1008C0007B689B7A002B0AD07B68181C134B9847D7
:1008D000FB685B68C02292021A43FB685A607B681F
:1008E000181C0E4B98473B685A681223FB181B884C
:1008F000D318FA682821525CD2B21A701723FB1859
:100900001B78181CBD4607B090BDC046810600008C
:10091000FFFFFBFF21060000C10500007902000077
:1009200080B582B000AF786039607B6801229A722E
:100930007A683B68101C191C034B9847031C181C51
:10094000BD4602B080BDC046D506000090B587B058
:1009500000AF786039607B681B68FB601423FB186C
:100960003A6852881A807B68181C514B98473B683C
:100970005B7A002B06D03B689B7A7A68101C191CA6
:100980004C4B9847FB685B684B4A1A40FB685A60BF
:100990003B681B7A002B0DD03B681B885A003B68D4
:1009A0005B7A9B0313431A1C80231B021A43FB68C8
:1009B0005A6209E03B681B885A003B685B7A9B03DC
:1009C00013431A1CFB685A621723FC187B68181C17
:1009D0003A4B9847031C23701723FB181B78002BF6
:1009E00007D11723FC187B68181C354B9847031C4C
:1009F00023701723FB181B78002B51D11223FB18EF
:100A000000221A8034E0FB685B8B9BB21A1C202307
:100A1000134001D1412346E07B68181C244B9847C2
:100A20003B685A681223FB181B8812217918581C3E
:100A30000880D3181978FB68282299541723FC18CA
:100A40007B68181C1D4B9847031C23701723FB1849
:100A50001B78002B00D014E0FB685B8B9BB21A1C48
:100A60000423134004D01723FB181E221A7008E039
:100A70001423FB181B881422BA18591E1180002B4E
:100A8000C1D17B689B7A002B0AD07B68181C084B6D
:100A90009847FB685B68C02292021A43FB685A6061
:100AA0001723FB181B78181CBD4607B090BDC04625
:100AB0007902000081060000FFFFFBFF2106000015
:100AC000C105000080B582B000AF786039607B68F6
:100AD00001229A727A683B68101C191C034B9847D4
:100AE000031C181CBD4602B080BDC0464D09000065
:100AF00080B582B000AF78607B6800221A70BD4676
:100B000002B080BDF0B58DB000AFB860F9603A605A
:100B10007B60002300243B627C6200230024BB61D5
:100B2000FC613F23FB6253E0FB6A203B002B04DBAC
:100B300001229A40131C7B610BE0FB6A2022D31A2E
:100B40000122DA40131C0021FA6A91400A1C134367
:100B50007B610122FB6A9A40131C3B61BB69FC6903
:100B6000DB186441BB61FC61BB683A691A40151C23
:100B7000FB687A691A40161C2B1C334307D0BB69EB
:100B800001221343BB61FB6900221343FB617A68B6
:100B9000FB699A4219D87A68FB699A4203D13A688C
:100BA000BB699A4211D8B969FA693B687C68C91A6D
:100BB000A2410B1C141CBB61FC613A6A3B691343E4
:100BC0003B627A6A7B6913437B62FB6A013BFB628F
:100BD000FB6A002BA8DA3B6A7C6A181C211CBD4604
:100BE0000DB0F0BD80B586B000AFF860B9607A6036
:100BF0001623FB1800221A80BB683B61BB685A08A9
:100C0000FB689A4201D2402326E0BB685B083B6147
:100C10000AE03A69FB68D31A3B611623FB181A886D
:100C20001623FB1801321A803A69FB689A42F0D207
:100C30001623FB181622BA181288013A1A801623B6
:100C4000FB181B88FF2B01D9402305E07B68162287
:100C5000BA1812881A800023181CBD4606B080BD41
:100C6000F0B59DB000AFF863B9637A633322BA1868
:100C7000137000230024BB65FC65002300243B6542
:100C80007C6500230024BB66FC6600233B6658237A
:100C900030229446BC4463441A78FB6B5A43BB6BC6
:100CA0009A4201D94023C9E03323FB181B78002B5B
:100CB0003FD1582330229446BC4463441B78DBB2B6
:100CC0003B6100237B61FB6BBB600023FB605D4CE1
:100CD00038697969BA68FB68A047031C0C1C1B00C3
:100CE000FB640023BB64BB6B3B6000237B60BB6C7D
:100CF000FC6C181C211C3A687B68534CA047031CF1
:100D00000C1CBB65FC6500210122BB6DFC6DC91A82
:100D1000A2410B1C141C3B657C653B6D1B0C7A6D62
:100D200016041E433B6D1D043300BB660023FB66A7
:100D30007EE03323FB181B78012B00D078E03723AB
:100D400030229446BC44634400221A7051E0BB6BCD
:100D5000BB620023FB62B86AF96A031C5B0F0A1CC2
:100D6000D2001343FB64031CDB00BB64FB6B3B62E0
:100D700000237B62582330229446BC4463441B7892
:100D8000DBB2BB610023FB612E4C386A796ABA6919
:100D9000FB69A047031C0C1C3B647C64B96CFA6CB7
:100DA0003B6C7C6C081C111C1A1C231C264CA04795
:100DB000031C0C1C3B66372330229446BC4463441E
:100DC0001B783A6ED31A3B663B6EDB083B663B6E84
:100DD0001E4A934200D814E0372330229446BC4484
:100DE00063441A78372330218C46BC446344013273
:100DF0001A70372330229446BC4463441B78072B77
:100E0000A5D9372330229446BC4463441B78082B71
:100E100001D1402312E0372330229446BC4463447E
:100E20001B785B031A1C3B6E1343BB660023FB66F7
:100E3000BB6EFC6E9AB27B6B1A800023181CBD46F9
:100E40001DB0F0BDA1370000050B0000FF1F000022
:100E500080B584B000AF021CFB1D1A70BB1D0A1CBC
:100E60001A701A4B1B7801225340DBB2002B03D1BE
:100E7000BB1D1B78002B1BD00C23FB18181C144B1C
:100E800098470C23FB18FA1D12781A700C23FB18D4
:100E90001320191C0F4B984713200F4B98470B4BEF
:100EA000FA1D12785A70094B01221A70002308E0CB
:100EB000064B5B78FA1D12789A4201D1002300E0BC
:100EC0001D23181CBD4604B080BDC0469C000020F8
:100ED000F10A0000D92A00001D2B000080B582B065
:100EE00000AF78600A1CFB1C1A707B684D4A934265
:100EF0003FD04C4A934206D84B4A93420FD04B4ABC
:100F0000934221D089E04A4A934200D15BE0494AAA
:100F1000934200D16CE0484A93423FD07DE0FB1CF5
:100F20001B78012B0AD002DC002B05D075E0022BC8
:100F300006D0032B06D070E0404B6FE0404B6DE0D5
:100F4000404B6BE0404B69E0FB1C1B78012B0AD047
:100F500002DC002B05D060E0022B06D0032B06D06C
:100F60005BE003235AE0394B58E0394B56E0394BEC
:100F700054E0FB1C1B78012B0AD002DC002B05D0AF
:100F80004BE0022B06D0032B06D046E0324B45E067
:100F9000324B43E0324B41E0324B3FE0FB1C1B78CD
:100FA000012B0AD002DC002B05D036E0022B06D044
:100FB000032B06D031E02C4B30E02C4B2EE02C4B99
:100FC0002CE02C4B2AE0FB1C1B78012B0AD002DC06
:100FD000002B05D021E0022B06D0032B06D01CE00D
:100FE000254B1BE0254B19E0254B17E0254B15E061
:100FF000FB1C1B78012B0AD002DC002B05D00CE077
:10100000022B06D0032B06D007E01F4B06E01F4B38
:1010100004E01F4B02E01F4B00E00023181CBD46FC
:1010200002B080BD0010004200080042000C0042E7
:1010300000180042001C004200140042030004009B
:101040000300050003000600030007000300010081
:1010500003001E0003001F00030008000300090036
:1010600003000A0003000B0003001000030011003E
:10107000030012000300130003000C0003000D0026
:1010800003000E0003000F0003001600030017000A
:10109000030018000300190090B58BB000AF786012
:1010A0000C23FB180E4A13CA13C313CA13C300231D
:1010B0007B620DE07B680C22BA18796A89008A5835
:1010C000934202D17B6ADBB206E07B6A01337B622A
:1010D0007B6A052BEED90023181CBD460BB090BDD2
:1010E0007048000080B582B000AF021CFB1D1A7072
:1010F000BD4602B080BDC04680B584B000AF021CC2
:101100003960FB1D1A70134B1B7801225340DBB270
:10111000002B15D00023FB600CE00F4BFA68920007
:101120000E49D1500E4BFA6892000021D150FB6855
:101130000133FB60FB68052BEFD9064B01221A70C7
:10114000FB1D1A78044B92003968D150BD4604B09B
:1011500080BDC0469E000020A0000020E5100000D9
:10116000D401002090B585B000AF78600823FA184C
:101170000E4B111C1A1C0623081C111C1A1C0C4BAC
:1011800098470F23FC187B68181C0A4B9847031CD0
:1011900023700F23FB181B780822BA18D35CDBB22C
:1011A0005BB2181CBD4605B090BDC0468848000023
:1011B000413800009910000080B500AF024B1B6859
:1011C00000209847BD4680BDA000002080B500AF3C
:1011D000024B5B6801209847BD4680BDA0000020FF
:1011E00080B500AF024B9B6802209847BD4680BD8A
:1011F000A000002080B500AF024BDB6803209847B9
:10120000BD4680BDA000002080B500AF024B1B6929
:1012100004209847BD4680BDA000002080B500AFE7
:10122000024B5B6905209847BD4680BDA0000020A9
:1012300080B582B000AF78607B6800221A70BD462E
:1012400002B080BD80B582B000AF021C3960FB1DCA
:101250001A70FB1D1B78012B0AD0022B0FD0002B1C
:1012600014D10E4B0D4A91693A680A439A610FE016
:101270000A4B0A4AD1693A680A43DA6108E0074B27
:10128000064A116A3A680A431A6201E0172300E02D
:101290000023181CBD4602B080BDC04600040040BB
:1012A00080B582B000AF78607B6880221A707B685E
:1012B00000225A707B6801229A707B680022DA70E3
:1012C000BD4602B080BDC04680B500AF054B9B78DF
:1012D000DBB21A1C022313405A1E9341DBB2181CC6
:1012E000BD4680BD0020004180B584B000AF78606D
:1012F0007B681B68FB60FB68DB695A1E9341DBB2AD
:10130000181CBD4604B080BD80B582B000AF7860C7
:10131000C0467B68181C034B9847031EF9D1BD4695
:1013200002B080BDE9120000F0B58DB002AF786068
:1013300039607B681B68BB617B681B68181CAE4BFF
:101340009847031C7B617B6914333B6100237B62FC
:1013500000233B620E23FB1800221A801F23FB1878
:1013600000221A701E23FB1810221A703B681B8A79
:101370008022D20193421CD08022D201934206DC0B
:10138000002B0DD080229201934224D035E0C02260
:10139000D201934228D080221202934212D02CE034
:1013A0001F23FB1800221A701E23FB1810221A702C
:1013B00023E01F23FB1800221A701E23FB180822AB
:1013C0001A701AE01F23FB1800221A701E23FB1844
:1013D00003221A7011E01F23FB1801221A701E232A
:1013E000FB1810221A7008E01F23FB1801221A7044
:1013F0001E23FB1808221A70C0463B681A683B6817
:10140000DB681A433B685B6913433A68128A1343EB
:101410003A68127E120213433A682621525C520740
:1014200013437B621D23FB1800221A703B685B6824
:10143000002B20D080225205934250D13B682722B6
:101440009B5C01225340DBB2002B13D03B681D6A2A
:101450003B69DBB2181C694B9847021C1D23FC1822
:101460000E23FB18281C111C1A1C654B9847031CE3
:10147000237034E033E03B6827229B5C002B14D0C0
:101480003B68186A3B68996A1D23FC180E23FA18FA
:101490001F23FB181D781E23FB181B7800932B1CA1
:1014A000584DA847031C237018E03B681E6A3B692F
:1014B000DBB2181C514B9847011C1D23FC180E234E
:1014C000FA181F23FB181D781E23FB181B780093A6
:1014D000301C2B1C4B4DA847031C2370C0461D23FA
:1014E000FB181B78002B03D01D23FB181B787EE014
:1014F0003B685B7E002B03D03B689A7EBB699A7386
:101500007B68181C404B98470E23FB181A88BB6950
:101510009A813B685B687A6A13437B623B68272247
:101520009B5C01225340DBB2002B03D07B6A042278
:1015300013437B623B689A7A3B68DB7A1343DBB2E6
:101540001A1C3B685B7E9B0213433A68127F52026F
:1015500013433A68527F120213433A682421525CC3
:10156000520413433A682521525C120413433B6230
:101570003B681B89FF2B15D03B68DB7E002B05D019
:101580007B6AA022D20413437B6204E07B6A802240
:10159000520413437B623B681B891A1C3B6A13434A
:1015A0003B6208E03B68DB7E002B04D07B6A802234
:1015B000D20413437B623B682C229B5C002B03D13B
:1015C000124B9847031E03D07B6A802213437B6231
:1015D0007B68181C0C4B9847BB693A6A5A607B6859
:1015E000181C094B9847BB697A6A1A600023181CBB
:1015F000BD460BB0F0BDC04699100000FD2B0000A9
:10160000E50B0000610C000009130000C912000086
:1016100090B593B000AFF860B9607A603B23FB18D7
:1016200000221A70FB68BA681A60FB681B687B634B
:10163000FB681B68181C854B9847031C3B633B6B7E
:101640000233FB623B6B1433BB627B6B1B68012272
:10165000134001D00523F5E07B6B1B680222134089
:1016600001D01C23EEE0FB6A01229A40131C0220E9
:10167000191C774B98472423FB18181C754B984767
:101680007B682D229A5C2423FB181A70BB6ADAB29D
:101690002423FB18101C191C6F4B9847BB6ADBB244
:1016A000181C6E4B98477B682D229B5C181C0021F0
:1016B0006B4B98477B68DA7AFB685A717B68242207
:1016C0009A5CFB689A717B6825229A5CFB68DA71E8
:1016D0007B68DA7EFB681A727B681A7FFB685A7235
:1016E0003B23FC18FA687B68101C191C5D4B98475B
:1016F000031C23703B23FB181B78002B03D03B23D8
:10170000FB181B789EE02023FB18181C564B9847AB
:101710002023FB1800225A702023FB1800229A7005
:101720007B681A6B1023FB181A607B685A6B1023B6
:10173000FB185A607B689A6B1023FB189A607B68D1
:10174000DA6B1023FB18DA604723FB1800221A70AB
:101750002CE04723FB181A781023FB189200D3586B
:101760003B643B6C002B09D1BA684723FB181B78FC
:10177000101C191C3D4B9847031C3B643B6C013308
:101780000DD03B6CDAB22023FB181A703B6C1B0C9B
:10179000DAB22023FB18101C191C354B984747233D
:1017A000FB181A784723FB1801321A704723FB18DD
:1017B0001B78032BCDD90023FB6309E0FA68FB6B90
:1017C00002339B00D31800225A60FB6B0133FB638A
:1017D000FB6B052BF2D9FB6800229A62FB680022A2
:1017E0005A62FB680022DA85FB6800229A85FB6852
:1017F000302200219954FB68312200219954FB6862
:10180000322200219954FB68332200219954FB684D
:101810001B682722BC18181C0C4B9847031C23700C
:101820002723FB181A78134B101C191C124B9847CE
:101830002723FB181A78114B9200F968D1503B23EB
:10184000FB181B78181CBD4613B090BD9910000002
:101850004512000031120000D92A00001D2B0000A3
:10186000510E000029130000A1120000DD0E00003F
:10187000C52D0000251A0000F9100000D401002039
:1018800080B584B000AF78600A1CBB1C1A807B68EE
:101890001B68FB607B68DB7901225340DBB2002BC5
:1018A00001D01C2317E07B68DB8D9BB2002B01D09D
:1018B000052310E07B68181C094B9847FB68BA1C8D
:1018C00012881A85C046FB681B7EDBB21A1C0223F5
:1018D0001340F8D00023181CBD4604B080BDC0469C
:1018E0000913000080B584B000AF786039607B6870
:1018F0001B68FB607B689B7901225340DBB2002BA5
:1019000001D01C2368E07B689B8D9BB2002B01D02B
:10191000052361E0FB681B7EDBB21A1C0423134025
:1019200001D1052358E07B68181C2D4B9847FB68B4
:101930005B8B9BB2DAB20B23FB183F210A401A7073
:101940000B23FB181B78002B40D00B23FB181B78B4
:101950000222134004D0FB6802225A831A233BE080
:101960000B23FB181B780422134004D0FB680422CD
:101970005A831E2330E00B23FB181B7801221340EF
:1019800004D0FB6801225A83132325E00B23FB18A4
:101990001B781022134009D0FB685B8B9BB210228E
:1019A00013439AB2FB685A83422315E00B23FB18BA
:1019B0001B782022134009D0FB685B8B9BB220224E
:1019C00013439AB2FB685A83412305E0FB681B8DE1
:1019D0009AB23B681A800023181CBD4604B080BD33
:1019E0000913000080B584B000AF78607B681B6885
:1019F000FB60FB68DB695A1E9341DBB2181CBD46D5
:101A000004B080BD80B582B000AF7860C0467B680E
:101A1000181C034B9847031EF9D1BD4602B080BD88
:101A2000E519000080B588B000AF021CFB1D1A70DC
:101A3000FB1D1A78B04B9200D358BB61BB691B6881
:101A40007B61BB69181CAD4B98477B691B7EDAB282
:101A50001223FB181A807B699B7DDBB29AB212239A
:101A6000FB181221791809880A401A80BB693022B4
:101A70009B5CBA693121525C1340DAB21023FB1827
:101A80001A801223FB181B880122134044D0BB6923
:101A9000DB8D9BB2002B3CD0BB699B6A1B78DAB212
:101AA0001C23FB181A80BB699B6A5A1CBB699A628B
:101AB000BB695B79012B12D1BB699B6A1B78DBB2D6
:101AC0001B029AB21C23FB181B8813439AB21C23D7
:101AD000FB181A80BB699B6A5A1CBB699A621C235B
:101AE000FB181B88DB05DB0D9AB27B691A85BB6985
:101AF000DB8D9BB2013B9BB2BA69191CD185002BCF
:101B000006D17B6901221A757B6902229A7503E06E
:101B100002E07B6901221A751223FB181B8802223E
:101B2000134011D07B6902221A75BB693322002150
:101B300099541023FB181B880122134004D0BB6961
:101B4000DB68BA69101C98471223FB181B88042213
:101B5000134000D1D7E0BB699B8D9BB2002B00D115
:101B6000CEE07B695B8B9BB2DAB21F23FB183F216F
:101B70000A401A701F23FB181B780822134007D055
:101B80001F23FB181F22BA18127808218A431A70E3
:101B90001F23FB181B78002B00D169E01F23FB18C3
:101BA0001B78022213400CD0BB6932221A219954AF
:101BB0007B695B8B9BB2022213439AB27B695A8387
:101BC0004AE01F23FB181B78042213400CD0BB698A
:101BD00032221E2199547B695B8B9BB204221343F2
:101BE0009AB27B695A8337E01F23FB181B780122C6
:101BF00013400CD0BB693222132199547B695B8B53
:101C00009BB2012213439AB27B695A8324E01F23BB
:101C1000FB181B78102213400CD0BB6932224221E2
:101C200099547B695B8B9BB2102213439AB27B69F8
:101C30005A8311E01F23FB181B78202213400BD07E
:101C4000BB693222412199547B695B8B9BB2202274
:101C500013439AB27B695A831023FB181B88042212
:101C6000134050D0BB695B69BA69101C98474AE0C1
:101C70007B691B8D9AB20E23FB18D205D20D1A80F8
:101C8000BB695B6A0E22BA181288D2B21A70BB699D
:101C90005B6A5A1CBB695A62BB695B79012B0DD127
:101CA000BB695B6A0E22BA181288120A92B2D2B2CB
:101CB0001A70BB695B6A5A1CBB695A62BB699B8D0F
:101CC0009BB2013B9BB2BA69191C9185002B12D1C2
:101CD0007B6904221A75BB693222002199541023B2
:101CE000FB181B880222134005D0BB691B69BA6927
:101CF000101C984707E006E0D4010020051A0000F8
:101D00007B6904221A751223FB181B8810221340CA
:101D100010D07B6910221A757B6910221A76102365
:101D2000FB181B881022134004D0BB69DB69BA6919
:101D3000101C98471223FB181B882022134010D038
:101D40007B6920221A757B6920221A761023FB18E2
:101D50001B880822134004D0BB699B69BA69101C18
:101D600098471223FB181B880822134010D07B6968
:101D700008221A757B6908221A761023FB181B8823
:101D80002022134004D0BB691B6ABA69101C984713
:101D9000BD4608B080BDC04680B586B000AFF860D3
:101DA000B9607A6000237B61FB68002B02D00123BD
:101DB0005B4215E010E00C4B1A680C4B1968BB68CD
:101DC000081C191C9047BB680133BB607B69013359
:101DD0007B617B68013B7B607B68002BEBDC7B6974
:101DE000181CBD4606B080BDEC010020F4010020A7
:101DF00080B586B000AFF860B9607A6000237B617F
:101E0000FB68012B08D0FB68022B05D0FB68032B75
:101E100002D001235B4219E014E00E4B1A680E4B0E
:101E20001868BB68591CB9601B78191C9047031EC1
:101E300002DA01235B4209E07B6901337B617B6845
:101E4000013B7B607B68002BE7D17B69181CBD469A
:101E500006B080BDF0010020F401002080B500AF85
:101E6000BD4680BDEFF3108072B670470023181C8A
:101E700080F310887047C046EFF309800E4B1A6854
:101E800020381060F0C044464D4656465F46F0C0CC
:101E900008B572B600F036F962B60CBC1168086875
:101EA0001030F0C8A046A946B246BB4680F3098868
:101EB0002038F0C81847C046B800002080B582B06E
:101EC00000AF094B9847031C7B60084B9847031EE3
:101ED00003D0074B802252051A607B68181C054B03
:101EE0009847BD4602B080BD651E00008D1F0000F2
:101EF00004ED00E0711E000080B584B000AF786092
:101F000039607B685B68FB603B68FA685A60FB6815
:101F10009A683B689A60FB689B683A685A60FB68FD
:101F20003A689A603B687A681A617B681B685A1C39
:101F30007B681A60BD4604B080BDC04680B584B0E1
:101F400000AF78607B681B69FB607B685B687A68C0
:101F500092689A607B689B687A6852685A60FB68EE
:101F60005A687B689A4203D17B689A68FB685A601A
:101F70007B6800221A61FB681B685A1EFB681A60A6
:101F8000FB681B68181CBD4604B080BD80B586B0D8
:101F900000AF00237B614D4B1B68002B00D084E019
:101FA0004B4B1B685A1C4A4B1A60494B1B683B61E0
:101FB0003B69002B17D1474B1B681B68002B01D0D6
:101FC00072B6FEE7434B1B68FB60434B1A68414BFC
:101FD0001A60414BFA681A60404B1B685A1C3F4B11
:101FE0001A603F4B98473F4B1B683A699A424ED361
:101FF000384B1B681B68002B01D1012300E0002334
:10200000002B04D0374B012252421A603FE0314B83
:102010001B68DB68DB68BB60BB685B687B603A6938
:102020007B689A4203D22F4B7A681A602FE0BB6814
:102030000433181C2C4B9847BB689B6A002B04D0B8
:10204000BB681833181C284B9847BB68DA6A274BC3
:102050001B689A4203D9BB68DA6A244B1A60BB68D2
:10206000DA6A131C9B009B189B00214A9A18BB68D4
:102070000433101C191C1F4B9847BB68DA6A1E4BAF
:102080001B68DB6A9A4201D301237B61B0E71A4BDC
:102090001B68DA6A1649131C9B009B189B005B584F
:1020A000012B07D901237B6104E0144B1B685A1CE8
:1020B000124B1A60124B1B68002B01D001237B616D
:1020C0007B69181CBD4606B080BDC0463C0100209F
:1020D00028010020200100202401002038010020D8
:1020E000A5210000040000203D1F00002C0100205D
:1020F000BC000020F91E0000B800002030010020C4
:102100003401002080B582B000AF214B1B68002B4A
:1021100003D0204B01221A6036E01E4B00221A60C9
:102120000AE01D4B1B68002B01D172B6FEE71A4B6B
:102130001B685A1E184B1A60174B1A681749131C54
:102140009B009B189B005B58002BEAD0124B1A682F
:10215000131C9B009B189B00104A9B187B607B689C
:102160005B685A687B685A607B685A687B6808338A
:102170009A4204D17B685B685A687B685A607B68C6
:102180005B68DA68064B1A60BD4602B080BDC04687
:102190003C010020340100202C010020BC00002064
:1021A000B800002080B582B000AF0D4B1B681B68E3
:1021B000002B01D1012300E00023002B04D0094BA8
:1021C000012252421A6008E0054B1B68DB68DB689D
:1021D0007B607B685A68034B1A60BD4602B080BDC5
:1021E000200100200400002080B584B000AF021C54
:1021F000FB1D1A700F23FB18FA1D1278D2091A70F2
:102200000E23FB18FA1D127852091A700D4BBB6091
:102210000F23FB181B78002B0FD10F23FB181B7803
:102220009B0010229446BC446344083B1A680E236A
:10223000FB181B78DB01D31800E00023181CBD46F7
:1022400004B080BD0044004180B582B000AF021CE4
:10225000FB1D1A70FB1D1B78181C034B9847031CB1
:10226000181CBD4602B080BDE921000080B582B0D7
:1022700000AF78607B6800221A707B6801225A7078
:102280007B6800229A70BD4602B080BD80B584B0E4
:1022900000AF021CFB1D1A70BB1D0A1C1A70FB1D2F
:1022A0001B78181C0C4B9847031CFB60FB1D1B780C
:1022B0001F22134001229A40131CBB60BB1D1B78D8
:1022C000002B03D0FB68BA689A6102E0FB68BA6829
:1022D0005A61BD4604B080BD4922000080B582B07D
:1022E00000AF3B1D181C0E4B98473B1D01221A7076
:1022F0003B1D3E20191C0B4B98473E2001210A4BE9
:1023000098473B1D00221A703B1D01225A703B1D4D
:102310000F20191C034B9847BD4602B080BDC04634
:102320006D220000552300008D22000080B582B090
:1023300000AF78607B6880221A707B6800225A7038
:102340007B6801229A707B680022DA70BD4602B079
:1023500080BDC04680B584B000AF021C3960FB1D53
:102360001A700C23FB18181C0F4B98470C23FB18F2
:1023700080221A703B681A780C23FB185A703B684D
:102380005A780C23FB189A703B689A780C23FB1838
:10239000DA70FB1D1A780C23FB18101C191C034B58
:1023A0009847BD4604B080BD2D230000C52D000018
:1023B00080B582B000AF78607B6801225A607B688C
:1023C00000225A707B6806221A707B6800221A72FB
:1023D0007B6800225A72BD4602B080BD80B582B0D3
:1023E00000AF78607B6803221A707B6800225A7005
:1023F0007B6801229A70BD4602B080BD80B582B074
:1024000000AF021CFB1D1A70034AFB1D1B781372E0
:10241000BD4602B080BDC0460004004080B582B019
:1024200000AF021CFB1D1A70BB1D0A1C1A70FB1D9D
:102430001B78012B08D0022B0BD0002B0ED10B4A9E
:10244000BB1D1B7853720BE0084ABB1D1B789372AF
:1024500006E0064ABB1D1B78D37201E0172300E09B
:102460000023181CBD4602B080BDC04600040040D9
:1024700080B582B000AF021CFB1D1A70084BFA1D1C
:1024800012780F210A40D2B20F210A405200596837
:102490001E2081430A435A60BD4602B080BDC0463B
:1024A0000040004180B500AFC046034BDB681022FE
:1024B0001340FAD0BD4680BD0008004080B500AF93
:1024C0000C4A0D4B1B689BB280218B439BB29384BB
:1024D0000A4B9847074A084B9B68D362054A064B4C
:1024E0005B689362034A044B1B689BB29384BD46AE
:1024F00080BDC0460008004040010020A524000027
:1025000080B582B000AF021CFB1D1A70FB1D1B784A
:10251000082B42D89A00234BD3181B689F46224BA6
:102520001B693BE0214B1B6A1B0A1A1C0323134047
:10253000DBB21A1C1E4BD34030E080231B022DE07F
:1025400080231B022AE0184B5B6927E0164B1B68AF
:102550000222134001D1002320E0164B9847124B72
:102560001B680422134009D00020134B9847021C1B
:102570000D4B9B681B041B0C53430FE00F4B0DE0EE
:102580000A4A5023D35CDBB21A1C0423134001D146
:10259000002303E0044BDB6800E00023181CBD4669
:1025A00002B080BD904800004001002000080040BB
:1025B00000127A00A5240000FD2B0000006CDC0254
:1025C00080B584B000AF78601A4B1B6AFB607B68F3
:1025D0001B781A1C03231340DAB20D23FB180321C6
:1025E0000A40101C1A7803218A43111C021C0A435A
:1025F0001A707B689A780C23FB18D0011A787F2117
:102600000A40111C021C0A431A707B685A780C237A
:10261000FB1801210A4090011A7840218A43111CBD
:10262000021C0A431A70034BFA681A62BD4604B0D2
:1026300080BDC0460008004080B582B000AF021CDB
:10264000FB1D1A70FB1D1B78082B3BD89A00214BF1
:10265000D3181B689F46204B1F4A126A02210A4367
:102660001A62002331E01C4B1B4A926902210A4383
:102670009A6129E0184A184B1B8A9BB202210B432E
:102680009BB2138220E0144A134B9B8A9BB2022117
:102690000B439BB2938217E0104B1B6802221A4334
:1026A0000E4B1A600E4B98470EE00B4A0A49442322
:1026B000CB5CDBB202210B43D9B24423D15403E0FB
:1026C000002302E0172300E00023181CBD4602B0DF
:1026D00080BDC046B4480000000800404001002012
:1026E000BD24000080B59CB000AF244BC222D200B4
:1026F0009A600020224B98476C23FB18181C214B32
:1027000098476C23FB1800221A706C23FB180122D7
:102710009A706C23FB1800225A706C23FB18181C4B
:10272000194B98470620194B9847194B984700209A
:10273000184B984700200021174B98470120002193
:10274000154B98473B1C181C144B98473B1C062202
:102750001A703B1C01225A603B1C00221A723B1C5F
:1027600000225A723B1C0020191C0D4B9847002078
:102770000C4B9847BD461CB080BDC04600080040C9
:1027800071240000DD230000C1250000392600006F
:1027900049280000FD2300001D240000B123000093
:1027A000792800009929000080B500AF064B5B78BE
:1027B000DBB2DBB25BB2002B01DA012300E00023C5
:1027C000181CBD4680BDC046000C004080B582B0DC
:1027D00000AF021C3960FB1D1A70FB1D1B78012B1A
:1027E0000AD0022B0FD0002B14D10E4B0D4A916949
:1027F0003A680A439A610FE00A4B0A4AD1693A687B
:102800000A43DA6108E0074B064A116A3A680A434C
:102810001A6201E0172300E00023181CBD4602B035
:1028200080BDC0460004004080B500AF014B984712
:10283000BD4680BD1101000080B500AF014B984737
:10284000BD4680BD6101000080B500AF00200821B9
:10285000074B9847074B01221A70C046054B1B785F
:10286000DBB21A1C01231340F8D1BD4680BDC0461F
:10287000CD270000000C004080B586B000AF021CE0
:102880003960FB1D1A70FB1D1B787B61FB1D1B78DB
:102890003B613B681B781B021A1C7B6913437B61FD
:1028A0003B685B78002B04D07B698022D202134303
:1028B0007B613B685B7A002B04D07B69802212032A
:1028C00013437B613B685B68012B2CD93B685A68DA
:1028D0003B685B68013B13401AD10023FB60022375
:1028E000BB6005E0FB680133FB60BB685B00BB605D
:1028F0003B685A68BB689A42F4D8FB681B023A6985
:1029000013433B617B698022520313437B610AE0DE
:102910003B685B681B023A6913433B617B69802219
:10292000920213437B613B681B7A002B04D07B69C6
:102930008022920313437B61C046124B9847031ECB
:10294000FBD1114B9847114AFB1D1B781370C046F1
:102950000C4B9847031EFBD10D4B3A699A60C04659
:10296000084B9847031EFBD1094B094A5168802246
:10297000520211407A690A435A60064B9847BD4695
:1029800006B080BDA927000029280000080C0040DF
:10299000000C00403928000080B582B000AF021C56
:1029A000FB1D1A70C0460D4B9847031EFBD10C4B04
:1029B00098470C4AFB1D1B781370C046074B98477D
:1029C000031EFBD1084B084A5268802149020A4382
:1029D0005A60064B9847BD4602B080BDA92700004B
:1029E00029280000040C0040000C00403928000099
:1029F00080B586B000AF021CFB1D1A70C0462E4B7E
:102A00009847031EFBD12D4B98472D4AFB1D1B7881
:102A10001370C046284B9847031EFBD1294B5B68B7
:102A20001B0A1A1C1F231340DBB2181C264B9847A5
:102A3000031C7B61224AFB1D1B781370214B5B68D2
:102A40001B0D1A1C01231340DAB21323FB181A7052
:102A50001E4AFB1D1B781370C046174B9847031E78
:102A6000FBD1184B9B681B0A1A1C00239A43131CAA
:102A70009BB2FB60164B98471323FB181B78002B67
:102A800009D1FB68012B06D9124B7869F968984780
:102A9000031C7B610AE01323FB181B78002B05D075
:102AA000FB6801331A1C7B69D3407B617B69181C6E
:102AB000BD4606B080BDC046A927000029280000F9
:102AC000040C0040000C004001250000080C0040F0
:102AD000392800007D36000080B584B000AF021CAC
:102AE0003960FB1D1A70FB1D1B78FB603B681B786F
:102AF0001B021A1CFB681343FB60FB1D1B78181C90
:102B0000044B9847044BFA6892B25A80BD4604B011
:102B100080BDC046612B0000000C004080B582B033
:102B200000AF021CFB1D1A70094B9847094AFB1D98
:102B30001B7813700849084B5B889BB28022D20136
:102B400013439BB24B80054B9847BD4602B080BDF6
:102B500029280000020C0040000C00403928000029
:102B600080B584B000AF021CFB1D1A701D4B984746
:102B70001D4AFB1D1B7813701C4B5B889BB21B0A04
:102B80001A1C0F231340DBB2FB60184B5A881849FC
:102B90000A405A80154A154B5B889BB215490B4079
:102BA0009BB25380C046114B5B889BB21A1C80239A
:102BB000DB011340F7D10D4BFA68D2B2111C0F2282
:102BC0000A40D2B2111C0F220A4010025A8808494A
:102BD0000A40111C021C0A435A80074B9847BD4605
:102BE00004B080BD29280000020C0040000C004009
:102BF000FFF0FFFFFFBFFFFF3928000080B584B062
:102C000000AF021CFB1D1A700E4B98470E4AFB1DAD
:102C10001B7813700D4B5B889BB21B0A1A1C0F2389
:102C20001340DAB20F23FB181A70094B98470F2391
:102C3000FB181B78181C074B9847031C181CBD4633
:102C400004B080BD29280000020C0040000C0040A8
:102C500039280000F129000080B584B000AF021CC3
:102C6000FB1D1A700F23FB18FA1D1278D2091A7077
:102C70000E23FB18FA1D127852091A700D4BBB6017
:102C80000F23FB181B78002B0FD10F23FB181B7889
:102C90009B0010229446BC446344083B1A680E23F0
:102CA000FB181B78DB01D31800E00023181CBD467D
:102CB00004B080BD0044004180B588B000AFF8602A
:102CC000B9607A600023FB617B68DB7801225340A6
:102CD000DBB2002B35D07B681B78802B0BD0FB69D7
:102CE000802252021343FB617B681B781B061A1C6F
:102CF000FB691343FB617B685B78002B03D07B6827
:102D00005B78022B10D1FB69802292021343FB6196
:102D10007B689B78002B04D0FB698022D20213438E
:102D2000FB61FB68BA685A607B685B78012B03D053
:102D30007B685B78022B07D1FB69214A1340FB615A
:102D400002E0FB68BA685A60BB681B041B0CBB61DD
:102D5000BB681B0C7B61BA69FB691343A022D205D7
:102D60001A43FB689A627A69FB691343D022120600
:102D70001A43FB689A627B68DB7801225340DBB21E
:102D8000002B1AD0FA698023DB0213400AD07B683B
:102D90009B78012B03D1FB68BA689A6102E0FB685B
:102DA000BA685A617B685B78012B03D07B685B78DB
:102DB000022B02D1FB68BA689A60BD4608B080BD9C
:102DC000FFFFFBFF80B584B000AF021C3960FB1D24
:102DD0001A70FB1D1B78181C0B4B9847031CFB60DB
:102DE000FB1D1B781F22134001229A40131CBB605D
:102DF000F968BA683B68081C111C1A1C034B9847F9
:102E0000BD4604B080BDC046592C0000B92C00005E
:102E100080B500AFC046BD4680BDC04680B500AF9E
:102E2000044B9847044B9847044B9847044B9847EA
:102E3000BD4680BDE5260000DD220000112E000009
:102E4000112E000080B582B000AF164B7B60164B90
:102E50003B607A683B689A420CD007E03B681A1DD9
:102E60003A607A68111D796012681A603A680F4BEF
:102E70009A42F3D30E4B3B6004E03B681A1D3A6064
:102E800000221A603A680B4B9A42F6D30A4B7B60D9
:102E90000A4B7A687F218A439A60094B9847094B0D
:102EA0009847FEE7AC4A00000000002078000020B0
:102EB00078000020FC0100200000000000ED00E090
:102EC000F5370000B135000080B500AFFEE7C04621
:102ED00080B584B000AF78600A4B1B68002B02D12C
:102EE000084B094A1A60074B1B68FB60054B1A68C0
:102EF0007B68D218034B1A60FB68181CBD4604B0EF
:102F000080BDC046580100200022002080B582B05C
:102F100000AF786001235B42181CBD4602B080BD43
:102F200080B582B000AF786039603B688022920142
:102F30005A600023181CBD4602B080BD80B582B027
:102F400000AF78600123181CBD4602B080BDC046AA
:102F500080B584B000AFF860B9607A600023181CB7
:102F6000BD4604B080BDC04690B587B000AF0C230D
:102F7000FB18094A13CA13C33B1C084A13CA13C3DC
:102F80000C23FB18181C064B98473B1C181C044BC1
:102F90009847BD4607B090BDD8480000E4480000FF
:102FA0004D32000090B589B000AF78601423FB1853
:102FB0001E221A801423FB1806225A801423FB18A1
:102FC0007A685A601423FB1800221A721423FB1823
:102FD00000225A721423FB1800229A720823FB184D
:102FE000074A13CA13C30823FB18181C054B98473C
:102FF0001423FB18181C044B9847BD4609B090BD1C
:10300000F04800004D3200007132000080B584B0FD
:1030100000AF78607B681B68FB60FB68DB69072298
:1030200013405A1E9341DBB2181CBD4604B080BD4C
:1030300080B582B000AF7860C0467B68181C034B37
:103040009847031EF9D1BD4602B080BD0D30000087
:1030500080B582B000AF78607B6864221A607B68BC
:10306000194A5A607B6800229A607B6800221A73B2
:103070007B6800221A767B68802292031A617B6843
:1030800001225242DA827B68012252429A827B6894
:103090000022DA617B6800221A627B682422002108
:1030A00099547B6800229A627B682C2200219954F3
:1030B0007B682D22002199547B682E22002199548F
:1030C000BD4602B080BDC046480D000080B584B04A
:1030D00000AF78607B681B68BB600023FB607B6887
:1030E000181C104B9847BB681B6802221A43BB6828
:1030F0001A600CE0FB680133FB607B68DB881A1EFA
:10310000FB689A4203D8BB6810225A8306E0BB686A
:103110005B8B9BB21A1C10231340EBD0BD4604B04E
:1031200080BDC0463130000080B582B000AF184B82
:10313000181C184B9847164B01225242DA82164A45
:103140001649134B101C1A1C154B9847031C7B6027
:10315000144A7B68101C191C134B98470EE00E4A4A
:103160000E490B4B101C1A1C0D4B9847031C7B601F
:103170000E4A7B68101C191C0B4B98477B68002B70
:10318000EDD1054B181C0A4B9847BD4602B080BDD7
:10319000A4010020513000009801002000100042DE
:1031A000F1040000FC480000653800001C490000E4
:1031B000CD30000080B584B000AF786039600E2358
:1031C000FB1800221A801B497A683B68081C111CF6
:1031D0009847031CBB60BB68002B00D127E00E237F
:1031E000FB181A88144B101C642198470B1C9BB2C7
:1031F000002B05D1114ABB68101C191C104B9847B5
:103200000E23FB181B880E22BA18591C1180FA22B3
:103210009200934204D10B4B181C0B4B984706E0CD
:10322000064ABB68101C191C054B9847CBE7BD46E6
:1032300004B080BD9801002089370000404900009B
:10324000653800006C4900005D39000080B582B02F
:1032500000AF78607A68044B101C191C034B984728
:10326000BD4602B080BDC046C50A0000B5310000B1
:1032700080B584B000AF78600E23FB1800221A805E
:103280000BE00E23FB181B880E22BA18591C118064
:10329000FA229200934200D107E0054A7B68101C95
:1032A000191C044B9847031EEBD1BD4604B080BDEA
:1032B000980100202109000080B582B000AF021CF7
:1032C000FB1D1A70064BFA1D1278111C1F220A40B2
:1032D000012191400A1C1A60BD4602B080BDC04663
:1032E00000E100E080B584B000AF78607B681B68C7
:1032F000FB60FB68DB695A1E9341DBB2181CBD46BC
:1033000004B080BD80B582B000AF7860C0467B68F5
:10331000181C034B9847031EF9D1BD4602B080BD6F
:10332000E532000080B582B000AF78607B68802213
:10333000D2051A607B6800225A607B68FF221A81DE
:103340007B6800229A727B680022DA727B68962280
:1033500092011A627B682422012199547B682522FC
:10336000012199547B682622002199547B682722E9
:10337000002199547B6800229A627B68882252035C
:10338000DA607B682C22002199547B682D22002171
:1033900099547B6800221A637B6800225A637B6819
:1033A00000229A637B680022DA637B6800225A61FC
:1033B0007B6800221A827B680022DA767B68002212
:1033C0001A767B6800221A777B6800225A767B681F
:1033D00013229A767B6800225A77BD4602B080BDE0
:1033E00080B584B000AF78607B681B68FB607B6849
:1033F0001B68181C094B9847031C181C084B98475E
:103400007B68181C074B9847FB681B6802221A430D
:10341000FB681A60BD4604B080BDC046651100005F
:10342000B93200000533000080B584B000AFF86009
:10343000B9607A60F968BA687B68081C111C1A1CAC
:10344000054B9847031E01D1012300E00023181CFF
:10345000BD4604B080BDC0461116000080B582B0E4
:1034600000AF78600A1CFB1C1A70C046FB1C1B785E
:103470009BB27A68101C191C044B9847031EF5D1A7
:103480000023181CBD4602B080BDC0468118000054
:1034900080B584B000AF786039600E23FB1800223D
:1034A0001A80C0467A680E23FB18101C191C064BA4
:1034B0009847031EF6D10E23FB181B88DAB23B682F
:1034C0001A70BD4604B080BDE518000080B584B018
:1034D00000AFF860B9607A60104BFA681A60104B60
:1034E000104A1A60104B114A1A60F968BA687B6872
:1034F000081C111C1A1C0E4B98470E4B1B689B682E
:10350000181C00210C4B98470A4B1B685B68181C61
:103510000021094B9847BD4604B080BDF40100204E
:10352000F00100205D340000EC0100209134000027
:1035300029340000740000207139000080B590B07B
:1035400000AF3B1C181C134B98473B1C80225203B6
:10355000DA603B1C104A1A633B1C104A5A633B1C3E
:10356000012252429A633B1C01225242DA633B1C05
:10357000962212021A620A4A0A493B1C101C1A1CA3
:10358000094B9847064B181C084B9847BD4610B08E
:1035900080BDC0462533000002001600020017005F
:1035A0005C01002000140042CD340000E133000033
:1035B00080B584B000AF244B9847244B9847244BE8
:1035C000181C244B9847244A244B101C191C214BCF
:1035D00098472349234A244B081C111C1A1C1D4BD5
:1035E0009847224B9847224B98473B1D00221A7060
:1035F0003B1D00225A703B1D00229A703B1D002289
:10360000DA703B1D00221A713B1D00225A713B1DCE
:10361000181C184B98470023FB600CE03A1DFB6810
:10362000D3181B781A1C144B181C111C094B9847F3
:10363000FB680133FB60FB68052BEFDD0023181CE2
:10364000BD4604B080BDC0461D2E00003D350000C3
:103650008449000065380000A0490000A849000026
:10366000BC490000D4490000E049000029310000B5
:10367000692F0000A52F0000EC490000002243083C
:103680008B4274D303098B425FD3030A8B4244D32A
:10369000030B8B4228D3030C8B420DD3FF2209026C
:1036A00012BA030C8B4202D31212090265D0030B2B
:1036B0008B4219D300E0090AC30B8B4201D3CB0321
:1036C000C01A5241830B8B4201D38B03C01A524163
:1036D000430B8B4201D34B03C01A5241030B8B4265
:1036E00001D30B03C01A5241C30A8B4201D3CB0250
:1036F000C01A5241830A8B4201D38B02C01A524135
:10370000430A8B4201D34B02C01A5241030A8B4237
:1037100001D30B02C01A5241CDD2C3098B4201D34F
:10372000CB01C01A524183098B4201D38B01C01ACD
:10373000524143098B4201D34B01C01A5241030944
:103740008B4201D30B01C01A5241C3088B4201D3F3
:10375000CB00C01A524183088B4201D38B00C01AA0
:10376000524143088B4201D34B00C01A5241411AC7
:1037700000D20146524110467047FFE701B50020D4
:1037800000F00CF802BDC0460029F7D003B5FFF7E2
:1037900075FF0EBC4243891A1847C0467047C046A1
:1037A000F0B54F46464605042D0C2C1CC0B417043A
:1037B000160C3F0C9946030C7C4375435F437343DF
:1037C0007D19260CAD199C46AF4203D980235B02BC
:1037D0009846C4444B465143434324042E0C240CC6
:1037E0002D0466442C1959188919201C0CBC9046CC
:1037F0009946F0BD0E4B70B500251E1C0D4CE41A09
:10380000A410A54204D0AB00F35898470135F8E75F
:1038100001F03CF9084B00251E1C084CE41AA410CA
:10382000A54204D0AB00F35898470135F8E770BDC6
:10383000984A0000984A0000984A00009C4A0000FC
:10384000002310B5934203D0CC5CC4540133F9E794
:1038500010BD031C8218934202D019700133FAE79D
:10386000704700000FB40B4B13B51C68002C05D03B
:10387000A369002B02D1201C00F0CEFA05AB201C5E
:10388000A168049A019300F081FC16BC08BC04B046
:103890001847C0467400002070B5051C0E1C002897
:1038A00004D08369002B01D100F0B6FAAC68A3897B
:1038B0001B0702D52369002B19D1281C211C00F0FD
:1038C0003FF9002813D00120404245E03178002B19
:1038D0001BDAA269934211DA221C281C00F0D8F8E6
:1038E000013042424241D0B20028ECD10136A368F7
:1038F0003278013BA360002AE8D10CE023681970FC
:10390000236819780A2903D1E6E723681970236828
:1039100001332360EAE7002B17DAA269934208DB40
:103920000A2322681370236819780A2911D1281CE8
:1039300001E0281C0A21221C00F0AAF801304242B2
:103940004241D0B2002806D0BDE70A232268137096
:103950002368013323600A2070BD000008B5034BC3
:10396000011C1868FFF798FF08BDC04674000020CE
:1039700008B54A424A4180235200DB0000F002F8B9
:1039800008BD0000F7B51E1C3C4B041C1D680F1C35
:103990000192002D05D0AB69002B02D1281C00F04C
:1039A0003BFA374B9C4201D16C6808E0354B9C4296
:1039B00001D1AC6803E0344B9C4200D1EC68019B20
:1039C000022B58D8002E56DB281C211C00F0B6F91B
:1039D00000236360A361A3891B0603D5281C21690A
:1039E00000F00EFB8322A3899343A381019B022B4A
:1039F00013D0002F25D1002E01D18026F600301CD7
:103A000000F0F4FA071E18D18020C00000F0EEFA92
:103A1000071E10D10120404200E000200222A389AD
:103A20001343A3810023A360231C47332360236136
:103A30000123636121E08026F6008022A3891343DD
:103A4000A381019B012B05D1A389019A1A437342DB
:103A5000A281A3610D4B0020AB62A2892760276180
:103A60006661130709D503231A40534253415B4251
:103A70001E40A66001E001204042FEBD740000200F
:103A8000F8490000184A0000384A0000953D00003F
:103A900070B5051C0E1C141C002804D08369002B73
:103AA00001D100F0B9F9234B9C4201D16C6808E0C8
:103AB000214B9C4201D1AC6803E0204B9C4200D1D9
:103AC000EC68A369A360A3891B070AD52369002BAF
:103AD00007D023682269F6B2981A636998420FDB0F
:103AE00008E0281C211C00F02BF80028F1D0012050
:103AF00040421DE0281C211C00F020F90028F6D1CE
:103B0000A3680130013BA36023685A1C22601E7029
:103B10006369984205D0A389301CDB0708D50A2EBB
:103B200006D1281C211C00F009F90028DFD1301C27
:103B300070BDC046F8490000184A0000384A00002D
:103B4000354B70B51D68061C0C1C002D05D0AB69EB
:103B5000002B02D1281C00F05FF9304B9C4201D1B0
:103B60006C6808E02E4B9C4201D1AC6803E02D4B01
:103B70009C4200D1EC68A3899AB2110723D4D106E4
:103B800007D409220120326037321343A381404217
:103B900040E0530713D5616B002908D0231C443340
:103BA000994202D0301C00F02BFA002363632422D8
:103BB000A3899343A38100236360236923600822C0
:103BC000A3891343A3812369002B0BD1A023A289CE
:103BD0009B00134080229200934203D0301C211C92
:103BE00000F0ACF90123A289134005D00023A360A3
:103BF00063695B42A36103E0910700D46369A3603A
:103C000000202369834205D1130603D540231A43BC
:103C1000A281013870BDC04674000020F849000040
:103C2000184A0000384A0000F7B58A89051C0C1CA8
:103C300013075ED44B68002B02DC0B6C002B1ADDE3
:103C4000E76A002F17D000232E682B6080235B01CA
:103C50001A4001D0626D15E0281C216A0123B84783
:103C6000021C431C0ED12B68002B0BD01D2B01D046
:103C7000162B02D12E6000205EE04021A3890B4369
:103C8000A38159E0A3895B0706D56368D21A636BE9
:103C9000002B01D0236CD21A0023281C216AE76A6A
:103CA000B847A389421C06D12A68002A03D01D2ADE
:103CB00001D0162A19D10022626022692260DB0439
:103CC00005D5431C02D12B68002B00D16065616BC8
:103CD0002E600029CFD0231C4433994202D0281CE7
:103CE00000F08EF90020606326E040221343A38198
:103CF00022E00F69002FBED00B680F60DB1B019321
:103D00000023920700D14B69A360019B002BB2DD19
:103D1000281C216A3A1C019BA66AB047002806DCD1
:103D200040220120A38940421343A38104E0019B68
:103D30003F181B1A0193E8E7FEBD000038B50B6978
:103D4000051C0C1C002B01D100201CE0002804D015
:103D50008369002B01D100F05FF80B4B9C4201D12D
:103D60006C6808E0094B9C4201D1AC6803E0084B49
:103D70009C4200D1EC680C22A35E002BE4D0281CEE
:103D8000211CFFF751FF38BDF8490000184A000018
:103D9000384A000008B5024900F0AEF808BDC04638
:103DA0003D3D0000002310B5041C036043608360A8
:103DB00081814366C281036143618361191C0822CA
:103DC0005C30FFF746FD054B24626362044BA3623F
:103DD000044BE362044B236310BDC046DD46000084
:103DE000054700003D4700006947000070B56825A1
:103DF0004B1E5D430E1C291C743100F047F9041E54
:103E000008D000212A1C016046600C30A060683296
:103E1000FFF71FFD201C70BD836913B5002B28D14F
:103E20008364C3640365134B134A1B688262019366
:103E3000984201D101238361041C00F01FF86060E7
:103E4000201C00F01BF8A060201C00F017F80421D3
:103E5000E06000226068FFF7A5FFA0680921012249
:103E6000FFF7A0FFE06812210222FFF79BFF01236A
:103E7000A36113BDF4490000953D0000F8B51D4B4A
:103E8000061C1D68AB69002B02D1281CFFF7C4FF7C
:103E90004835AC686B68013B05D40C22A75E002F47
:103EA00010D06834F7E72B68002B06D1301C0421B2
:103EB000FFF79CFF2860002801D02D68E9E70C235C
:103EC000336016E00123201C5B42E3810233A381AF
:103ED00067662760A760676027616761A7615C30DC
:103EE000391C0822FFF7B5FC201C6763A763A76491
:103EF000E764F8BDF4490000F7B5041C071C002670
:103F000001914834002C16D06368A5680093009B8B
:103F1000013B00930DD4AB89012B08D90E22AB5E77
:103F2000013304D0381C291C019B9847064368358F
:103F3000EDE72468E6E7301CFEBD0000F0B58B8994
:103F400091B09B0706D50B1C47330B600B61012317
:103F50004B6145E00C1C0E23C95E061C002904DAE7
:103F60008023A5891D4010D10CE001AA00F028FC97
:103F70000028F5DBF023029D1B021D40194BED18B4
:103F80006B425D418027FF0001E000254027301C87
:103F9000391C00F07BF800280CD1A3899A051FD4A6
:103FA00002221343A381231C47332360236101238F
:103FB000636115E080220C4BB362A3892060134338
:103FC000A38120616761002D0AD00E23E15E301CC1
:103FD00000F008FC002803D00122A3891343A38129
:103FE00011B0F0BD00E0FFFF953D000008B5034BA8
:103FF000011C186800F04AF808BDC0467400002093
:1040000030B500293ED004390B68002B00DAC918FE
:104010001D4A1368141C002B02D14B60116031E063
:1040200099420DD208680A189A4203D11368C3183E
:104030000B6053684B60216024E08A4203D8131C54
:104040005A68002AF9D11D685C198C420BD10968A5
:10405000691858181960904214D1106852680918EC
:1040600019605A600EE08C4202D90C23036009E00B
:1040700008680C18944203D114685268001908604B
:104080004A60596030BDC04694010020032370B5DA
:10409000CC1C9C430834051C0C2C01D20C2405E0DC
:1040A000002C03DA0C2300202B6042E08C42F9D371
:1040B000204A1368101C191C002913D00A68121B0F
:1040C0000DD40B2A02D90A608B181FE08B4202D153
:1040D0005A6802601BE04A685A600B1C17E00B1C10
:1040E0004968E9E7144E3368002B03D1281C00F01F
:1040F000E3FA3060281C211C00F0DEFA031C421C8D
:10410000D0D00322C61C964386420AD11C60181CDC
:1041100007210B301A1D8843821A0AD05142995048
:1041200007E0311A281C00F0C7FA431CBAD0331C30
:10413000ECE770BD9401002090010020936810B559
:10414000013B9360002B05DA9469A34208DBCBB2F4
:104150000A2B05D01368581C10601970C8B201E012
:10416000FFF796FC10BDF8B5061C0F1C141CD518E3
:10417000AC4208D02178301C3A1CFFF7DFFF013435
:10418000431CF5D100E00020F8BD0000F0B59FB061
:10419000061C0F1C02920593002804D08369002B93
:1041A00001D1FFF739FE794B9F4201D1776808E0D2
:1041B000774B9F4201D1B76803E0764B9F4200D115
:1041C000F768BB891B070AD53B69002B07D0002382
:1041D00006AD6B6120336B761033AB763DE0301C5F
:1041E000391CFFF7ADFC0028F1D001204042CAE0A5
:1041F000059A111D12680591002A7EDB099201348F
:1042000023782E2B00D189E021786348032200F027
:104210000FFB002808D0604B0134C01A40238340B4
:10422000181C2B68184328602178631C5B48062201
:104230000293297600F0FCFA002800D191E0584B57
:10424000002B00D084E00722059B073393430833FB
:1042500005936B69039A9B186B61029C2378002B72
:1042600004D1029BE31A049311D003E0252BF8D06C
:104270000134F3E7049B301C391C029AFFF773FFEB
:10428000431C7BD06A69049B944663446B6123782A
:10429000002B73D00122002352426A6002A95432DB
:1042A000521801342B60EB60AB601370AB65217862
:1042B0003C48052200F0BCFA002809D0394B0134F3
:1042C000C01A01238340181C2B6818432860EEE7AE
:1042D0002B68DA0604D55322202102A81218117087
:1042E0001A0704D553222B2102A812181170227824
:1042F0002A2A00D17CE7099B05E05242EA600222AB
:1043000013432B607BE72278303A092A04D80A212C
:104310004B4301349B18F6E7099371E763782A2B26
:1043200009D1059B02341A1D1B680592002B0DDA7A
:1043300001235B420AE0002301342278303A092A43
:1043400004D80A214B4301349B18F6E707935BE737
:1043500005AB0093301C291C3A1C134B00E000BF36
:1043600007E005AB0093301C291C3A1C0E4B00F0F3
:104370008BF80390039B013300D06AE7BB895B068F
:1043800000D532E70B981FB0F0BDC046F8490000D9
:10439000184A0000384A00005E4A0000624A0000E5
:1043A00000000000584A000067410000F7B5171CE4
:1043B00001930A698B6800900C1C934200DA131C6D
:1043C000221C3B6043321278002A01D001333B604B
:1043D00023689B0602D53B6802333B6006252368B1
:1043E0001D401ED0231C43331B785A1E9341226864
:1043F00092061CD53020E1184031C870211C5A1C8F
:1044000045310978A21840320233D1700FE0221CE6
:104410000123009801991932089EB047431C0ED021
:104420000135E3683A689B1A9D42F0DBDAE7221C0B
:10443000009801994332089DA847431C02D10120EE
:10444000404220E006232068E1683A6803400025E6
:10445000042B03D18D1AEB43DB171D40A36822699F
:10446000934201DD9B1AED180027AF420ADA221CA5
:104470000123009801991A32089EB047431CDED0F0
:104480000137F2E70020FEBDF0B58BB006920A1CA2
:1044900043320793059004920A7E0C1C109B6E2AEF
:1044A00000D1A8E011D8632A22D009D8002A00D16F
:1044B000B2E0582A00D0C2E045310A707C4A4FE091
:1044C000642A1DD0692A1BD0B9E0732A00D1A7E065
:1044D00009D86F2A29D0702A00D0B0E020220968BC
:1044E0000A43226037E0752A1FD0782A33D0A6E02D
:1044F0000E1C1A684236111D196013683370A1E052
:1045000021681A68080606D4490604D5111D1960E9
:104510000023D55E02E0111D19601568002D3BDAFD
:104520002D23049A6D42137036E021681A6808063C
:1045300006D4490604D51568111D1960ADB202E014
:10454000111D196015685A4B227E03930A276F2AA2
:104550001DD108271BE0221C782145321170554AD5
:1045600019680392081D226818600D68100602D4AD
:10457000500600D5ADB2D30702D520231A432260DE
:104580001027002D03D1202322689A432260231C88
:10459000002243331A7002E00A27454B03936368F5
:1045A000A360002B03DB0422216891432160002DCE
:1045B00002D1049E002B0ED0049E281C391CFFF74C
:1045C000E3F8039B013E5B5C281C3370391CFFF74A
:1045D00055F8051EF1D1082F09D12368DB0706D550
:1045E00063682269934202DC3023013E3370049BEE
:1045F0009B1B23612BE009681A68080607D449064B
:1046000005D5111D19601368A28A1A8004E0111DD6
:104610001960136862691A600023049E236116E022
:104620001A68111D196016680021301C626800F0BC
:10463000FFF8002801D0801B6060636803E0261C3F
:1046400042363270012323610023049A1370079BC2
:1046500005980093211C069B09AAFFF7A7FE431C9F
:1046600002D10120404221E0236905980699321CBD
:10467000079DA847431CF4D023689B0705D4099BDA
:10468000E068984212DA181C10E00025E368099AE5
:104690009B1A9D42F3DA221C0123059806991932D0
:1046A000079EB047431CDCD00135EFE70BB0F0BDEF
:1046B000694A00007A4A000038B50023064C051C00
:1046C000081C2360FEF704FC431C03D12368002B65
:1046D00000D02B6038BDC046F801002038B50C1C56
:1046E0000E25495F00F0B0F8002803DB636D1B184E
:1046F000636503E0A289024B1340A38138BDC04625
:10470000FFEFFFFFF8B51E1C8B89051C0C1C171C46
:10471000DB0505D50E23C95E0022022300F074F8E4
:10472000A289054B281C1340A3813A1C0E23E15E8D
:10473000331C00F01FF8F8BDFFEFFFFF38B50C1C6D
:104740000E25495F00F060F8A389421C03D1054A99
:104750001340A38104E0802252011343A3816065CA
:1047600038BDC046FFEFFFFF08B50E23C95E00F05D
:1047700015F808BD38B5051C0020074C2060081C42
:10478000111C1A1CFDF734FB431C03D12368002BBA
:1047900000D02B6038BDC046F801002038B500239A
:1047A000064C051C081C2360FEF7B0FB431C03D11C
:1047B0002368002B00D02B6038BDC046F8010020D4
:1047C00038B50023064C051C081C111C2360FEF79D
:1047D000A7FB431C03D12368002B00D02B6038BDFE
:1047E000F801002038B50023064C051C081C236086
:1047F000FEF7A4FB431C03D12368002B00D02B60E1
:1048000038BDC046F801002038B5051C0020074C13
:104810002060081C111C1A1CFEF79AFB431C03D1D4
:104820002368002B00D02B6038BDC046F801002063
:10483000C9B28218904204D003788B4202D0013072
:10484000F8E700207047000038B5051C0020074C31
:104850002060081C111C1A1CFDF79EFA431C03D192
:104860002368002B00D02B6038BDC046F801002023
:1048700000080042000C00420010004200140042F8
:1048800000180042001C0042090A0B0C0D0E00002B
:104890001E2500009A2500009A25000040250000F2
:1048A0003A25000046250000242500004C25000084
:1048B0008025000074260000C4260000C4260000E5
:1048C000C02600006626000086260000562600004E
:1048D00098260000AA2600001E0002000C000020FE
:1048E000000000001E000200080000200000000080
:1048F0001E0002001000002000000000493243208A
:104900006D617374657220696E697420737461746B
:1049100075733A2025640D0A0000000049324320D7
:104920006D617374657220696E6974206572726F4F
:1049300072207374617475733A2025640D0A000047
:104940006932635F6D61737465725F7772697465F4
:104950005F7061636B65745F776169742073746104
:104960007475733A2025640D0A0000004932432013
:1049700077726974652074696D6564206F75742E33
:104980000D0000002D2D204672656572746F732036
:104990004578616D706C65202D2D0A0D00000000BA
:1049A0002D2D2025730A0D0053414D4432315F589F
:1049B000504C41494E45445F50524F002D2D2043ED
:1049C0006F6D70696C65643A202573202573202D06
:1049D0002D0A0D004E6F76203232203230313500F4
:1049E00031353A30313A303100000000257820006E
:1049F0004300000014000020000000000000000040
:104A000000000000000000000000000000000000A6
:104A10000000000000000000000000000000000096
:104A20000000000000000000000000000000000086
:104A30000000000000000000000000000000000076
:104A40000000000000000000000000000000000066
:104A50000000000000000000232D302B2000686CB7
:104A60004C00656667454647003031323334353691
:104A700037383941424344454600303132333435CA
:104A8000363738396162636465660000F8B5C04640
:104A9000F8BC08BC9E467047D9000000F8B5C04677
:0C4AA000F8BC08BC9E467047B100000046
:104AAC0001000000FFFFFFFF01A0000000710000EB
:104ABC000201000000000000F8490000184A000044
:104ACC00384A000000000000000000000000000058
:104ADC0000000000F0490000000000000000000091
:104AEC0000000000000000000000000000000000BA
:104AFC0000000000000000000000000000000000AA
:104B0C000000000000000000000000000000000099
:084B1C0000000000140000205D
:0400000300002E4586
:00000001FF
