:10000000105D0020954800001949000019490000C2
:1000100000000000000000000000000000000000E0
:10002000000000000000000000000000511C000063
:100030000000000000000000451D0000891D0000B8
:100040001949000019490000194900001949000028
:100050001949000019490000194900001949000018
:1000600019490000410F0000550F0000690F000002
:100070007D0F0000910F0000A50F0000194900003E
:1000800019490000194900001949000019490000E8
:1000900019490000194900001949000019490000D8
:1000A00019490000194900001949000019490000C8
:1000B00010B5064C2378002B07D1054B002B02D03E
:1000C000044800E000BF0123237010BD7000002031
:1000D000000000008C65000008B5084B002B03D021
:1000E0000748084900E000BF07480368002B00D11B
:1000F00008BD064B002BFBD09847F9E70000000035
:100100008C650000740000208C6500000000000079
:1001100080B582B000AF0F4B1B68002B12D1EFF3FC
:1001200010837B607B68002B09D172B6BFF35F8FB1
:10013000094B00221A70094B01221A7002E0074B8A
:1001400000221A70034B1B685A1C024B1A60BD46F2
:1001500002B080BD8C000020000000209000002034
:1001600080B500AF0A4B1B685A1E094B1A60084B3A
:100170001B68002B0AD1074B1B78DBB2002B05D084
:10018000054B01221A70BFF35F8F62B6BD4680BD7A
:100190008C000020900000200000002080B582B07C
:1001A00000AF78607B6800221A70BD4602B080BD47
:1001B00080B582B000AF021C3960FB1D1A70FB1DB8
:1001C0001B78012B0AD0022B0FD0002B14D10E4B21
:1001D0000D4A91693A680A439A610FE00A4B0A4A4C
:1001E000D1693A680A43DA6108E0074B064A116AA6
:1001F0003A680A431A6201E0172300E00023181C42
:10020000BD4602B080BDC0460004004080B582B04B
:1002100000AF78607B6880221A707B6800225A7079
:100220007B6801229A707B680022DA70BD4602B0BA
:1002300080BDC04680B500AF054B9B78DBB21A1C71
:10024000022313405A1E9341DBB2181CBD4680BDE9
:100250000020004180B584B000AF78607B681B68E7
:10026000FB60FB68DB69072213405A1E9341DBB237
:10027000181CBD4604B080BD80B582B000AF786068
:10028000C0467B68181C034B9847031EF9D1BD4636
:1002900002B080BD5502000090B58DB000AF78600F
:1002A00039602723FB1800221A707B681B68BB612A
:1002B0007B681B687B611323FC187B69181C854BCA
:1002C0009847031C23700823FB18181C824B98477F
:1002D0003B68DB693B623B681B6AFB613B6A002B46
:1002E00006D17B69181C00217C4B9847031C3B629C
:1002F0003B6ADAB20823FB181A700823FB180222A3
:100300005A703B6A1B0CDAB20823FB18101C191C2C
:10031000734B9847FB69002B06D17B69181C0121A0
:100320006E4B9847031CFB61FB69DAB20823FB188C
:100330001A700823FB1802225A70FB691B0CDAB2F0
:100340000823FB18101C191C654B98473B689A8AB8
:100350007B68DA803B68DA8A7B681A813B681B7E9F
:10036000002B03D15F4B9847031E02D08023FB6212
:1003700001E00023FB623B681B69002B04D03B6853
:100380001B69FA6A1343FB623B689B68FA6A134372
:10039000FB623B6824229B5C002B04D0FB6A80221A
:1003A000D2051343FB623B689B6A002B04D03B6879
:1003B0009B6AFA6A1343FB623B682C229B5C002B0E
:1003C00004D0FB6A802212051343FB623B682D2296
:1003D0009B5C002B04D0FB6A802212041343FB6257
:1003E0003B682E229B5C002B04D0FB6A8022D20348
:1003F0001343FB62BB691A68FB6A1A43BB691A6044
:10040000BB69802252005A601323FB181B781433F7
:10041000DBB2181C344B9847011C3B681B68FA225E
:10042000D2005343CB18591E3B681B68FA22D200F6
:100430005A432E4B081C111C9847031C053BFB60BC
:10044000FB68FF2B02DCFB68002B04DA2723FB1878
:1004500040221A7025E01323FB181B781433DBB2FB
:10046000181C214B9847011C3B685B68FA22D2009C
:100470005343CB18591E3B685B68FA22D2005A439B
:100480001A4B081C111C9847031C013BBB62BB6A3A
:10049000FF2B02DCBB6A002B03DA2723FB18402268
:1004A0001A702723FB181B78402B0BD0FB68FF2208
:1004B0001A40BB6A1B04191CFF231B040B401A4380
:1004C000BB69DA602723FB181B78181CBD460DB0EA
:1004D00090BDC046210E00000D020000650C00001A
:1004E00015480000350200004D460000395100005B
:1004F00080B58AB000AFF860B9607A60FB68BA680E
:100500001A60FB681B687B62FB681B68181C254B24
:100510009847031C3B623B6A0233FB613B6A14331E
:10052000BB61FB6901229A40131C0220191C1E4B5F
:1005300098471423FB18181C1C4B98477B681A7BA0
:100540001423FB181A70BB69DAB21423FB18101CB1
:10055000191C174B9847BB69DBB2181C154B984701
:100560007B681B7B181C0021134B98477B6A1B6818
:100570000222134001D01C2310E07B6A1B68012279
:10058000134001D0052309E07B6A14221A60FA683F
:100590007B68101C191C094B9847031C181CBD468E
:1005A0000AB080BD210E0000B10100009D010000D5
:1005B000294500006D450000D90B0000990200009C
:1005C00080B584B000AF78607B681B68FB60FB6817
:1005D0001B7EDBB21A1C022313400BD0FB680222E5
:1005E0001A76FB685B8B9BB21A1C0223134011D056
:1005F000412310E0FB685B8B9BB21A1C0423134061
:1006000008D0FB685B68C02292021A43FB685A60FC
:10061000182300E00023181CBD4604B080BDC0466E
:1006200080B584B000AF78607B681B68BB600E2328
:10063000FB1800221A800FE00E23FB180E22BA18B6
:10064000128801321A807B681B890E22BA18128820
:100650009A4201D312230EE0BB681B7EDBB21A1C48
:100660000123134006D1BB681B7EDBB21A1C022398
:100670001340E1D00023181CBD4604B080BDC04625
:1006800090B585B000AF78600A1CFB1C1A707B68BF
:100690001B68FB60FB685B688022D2021A43FB6820
:1006A0005A60FB1C1A78FB685A620B23FC187B68A3
:1006B000181C074B9847031C2370FB6801221A760D
:1006C0000B23FB181B78181CBD4605B090BDC04617
:1006D0002106000090B587B000AF786039607B6874
:1006E0001B68FB601423FB183A6852881A807B68E9
:1006F000181C514B98473B685B7A002B06D03B682F
:100700009B7A7A68101C191C4C4B9847FB685B68F5
:100710004B4A1A40FB685A603B681B7A002B0DD08D
:100720003B681B885A003B685B7A9B0313431A1C87
:1007300080231B021A43FB685A6209E03B681B884E
:100740005A003B685B7A9B0313431A1CFB685A628E
:100750001723FC187B68181C3A4B9847031C23701E
:100760001723FB181B78002B07D11723FC187B6875
:10077000181C354B9847031C23701723FB181B7854
:10078000002B51D11223FB1800221A8034E0FB68A1
:100790005B8B9BB21A1C2023134001D1412346E0FE
:1007A0007B68181C244B98473B685A681223FB1837
:1007B0001B8812217918581C0880D3181978FB68F7
:1007C000282299541723FC187B68181C1D4B984746
:1007D000031C23701723FB181B78002B00D014E098
:1007E000FB685B8B9BB21A1C0423134004D01723B5
:1007F000FB181E221A7008E01423FB181B88142211
:10080000BA18591E1180002BC1D17B689B7A002B2E
:100810000AD07B68181C084B9847FB685B68C022AD
:1008200092021A43FB685A601723FB181B78181CA6
:10083000BD4607B090BDC0467902000081060000A9
:10084000FFFFFBFF21060000C105000080B582B05C
:1008500000AF786039607B6801229A727A683B68E1
:10086000101C191C034B9847031C181CBD4602B0F2
:1008700080BDC046D506000080B582B000AF78606C
:100880007B6800221A70BD4602B080BDF0B58DB005
:1008900000AFB860F9603A607B60002300243B62DF
:1008A0007C6200230024BB61FC613F23FB6253E0B8
:1008B000FB6A203B002B04DB01229A40131C7B6166
:1008C0000BE0FB6A2022D31A0122DA40131C00211C
:1008D000FA6A91400A1C13437B610122FB6A9A4029
:1008E000131C3B61BB69FC69DB186441BB61FC61A3
:1008F000BB683A691A40151CFB687A691A40161CD5
:100900002B1C334307D0BB6901221343BB61FB6936
:1009100000221343FB617A68FB699A4219D87A680E
:10092000FB699A4203D13A68BB699A4211D8B96906
:10093000FA693B687C68C91AA2410B1C141CBB6194
:10094000FC613A6A3B6913433B627A6A7B691343F1
:100950007B62FB6A013BFB62FB6A002BA8DA3B6A05
:100960007C6A181C211CBD460DB0F0BD80B586B058
:1009700000AFF860B9607A601623FB1800221A8075
:10098000BB683B61BB685A08FB689A4201D24023AE
:1009900026E0BB685B083B610AE03A69FB68D31A52
:1009A0003B611623FB181A881623FB1801321A80A4
:1009B0003A69FB689A42F0D21623FB181622BA183D
:1009C0001288013A1A801623FB181B88FF2B01D9C5
:1009D000402305E07B681622BA1812881A8000238B
:1009E000181CBD4606B080BDF0B59DB000AFF863E1
:1009F000B9637A633322BA18137000230024BB65ED
:100A0000FC65002300243B657C6500230024BB6655
:100A1000FC6600233B66582330229446BC44634462
:100A20001A78FB6B5A43BB6B9A4201D94023C9E049
:100A30003323FB181B78002B3FD1582330229446D8
:100A4000BC4463441B78DBB23B6100237B61FB6BDE
:100A5000BB600023FB605D4C38697969BA68FB684C
:100A6000A047031C0C1C1B00FB640023BB64BB6B76
:100A70003B6000237B60BB6CFC6C181C211C3A683B
:100A80007B68534CA047031C0C1CBB65FC65002114
:100A90000122BB6DFC6DC91AA2410B1C141C3B65E5
:100AA0007C653B6D1B0C7A6D16041E433B6D1D046B
:100AB0003300BB660023FB667EE03323FB181B7804
:100AC000012B00D078E0372330229446BC446344A5
:100AD00000221A7051E0BB6BBB620023FB62B86A54
:100AE000F96A031C5B0F0A1CD2001343FB64031C4E
:100AF000DB00BB64FB6B3B6200237B62582330222C
:100B00009446BC4463441B78DBB2BB610023FB61A9
:100B10002E4C386A796ABA69FB69A047031C0C1C21
:100B20003B647C64B96CFA6C3B6C7C6C081C111CDB
:100B30001A1C231C264CA047031C0C1C3B663723A5
:100B400030229446BC4463441B783A6ED31A3B6609
:100B50003B6EDB083B663B6E1E4A934200D814E0B6
:100B6000372330229446BC4463441A78372330211B
:100B70008C46BC44634401321A70372330229446B9
:100B8000BC4463441B78072BA5D9372330229446F5
:100B9000BC4463441B78082B01D1402312E0372367
:100BA00030229446BC4463441B785B031A1C3B6EA2
:100BB0001343BB660023FB66BB6EFC6E9AB27B6B75
:100BC0001A800023181CBD461DB0F0BD5D52000008
:100BD0008D080000FF1F000080B584B000AF021C2C
:100BE000FB1D1A70BB1D0A1C1A701A4B1B780122C0
:100BF0005340DBB2002B03D1BB1D1B78002B1BD055
:100C00000C23FB18181C144B98470C23FB18FA1DD7
:100C100012781A700C23FB181320191C0F4B9847DD
:100C200013200F4B98470B4BFA1D12785A70094B43
:100C300001221A70002308E0064B5B78FA1D127837
:100C40009A4201D1002300E01D23181CBD4604B0C8
:100C500080BDC046940000207908000029450000AE
:100C60006D45000080B582B000AF78600A1CFB1CA7
:100C70001A707B684D4A93423FD04C4A934206D843
:100C80004B4A93420FD04B4A934221D089E04A4AC3
:100C9000934200D15BE0494A934200D16CE0484A5C
:100CA00093423FD07DE0FB1C1B78012B0AD002DC75
:100CB000002B05D075E0022B06D0032B06D070E088
:100CC000404B6FE0404B6DE0404B6BE0404B69E0C8
:100CD000FB1C1B78012B0AD002DC002B05D060E046
:100CE000022B06D0032B06D05BE003235AE0394BDE
:100CF00058E0394B56E0394B54E0FB1C1B78012B74
:100D00000AD002DC002B05D04BE0022B06D0032BCF
:100D100006D046E0324B45E0324B43E0324B41E0F7
:100D2000324B3FE0FB1C1B78012B0AD002DC002B6E
:100D300005D036E0022B06D0032B06D031E02C4B39
:100D400030E02C4B2EE02C4B2CE02C4B2AE0FB1CF3
:100D50001B78012B0AD002DC002B05D021E0022BEE
:100D600006D0032B06D01CE0254B1BE0254B19E0D9
:100D7000254B17E0254B15E0FB1C1B78012B0AD0F7
:100D800002DC002B05D00CE0022B06D0032B06D092
:100D900007E01F4B06E01F4B04E01F4B02E01F4B18
:100DA00000E00023181CBD4602B080BD00100042C8
:100DB00000080042000C004200180042001C0042E3
:100DC00000140042030004000300050003000600B5
:100DD000030007000300010003001E0003001F00C2
:100DE000030008000300090003000A0003000B00D1
:100DF00003001000030011000300120003001300A1
:100E000003000C0003000D0003000E0003000F00A0
:100E10000300160003001700030018000300190068
:100E200090B58BB000AF78600C23FB180E4A13CA44
:100E300013C313CA13C300237B620DE07B680C222B
:100E4000BA18796A89008A58934202D17B6ADBB268
:100E500006E07B6A01337B627B6A052BEED90023B7
:100E6000181CBD460BB090BD2C63000080B582B04D
:100E700000AF021CFB1D1A70BD4602B080BDC0460B
:100E800080B584B000AF021C3960FB1D1A70134B93
:100E90001B7801225340DBB2002B15D00023FB60EE
:100EA0000CE00F4BFA6892000E49D1500E4BFA68D5
:100EB00092000021D150FB680133FB60FB68052BD9
:100EC000EFD9064B01221A70FB1D1A78044B9200D1
:100ED0003968D150BD4604B080BDC04696000020A0
:100EE000980000206D0E0000E83C002090B585B011
:100EF00000AF78600823FA180E4B111C1A1C062349
:100F0000081C111C1A1C0C4B98470F23FC187B68FB
:100F1000181C0A4B9847031C23700F23FB181B78DF
:100F20000822BA18D35CDBB25BB2181CBD4605B010
:100F300090BDC04644630000FD520000210E000039
:100F400080B500AF024B1B6800209847BD4680BDAE
:100F50009800002080B500AF024B5B6801209847E5
:100F6000BD4680BD9800002080B500AF024B9B6855
:100F700002209847BD4680BD9800002080B500AF94
:100F8000024BDB6803209847BD4680BD98000020D7
:100F900080B500AF024B1B6904209847BD4680BD59
:100FA0009800002080B500AF024B5B690520984790
:100FB000BD4680BD9800002080B582B000AF78604B
:100FC0007B6800221A70BD4602B080BD80B582B039
:100FD00000AF021C3960FB1D1A70FB1D1B78012B32
:100FE0000AD0022B0FD0002B14D10E4B0D4A916961
:100FF0003A680A439A610FE00A4B0A4AD1693A6893
:101000000A43DA6108E0074B064A116A3A680A4364
:101010001A6201E0172300E00023181CBD4602B04D
:1010200080BDC0460004004080B582B000AF78604B
:101030007B6880221A707B6800225A707B680122CC
:101040009A707B680022DA70BD4602B080BDC0464F
:1010500080B500AF054B9B78DBB21A1C022313400E
:101060005A1E9341DBB2181CBD4680BD00200041D2
:1010700080B584B000AF78607B681B68FB60FB685C
:10108000DB695A1E9341DBB2181CBD4604B080BD1B
:1010900080B582B000AF7860C0467B68181C034BF7
:1010A0009847031EF9D1BD4602B080BD7110000003
:1010B000F0B58DB002AF786039607B681B68BB61AA
:1010C0007B681B68181CAE4B9847031C7B617B69CF
:1010D00014333B6100237B6200233B620E23FB1829
:1010E00000221A801F23FB1800221A701E23FB18EF
:1010F00010221A703B681B8A8022D20193421CD0B6
:101100008022D201934206DC002B0DD08022920176
:10111000934224D035E0C022D201934228D08022CD
:101120001202934212D02CE01F23FB1800221A70E7
:101130001E23FB1810221A7023E01F23FB18002225
:101140001A701E23FB1808221A701AE01F23FB18BE
:1011500000221A701E23FB1803221A7011E01F23AD
:10116000FB1801221A701E23FB1810221A7008E0C7
:101170001F23FB1801221A701E23FB1808221A7065
:10118000C0463B681A683B68DB681A433B685B698A
:1011900013433A68128A13433A68127E12021343C9
:1011A0003A682621525C520713437B621D23FB18C9
:1011B00000221A703B685B68002B20D08022520509
:1011C000934250D13B6827229B5C01225340DBB203
:1011D000002B13D03B681D6A3B69DBB2181C694BBE
:1011E0009847021C1D23FC180E23FB18281C111CF9
:1011F0001A1C654B9847031C237034E033E03B68AE
:1012000027229B5C002B14D03B68186A3B68996AC4
:101210001D23FC180E23FA181F23FB181D781E230C
:10122000FB181B7800932B1C584DA847031C2370F8
:1012300018E03B681E6A3B69DBB2181C514B9847AB
:10124000011C1D23FC180E23FA181F23FB181D7800
:101250001E23FB181B780093301C2B1C4B4DA847FA
:10126000031C2370C0461D23FB181B78002B03D0E2
:101270001D23FB181B787EE03B685B7E002B03D0B0
:101280003B689A7EBB699A737B68181C404B9847F1
:101290000E23FB181A88BB699A813B685B687A6ADF
:1012A00013437B623B6827229B5C01225340DBB2E5
:1012B000002B03D07B6A042213437B623B689A7A3B
:1012C0003B68DB7A1343DBB21A1C3B685B7E9B02F4
:1012D00013433A68127F520213433A68527F120254
:1012E00013433A682421525C520413433A6825217F
:1012F000525C120413433B623B681B89FF2B15D0E1
:101300003B68DB7E002B05D07B6AA022D20413430E
:101310007B6204E07B6A8022520413437B623B6859
:101320001B891A1C3B6A13433B6208E03B68DB7E67
:10133000002B04D07B6A8022D20413437B623B687B
:101340002C229B5C002B03D1124B9847031E03D029
:101350007B6A802213437B627B68181C0C4B984786
:10136000BB693A6A5A607B68181C094B9847BB698D
:101370007A6A1A600023181CBD460BB0F0BDC04647
:10138000210E00004D4600006D090000E909000033
:10139000911000005110000090B593B000AFF860BC
:1013A000B9607A603B23FB1800221A70FB68BA68A8
:1013B0001A60FB681B687B63FB681B68181C854B05
:1013C0009847031C3B633B6B0233FB623B6B14335C
:1013D000BB627B6B1B680122134001D00523F5E043
:1013E0007B6B1B680222134001D01C23EEE0FB6ADA
:1013F00001229A40131C0220191C774B9847242382
:10140000FB18181C754B98477B682D229A5C242387
:10141000FB181A70BB6ADAB22423FB18101C191CC3
:101420006F4B9847BB6ADBB2181C6E4B98477B68C2
:101430002D229B5C181C00216B4B98477B68DA7A45
:10144000FB685A717B6824229A5CFB689A717B68FE
:1014500025229A5CFB68DA717B68DA7EFB681A7277
:101460007B681A7FFB685A723B23FC18FA687B681A
:10147000101C191C5D4B9847031C23703B23FB1861
:101480001B78002B03D03B23FB181B789EE0202306
:10149000FB18181C564B98472023FB1800225A7043
:1014A0002023FB1800229A707B681A6B1023FB180C
:1014B0001A607B685A6B1023FB185A607B689A6B22
:1014C0001023FB189A607B68DA6B1023FB18DA6034
:1014D0004723FB1800221A702CE04723FB181A78C8
:1014E0001023FB189200D3583B643B6C002B09D1AE
:1014F000BA684723FB181B78101C191C3D4B9847F2
:10150000031C3B643B6C01330DD03B6CDAB22023EF
:10151000FB181A703B6C1B0CDAB22023FB18101C52
:10152000191C354B98474723FB181A784723FB189B
:1015300001321A704723FB181B78032BCDD90023E7
:10154000FB6309E0FA68FB6B02339B00D3180022AF
:101550005A60FB6B0133FB63FB6B052BF2D9FB6815
:1015600000229A62FB6800225A62FB680022DA8538
:10157000FB6800229A85FB68302200219954FB68A1
:10158000312200219954FB68322200219954FB68D2
:10159000332200219954FB681B682722BC18181CB1
:1015A0000C4B9847031C23702723FB181A78134B06
:1015B000101C191C124B98472723FB181A78114B43
:1015C0009200F968D1503B23FB181B78181CBD46CC
:1015D00013B090BD210E0000CD0F0000B90F000028
:1015E000294500006D450000D90B0000B110000036
:1015F00029100000650C000015480000AD17000020
:10160000810E0000E83C002080B584B000AF786017
:101610000A1CBB1C1A807B681B68FB607B68DB793B
:1016200001225340DBB2002B01D01C2317E07B6862
:10163000DB8D9BB2002B01D0052310E07B68181CCA
:10164000094B9847FB68BA1C12881A85C046FB688C
:101650001B7EDBB21A1C02231340F8D00023181C97
:10166000BD4604B080BDC0469110000080B584B076
:1016700000AF786039607B681B68FB607B689B7992
:1016800001225340DBB2002B01D01C2368E07B68B1
:101690009B8D9BB2002B01D0052361E0FB681B7E74
:1016A000DBB21A1C0423134001D1052358E07B68E8
:1016B000181C2D4B9847FB685B8B9BB2DAB20B234F
:1016C000FB183F210A401A700B23FB181B78002BD4
:1016D00040D00B23FB181B780222134004D0FB6878
:1016E00002225A831A233BE00B23FB181B780422A7
:1016F000134004D0FB6804225A831E2330E00B23DE
:10170000FB181B780122134004D0FB6801225A8386
:10171000132325E00B23FB181B781022134009D05C
:10172000FB685B8B9BB2102213439AB2FB685A830F
:10173000422315E00B23FB181B782022134009D00D
:10174000FB685B8B9BB2202213439AB2FB685A83DF
:10175000412305E0FB681B8D9AB23B681A80002389
:10176000181CBD4604B080BD9110000080B584B047
:1017700000AF78607B681B68FB60FB68DB695A1E02
:101780009341DBB2181CBD4604B080BD80B582B069
:1017900000AF7860C0467B68181C034B9847031E57
:1017A000F9D1BD4602B080BD6D17000080B588B08C
:1017B00000AF021CFB1D1A70FB1D1A78B04B920083
:1017C000D358BB61BB691B687B61BB69181CAD4BFF
:1017D00098477B691B7EDAB21223FB181A807B695B
:1017E0009B7DDBB29AB21223FB181221791809886B
:1017F0000A401A80BB6930229B5CBA693121525C75
:101800001340DAB21023FB181A801223FB181B882E
:101810000122134044D0BB69DB8D9BB2002B3CD02E
:10182000BB699B6A1B78DAB21C23FB181A80BB6960
:101830009B6A5A1CBB699A62BB695B79012B12D106
:10184000BB699B6A1B78DBB21B029AB21C23FB1894
:101850001B8813439AB21C23FB181A80BB699B6A2E
:101860005A1CBB699A621C23FB181B88DB05DB0D25
:101870009AB27B691A85BB69DB8D9BB2013B9BB237
:10188000BA69191CD185002B06D17B6901221A7512
:101890007B6902229A7503E002E07B6901221A75D6
:1018A0001223FB181B880222134011D07B690222ED
:1018B0001A75BB693322002199541023FB181B8829
:1018C0000122134004D0BB69DB68BA69101C984739
:1018D0001223FB181B880422134000D1D7E0BB69F8
:1018E0009B8D9BB2002B00D1CEE07B695B8B9BB2C2
:1018F000DAB21F23FB183F210A401A701F23FB187E
:101900001B780822134007D01F23FB181F22BA1888
:10191000127808218A431A701F23FB181B78002BAA
:1019200000D169E01F23FB181B78022213400CD062
:10193000BB6932221A2199547B695B8B9BB20222CC
:1019400013439AB27B695A834AE01F23FB181B7822
:10195000042213400CD0BB6932221E2199547B69AA
:101960005B8B9BB2042213439AB27B695A8337E0A4
:101970001F23FB181B78012213400CD0BB693222B5
:10198000132199547B695B8B9BB2012213439AB25A
:101990007B695A8324E01F23FB181B781022134015
:1019A0000CD0BB693222422199547B695B8B9BB27C
:1019B000102213439AB27B695A8311E01F23FB184C
:1019C0001B78202213400BD0BB693222412199544D
:1019D0007B695B8B9BB2202213439AB27B695A834B
:1019E0001023FB181B880422134050D0BB695B698D
:1019F000BA69101C98474AE07B691B8D9AB20E2386
:101A0000FB18D205D20D1A80BB695B6A0E22BA1888
:101A10001288D2B21A70BB695B6A5A1CBB695A62DF
:101A2000BB695B79012B0DD1BB695B6A0E22BA18C9
:101A30001288120A92B2D2B21A70BB695B6A5A1C3F
:101A4000BB695A62BB699B8D9BB2013B9BB2BA6971
:101A5000191C9185002B12D17B6904221A75BB6970
:101A60003222002199541023FB181B8802221340B4
:101A700005D0BB691B69BA69101C984707E006E0EE
:101A8000E83C00208D1700007B6904221A751223A0
:101A9000FB181B881022134010D07B6910221A7586
:101AA0007B6910221A761023FB181B881022134022
:101AB00004D0BB69DB69BA69101C98471223FB1874
:101AC0001B882022134010D07B6920221A757B6965
:101AD00020221A761023FB181B880822134004D0FA
:101AE000BB699B69BA69101C98471223FB181B88B5
:101AF0000822134010D07B6908221A757B690822DE
:101B00001A761023FB181B882022134004D0BB69CF
:101B10001B6ABA69101C9847BD4608B080BDC04614
:101B200080B586B000AFF860B9607A6000237B6151
:101B3000FB68002B02D001235B4215E010E00C4B48
:101B40001A680C4B1968BB68081C191C9047BB68C5
:101B50000133BB607B6901337B617B68013B7B6048
:101B60007B68002BEBDC7B69181CBD4606B080BD92
:101B7000003D0020083D002080B586B000AFF86031
:101B8000B9607A6000237B61FB68012B08D0FB6899
:101B9000022B05D0FB68032B02D001235B4219E026
:101BA00014E00E4B1A680E4B1868BB68591CB960DC
:101BB0001B78191C9047031E02DA01235B4209E0DF
:101BC0007B6901337B617B68013B7B607B68002B19
:101BD000E7D17B69181CBD4606B080BD043D0020DE
:101BE000083D002080B584B000AFF860B9607A602D
:101BF000FB68043BFB60FB68802252041A60FB68B0
:101C0000043BFB60BA68FB681A60FB68043BFB603E
:101C1000084AFB681A60FB68143BFB607A68FB6843
:101C20001A60FB68203BFB60FB68181CBD4604B0D3
:101C300080BDC046391C000080B500AF034B1B6857
:101C4000013301D072B6FEE772B6FEE70400002051
:101C500080B500AFBD4680BD064A136818682030C5
:101C600080F30988022080F314883FBCAE4662B638
:101C700000BDC046503B002080B500AF0D4B0D4A63
:101C80001268FF2109040A431A600A4B094A1268C4
:101C9000FF2109060A431A60074B9847074B0022A9
:101CA0001A60074B9847074B98470023181CBD46FE
:101CB00080BDC04620ED00E0C51D000004000020EE
:101CC000591C0000391C000080B500AF044B802275
:101CD00052051A60BFF34F8FBFF36F8FBD4680BDB3
:101CE00004ED00E080B500AF72B6054B1B685A1CCE
:101CF000034B1A60BFF34F8FBFF36F8FBD4680BD9C
:101D00000400002080B500AF084B1B68002B01D1F8
:101D100072B6FEE7054B1B685A1E044B1A60034B54
:101D20001B68002B00D162B6BD4680BD04000020B8
:101D3000EFF3108072B670470023181C80F31088F0
:101D40007047C046EFF309800E4B1A6820381060C8
:101D5000F0C044464D4656465F46F0C008B572B6E0
:101D600001F0A6F862B60CBC116808681030F0C823
:101D7000A046A946B246BB4680F309882038F0C881
:101D80001847C046503B002080B582B000AF094BD9
:101D90009847031C7B60084B9847031E03D0074BF2
:101DA000802252051A607B68181C054B9847BD4677
:101DB00002B080BD311D0000392D000004ED00E0AF
:101DC0003D1D000080B500AF054B00221A60054B99
:101DD000054A1A60054B07221A60BD4680BDC04601
:101DE00018E000E014E000E03F1F000010E000E019
:101DF00080B584B000AF78600023FB607B68072269
:101E0000134004D07B680722934308337B60174B51
:101E10009847174B1B68002B05D1164B072293439D
:101E20001A1C134B1A60144B1A687B68D318134A98
:101E3000934213D8104B1A687B68D2180E4B1B685C
:101E40009A420BD90A4B1A680B4B1B68D318FB60DC
:101E5000094B1A687B68D218074B1A60084B9847E1
:101E6000FB68181CBD4604B080BDC046D52B0000E1
:101E70004C3B0020B8000020483B00208F3A000077
:101E8000ED2B000080B582B000AF78607B68002B3E
:101E900001D072B6FEE7BD4602B080BD80B582B00B
:101EA00000AF78607B6808331A1C7B685A607B68D7
:101EB000012252429A607B6808331A1C7B68DA6000
:101EC0007B6808331A1C7B681A617B6800221A60E1
:101ED000BD4602B080BDC04680B582B000AF78601C
:101EE0007B6800221A61BD4602B080BD80B584B017
:101EF00000AF786039607B685B68FB603B68FA68BC
:101F00005A60FB689A683B689A60FB689B683A680D
:101F10005A60FB683A689A603B687A681A617B6825
:101F20001B685A1C7B681A60BD4604B080BDC04661
:101F300080B584B000AF786039603B681B68BB60D7
:101F4000BB68013303D17B681B69FB600CE07B68D5
:101F50000833FB6002E0FB685B68FB60FB685B6862
:101F60001A68BB689A42F6D9FB685A683B685A609F
:101F70003B685B683A689A603B68FA689A60FB68FD
:101F80003A685A603B687A681A617B681B685A1C19
:101F90007B681A60BD4604B080BDC04680B584B081
:101FA00000AF78607B681B69FB607B685B687A6860
:101FB00092689A607B689B687A6852685A60FB688E
:101FC0005A687B689A4203D17B689A68FB685A60BA
:101FD0007B6800221A61FB681B685A1EFB681A6046
:101FE000FB681B68181CBD4604B080BD80B584B07A
:101FF00000AF786039607B68FB60FB68002B01D123
:1020000072B6FEE7244B9847FB681A68FB68D96BE9
:10201000FB681B6C4B43D218FB685A60FB680022BC
:102020009A63FB681A68FB689A60FB681A68FB6829
:10203000DB6B591EFB681B6C4B43D218FB68DA60E4
:10204000FB68012252425A64FB68012252429A64A0
:102050003B68002B0ED1FB681B69002B14D0FB687A
:102060001033181C0D4B9847031E012B0CD10C4B41
:10207000984709E0FB681033181C0A4B9847FB6827
:102080002433181C074B9847074B98470123181C0B
:10209000BD4604B080BDC046E51C000029300000EC
:1020A000C91C00009D1E0000051D000080B588B001
:1020B00000AFF860B960FB1D1A700023FB61FB687C
:1020C000002B2CD050201B4B9847031CBB61BB69D5
:1020D000002B24D0FB68BA68534301337B617B69D2
:1020E000181C144B9847021CBB691A60BB691B681B
:1020F000002B10D0BB69FA68DA63BB69BA681A644E
:10210000BB69181C01210C4B9847BB690022DA649B
:10211000BB69FB6103E0BB69181C084B9847FB696E
:10212000002B01D172B6FEE7FB69181CBD4608B052
:1021300080BDC046F11D0000ED1F0000851E00009F
:1021400080B588B000AFF860B9607A603B6000236A
:10215000FB61FB68BB61BB69002B01D172B6FEE776
:10216000BB68002B03D1BB691B6C002B01D1012381
:1021700000E00023002B01D172B6FEE73B68022B82
:1021800003D1BB69DB6B012B01D1012300E00023EC
:10219000002B01D172B6FEE74F4B9847031E02D1C8
:1021A0007B68002B01D1012300E00023002B01D12B
:1021B00072B6FEE7494B9847BB699A6BBB69DB6B0C
:1021C0009A4202D33B68022B29D1B969BA683B68AD
:1021D000081C111C1A1C424B9847BB69DB6C002B76
:1021E0000BD0BA693B68101C191C3E4B9847031E64
:1021F000012B10D13C4B98470DE0BB695B6A002B6B
:1022000009D0BB692433181C384B9847031E012B97
:1022100001D1354B9847364B9847012358E07B68EE
:10222000002B03D1324B9847002351E0FB69002B70
:1022300006D11023FB18181C2E4B98470123FB6175
:102240002B4B98472C4B9847244B9847BB695B6CAA
:10225000013302D1BB6900225A64BB699B6C013314
:1022600002D1BB6900229A64214B98471023FA18C7
:102270003B1D101C191C214B9847031E1FD1BB6925
:10228000181C1F4B9847031E12D0BB6910331A1C31
:102290007B68101C191C1B4B9847BB69181C1A4BF8
:1022A00098471A4B9847031E11D10F4B98470EE0E1
:1022B000BB69181C144B9847144B98477AE7BB69C5
:1022C000181C114B9847114B9847002300E071E709
:1022D000181CBD4608B080BD01350000E51C00009B
:1022E0000D260000D5280000C91C00002930000080
:1022F000051D0000E9300000D52B00001931000059
:1023000035280000512F00003D270000ED2B000074
:1023100080B588B000AFF860B9607A603B60FB6858
:10232000BB61BB69002B01D172B6FEE7BB68002B15
:1023300003D1BB691B6C002B01D1012300E00023FA
:10234000002B01D172B6FEE73B68022B03D1BB69BB
:10235000DB6B012B01D1012300E00023002B01D115
:1023600072B6FEE7284B9847031C7B61BB699A6BEA
:10237000BB69DB6B9A4202D33B68022B39D1B96946
:10238000BA683B68081C111C1A1C204B9847BB6993
:102390009B6C013325D1BB69DB6C002B0FD0BA6974
:1023A0003B68101C191C1A4B9847031E012B1DD1AA
:1023B0007B68002B1AD07B6801221A6016E0BB698B
:1023C0005B6A002B12D0BB692433181C114B984751
:1023D000031E0BD07B68002B08D07B6801221A609B
:1023E00004E0BB699B6C5A1CBB699A640123FB61C6
:1023F00001E00023FB617B69181C074B9847FB69D0
:10240000181CBD4608B080BD311D00000D2600001F
:10241000D5280000293000003D1D000080B58AB09D
:1024200000AFF860B9607A603B6000237B62FB68B4
:102430003B623B6A002B01D172B6FEE7BB68002B02
:1024400003D13B6A1B6C002B01D1012300E0002368
:10245000002B01D172B6FEE75D4B9847031E02D1F7
:102460007B68002B01D1012300E00023002B01D168
:1024700072B6FEE7574B98473B6A9B6B002B3CD0EC
:102480003B6ADB68FB613A6ABB68101C191C524B43
:1024900098473B68002B1CD13B6A9B6B5A1E3B6ADA
:1024A0009A633B6A1B68002B04D14C4B9847021C73
:1024B0003B6A5A603B6A1B69002B1AD03B6A103397
:1024C000181C474B9847031E012B12D1454B9847C8
:1024D0000FE03B6AFA69DA603B6A5B6A002B08D05E
:1024E0003B6A2433181C3E4B9847031E01D03D4BDA
:1024F00098473D4B9847012365E07B68002B03D14B
:10250000394B984700235EE07B6A002B06D11423E9
:10251000FB18181C354B984701237B62324B9847B8
:10252000334B98472B4B98473B6A5B6C013302D186
:102530003B6A00225A643B6A9B6C013302D13B6ABE
:1025400000229A64284B98471423FA183B1D101C4C
:10255000191C284B9847031E2CD13B6A181C264B8C
:102560009847031E1FD03B6A1B68002B08D1194BEC
:1025700098473B6A5B68181C204B98471A4B984752
:102580003B6A24331A1C7B68101C191C1C4B98478F
:102590003B6A181C1B4B98471B4B9847031E11D1D5
:1025A000104B98470EE03B6A181C164B9847164B89
:1025B00098475FE73B6A181C124B9847124B9847A5
:1025C000002300E056E7181CBD460AB080BDC04697
:1025D00001350000E51C0000E9260000E53400009C
:1025E00029300000C91C0000051D0000E930000072
:1025F000D52B0000193100000128000039350000FA
:10260000512F00003D270000ED2B000080B584B065
:1026100000AFF860B9607A60FB681B6C002B0CD1CE
:10262000FB681B68002B53D1FB685B68181C2C4BA4
:102630009847FB6800225A604AE07B68002B1BD158
:10264000FB689968FB681B6CBA68081C111C1A1C93
:10265000244B9847FB689A68FB681B6CD218FB6890
:102660009A60FB689A68FB685B689A4230D3FB68A3
:102670001A68FB689A602BE0FB68D968FB681B6CE2
:10268000BA68081C111C1A1C164B9847FB68DA68BC
:10269000FB681B6C5B42D218FB68DA60FB68DA6887
:1026A000FB681B689A4207D2FB685A68FB681B6C80
:1026B0005B42D218FB68DA607B68022B08D1FB68AA
:1026C0009B6B002B04D0FB689B6B5A1EFB689A63C4
:1026D000FB689B6B5A1CFB689A63BD4604B080BDC7
:1026E000FD350000FD52000080B582B000AF78607B
:1026F00039607B681B68002B1AD07B68DA687B68BE
:102700001B6CD2187B68DA607B68DA687B685B6870
:102710009A4203D37B681A687B68DA607B68DA6860
:102720007B681B6C3968081C111C1A1C024B9847EB
:10273000BD4602B080BDC046FD52000080B582B0EB
:1027400000AF7860294B984722E07B68DB6C002B58
:102750000AD07B68181C0021254B9847031E012BCB
:1027600011D1244B98470EE07B685B6A002B09D09F
:102770007B682433181C204B9847031E03D01D4B45
:10278000984700E008E07B689B6C5A1E7B689A645F
:102790007B689B6C002BD8DC7B68012252429A64D8
:1027A000164B9847114B984713E07B681B69002B29
:1027B0000ED07B681033181C0F4B9847031E01D0B6
:1027C0000C4B98477B685B6C5A1E7B685A6400E030
:1027D00003E07B685B6C002BE7DC7B6801225242E4
:1027E0005A64064B9847BD4602B080BDE51C000008
:1027F000D5280000C131000029300000051D00006F
:1028000080B584B000AF7860084B98477B689B6BBD
:10281000002B02D10123FB6001E00023FB60044B8D
:102820009847FB68181CBD4604B080BDE51C00003D
:10283000051D000080B584B000AF7860094B984753
:102840007B689A6B7B68DB6B9A4202D10123FB6049
:1028500001E00023FB60044B9847FB68181CBD4651
:1028600004B080BDE51C0000051D000080B584B0EB
:1028700000AF786039607B68FB60124B9847FB685B
:102880005B6C013302D1FB6800225A64FB689B6CCD
:10289000013302D1FB6800229A640B4B9847FB6816
:1028A0009B6B002B07D1FB6824331A1C3B68101C60
:1028B000191C064B9847FB68181C054B9847BD46EA
:1028C00004B080BDE51C0000051D0000CD2F0000F8
:1028D0003D27000080B584B000AF786039607B6828
:1028E000DB6CBB600023FB60BB68002B01D172B6C0
:1028F000FEE7BB689A6BBB68DB6B9A4201D372B68A
:10290000FEE7BB689A6BBB68DB6B9A4214D2B9686E
:102910003A1D3B68081C111C1A1C0A4B9847BB68DF
:102920005B6A002B08D0BB682433181C064B984701
:10293000031E01D00123FB60FB68181CBD4604B0D8
:1029400080BDC0460D2600002930000090B58BB038
:1029500002AFF860B9603B60BB1D1A80FB68002BBA
:1029600001D172B6FEE73B6B042B01D972B6FEE7CC
:10297000BB1D1A88BB6B101C191C494B9847031CC4
:10298000BB61BB69002B00D172E0BB691A6BBB1D38
:102990001B8844498C4663449B00D3187B617B6948
:1029A000072293437B617B690722134001D072B6F3
:1029B000FEE7B869B9683A6BFC6BBB1D1B880093D6
:1029C000231C394CA0477969FA683B68081C111C24
:1029D0001A1C364B9847021CBB691A607B6B002B94
:1029E00002D07B6BBA691A60314B9847314B1B6838
:1029F0005A1C304B1A60304B1B68002B09D12E4BF0
:102A0000BA691A602B4B1B68012B0FD12B4B9847CF
:102A10000CE02B4B1B68002B08D1274B1B68DA6A94
:102A20003B6B9A4202D8244BBA691A60254B1B684B
:102A30005A1C244B1A60BB69DA6A234B1B689A4202
:102A400003D9BB69DA6A204B1A60BB69DA6A131CC6
:102A50009B009B189B001D4A9A18BB690433101CED
:102A6000191C1B4B98470123FB611A4B984702E046
:102A700001235B42FB61FB69012B0BD1104B1B68EF
:102A8000002B07D00C4B1B68DA6A3B6B9A4201D2D1
:102A9000114B9847FB69181CBD4609B090BDC04654
:102AA0001D340000FFFFFF3FFD310000E51B00006B
:102AB000E51C0000283C0020503B0020953200001F
:102AC000343C0020443C0020303C0020543B00209B
:102AD000ED1E0000051D0000C91C000080B584B07B
:102AE00000AF78600023FB607B68002B1AD0114B8D
:102AF0001B68002B01D072B6FEE70F4B98470F4BB7
:102B00001A687B68D318BB600D4B1B680433181C14
:102B10000C4B9847BB68181C0B4B98470B4B9847BE
:102B2000031CFB60FB68002B01D1094B9847BD4695
:102B300004B080BD483C0020D52B00002C3C002078
:102B4000503B00209D1F0000AD330000ED2B000026
:102B5000C91C000090B587B004AF1749174A00237D
:102B60000093002301930023029300230393081C86
:102B7000111C64220023124CA047031C7B607B685D
:102B8000012B03D10F4B9847031C7B607B68012B03
:102B900009D172B60C4B01221A600C4B00221A604C
:102BA0000B4B984704E07B68002B01D172B6FEE71F
:102BB000BD4603B090BDC046D53100004C63000057
:102BC0004D29000089360000343C00202C3C0020B8
:102BD000791C000080B500AF034B1B685A1C024BE8
:102BE0001A60BD4680BDC046483C002080B582B01A
:102BF00000AF00237B60374B1B68002B01D172B6FE
:102C0000FEE7354B9847334B1B685A1E314B1A6011
:102C1000304B1B68002B55D1304B1B68002B51D01B
:102C20002FE02F4BDB68DB683B603B681833181CD8
:102C30002C4B98473B680433181C2A4B98473B6839
:102C4000DA6A294B1B689A4203D93B68DA6A264B39
:102C50001A603B68DA6A131C9B009B189B00234A8E
:102C60009A183B680433101C191C214B98473B6889
:102C7000DA6A204B1B68DB6A9A4202D31E4B0122A0
:102C80001A60174B1B68002BCBD11C4B1B68002B09
:102C900010D00BE01A4B9847031E02D0164B0122AE
:102CA0001A60164B1B685A1E144B1A60134B1B6894
:102CB000002BEFD1104B1B68012B03D101237B604C
:102CC000104B9847104B98477B68181CBD4602B0C4
:102CD00080BDC046483C0020E51C0000283C002088
:102CE000E83B00209D1F0000303C0020543B0020AA
:102CF000ED1E0000503B00203C3C0020383C0020F2
:102D0000392D0000C91C0000051D000080B582B0EF
:102D100000AF064B9847064B1B687B60054B9847F6
:102D20007B68181CBD4602B080BDC046E51C000093
:102D30002C3C0020051D000080B586B000AF0023AC
:102D40007B614D4B1B68002B00D084E04B4B1B6814
:102D50005A1C4A4B1A60494B1B683B613B69002B6C
:102D600017D1474B1B681B68002B01D072B6FEE7DA
:102D7000434B1B68FB60434B1A68414B1A60414B45
:102D8000FA681A60404B1B685A1C3F4B1A603F4B55
:102D900098473F4B1B683A699A424ED3384B1B68A1
:102DA0001B68002B01D1012300E00023002B04D07D
:102DB000374B012252421A603FE0314B1B68DB68FF
:102DC000DB68BB60BB685B687B603A697B689A4282
:102DD00003D22F4B7A681A602FE0BB680433181CAB
:102DE0002C4B9847BB689B6A002B04D0BB681833F8
:102DF000181C284B9847BB68DA6A274B1B689A4215
:102E000003D9BB68DA6A244B1A60BB68DA6A131C00
:102E10009B009B189B00214A9A18BB680433101C26
:102E2000191C1F4B9847BB68DA6A1E4B1B68DB6A8C
:102E30009A4201D301237B61B0E71A4B1B68DA6A1F
:102E40001649131C9B009B189B005B58012B07D94C
:102E500001237B6104E0144B1B685A1C124B1A605F
:102E6000124B1B68002B01D001237B617B69181C6E
:102E7000BD4606B080BDC046483C00202C3C00202A
:102E8000E03B0020E43B0020403C0020A134000057
:102E9000080000209D1F0000303C0020543B002013
:102EA000ED1E0000503B0020383C00203C3C002040
:102EB00080B582B000AF214B1B68002B03D0204BA4
:102EC00001221A6036E01E4B00221A600AE01D4BF8
:102ED0001B68002B01D172B6FEE71A4B1B685A1E05
:102EE000184B1A60174B1A681749131C9B009B1844
:102EF0009B005B58002BEAD0124B1A68131C9B00F6
:102F00009B189B00104A9B187B607B685B685A6823
:102F10007B685A607B685A687B6808339A4204D1A0
:102F20007B685B685A687B685A607B685B68DA68B4
:102F3000064B1A60BD4602B080BDC046483C00202A
:102F40003C3C0020303C0020543B0020503B002003
:102F500080B584B000AF786039607B68002B01D108
:102F600072B6FEE7124B1B6818337A68101C191CE6
:102F7000104B98470E4B1B680433181C0E4B984798
:102F80003B68013308D10A4B1B6804330B4A101C01
:102F9000191C0B4B984708E00A4B1A683B68D3187A
:102FA000FB60FB68181C084B9847BD4604B080BD09
:102FB000503B0020311F00009D1F0000143C0020EA
:102FC000ED1E00002C3C0020AD33000080B584B025
:102FD00000AF786039607B68002B01D172B6FEE7E4
:102FE0000C4B1B6818337A68101C191C0A4B984745
:102FF000084B1B680433181C084B9847084B1A6889
:103000003B68D318FB60FB68181C064B9847BD460D
:1030100004B080BD503B0020ED1E00009D1F00004D
:103020002C3C0020AD33000080B584B000AF786048
:103030007B68DB68DB68BB60BB68002B01D172B6C4
:10304000FEE7BB681833181C1F4B98471F4B1B68C3
:10305000002B1DD1BB680433181C1B4B9847BB6861
:10306000DA6A1B4B1B689A4203D9BB68DA6A184BB1
:103070001A60BB68DA6A131C9B009B189B00154AF8
:103080009A18BB680433101C191C134B984706E0B0
:10309000BB681833114A101C191C0F4B9847BB68AA
:1030A000DA6A0F4B1B68DB6A9A4205D90123FB6081
:1030B0000C4B01221A6001E00023FB60FB68181C26
:1030C000BD4604B080BDC0469D1F0000483C0020A6
:1030D000303C0020543B0020ED1E0000E83B002067
:1030E000503B00203C3C002080B582B000AF7860AF
:1030F0007B68002B01D172B6FEE7054B1A687B682E
:103100001A60044B1A687B685A60BD4602B080BDE5
:10311000403C00202C3C002080B584B000AF78609B
:1031200039607B68002B01D172B6FEE73B68002B4B
:1031300001D172B6FEE71D4B98471D4B1B68BB6063
:103140003B681B68013302D10023FB6027E07B68EA
:103150001A68184B1B689A4207D07B685A68BB688C
:103160009A4202D80123FB6019E07B685B68BA6869
:10317000D21A3B681B689A420FD23B681A687B6878
:103180005968BB68CB1AD2183B681A607B68181C58
:10319000094B98470023FB6001E00123FB60074BCC
:1031A0009847FB68181CBD4604B080BDE51C0000B4
:1031B0002C3C0020403C0020E9300000051D0000B0
:1031C00080B500AF024B01221A60BD4680BDC046EB
:1031D0003C3C002080B582B000AF7860044B98473B
:1031E000044B1B68012B01D9034B9847F6E7C046F7
:1031F00021330000543B0020C91C000080B586B07C
:1032000000AFF860B9607A603B6000237B6114E036
:10321000BA687B69D3181878FA6830217B69D318AB
:103220005B18021C1A71BA687B69D3181B78002BD3
:1032300000D105E07B6901337B617B69072BE7D90E
:10324000FB683B22002199547B68042B01D904239D
:103250007B60FB687A68DA62FB687A68DA63FB682D
:103260000433181C0A4B9847FB681833181C084B8A
:103270009847FB68FA681A617B680522D21AFB68D6
:103280009A61FB68FA685A62BD4606B080BDC046C6
:10329000D91E000080B582B000AF00237B600CE037
:1032A0007A68131C9B009B189B00144A9B18181CDF
:1032B000134B98477B6801337B607B68042BEFD905
:1032C000104B181C0E4B98470F4B181C0C4B984773
:1032D0000E4B181C0A4B98470D4B181C084B98476F
:1032E0000C4B181C064B98470B4B064A1A600B4BAD
:1032F000054A1A60BD4602B080BDC046543B00205E
:103300009D1E0000B83B0020CC3B0020E83B002085
:10331000FC3B0020143C0020E03B0020E43B00206C
:1033200080B582B000AF27E0174B9847174B1B685A
:103330005A425341DBB27B60154B98477B68002BA8
:103340001AD1144B9847114BDB68DB683B603B6834
:103350000433181C104B9847104B1B685A1E0F4B18
:103360001A600F4B1B685A1E0D4B1A600D4B984785
:103370003B68181C0C4B9847094B1B68002BD3D19A
:10338000BD4602B080BDC046D52B0000FC3B0020EE
:10339000ED2B0000E51C00009D1F0000283C0020D4
:1033A000103C0020051D00007D34000080B582B077
:1033B00000AF7860134B1B687A685A60124B1B6829
:1033C0007A689A4209D2114B1A680E4B1B68043373
:1033D000101C191C0E4B984710E00E4B1A68094B35
:1033E0001B680433101C191C094B98470A4B1B68B7
:1033F0007A689A4202D2084B7A681A60BD4602B0D7
:1034000080BDC046503B00202C3C0020E43B002007
:10341000311F0000E03B00200800002080B584B090
:1034200000AF021C3960BB1D1A804020114B984729
:10343000031CFB60FB68002B17D03B68002B07D1F7
:10344000BB1D1B889B00181C0A4B9847021C00E000
:103450003A68FB681A63FB681B6B002B05D1FB689D
:10346000181C054B98470023FB60FB68181CBD46E1
:1034700004B080BDF11D0000851E000080B582B043
:1034800000AF78607B681B6B181C044B98477B6807
:10349000181C024B9847BD4602B080BD851E000037
:1034A00080B582B000AF0D4B1B681B68002B01D1AB
:1034B000012300E00023002B04D0094B01225242DB
:1034C0001A6008E0054B1B68DB68DB687B607B6883
:1034D0005A68034B1A60BD4602B080BDE03B002035
:1034E0000800002080B582B000AF044B1B687B60F1
:1034F0007B68181CBD4602B080BDC046503B002012
:1035000080B582B000AF0A4B1B68002B02D10123AB
:103510007B6008E0074B1B68002B02D102237B6015
:1035200001E000237B607B68181CBD4602B080BDB3
:10353000343C0020483C002080B584B000AF786067
:103540007B68FB607B68002B4AD0FB68DA6A264BFD
:103550001B68DB6A9A4243D2FB689B69002B06DB3F
:10356000214B1B68DB6A0522D21AFB689A61FB6853
:103570005969FB68DA6A131C9B009B189B001B4A65
:103580009B18994201D1012300E00023002B22D097
:10359000FB680433181C164B9847134B1B68DA6AF8
:1035A000FB68DA62FB68DA6A124B1B689A4203D93D
:1035B000FB68DA6A0F4B1A60FB68DA6A131C9B001F
:1035C0009B189B00094A9A18FB680433101C191CAD
:1035D000094B984704E0044B1B68DA6AFB68DA621F
:1035E000BD4604B080BDC046503B0020543B002087
:1035F0009D1F0000303C0020ED1E000080B584B00F
:1036000000AF78607B68FB607B68002B30D0FB6884
:10361000DA6AFB68DB6B9A422AD0FB680433181C19
:10362000154B9847FB68DA6BFB68DA62FB689B69AD
:10363000002B05DBFB68DB6A0522D21AFB689A6166
:10364000FB68DA6A0D4B1B689A4203D9FB68DA6A99
:103650000A4B1A60FB68DA6A131C9B009B189B00DC
:10366000074A9A18FB680433101C191C054B98472D
:10367000BD4604B080BDC0469D1F0000303C002008
:10368000543B0020ED1E000090B587B004AF00232E
:103690007B60114B9847114B1B68002B11D01049D0
:1036A000104A022300930023019300230293002376
:1036B0000393081C111C502200230B4CA047031C31
:1036C0007B607B68002B01D172B6FEE77B68181C1B
:1036D000BD4603B090BDC046C53B00007C3C002009
:1036E00019380000546300004D29000090B589B0DE
:1036F00000AFF860B9607A603B600023FB61224B49
:103700001B68002B3BD01023FB18BA681A601023EB
:10371000FB187A685A601023FB18FA689A60BB6835
:10372000052B1FDC194B9847031E022B0DD1164B9E
:1037300019681023FA183B6B081C111C1A1C002373
:10374000134CA047031CFB6119E00F4B1A681023B0
:10375000FB18101C191C002200230D4CA047031C51
:10376000FB610CE0084B19681023FA183B68081C31
:10377000111C1A1C0023074CA047031CFB61FB69AA
:10378000181CBD4609B090BD7C3C002001350000EE
:10379000412100001123000090B587B002AF78608E
:1037A0003960194B1B68DB68DB68FB60FB6804331E
:1037B000181C164B9847FB68DB69012B1BD1FB6873
:1037C0009A697B68D118F8683A687B68104CA04702
:1037D000031E012B0FD1F9687A6800230093081C9F
:1037E000002100230B4CA047031CBB60BB68002BCF
:1037F00001D172B6FEE7FB685B6AFA68101C984755
:10380000BD4605B090BDC046743C00209D1F000021
:103810005D390000ED36000080B584B000AF7860FF
:103820000823FB18181C064B9847031CFB60BB6859
:10383000FA68101C191C034B9847034B9847EFE795
:10384000D53800004D380000E539000080B584B05F
:1038500000AF78603960184B98470823FB18181C94
:10386000164B9847031CFB60BB68002B1FD13B68BD
:10387000002B0CD17A68FB689A4208D8104B984705
:103880007A68FB68101C191C0E4B984711E00E4B10
:1038900019687A68FB68D31A081C191C0B4B9847E7
:1038A000074B9847031E04D1094B984701E0044B8E
:1038B0009847BD4604B080BDD52B000015390000E7
:1038C000ED2B0000993700007C3C00206D280000A3
:1038D000C91C000080B584B000AF78600C4B1B6839
:1038E0001B685A425341DBB21A1C7B681A607B6822
:1038F0001B68002B05D1064B1B68DB681B68FB604F
:1039000001E00023FB60FB68181CBD4604B080BDCD
:10391000743C002080B584B000AF78600C4B9847B1
:10392000031CFB600B4B1B68FA689A4205D20A4BDA
:1039300098477B6801221A6002E07B6800221A60C7
:10394000044BFA681A60FB68181CBD4604B080BDC1
:103950000D2D0000803C0020053B000080B586B0A6
:1039600000AFF860B9607A603B6000237B61FB6860
:10397000BA685A60FB68FA681A61BA687B689A424A
:1039800012D87A683B68D21AFB689B699A4202D3C4
:1039900001237B611BE0104B1A68FB680433101C89
:1039A000191C0E4B984712E07A683B689A4206D27F
:1039B000BA683B689A4202D301237B6107E0084B57
:1039C0001A68FB680433101C191C044B98477B6968
:1039D000181CBD4606B080BD783C0020311F000099
:1039E000743C002090B58BB002AF6BE00823FB184D
:1039F0001B68002B66DB0823FB189B68FB61FB69D7
:103A00005B69002B04D0FB690433181C354B9847C5
:103A10003B1D181C344B9847031CBB610823FB1843
:103A20001B68092B4DD89A00304BD3181B689F4652
:103A30000823FB185A68FB699B69D1180823FB18F7
:103A40005B68F869BA692A4CA047031E012B1DD197
:103A5000FB695B6AFA69101C9847FB69DB69012BFB
:103A600014D10823FB185A68FB699B69D218F969BD
:103A700000230093081C002100231E4CA047031CB8
:103A80007B617B69002B01D172B6FEE71AE0082347
:103A9000FB185A68FB699A61FB699B69002B01D18D
:103AA00072B6FEE7FB699A69BB69D118F869BA6911
:103AB000BB690F4CA04705E0FB69181C0E4B9847EB
:103AC00000E0C0460D4B1A680823FB18101C191C97
:103AD000002200230A4CA047031E87D1BD4609B02F
:103AE00090BDC0469D1F0000153900005C630000BA
:103AF0005D390000ED360000851E00007C3C002092
:103B00001D24000090B589B002AF3FE0284B1B6830
:103B1000DB681B687B61264B1B68DB68DB683B61ED
:103B20003B690433181C234B98473B695B6A3A692D
:103B3000101C98473B69DB69012B27D13B699A69C7
:103B40007B69D318FB60FA687B699A420ED93B699E
:103B5000FA685A603B693A691A61154B1A683B6901
:103B60000433101C191C144B98470FE039697A690B
:103B700000230093081C00210023104CA047031CC5
:103B8000BB60BB68002B01D172B6FEE7084B1B6817
:103B90001B68002BBAD1064B1B687B60084B1A6868
:103BA000034B1A60064B7A681A60BD4607B090BD99
:103BB000743C00209D1F0000311F0000ED36000006
:103BC000783C002080B500AF124B9847124B1B6821
:103BD000002B1BD1114B181C114B9847114B181C73
:103BE0000F4B9847104B0D4A1A60104B0D4A1A6044
:103BF00002200C2100220E4B9847021C064B1A6033
:103C0000054B1B68002B01D172B6FEE7094B9847A4
:103C1000BD4680BDE51C00007C3C00204C3C0020E3
:103C20009D1E0000603C0020743C0020783C002079
:103C3000AD200000051D000080B584B000AF021C5F
:103C4000FB1D1A700F23FB18FA1D1278D2091A7087
:103C50000E23FB18FA1D127852091A700D4BBB6027
:103C60000F23FB181B78002B0FD10F23FB181B7899
:103C70009B0010229446BC446344083B1A680E2300
:103C8000FB181B78DB01D31800E00023181CBD468D
:103C900004B080BD0044004180B582B000AF021C7A
:103CA000FB1D1A70FB1D1B78181C034B9847031C47
:103CB000181CBD4602B080BD393C000080B582B002
:103CC00000AF78607B6800221A707B6801225A700E
:103CD0007B6800229A70BD4602B080BD80B584B07A
:103CE00000AF021CFB1D1A70BB1D0A1C1A70FB1DC5
:103CF0001B78181C0C4B9847031CFB60FB1D1B78A2
:103D00001F22134001229A40131CBB60BB1D1B786D
:103D1000002B03D0FB68BA689A6102E0FB68BA68BE
:103D20005A61BD4604B080BD993C000080B582B0A8
:103D300000AF3B1D181C0E4B98473B1D01221A700B
:103D40003B1D3E20191C0B4B98473E2001210A4B7E
:103D500098473B1D00221A703B1D01225A703B1DE3
:103D60000F20191C034B9847BD4602B080BDC046CA
:103D7000BD3C0000A53D0000DD3C000080B582B0E8
:103D800000AF78607B6880221A707B6800225A70CE
:103D90007B6801229A707B680022DA70BD4602B00F
:103DA00080BDC04680B584B000AF021C3960FB1DE9
:103DB0001A700C23FB18181C0F4B98470C23FB1888
:103DC00080221A703B681A780C23FB185A703B68E3
:103DD0005A780C23FB189A703B689A780C23FB18CE
:103DE000DA70FB1D1A780C23FB18101C191C034BEE
:103DF0009847BD4604B080BD7D3D000015480000D9
:103E000080B582B000AF78607B6801225A607B6821
:103E100000225A707B6806221A707B6800221A7290
:103E20007B6800225A72BD4602B080BD80B582B068
:103E300000AF78607B6803221A707B6800225A709A
:103E40007B6801229A70BD4602B080BD80B582B009
:103E500000AF021CFB1D1A70034AFB1D1B78137276
:103E6000BD4602B080BDC0460004004080B582B0AF
:103E700000AF021CFB1D1A70BB1D0A1C1A70FB1D33
:103E80001B78012B08D0022B0BD0002B0ED10B4A34
:103E9000BB1D1B7853720BE0084ABB1D1B78937245
:103EA00006E0064ABB1D1B78D37201E0172300E031
:103EB0000023181CBD4602B080BDC046000400406F
:103EC00080B582B000AF021CFB1D1A70084BFA1DB2
:103ED00012780F210A40D2B20F210A4052005968CD
:103EE0001E2081430A435A60BD4602B080BDC046D1
:103EF0000040004180B500AFC046034BDB68102294
:103F00001340FAD0BD4680BD0008004080B500AF28
:103F10000C4A0D4B1B689BB280218B439BB2938450
:103F20000A4B9847074A084B9B68D362054A064BE1
:103F30005B689362034A044B1B689BB29384BD4643
:103F400080BDC04600080040843C0020F53E0000D3
:103F500080B582B000AF021CFB1D1A70FB1D1B78E0
:103F6000082B42D89A00234BD3181B689F46224B3C
:103F70001B693BE0214B1B6A1B0A1A1C03231340DD
:103F8000DBB21A1C1E4BD34030E080231B022DE015
:103F900080231B022AE0184B5B6927E0164B1B6845
:103FA0000222134001D1002320E0164B9847124B08
:103FB0001B680422134009D00020134B9847021CB1
:103FC0000D4B9B681B041B0C53430FE00F4B0DE084
:103FD0000A4A5023D35CDBB21A1C0423134001D1DC
:103FE000002303E0044BDB6800E00023181CBD46FF
:103FF00002B080BD84630000843C002000080040C3
:1040000000127A00F53E00004D460000006CDC0214
:1040100080B584B000AF78601A4B1B6AFB607B6888
:104020001B781A1C03231340DAB20D23FB1803215B
:104030000A40101C1A7803218A43111C021C0A43EF
:104040001A707B689A780C23FB18D0011A787F21AC
:104050000A40111C021C0A431A707B685A780C2310
:10406000FB1801210A4090011A7840218A43111C53
:10407000021C0A431A70034BFA681A62BD4604B068
:1040800080BDC0460008004080B582B000AF021C71
:10409000FB1D1A70FB1D1B78082B3BD89A00214B87
:1040A000D3181B689F46204B1F4A126A02210A43FD
:1040B0001A62002331E01C4B1B4A926902210A4319
:1040C0009A6129E0184A184B1B8A9BB202210B43C4
:1040D0009BB2138220E0144A134B9B8A9BB20221AD
:1040E0000B439BB2938217E0104B1B6802221A43CA
:1040F0000E4B1A600E4B98470EE00B4A0A494423B8
:10410000CB5CDBB202210B43D9B24423D15403E090
:10411000002302E0172300E00023181CBD4602B074
:1041200080BDC046A863000000080040843C002019
:104130000D3F000080B59CB000AF244BC222D200DE
:104140009A600020224B98476C23FB18181C214BC7
:1041500098476C23FB1800221A706C23FB1801226D
:104160009A706C23FB1800225A706C23FB18181CE1
:10417000194B98470620194B9847194B9847002030
:10418000184B984700200021174B98470120002129
:10419000154B98473B1C181C144B98473B1C062298
:1041A0001A703B1C01225A603B1C00221A723B1CF5
:1041B00000225A723B1C0020191C0D4B984700200E
:1041C0000C4B9847BD461CB080BDC046000800405F
:1041D000C13E00002D3E000011400000894000005B
:1041E000994200004D3E00006D3E0000013E00007F
:1041F000C9420000E943000080B500AF064B5B7880
:10420000DBB2DBB25BB2002B01DA012300E000235A
:10421000181CBD4680BDC046000C004080B582B071
:1042200000AF021C3960FB1D1A70FB1D1B78012BAF
:104230000AD0022B0FD0002B14D10E4B0D4A9169DE
:104240003A680A439A610FE00A4B0A4AD1693A6810
:104250000A43DA6108E0074B064A116A3A680A43E2
:104260001A6201E0172300E00023181CBD4602B0CB
:1042700080BDC0460004004080B500AF014B9847A8
:10428000BD4680BD1101000080B500AF014B9847CD
:10429000BD4680BD6101000080B500AF002008214F
:1042A000074B9847074B01221A70C046054B1B78F5
:1042B000DBB21A1C01231340F8D1BD4680BDC046B5
:1042C0001D420000000C004080B586B000AF021C0B
:1042D0003960FB1D1A70FB1D1B787B61FB1D1B7871
:1042E0003B613B681B781B021A1C7B6913437B6193
:1042F0003B685B78002B04D07B698022D202134399
:104300007B613B685B7A002B04D07B6980221203BF
:1043100013437B613B685B68012B2CD93B685A686F
:104320003B685B68013B13401AD10023FB6002230A
:10433000BB6005E0FB680133FB60BB685B00BB60F2
:104340003B685A68BB689A42F4D8FB681B023A691A
:1043500013433B617B698022520313437B610AE074
:104360003B685B681B023A6913433B617B698022AF
:10437000920213437B613B681B7A002B04D07B695C
:104380008022920313437B61C046124B9847031E61
:10439000FBD1114B9847114AFB1D1B781370C04687
:1043A0000C4B9847031EFBD10D4B3A699A60C046EF
:1043B000084B9847031EFBD1094B094A51688022DC
:1043C000520211407A690A435A60064B9847BD462B
:1043D00006B080BDF941000079420000080C0040A1
:1043E000000C00408942000080B582B000AF021C82
:1043F000FB1D1A70C0460D4B9847031EFBD10C4B9A
:1044000098470C4AFB1D1B781370C046074B984712
:10441000031EFBD1084B084A5268802149020A4317
:104420005A60064B9847BD4602B080BDF941000076
:1044300079420000040C0040000C0040894200005A
:1044400080B586B000AF021CFB1D1A70C0462E4B13
:104450009847031EFBD12D4B98472D4AFB1D1B7817
:104460001370C046284B9847031EFBD1294B5B684D
:104470001B0A1A1C1F231340DBB2181C264B98473B
:10448000031C7B61224AFB1D1B781370214B5B6868
:104490001B0D1A1C01231340DAB21323FB181A70E8
:1044A0001E4AFB1D1B781370C046174B9847031E0E
:1044B000FBD1184B9B681B0A1A1C00239A43131C40
:1044C0009BB2FB60164B98471323FB181B78002BFD
:1044D00009D1FB68012B06D9124B7869F968984716
:1044E000031C7B610AE01323FB181B78002B05D00B
:1044F000FB6801331A1C7B69D3407B617B69181C04
:10450000BD4606B080BDC046F941000079420000BA
:10451000040C0040000C0040513F0000080C00401B
:10452000894200003951000080B584B000AF021C00
:104530003960FB1D1A70FB1D1B78FB603B681B7804
:104540001B021A1CFB681343FB60FB1D1B78181C25
:10455000044B9847044BFA6892B25A80BD4604B0A7
:1045600080BDC046B1450000000C004080B582B05F
:1045700000AF021CFB1D1A70094B9847094AFB1D2E
:104580001B7813700849084B5B889BB28022D201CC
:1045900013439BB24B80054B9847BD4602B080BD8C
:1045A00079420000020C0040000C004089420000EB
:1045B00080B584B000AF021CFB1D1A701D4B9847DC
:1045C0001D4AFB1D1B7813701C4B5B889BB21B0A9A
:1045D0001A1C0F231340DBB2FB60184B5A88184992
:1045E0000A405A80154A154B5B889BB215490B400F
:1045F0009BB25380C046114B5B889BB21A1C802330
:10460000DB011340F7D10D4BFA68D2B2111C0F2217
:104610000A40D2B2111C0F220A4010025A880849DF
:104620000A40111C021C0A435A80074B9847BD469A
:1046300004B080BD79420000020C0040000C004034
:10464000FFF0FFFFFFBFFFFF8942000080B584B08D
:1046500000AF021CFB1D1A700E4B98470E4AFB1D43
:104660001B7813700D4B5B889BB21B0A1A1C0F231F
:104670001340DAB20F23FB181A70094B98470F2327
:10468000FB181B78181C074B9847031C181CBD46C9
:1046900004B080BD79420000020C0040000C0040D4
:1046A000894200004144000080B584B000AF021C84
:1046B000FB1D1A700F23FB18FA1D1278D2091A700D
:1046C0000E23FB18FA1D127852091A700D4BBB60AD
:1046D0000F23FB181B78002B0FD10F23FB181B781F
:1046E0009B0010229446BC446344083B1A680E2386
:1046F000FB181B78DB01D31800E00023181CBD4613
:1047000004B080BD0044004180B588B000AFF860BF
:10471000B9607A600023FB617B68DB78012253403B
:10472000DBB2002B35D07B681B78802B0BD0FB696C
:10473000802252021343FB617B681B781B061A1C04
:10474000FB691343FB617B685B78002B03D07B68BC
:104750005B78022B10D1FB69802292021343FB612C
:104760007B689B78002B04D0FB698022D202134324
:10477000FB61FB68BA685A607B685B78012B03D0E9
:104780007B685B78022B07D1FB69214A1340FB61F0
:1047900002E0FB68BA685A60BB681B041B0CBB6173
:1047A000BB681B0C7B61BA69FB691343A022D2056D
:1047B0001A43FB689A627A69FB691343D022120696
:1047C0001A43FB689A627B68DB7801225340DBB2B4
:1047D000002B1AD0FA698023DB0213400AD07B68D1
:1047E0009B78012B03D1FB68BA689A6102E0FB68F1
:1047F000BA685A617B685B78012B03D07B685B7871
:10480000022B02D1FB68BA689A60BD4608B080BD31
:10481000FFFFFBFF80B584B000AF021C3960FB1DB9
:104820001A70FB1D1B78181C0B4B9847031CFB6070
:10483000FB1D1B781F22134001229A40131CBB60F2
:10484000F968BA683B68081C111C1A1C034B98478E
:10485000BD4604B080BDC046A9460000094700001F
:1048600080B500AFC046BD4680BDC04680B500AF34
:10487000044B9847044B9847044B9847044B984780
:10488000BD4680BD354100002D3D0000614800005F
:104890006148000080B582B000AF164B7B60164BBC
:1048A0003B607A683B689A420CD007E03B681A1D6F
:1048B0003A607A68111D796012681A603A680F4B85
:1048C0009A42F3D30E4B3B6004E03B681A1D3A60FA
:1048D00000221A603A680B4B9A42F6D30A4B7B606F
:1048E0000A4B7A687F218A439A60094B9847094BA3
:1048F0009847FEE78C650000000000207000002053
:1049000070000020103D00200000000000ED00E0DD
:10491000B15200000150000080B500AFFEE7C04674
:1049200080B584B000AF78600A4B1B68002B02D1C1
:10493000084B094A1A60074B1B68FB60054B1A6855
:104940007B68D218034B1A60FB68181CBD4604B084
:1049500080BDC0469C3C0020105D002080B582B028
:1049600000AF786001235B42181CBD4602B080BDD9
:1049700080B582B000AF786039603B6880229201D8
:104980005A600023181CBD4602B080BD80B582B0BD
:1049900000AF78600123181CBD4602B080BDC04640
:1049A00080B584B000AFF860B9607A600023181C4D
:1049B000BD4604B080BDC04680B584B000AF78600D
:1049C0007B681B68FB60FB68DB69072213405A1E8B
:1049D0009341DBB2181CBD4604B080BD80B582B0E7
:1049E00000AF7860C0467B68181C034B9847031ED5
:1049F000F9D1BD4602B080BDB949000080B582B092
:104A000000AF78607B6864221A607B68194A5A603C
:104A10007B6800229A607B6800221A737B68002200
:104A20001A767B68802292031A617B6801225242C7
:104A3000DA827B68012252429A827B680022DA6124
:104A40007B6800221A627B682422002199547B68CB
:104A500000229A627B682C22002199547B682D22C7
:104A6000002199547B682E2200219954BD4602B042
:104A700080BDC046480D000080B584B000AF7860AE
:104A80007B681B68BB600023FB607B68181C104BB5
:104A90009847BB681B6802221A43BB681A600CE087
:104AA000FB680133FB607B68DB881A1EFB689A4257
:104AB00003D8BB6810225A8306E0BB685B8B9BB2AD
:104AC0001A1C10231340EBD0BD4604B080BDC04675
:104AD000DD49000080B58EB000AF3B1D181C174BA0
:104AE00098473B1D01225242DA82154A15493B1D67
:104AF000101C1A1C144B9847031C7B63134A7B6BD6
:104B0000101C191C124B98470EE00D4A0D493B1D15
:104B1000101C1A1C0C4B9847031C7B630D4A7B6BC3
:104B2000101C191C0A4B98477B6B002BEDD1044BD2
:104B3000181C094B9847BD460EB080BDFD490000CA
:104B4000DC3C002000080042F1040000CC630000BF
:104B500021530000EC630000794A000080B584B066
:104B600000AF78600E23FB1800221A801B4A7B6876
:104B7000101C191C1A4B9847031CBB60BB68002B08
:104B800000D127E00E23FB181A88164B101C642155
:104B900098470B1C9BB2002B05D1134ABB68101C15
:104BA000191C124B98470E23FB181B880E22BA18AB
:104BB000591C1180FA229200934204D10C4B181C0C
:104BC0000C4B984706E0084ABB68101C191C074BA1
:104BD0009847CBE7BD4604B080BDC046DC3C002012
:104BE0004D080000455200001064000021530000F1
:104BF0003C6400001954000080B584B000AF021C72
:104C0000FB1D1A700F23FB18FA1D1278D2091A70B7
:104C10000E23FB18FA1D127852091A700D4BBB6057
:104C20000F23FB181B78002B0FD10F23FB181B78C9
:104C30009B0010229446BC446344083B1A680E2330
:104C4000FB181B78DB01D31800E00023181CBD46BD
:104C500004B080BD0044004180B582B000AF021CAA
:104C6000FB1D1A70FB1D1B78181C034B9847031C77
:104C7000181CBD4602B080BDF94B000080B584B061
:104C800000AF021CFB1D1A70FB1D1B78181C094B82
:104C90009847031CFB60FB1D1B781F221340012259
:104CA0009A40131CBB60FB68BA68DA61BD4604B069
:104CB00080BDC046594C000080B582B000AF021CD8
:104CC000FB1D1A70064BFA1D1278111C1F220A4098
:104CD000012191400A1C1A60BD4602B080BDC04649
:104CE00000E100E080B584B000AF78607B681B68AD
:104CF000FB60FB68DB695A1E9341DBB2181CBD46A2
:104D000004B080BD80B582B000AF7860C0467B68DB
:104D1000181C034B9847031EF9D1BD4602B080BD55
:104D2000E54C000080B582B000AF78607B688022DF
:104D3000D2051A607B6800225A607B68FF221A81C4
:104D40007B6800229A727B680022DA727B68962266
:104D500092011A627B682422012199547B682522E2
:104D6000012199547B682622002199547B682722CF
:104D7000002199547B6800229A627B688822520342
:104D8000DA607B682C22002199547B682D22002157
:104D900099547B6800221A637B6800225A637B68FF
:104DA00000229A637B680022DA637B6800225A61E2
:104DB0007B6800221A827B680022DA767B680022F8
:104DC0001A767B6800221A777B6800225A767B6805
:104DD00013229A767B6800225A77BD4602B080BDC6
:104DE00080B584B000AF78607B681B68FB607B682F
:104DF0001B68181C094B9847031C181C084B984744
:104E00007B68181C074B9847FB681B6802221A43F3
:104E1000FB681A60BD4604B080BDC046ED0E0000C0
:104E2000B94C0000054D000080B584B000AFF860BB
:104E3000B9607A60F968BA687B68081C111C1A1C92
:104E4000054B9847031E01D1012300E00023181CE5
:104E5000BD4604B080BDC0469913000080B582B045
:104E600000AF78600A1CFB1C1A70C046FB1C1B7844
:104E70009BB27A68101C191C044B9847031EF5D18D
:104E80000023181CBD4602B080BDC04609160000B4
:104E900080B584B000AF786039600E23FB18002223
:104EA0001A80C0467A680E23FB18101C191C064B8A
:104EB0009847031EF6D10E23FB181B88DAB23B6815
:104EC0001A70BD4604B080BD6D16000080B584B078
:104ED00000AFF860B9607A60104BFA681A60104B46
:104EE000104A1A60104B114A1A60F968BA687B6858
:104EF000081C111C1A1C0E4B98470E4B1B689B6814
:104F0000181C00210C4B98470A4B1B685B68181C47
:104F10000021094B9847BD4604B080BD083D0020E4
:104F2000043D00205D4E0000003D0020914E000039
:104F3000294E00006C0000202D54000080B590B078
:104F400000AF3B1C181C134B98473B1C802252039C
:104F5000DA603B1C104A1A633B1C104A5A633B1C24
:104F6000012252429A633B1C01225242DA633B1CEB
:104F7000962212021A620A4A0A493B1C101C1A1C89
:104F8000094B9847064B181C084B9847BD4610B074
:104F900080BDC046254D000002001600020017002B
:104FA000A03C002000140042CD4E0000E14D000066
:104FB00080B582B000AF7860034B9847FA239B001E
:104FC000181C024B9847F9E73D4F0000DD2A00000E
:104FD00080B582B000AF78603E20044B9847FA233A
:104FE0009B00181C024B9847F6E7C0467D4C00001A
:104FF000DD2A000080B582B000AF7860FEE7C046D1
:1050000090B589B004AF374B9847374B9847374B2B
:10501000181C374B9847374A374B101C191C344B18
:1050200098473649364A374B081C111C1A1C304B1E
:105030009847354B98470C23FA18344B111C1A1C0F
:105040000323081C111C1A1C314B98473B1C0A22D5
:105050001A803B1C01225A803B1C0C22BA185A6051
:105060003B1C00221A723B1C00225A723B1C00227D
:105070009A723B1C181C274B9847274827498023C6
:105080009A0000230093002301930023029300233E
:1050900003930023224CA0472248234980235A002F
:1050A0000023009300230193002302930023039322
:1050B00000231B4CA0471D481D498023DA00002314
:1050C0000093002301930023029300230393002302
:1050D000134CA047174B98470023181CBD4605B03A
:1050E00090BDC0466D4800003D4F00005464000074
:1050F0002153000070640000786400008C6400009C
:10510000A4640000B0640000D54A0000CC64000034
:10511000FD5200005D4B0000B14F0000BC64000078
:105120004D290000D14F0000C4640000F54F00007D
:10513000C8640000552B0000002243088B4274D342
:1051400003098B425FD3030A8B4244D3030B8B4288
:1051500028D3030C8B420DD3FF22090212BA030C91
:105160008B4202D31212090265D0030B8B4219D372
:1051700000E0090AC30B8B4201D3CB03C01A524192
:10518000830B8B4201D38B03C01A5241430B8B42DA
:1051900001D34B03C01A5241030B8B4201D30B03C3
:1051A000C01A5241C30A8B4201D3CB02C01A5241EA
:1051B000830A8B4201D38B02C01A5241430A8B42AD
:1051C00001D34B02C01A5241030A8B4201D30B0296
:1051D000C01A5241CDD2C3098B4201D3CB01C01AB0
:1051E000524183098B4201D38B01C01A52414309BA
:1051F0008B4201D34B01C01A524103098B4201D3A8
:105200000B01C01A5241C3088B4201D3CB00C01A14
:10521000524183088B4201D38B00C01A524143088C
:105220008B4201D34B00C01A5241411A00D20146B1
:10523000524110467047FFE701B5002000F00CF81E
:1052400002BDC0460029F7D003B5FFF775FF0EBCBD
:105250004243891A1847C0467047C046F0B54F46CA
:10526000464605042D0C2C1CC0B41704160C3F0C2C
:105270009946030C7C4375435F4373437D19260CA9
:10528000AD199C46AF4203D980235B029846C444C3
:105290004B465143434324042E0C240C2D046644F6
:1052A0002C1959188919201C0CBC90469946F0BD40
:1052B0000E4B70B500251E1C0D4CE41AA410A5421F
:1052C00004D0AB00F35898470135F8E701F04EF9E8
:1052D000084B00251E1C084CE41AA410A54204D05B
:1052E000AB00F35898470135F8E770BD78650000CA
:1052F00078650000786500007C650000002310B52B
:10530000934203D0CC5CC4540133F9E710BD031CB5
:105310008218934202D019700133FAE770470000F7
:105320000FB40B4B13B51C68002C05D0A369002BE0
:1053300002D1201C00F0CEFA05AB201CA168049A13
:10534000019300F081FC16BC08BC04B01847C046AD
:105350006C00002070B5051C0E1C002804D0836969
:10536000002B01D100F0B6FAAC68A3891B0702D567
:105370002369002B19D1281C211C00F03FF90028BB
:1053800013D00120404245E03178002B1BDAA2699E
:10539000934211DA221C281C00F0D8F80130424256
:1053A0004241D0B20028ECD10136A3683278013BEB
:1053B000A360002AE8D10CE02368197023681978EB
:1053C0000A2903D1E6E723681970236801332360B3
:1053D000EAE7002B17DAA269934208DB0A23226866
:1053E0001370236819780A2911D1281C01E0281CA0
:1053F0000A21221C00F0AAF8013042424241D0B2F8
:10540000002806D0BDE70A23226813702368013301
:1054100023600A2070BD000008B5034B011C18680A
:10542000FFF798FF08BDC0466C00002008B54A424F
:105430004A4180235200DB0000F002F808BD000062
:10544000F7B51E1C3C4B041C1D680F1C0192002D5F
:1054500005D0AB69002B02D1281C00F03BFA374B7A
:105460009C4201D16C6808E0354B9C4201D1AC688C
:1054700003E0344B9C4200D1EC68019B022B58D8CE
:10548000002E56DB281C211C00F0B6F900236360B7
:10549000A361A3891B0603D5281C216900F00EFB1C
:1054A0008322A3899343A381019B022B13D0002F56
:1054B00025D1002E01D18026F600301C00F0F4FA30
:1054C000071E18D18020C00000F0EEFA071E10D190
:1054D0000120404200E000200222A3891343A3815F
:1054E0000023A360231C47332360236101236361EE
:1054F00021E08026F6008022A3891343A381019B2B
:10550000012B05D1A389019A1A437342A281A36199
:105510000D4B0020AB62A2892760276166611307EB
:1055200009D503231A40534253415B421E40A660F3
:1055300001E001204042FEBD6C000020D864000064
:10554000F8640000186500005158000070B5051C93
:105550000E1C141C002804D08369002B01D100F01C
:10556000B9F9234B9C4201D16C6808E0214B9C4265
:1055700001D1AC6803E0204B9C4200D1EC68A369E8
:10558000A360A3891B070AD52369002B07D02368D2
:105590002269F6B2981A636998420FDB08E0281C6A
:1055A000211C00F02BF80028F1D0012040421DE022
:1055B000281C211C00F020F90028F6D1A368013036
:1055C000013BA36023685A1C22601E7063699842E5
:1055D00005D0A389301CDB0708D50A2E06D1281C6C
:1055E000211C00F009F90028DFD1301C70BDC04635
:1055F000D8640000F864000018650000354B70B5F1
:105600001D68061C0C1C002D05D0AB69002B02D1B7
:10561000281C00F05FF9304B9C4201D16C6808E017
:105620002E4B9C4201D1AC6803E02D4B9C4200D133
:10563000EC68A3899AB2110723D4D10607D40922B2
:105640000120326037321343A381404240E05307C8
:1056500013D5616B002908D0231C4433994202D032
:10566000301C00F02BFA002363632422A3899343A8
:10567000A38100236360236923600822A389134365
:10568000A3812369002B0BD1A023A2899B00134087
:1056900080229200934203D0301C211C00F0ACF910
:1056A0000123A289134005D00023A36063695B42F4
:1056B000A36103E0910700D46369A360002023691C
:1056C000834205D1130603D540231A43A281013832
:1056D00070BDC0466C000020D8640000F864000073
:1056E00018650000F7B58A89051C0C1C13075ED4E9
:1056F0004B68002B02DC0B6C002B1ADDE76A002FD5
:1057000017D000232E682B6080235B011A4001D044
:10571000626D15E0281C216A0123B847021C431C56
:105720000ED12B68002B0BD01D2B01D0162B02D1D4
:105730002E6000205EE04021A3890B43A38159E045
:10574000A3895B0706D56368D21A636B002B01D06F
:10575000236CD21A0023281C216AE76AB847A38960
:10576000421C06D12A68002A03D01D2A01D0162A1D
:1057700019D10022626022692260DB0405D5431C36
:1057800002D12B68002B00D16065616B2E6000296F
:10579000CFD0231C4433994202D0281C00F08EF94C
:1057A0000020606326E040221343A38122E00F69BA
:1057B000002FBED00B680F60DB1B01930023920704
:1057C00000D14B69A360019B002BB2DD281C216A2C
:1057D0003A1C019BA66AB047002806DC4022012043
:1057E000A38940421343A38104E0019B3F181B1A85
:1057F0000193E8E7FEBD000038B50B69051C0C1CE1
:10580000002B01D100201CE0002804D08369002B6C
:1058100001D100F05FF80B4B9C4201D16C6808E0AD
:10582000094B9C4201D1AC6803E0084B9C4200D17B
:10583000EC680C22A35E002BE4D0281C211CFFF78F
:1058400051FF38BDD8640000F864000018650000FE
:1058500008B5024900F0AEF808BDC046F95700008F
:10586000002310B5041C036043608360818143669C
:10587000C281036143618361191C08225C30FFF718
:1058800046FD054B24626362044BA362044BE36252
:10589000044B236310BDC04699610000C161000044
:1058A000F96100002562000070B568254B1E5D435C
:1058B0000E1C291C743100F047F9041E08D0002189
:1058C0002A1C016046600C30A0606832FFF71FFDA3
:1058D000201C70BD836913B5002B28D18364C36479
:1058E0000365134B134A1B6882620193984201D1EE
:1058F00001238361041C00F01FF86060201C00F08D
:105900001BF8A060201C00F017F80421E0600022C2
:105910006068FFF7A5FFA06809210122FFF7A0FF3B
:10592000E06812210222FFF79BFF0123A36113BD50
:10593000D464000051580000F8B51D4B061C1D68CA
:10594000AB69002B02D1281CFFF7C4FF4835AC68B7
:105950006B68013B05D40C22A75E002F10D0683481
:10596000F7E72B68002B06D1301C0421FFF79CFFC2
:105970002860002801D02D68E9E70C23336016E089
:105980000123201C5B42E3810233A3816766276009
:10599000A760676027616761A7615C30391C0822D6
:1059A000FFF7B5FC201C6763A763A764E764F8BD35
:1059B000D4640000F7B5041C071C0026019148348C
:1059C000002C16D06368A5680093009B013B0093F0
:1059D0000DD4AB89012B08D90E22AB5E013304D064
:1059E000381C291C019B984706436835EDE724685D
:1059F000E6E7301CFEBD0000F0B58B8991B09B0737
:105A000006D50B1C47330B600B6101234B6145E04E
:105A10000C1C0E23C95E061C002904DA8023A5890C
:105A20001D4010D10CE001AA00F028FC0028F5DB95
:105A3000F023029D1B021D40194BED186B425D4186
:105A40008027FF0001E000254027301C391C00F0B2
:105A50007BF800280CD1A3899A051FD40222134396
:105A6000A381231C4733236023610123636115E075
:105A700080220C4BB362A38920601343A381206171
:105A80006761002D0AD00E23E15E301C00F008FC97
:105A9000002803D00122A3891343A38111B0F0BDD4
:105AA00000E0FFFF5158000008B5034B011C1868C7
:105AB00000F04AF808BDC0466C00002030B500294F
:105AC0003ED004390B68002B00DAC9181D4A136850
:105AD000141C002B02D14B60116031E099420DD2B1
