:10000000682000207D1F00006D2000006D20000092
:1000100000000000000000000000000000000000E0
:100020000000000000000000000000006D20000043
:1000300000000000000000006D2000006D200000A6
:100040006D2000006D2000006D2000006D2000007C
:100050006D2000006D2000006D2000006D2000006C
:100060006D2000006D2000006D2000006D2000005C
:100070006D2000006D2000006D2000006D2000004C
:100080006D2000006D2000006D2000006D2000003C
:100090006D2000006D2000006D2000006D2000002C
:1000A0006D2000006D2000006D2000006D2000001C
:1000B00010B5064C2378002B07D1054B002B02D03E
:1000C000044800E000BF0123237010BD140000208D
:1000D000000000004426000008B5084B002B03D0A8
:1000E0000748084900E000BF07480368002B00D11B
:1000F00008BD064B002BFBD09847F9E70000000035
:1001000044260000180000204426000000000000E3
:1001100080B582B000AF78607B68002B0CD0084BB4
:100120007A685A60064B00229A60C046044B1A68EF
:1001300080235B021340F9D0BD4602B080BDC046AB
:1001400010E000E080B500AF0020104B9847021C83
:100150000F4B1A600E4B1A680E4B101CFA229100BE
:100160009847031C1A1C0A4B1A60094B1A68094B62
:10017000101CFA2291009847031C1A1C064B1A60A7
:10018000064B05221A60BD4680BDC046291B0000F3
:1001900000000020452400000400002010E000E0E2
:1001A00080B582B000AF786004E0064B1B68181C75
:1001B000054B98477B685A1E7A60002BF5D1BD46E7
:1001C00002B080BD040000201101000080B582B0A3
:1001D00000AF0F4B1B68002B12D1EFF310837B6035
:1001E0007B68002B09D172B6BFF35F8F094B0022E9
:1001F0001A70094B01221A7002E0074B00221A7094
:10020000034B1B685A1C024B1A60BD4602B080BDEE
:1002100030000020080000203400002080B500AF2E
:100220000A4B1B685A1E094B1A60084B1B68002BAF
:100230000AD1074B1B78DBB2002B05D0054B0122FE
:100240001A70BFF35F8F62B6BD4680BD30000020DC
:10025000340000200800002080B584B000AF021CEC
:10026000FB1D1A700F23FB18FA1D1278D2091A70A1
:100270000E23FB18FA1D127852091A700D4BBB6041
:100280000F23FB181B78002B0FD10F23FB181B78B3
:100290009B0010229446BC446344083B1A680E231A
:1002A000FB181B78DB01D31800E00023181CBD46A7
:1002B00004B080BD0044004180B582B000AF021C94
:1002C000FB1D1A70FB1D1B78181C034B9847031C61
:1002D000181CBD4602B080BD5902000080B582B036
:1002E00000AF78607B6800221A707B6801225A7028
:1002F0007B6800229A70BD4602B080BD80B584B094
:1003000000AF021CFB1D1A70BB1D0A1C1A70FB1DDE
:100310001B78181C0C4B9847031CFB60FB1D1B78BB
:100320001F22134001229A40131CBB60BB1D1B7887
:10033000002B03D0FB68BA689A6102E0FB68BA68D8
:100340005A61BD4604B080BDB902000080B582B0DC
:1003500000AF3B1D181C0E4B98473B1D01221A7025
:100360003B1D3E20191C0B4B98473E2001210A4B98
:1003700098473B1D00221A703B1D01225A703B1DFD
:100380000F20191C034B9847BD4602B080BDC046E4
:10039000DD020000C5030000FD02000080B582B050
:1003A00000AF78607B6880221A707B6800225A70E8
:1003B0007B6801229A707B680022DA70BD4602B029
:1003C00080BDC04680B584B000AF021C3960FB1D03
:1003D0001A700C23FB18181C0F4B98470C23FB18A2
:1003E00080221A703B681A780C23FB185A703B68FD
:1003F0005A780C23FB189A703B689A780C23FB18E8
:10040000DA70FB1D1A780C23FB18101C191C034B07
:100410009847BD4604B080BD9D030000FD1E00004E
:1004200080B582B000AF78607B6800221A70BD464C
:1004300002B080BD80B586B000AFF860B9607A6068
:100440001623FB1800221A80BB683B61BB685A0860
:10045000FB689A4201D2402326E0BB685B083B61FF
:100460000AE03A69FB68D31A3B611623FB181A8825
:100470001623FB1801321A803A69FB689A42F0D2BF
:100480001623FB181622BA181288013A1A8016236E
:10049000FB181B88FF2B01D9402305E07B6816223F
:1004A000BA1812881A800023181CBD4606B080BDF9
:1004B00080B584B000AF021CFB1D1A70BB1D0A1C66
:1004C0001A701A4B1B7801225340DBB2002B03D168
:1004D000BB1D1B78002B1BD00C23FB18181C144BC6
:1004E00098470C23FB18FA1D12781A700C23FB187E
:1004F0001320191C0F4B984713200F4B98470B4B99
:10050000FA1D12785A70094B01221A70002308E074
:10051000064B5B78FA1D12789A4201D1002300E065
:100520001D23181CBD4604B080BDC0463800002005
:1005300021040000111C0000551C000080B582B091
:1005400000AF78600A1CFB1C1A707B684D4A93420E
:100550003FD04C4A934206D84B4A93420FD04B4A65
:10056000934221D089E04A4A934200D15BE0494A54
:10057000934200D16CE0484A93423FD07DE0FB1C9F
:100580001B78012B0AD002DC002B05D075E0022B72
:1005900006D0032B06D070E0404B6FE0404B6DE07F
:1005A000404B6BE0404B69E0FB1C1B78012B0AD0F1
:1005B00002DC002B05D060E0022B06D0032B06D016
:1005C0005BE003235AE0394B58E0394B56E0394B96
:1005D00054E0FB1C1B78012B0AD002DC002B05D059
:1005E0004BE0022B06D0032B06D046E0324B45E011
:1005F000324B43E0324B41E0324B3FE0FB1C1B7877
:10060000012B0AD002DC002B05D036E0022B06D0ED
:10061000032B06D031E02C4B30E02C4B2EE02C4B42
:100620002CE02C4B2AE0FB1C1B78012B0AD002DCAF
:10063000002B05D021E0022B06D0032B06D01CE0B6
:10064000254B1BE0254B19E0254B17E0254B15E00A
:10065000FB1C1B78012B0AD002DC002B05D00CE020
:10066000022B06D0032B06D007E01F4B06E01F4BE2
:1006700004E01F4B02E01F4B00E00023181CBD46A6
:1006800002B080BD0010004200080042000C004291
:1006900000180042001C0042001400420300040045
:1006A000030005000300060003000700030001002B
:1006B00003001E0003001F000300080003000900E0
:1006C00003000A0003000B000300100003001100E8
:1006D000030012000300130003000C0003000D00D0
:1006E00003000E0003000F000300160003001700B4
:1006F000030018000300190090B58BB000AF7860BC
:100700000C23FB180E4A13CA13C313CA13C30023C6
:100710007B620DE07B680C22BA18796A89008A58DE
:10072000934202D17B6ADBB206E07B6A01337B62D3
:100730007B6A052BEED90023181CBD460BB090BD7B
:10074000C425000080B582B000AF78607B6880224D
:100750001A707B6800225A707B6801229A707B684D
:100760000022DA70BD4602B080BDC04680B584B0BC
:1007700000AF021CFB1D1A700F23FB18FA1D127824
:10078000D2091A700E23FB18FA1D127852091A703A
:100790000D4BBB600F23FB181B78002B0FD10F23D1
:1007A000FB181B789B0010229446BC446344083B12
:1007B0001A680E23FB181B78DB01D31800E0002316
:1007C000181CBD4604B080BD0044004180B586B011
:1007D00000AF021CFB1D1A70FB1D1B78181C194B67
:1007E0009847031C7B61FB1D1B781F2213403B6154
:1007F0007A6940213B69D3185B181B78DBB21A1C5D
:100800000123134001D1802317E03B695B087A691B
:100810003021D3185B181B78DBB2FB603B690122E7
:10082000134005D0FB68F02213401B09DBB204E043
:10083000FB68DBB20F221340DBB2181CBD4606B0CA
:1008400080BDC0466D07000080B582B000AF021CBD
:10085000FB1D1A70FB1D1B78181C034B9847031CCB
:10086000181CBD4602B080BD6D07000080B584B085
:1008700000AF021CFB1D1A70BB1D0A1C1A70FB1D69
:100880001B78181C0C4B9847031CFB60FB1D1B7846
:100890001F22134001229A40131CBB60BB1D1B7812
:1008A000002B03D0FB68BA689A6102E0FB68BA6863
:1008B0005A61BD4604B080BD4908000080B582B0D1
:1008C00000AF78607B6800221A70BD4602B080BD20
:1008D00080B582B000AF021C3960FB1D1A70FB1D91
:1008E0001B78012B0AD0022B0FD0002B14D10E4BFA
:1008F0000D4A91693A680A439A610FE00A4B0A4A25
:10090000D1693A680A43DA6108E0074B064A116A7E
:100910003A680A431A6201E0172300E00023181C1A
:10092000BD4602B080BDC0460004004080B500AFA7
:10093000054B9B78DBB21A1C022313405A1E9341CD
:10094000DBB2181CBD4680BD0020004180B584B0DC
:1009500000AF78607B681B68FB60FB68DB695A1E30
:100960009341DBB2181CBD4604B080BD80B584B095
:1009700000AF78607B681B68FB60C0467B68181C12
:10098000064B9847031EF9D1FB681B6802221A43E5
:10099000FB681A60BD4604B080BDC0464D0900002A
:1009A00080B584B000AF78607B681B68FB60C04690
:1009B0007B68181C064B9847031EF9D1FB681B681F
:1009C000022293431A1CFB681A60BD4604B080BD26
:1009D0004D09000080B584B000AF78607B681B686B
:1009E000FB60FB681B7EDBB21A1C022313405A1EFD
:1009F0009341DBB2181CBD4604B080BD80B584B005
:100A000000AF78607B681B68FB60FB681B7EDBB215
:100A10001A1C012313405A1E9341DBB2181CBD4619
:100A200004B080BD80B584B000AF78607B681B687F
:100A3000FB60FB681B7EDBB21A1C042313405A1EAA
:100A40009341DBB2181CBD4604B080BD80B584B0B4
:100A500000AF78600A1CBB1C1A807B681B68FB60B7
:100A60007B68181C0A4B9847031C1A1C012353402F
:100A7000DBB2002B01D0052306E0BB1C1B88DB0585
:100A8000DA0DFB689A620023181CBD4604B080BDD5
:100A9000FD09000080B584B000AF786039607B68E4
:100AA0001B68BB607B68181C1D4B9847031C1A1CF5
:100AB00001235340DBB2002B01D010232CE00F2385
:100AC000FB1800221A70BB685B8B9BB21A1C0423B4
:100AD00013400BD00F23FB181E221A70BB685B8BD0
:100AE0009BB2042213439AB2BB685A837B689B79FA
:100AF000012B08D1BB689B6A9BB2DB05DB0D9AB268
:100B00003B681A8005E0BB689B6ADBB29AB23B681F
:100B10001A800F23FB181B78181CBD4604B080BD3B
:100B2000250A000090B589B000AF786039600C23C9
:100B3000FB1800221A807B681B68FB617B68181C0D
:100B4000254B9847C0467B68181C244B9847031ECA
:100B5000F9D17B681B68181C214B9847031CBB61AB
:100B6000BB6914337B617B69DBB2181C1D4B984752
:100B7000031C3B610F23FC1839683A690C23FB18EE
:100B8000081C111C1A1C184B9847031C23700F23B8
:100B9000FB181B78002B01D0172318E00C23FB183F
:100BA0001B88DAB2FB691A73C0467B68181C0B4BB2
:100BB0009847031EF9D17B68181C0C4B9847C04618
:100BC0007B68181C054B9847031EF9D10023181C9D
:100BD000BD4609B090BDC046A10900004D09000006
:100BE000F9060000351D0000350400006D09000005
:100BF00090B593B000AF786039607B681B687B6309
:100C00007B681B683B631C23FB18181C764B9847BA
:100C10001C23FB1800225A703B681B78002B03D161
:100C20001C23FB1800229A703B689A6A0C23FB185D
:100C30001A603B68DA6A0C23FB185A603B681A6B2F
:100C40000C23FB189A603B685A6B0C23FB18DA6084
:100C50004723FB1800221A702CE04723FB181A7850
:100C60000C23FB189200D3583B643B6C002B09D13A
:100C70003A6B4723FB181B78101C191C5B4B9847D9
:100C8000031C3B643B6C01330DD03B6CDAB21C237C
:100C9000FB181A703B6C1B0CDAB21C23FB18101CDF
:100CA000191C534B98474723FB181A784723FB1806
:100CB00001321A704723FB181B78032BCDD93B68F0
:100CC0001A787B685A713B681A7C7B689A713B681A
:100CD0009A7C7B68DA713B681A7D7B681A720A23FA
:100CE000FB1800221A800023FB630023BB633B68D0
:100CF0001B78012B2BD17B681B68181C3D4B984738
:100D0000031CFB62FB6A1433BB62BB6ADBB2181CB8
:100D1000394B9847031C7B623B6899692323FC1875
:100D20007A6A0A23FB18081C111C1A1C334B9847BB
:100D3000031C23702323FB181B78002B01D01723DF
:100D40004EE00A23FB181B88DAB27B6B1A733B68F0
:100D50005B68FA6B1343FB633B689B68FA6B134356
:100D6000FB633B68DB68FA6B1343FB633B681B7CEC
:100D70001A1CBB6B1343BB633B685B7C002B03D12A
:100D80001F4B9847031E03D0FB6B80221343FB636A
:100D90003B689B7C002B04D0BB6B802292021343E8
:100DA000BB633B68DB7C002B04D0BB6B80229200D2
:100DB0001343BB633B681B7D002B04D0BB6B8022BD
:100DC00092011343BB637B6B1A68FB6B1A437B6B0B
:100DD0001A607B6B5A68BB6B1A437B6B5A600023AB
:100DE000181CBD4613B090BD450700003D0500002E
:100DF000FD1E0000F9060000351D0000350400004E
:100E00002D09000090B591B000AF786039607B6823
:100E10001B68FB627B681B68BB623B689A6A102395
:100E2000FB181A603B68DA6A1023FB185A603B68AB
:100E30001A6B1023FB189A603B685A6B1023FB183F
:100E4000DA603F23FB1800221A7030E03F23FB18C2
:100E50001A781023FB189200D358BB63BB6B002B8E
:100E600009D1BA6A3F23FB181B78101C191C574B79
:100E70009847031CBB63BB6B013300D110E0BB6B15
:100E80001B041C0CBB6B1B0CDBB2181C504B984793
:100E9000031C9C4204D07B6800221A601C2390E053
:100EA0003F23FB181A783F23FB1801321A703F23A7
:100EB000FB181B78032BC9D91320464B9847031CFA
:100EC0007B6200237B6300233B633B681B78012B21
:100ED00023D13B6899692323FC187A6A0E23FB18F7
:100EE000081C111C1A1C3C4B9847031C237023231D
:100EF000FB181B78002B01D0172362E0FB6A1B7BD9
:100F0000DAB20E23FB181B88DBB29A4201D01C23F5
:100F100057E07B6B0C2213437B633B685B687A6B07
:100F200013437B633B689B687A6B13437B633B682B
:100F3000DB687A6B13437B633B681B7C1A1C3B6B3F
:100F400013433B633B685B7C002B03D07B6B8022AD
:100F500013437B633B689B7C002B04D03B6B80225C
:100F6000920213433B633B68DB7C002B04D03B6B5A
:100F70008022920013433B633B681B7D002B04D00F
:100F80003B6B8022920113433B637B6B0222134332
:100F90007B63FB6A1A687B6B9A420ED1FB6A5A68C4
:100FA0003B6B9A4209D13B681A787B685A713B685F
:100FB0001A7C7B689A71002303E07B6800221A6028
:100FC0001C23181CBD4611B090BDC0463D05000055
:100FD000CD070000351D00003504000080B58AB043
:100FE00000AFF860B9607A60FB68BA681A60FB68A5
:100FF0001B687B627B6A1B680222134007D0FA6879
:101000007B68101C191C2A4B9847031C4BE07B6A19
:101010001B680122134001D0052344E0FB681B68D4
:10102000181C244B9847031C3B623B6A0233FB614C
:101030003B6A1433BB61FB6901229A40131C0220F6
:10104000191C1D4B98471423FB18181C1B4B984761
:101050007B6824229A5C1423FB181A70BB69DAB2ED
:101060001423FB18101C191C154B9847BB69DBB2E5
:10107000181C144B98477B6824229B5C181C002189
:10108000114B98477B681B78012B05D17B6A1B6845
:101090000C221A437B6A1A60FA687B68101C191CC0
:1010A0000A4B9847031C181CBD460AB080BDC046B9
:1010B000050E0000F9060000D1080000BD08000080
:1010C000111C0000551C0000B1040000F10B0000D1
:1010D00080B586B000AFF860B960FB1D1A70FB6880
:1010E0005B79012B01D015235CE0FB681B7A0122A0
:1010F0005340DBB2002B54D0FB1D1B78002B4AD091
:10110000BB685B78002B3FD0FB68181C274B9847C7
:10111000031C1A1C01235340DBB2002B07D0BB6811
:101120001B78181C0121224B984705233AE0BB6825
:101130001B78181C00211E4B9847BB689B789BB2FC
:10114000FA68101C191C1B4B9847FB68DB790122BD
:101150005340DBB2002B24D0C046FB68181C164B52
:101160009847031C1A1C01235340DBB2002BF4D117
:101170001623FB1800221A80FA681623FB18101C8D
:10118000191C0E4B98470CE0BB681B78181C0021FB
:10119000074B984705E0BB681B78181C0121044BDE
:1011A00098470023181CBD4606B080BDFD0900000D
:1011B0006D0800004D0A0000250A0000950A000095
:1011C00080B586B000AFF860B960BB1D1A80BB1D4A
:1011D0001B88002B01D1172380E01623FB18002267
:1011E0001A801423FB18BA1D12881A805EE0C046CC
:1011F000FB68181C3B4B9847031C1A1C01235340E7
:10120000DBB2002BF4D11623FB181B881622BA1868
:10121000591C11801A1CBB689B181A781223FB18E2
:101220001A80FB689B79012B14D11623FB181B88AD
:101230001622BA18591C11801A1CBB689B181B78FF
:101240001B029AB21223FB181B8813439AB2122373
:10125000FB181A80FA681223FB181B88101C191C33
:10126000214B9847FB68DB791422BA1814217918AE
:1012700009881180002B19D0C046FB68181C1B4B35
:101280009847031C1A1C01235340DBB2002BF4D1F6
:10129000FA681023FB18101C191C154B98471423CF
:1012A000FB181A881423FB18013A1A80BB1D1B88EF
:1012B000BA1D591E1180002B99D1FB685B79012B57
:1012C0000BD1C046FB68181C0A4B9847031C1A1C1C
:1012D00001235340DBB2002BF4D10023181CBD4680
:1012E00006B080BDFD0900004D0A0000250A00007F
:1012F000950A0000D509000090B589B000AFF860EC
:10130000B9607A601A1CBB1C1A80BB1C1B88002B9E
:1013100001D11723B9E0FB68DB7901225340DBB22E
:10132000002B01D01C23B0E01E23FB1800221A80E2
:101330001C23FB1800221A801A23FB18BA1C1288DF
:101340001A8089E0C046FB68181C524B9847031C62
:101350001A1C01235340DBB2002BF4D11E23FB18CF
:101360001B881E22BA18591C11801A1CBB689B18B6
:101370001A781823FB181A80FB689B79012B14D16B
:101380001E23FB181B881E22BA18591C11801A1C18
:10139000BB689B181B781B029AB21823FB181B888A
:1013A00013439AB21823FB181A80FA681823FB1803
:1013B0001B88101C191C384B9847C046FB68181C2A
:1013C000364B9847031C1A1C01235340DBB2002BF9
:1013D000F4D11423FB1800221A801A23FB181A8850
:1013E0001A23FB18013A1A801723FC18FA681423F1
:1013F000FB18101C191C2A4B9847031C2370172339
:10140000FB181B78002B03D01723FB181B783CE03C
:101410001C23FB181B881C22BA18591C11801A1C8B
:101420007B689B181422BA181288D2B21A70FB6813
:101430009B79012B10D11C23FB181B881C22BA1886
:10144000591C11801A1C7B689B181422BA18128828
:10145000120A92B2D2B21A70BB1C1B88BA1C591E57
:101460001180002B00D06DE7FB685B79012B0BD15D
:10147000C046FB68181C0B4B9847031C1A1C012321
:101480005340DBB2002BF4D10023181CBD4609B039
:1014900090BDC046FD0900004D0A0000250A00006D
:1014A000950A0000D509000080B582B000AF7860D1
:1014B0007B6801225A607B6800225A707B68062292
:1014C0001A707B6800221A727B6800225A72BD462D
:1014D00002B080BD80B582B000AF78607B68032227
:1014E0001A707B6800225A707B6801229A70BD4690
:1014F00002B080BD80B582B000AF021CFB1D1A7027
:10150000034AFB1D1B781372BD4602B080BDC04666
:101510000004004080B582B000AF021CFB1D1A70B1
:10152000BB1D0A1C1A70FB1D1B78012B08D0022B57
:101530000BD0002B0ED10B4ABB1D1B7853720BE056
:10154000084ABB1D1B78937206E0064ABB1D1B7838
:10155000D37201E0172300E00023181CBD4602B03F
:1015600080BDC0460004004080B582B000AF021CC0
:10157000FB1D1A70084BFA1D12780F210A40D2B2D7
:101580000F210A40520059681E2081430A435A60C5
:10159000BD4602B080BDC0460040004180B500AFEE
:1015A000C046034BDB6810221340FAD0BD4680BD15
:1015B0000008004080B500AF0C4A0D4B1B689BB281
:1015C00080218B439BB293840A4B9847074A084B70
:1015D0009B68D362054A064B5B689362034A044BDF
:1015E0001B689BB29384BD4680BDC0460008004086
:1015F0003C0000209D15000080B582B000AF021CA9
:10160000FB1D1A70FB1D1B78082B42D89A00234B38
:10161000D3181B689F46224B1B693BE0214B1B6A7A
:101620001B0A1A1C03231340DBB21A1C1E4BD340A7
:1016300030E080231B022DE080231B022AE0184BA0
:101640005B6927E0164B1B680222134001D100237F
:1016500020E0164B9847124B1B680422134009D018
:101660000020134B9847021C0D4B9B681B041B0C5E
:1016700053430FE00F4B0DE00A4A5023D35CDBB21B
:101680001A1C0423134001D1002303E0044BDB6840
:1016900000E00023181CBD4602B080BDDC25000020
:1016A0003C0000200008004000127A009D15000058
:1016B000351D0000006CDC0280B584B000AF78609E
:1016C0001A4B1B6AFB607B681B781A1C03231340B0
:1016D000DAB20D23FB1803210A40101C1A780321EB
:1016E0008A43111C021C0A431A707B689A780C23E7
:1016F000FB18D0011A787F210A40111C021C0A43F2
:101700001A707B685A780C23FB1801210A4090015B
:101710001A7840218A43111C021C0A431A70034B99
:10172000FA681A62BD4604B080BDC0460008004099
:1017300080B582B000AF021CFB1D1A70FB1D1B7828
:10174000082B3BD89A00214BD3181B689F46204B8F
:101750001F4A126A02210A431A62002331E01C4B1D
:101760001B4A926902210A439A6129E0184A184BE0
:101770001B8A9BB202210B439BB2138220E0144AC6
:10178000134B9B8A9BB202210B439BB2938217E0BF
:10179000104B1B6802221A430E4B1A600E4B9847DF
:1017A0000EE00B4A0A494423CB5CDBB202210B4317
:1017B000D9B24423D15403E0002302E0172300E010
:1017C0000023181CBD4602B080BDC04600260000A4
:1017D000000800403C000020B515000080B582B034
:1017E00000AF3B1C01221A7000237B6009E07B687C
:1017F000DAB23B1C101C191C054B98477B6801335F
:101800007B607B68242BF2D9BD4602B080BDC04608
:10181000111C000080B59CB000AF254BC222D20045
:101820009A600020234B9847234B98476C23FB1862
:10183000181C224B98476C23FB1800221A706C234B
:10184000FB1801229A706C23FB1800225A706C233B
:10185000FB18181C1A4B984706201A4B98471A4B2E
:1018600098470020194B984700200021184B9847B3
:1018700001200021164B98473B1C181C154B98471C
:101880003B1C06221A703B1C01225A603B1C0022A2
:101890001A723B1C00225A723B1C0020191C0E4B72
:1018A000984700200D4B9847BD461CB080BDC046F0
:1018B0000008004069150000DD170000D514000085
:1018C000B91600003117000081190000F51400005E
:1018D00015150000A9140000B1190000D11A00006C
:1018E00080B582B000AF021C3960FB1D1A70FB1D71
:1018F0001B78012B0AD0022B0FD0002B14D10E4BDA
:101900000D4A91693A680A439A610FE00A4B0A4A04
:10191000D1693A680A43DA6108E0074B064A116A5E
:101920003A680A431A6201E0172300E00023181CFA
:10193000BD4602B080BDC0460004004080B500AF87
:10194000014B9847BD4680BDCD01000080B500AF7A
:10195000014B9847BD4680BD1D02000080B500AF19
:10196000064B5B78DBB2DBB25BB2002B01DA012302
:1019700000E00023181CBD4680BDC046000C00409E
:1019800080B500AF00200821074B9847074B012284
:101990001A70C046054B1B78DBB21A1C012313409A
:1019A000F8D1BD4680BDC046E1180000000C0040E3
:1019B00080B586B000AF021C3960FB1D1A70FB1D9C
:1019C0001B787B61FB1D1B783B613B681B781B020E
:1019D0001A1C7B6913437B613B685B78002B04D046
:1019E0007B698022D20213437B613B685B7A002BC8
:1019F00004D07B698022120313437B613B685B68E0
:101A0000012B2CD93B685A683B685B68013B13404B
:101A10001AD10023FB600223BB6005E0FB680133A1
:101A2000FB60BB685B00BB603B685A68BB689A425E
:101A3000F4D8FB681B023A6913433B617B6980223F
:101A4000520313437B610AE03B685B681B023A69FF
:101A500013433B617B698022920213437B613B68A5
:101A60001B7A002B04D07B698022920313437B6195
:101A7000C046124B9847031EFBD1114B9847114AA1
:101A8000FB1D1B781370C0460C4B9847031EFBD1FF
:101A90000D4B3A699A60C046084B9847031EFBD12C
:101AA000094B094A51688022520211407A690A435F
:101AB0005A60064B9847BD4606B080BD5D190000D0
:101AC0003D190000080C0040000C00404D190000BA
:101AD00080B582B000AF021CFB1D1A70C0460D4BD2
:101AE0009847031EFBD10C4B98470C4AFB1D1B78F3
:101AF0001370C046074B9847031EFBD1084B084A9A
:101B00005268802149020A435A60064B9847BD46F5
:101B100002B080BD5D1900003D190000040C0040BA
:101B2000000C00404D19000080B586B000AF021CCB
:101B3000FB1D1A70C0462E4B9847031EFBD12D4B40
:101B400098472D4AFB1D1B781370C046284B9847B9
:101B5000031EFBD1294B5B681B0A1A1C1F23134071
:101B6000DBB2181C264B9847031C7B61224AFB1DE5
:101B70001B781370214B5B681B0D1A1C012313404B
:101B8000DAB21323FB181A701E4AFB1D1B78137060
:101B9000C046174B9847031EFBD1184B9B681B0A86
:101BA0001A1C00239A43131C9BB2FB60164B9847E8
:101BB0001323FB181B78002B09D1FB68012B06D9D6
:101BC000124B7869F9689847031C7B610AE013237C
:101BD000FB181B78002B05D0FB6801331A1C7B69AE
:101BE000D3407B617B69181CBD4606B080BDC046F2
:101BF0005D1900003D190000040C0040000C00407D
:101C0000F9150000080C00404D19000045240000A3
:101C100080B584B000AF021C3960FB1D1A70FB1D3B
:101C20001B78FB603B681B781B021A1CFB68134384
:101C3000FB60FB1D1B78181C044B9847044BFA688B
:101C400092B25A80BD4604B080BDC046991C0000C7
:101C5000000C004080B582B000AF021CFB1D1A7062
:101C6000094B9847094AFB1D1B7813700849084B1C
:101C70005B889BB28022D20113439BB24B80054B01
:101C80009847BD4602B080BD3D190000020C0040DF
:101C9000000C00404D19000080B584B000AF021C5C
:101CA000FB1D1A701D4B98471D4AFB1D1B781370B6
:101CB0001C4B5B889BB21B0A1A1C0F231340DBB220
:101CC000FB60184B5A8818490A405A80154A154B30
:101CD0005B889BB215490B409BB25380C046114BA9
:101CE0005B889BB21A1C8023DB011340F7D10D4B9C
:101CF000FA68D2B2111C0F220A40D2B2111C0F2274
:101D00000A4010025A8808490A40111C021C0A4362
:101D10005A80074B9847BD4604B080BD3D1900006E
:101D2000020C0040000C0040FFF0FFFFFFBFFFFF70
:101D30004D19000080B584B000AF021CFB1D1A7065
:101D40000E4B98470E4AFB1D1B7813700D4B5B889A
:101D50009BB21B0A1A1C0F231340DAB20F23FB1885
:101D60001A70094B98470F23FB181B78181C074B58
:101D70009847031C181CBD4604B080BD3D190000E7
:101D8000020C0040000C00404D190000291B00000F
:101D900080B584B000AF021CFB1D1A700F23FB1826
:101DA000FA1D1278D2091A700E23FB18FA1D127848
:101DB00052091A700D4BBB600F23FB181B78002BC8
:101DC0000FD10F23FB181B789B0010229446BC44B4
:101DD0006344083B1A680E23FB181B78DB01D318F9
:101DE00000E00023181CBD4604B080BD0044004143
:101DF00080B588B000AFF860B9607A600023FB61FD
:101E00007B68DB7801225340DBB2002B35D07B6846
:101E10001B78802B0BD0FB69802252021343FB619D
:101E20007B681B781B061A1CFB691343FB617B68EC
:101E30005B78002B03D07B685B78022B10D1FB69A9
:101E4000802292021343FB617B689B78002B04D0B5
:101E5000FB698022D2021343FB61FB68BA685A60B7
:101E60007B685B78012B03D07B685B78022B07D102
:101E7000FB69214A1340FB6102E0FB68BA685A60C3
:101E8000BB681B041B0CBB61BB681B0C7B61BA6984
:101E9000FB691343A022D2051A43FB689A627A6950
:101EA000FB691343D02212061A43FB689A627B68CF
:101EB000DB7801225340DBB2002B1AD0FA69802371
:101EC000DB0213400AD07B689B78012B03D1FB68AF
:101ED000BA689A6102E0FB68BA685A617B685B780D
:101EE000012B03D07B685B78022B02D1FB68BA68B8
:101EF0009A60BD4608B080BDFFFFFBFF80B584B08F
:101F000000AF021C3960FB1D1A70FB1D1B78181CEA
:101F10000B4B9847031CFB60FB1D1B781F221340D3
:101F200001229A40131CBB60F968BA683B68081C20
:101F3000111C1A1C034B9847BD4604B080BDC04617
:101F4000911D0000F11D000080B500AFC046BD46E8
:101F500080BDC04680B500AF044B9847044B9847FE
:101F6000044B9847044B9847BD4680BD15180000A8
:101F70004D030000491F0000491F000080B582B0DA
:101F800000AF2E4A90235B000221D1502C4BDA780F
:101F900003218A43111C02220A43DA70284BDA78A3
:101FA0000C218A43111C08220A43DA70254B9A7BC4
:101FB00030218A43111C20220A439A73214B9A7BB9
:101FC0000C218A43111C08220A439A731D4B9A7BE9
:101FD00003218A43111C02220A439A731A4B7B6025
:101FE0001A4B3B607A683B689A420CD007E03B682A
:101FF0001A1D3A607A68111D796012681A603A6891
:10200000134B9A42F3D3134B3B6004E03B681A1D19
:102010003A6000221A603A680F4B9A42F6D30F4B8F
:102020007B600F4B7A687F218A439A600D4B9847FB
:102030000D4B9847BD4602B080BDC04600700041C0
:1020400000500041004800414426000000000020EC
:102050001400002014000020640000200000000094
:1020600000ED00E0692500006923000080B500AFA5
:10207000BD4680BD80B584B000AF021CFB1D1A7048
:102080000F23FB18FA1D1278D2091A700E23FB18C1
:10209000FA1D127852091A700D4BBB600F23FB1802
:1020A0001B78002B0FD10F23FB181B789B001022ED
:1020B0009446BC446344083B1A680E23FB181B7803
:1020C000DB01D31800E00023181CBD4604B080BD1E
:1020D0000044004180B582B000AF021CFB1D1A70A5
:1020E000FB1D1B78181C034B9847031C181CBD468E
:1020F00002B080BD7520000080B582B000AF78606E
:102100007B6800221A707B6801225A707B6800226B
:102110009A70BD4602B080BD80B584B000AF021C8D
:10212000FB1D1A70BB1D0A1C1A70FB1D1B78181CA6
:102130000C4B9847031CFB60FB1D1B781F221340B0
:1021400001229A40131CBB60BB1D1B78002B03D0DF
:10215000FB68BA689A6102E0FB68BA685A61BD46DA
:1021600004B080BDD520000080B584B000AF786099
:102170007B681B68FB60FB68DB695A1E9341DBB21E
:10218000181CBD4604B080BD80B582B000AF786039
:102190007B6801221A707B6800225A607B680022EB
:1021A0009A607B68C0229203DA607B6800221A740E
:1021B0007B6800225A747B6801229A747B68012232
:1021C000DA747B6800221A757B68242200219954F6
:1021D0007B681833181C00210C220A4B98477B6837
:1021E000094A9A617B6800229A627B680022DA625F
:1021F0007B6800221A637B6800225A63BD4602B0E6
:1022000080BDC046B5250000A086010080B582B023
:1022100000AF78607B680A221A707B6800225A70CF
:102220007B6800229A70BD4602B080BD80B584B044
:1022300000AF786039603B681A787B681A703B6839
:102240005A787B685A703B689A787B689A700C233E
:10225000FB18181C0B4B98470C23FB1801221A7013
:102260007B681A780C23FB18101C191C064B984726
:102270007B681B78181C0121044B9847BD4604B0AD
:1022800080BDC046F9200000C503000019210000F0
:1022900080B584B000AF78607B681B68FB60C04687
:1022A0007B68181C064B9847031EF9D1FB681B6816
:1022B00002221A43FB681A60BD4604B080BDC046C6
:1022C0006921000090B591B000AF3B1C181C1C4B5D
:1022D00098473B1C14221A701A4A3B1C101C191CEC
:1022E000194B98473B1D181C184B98473B1D8022E3
:1022F0005202DA603B1D15229A623B1D01225242B6
:10230000DA623B1D30221A633B1D31225A63104AA8
:1023100010493B1D101C1A1C0F4B98473F23FC18FB
:102320000B4B0E4A181C111C0D4B9847031C2370B5
:10233000074B181C0B4B9847BD4611B090BDC046CB
:102340000D220000600000202D22000089210000E5
:102350005400002000080042DD0F0000A0860100AC
:10236000250B000091220000B0B584B000AF294BCE
:102370009847294B984712200121284B9847132052
:102380000121264B9847264A264B101C191C002277
:10239000254B9847224A234B101C191C0122224B23
:1023A00098470F23FC181E4A204B101C191C0122B1
:1023B0001F4B9847031C2370194A1A4B101C191CF9
:1023C0000022194B98471B4B9847154A154B101C78
:1023D000191C0122144B98470E23FC181049164A69
:1023E0003B1C081C111C1A1C0223144DA847031C7B
:1023F00023706420124B9847094A0A4B101C191C81
:102400000022094B984764200D4B98470923BB6075
:10241000DBE7C046551F0000C5220000192100005F
:102420005400002060000020D110000009000020AE
:10243000C1110000450100000C000020F91200004D
:10244000A1010000002243088B4274D303098B4290
:102450005FD3030A8B4244D3030B8B4228D3030C74
:102460008B420DD3FF22090212BA030C8B4202D316
:102470001212090265D0030B8B4219D300E0090A3E
:10248000C30B8B4201D3CB03C01A5241830B8B4247
:1024900001D38B03C01A5241430B8B4201D34B0330
:1024A000C01A5241030B8B4201D30B03C01A524195
:1024B000C30A8B4201D3CB02C01A5241830A8B421A
:1024C00001D38B02C01A5241430A8B4201D34B0203
:1024D000C01A5241030A8B4201D30B02C01A524167
:1024E000CDD2C3098B4201D3CB01C01A524183091B
:1024F0008B4201D38B01C01A524143098B4201D355
:102500004B01C01A524103098B4201D30B01C01A7F
:102510005241C3088B4201D3CB00C01A52418308F9
:102520008B4201D38B00C01A524143088B4201D326
:102530004B00C01A5241411A00D201465241104686
:102540007047FFE701B5002000F00CF802BDC0465F
:102550000029F7D003B5FFF775FF0EBC4243891A77
:102560001847C0467047C0460E4B70B500251E1C6C
:102570000D4CE41AA410A54204D0AB00F3589847C0
:102580000135F8E700F04EF8084B00251E1C084CFA
:10259000E41AA410A54204D0AB00F35898470135C3
:1025A000F8E770BD3026000030260000302600001D
:1025B00034260000031C8218934202D019700133A4
:1025C000FAE7704700080042000C00420010004289
:1025D0000014004200180042001C004216160000C1
:1025E0009216000092160000381600003216000005
:1025F0003E1600001C16000044160000781600006D
:102600006C170000BC170000BC170000B8170000D2
:102610005E1700007E1700004E17000090170000A4
:10262000A2170000F8B5C046F8BC08BC9E4670472B
:10263000D9000000F8B5C046F8BC08BC9E467047FB
:04264000B1000000E5
:10264400401F00000800000001060000050600000D
:04265400010600007B
:0400000300001F7D5D
:00000001FF
