:1000000068200020211C0000051D0000051D0000C7
:1000100000000000000000000000000000000000E0
:10002000000000000000000000000000051D0000AE
:100030000000000000000000051D0000051D00007C
:10004000051D0000051D0000051D0000051D000028
:10005000051D0000051D0000051D0000051D000018
:10006000051D0000051D0000051D0000051D000008
:10007000051D0000051D0000051D0000051D0000F8
:10008000051D0000051D0000051D0000051D0000E8
:10009000051D0000051D0000051D0000051D0000D8
:1000A000051D0000051D0000051D0000051D0000C8
:1000B00010B5064C2378002B07D1054B002B02D03E
:1000C000044800E000BF0123237010BD140000208D
:1000D00000000000E421000008B5084B002B03D00D
:1000E0000748084900E000BF07480368002B03D019
:1000F000064B002B00D0984708BDC046000000000A
:10010000E421000018000020E421000000000000AD
:1001100080B582B000AF0F4B1B68002B12D1EFF3FC
:1001200010837B607B68002B09D172B6BFF35F8FB1
:10013000094B00221A70094B01221A7002E0074B8A
:1001400000221A70034B1B685A1C024B1A60BD46F2
:1001500002B080BD300000200000002034000020EC
:1001600080B500AF0A4B1B685A1E094B1A60084B3A
:100170001B68002B0AD1074B1B78DBB2002B05D084
:10018000054B01221A70BFF35F8F62B6BD4680BD7A
:1001900030000020340000200000002080B584B032
:1001A00000AF021CFB1D1A703B1C0F33FA1D1278A6
:1001B000D2091A703B1C0E33FA1D127852091A70BC
:1001C0000D4BBB603B1C0F331B78002B0ED13B1C2F
:1001D0000F331B789B001022D219D318083B1A68E2
:1001E0003B1C0E331B78DB01D31800E00023181CE6
:1001F000BD4604B080BDC0460044004180B582B019
:1002000000AF021CFB1D1A70FB1D1B78181C034B52
:100210009847031C181CBD4602B080BD9D0100001C
:1002200080B582B000AF78607B6800221A707B686E
:1002300001225A707B6800229A70BD4602B080BDD0
:1002400080B584B000AF0A1CFB1D011C1970BB1DDA
:100250001A70FB1D1B78181C0D4B9847031CFB6084
:10026000FB1D1A781F2313400122111C99400B1CFF
:10027000BB60BB1D1B78002B03D0FB68BA689A617A
:1002800002E0FB68BA685A61BD4604B080BDC04652
:10029000FD01000080B582B000AF3B1D181C0E4B65
:1002A00098473B1D01221A703B1D3E20191C0B4B29
:1002B00098473E2001210A4B98473B1D00221A70A7
:1002C0003B1D01225A703B1D0F20191C034B984700
:1002D000BD4602B080BDC046210200000D030000F3
:1002E0004102000080B582B000AF78607B68802258
:1002F0001A707B6800225A707B6801229A707B68B2
:100300000022DA70BD4602B080BDC04680B584B020
:1003100000AF021C3960FB1D1A703B1C0C33181C0B
:100320000F4B98473B1C0C3380221A703B681A789D
:100330003B1C0C335A703B685A783B1C0C339A7048
:100340003B689A783B1C0C33DA70FB1D1A783B1C17
:100350000C33101C191C034B9847BD4604B080BDDC
:10036000E5020000A11B000080B582B000AF7860FC
:100370007B6800221A70BD4602B080BD80B586B091
:1003800000AFF860B9607A603B1C163300221A8017
:10039000BB683B61BB685A08FB689A4201D24023A4
:1003A00026E0BB685B083B610AE03A69FB68D31A48
:1003B0003B613B1C16331A883B1C163301321A80F2
:1003C0003A69FB689A42F0D23B1C16333A1C16324B
:1003D0001288013A1A803B1C16331B88FF2B01D967
:1003E000402305E07B683A1C163212881A800023ED
:1003F000181CBD4606B080BD80B584B000AF0A1C95
:10040000FB1D011C1970BB1D1A701A4B1B780122B1
:100410005340DBB2002B03D1BB1D1B78002B1BD03C
:100420003B1C0C33181C144B98473B1C0C33FA1D17
:1004300012781A703B1C0C331320191C0F4B984771
:1004400013200F4B98470B4BFA1D12785A70094B2B
:1004500001221A70002308E0064B5B78FA1D12781F
:100460009A4201D1002300E01D23181CBD4604B0B0
:1004700080BDC0463800002069030000BD180000A0
:10048000FD18000080B582B000AF78600A1CFB1C2C
:100490001A707B684D4A93423FD04C4A934206D82B
:1004A0004B4A93420FD04B4A934221D089E04A4AAB
:1004B000934200D15BE0494A934200D16CE0484A44
:1004C00093423FD07DE0FB1C1B78012B0AD002DC5D
:1004D000002B05D075E0022B06D0032B06D070E070
:1004E000404B6FE0404B6DE0404B6BE0404B69E0B0
:1004F000FB1C1B78012B0AD002DC002B05D060E02E
:10050000022B06D0032B06D05BE003235AE0394BC5
:1005100058E0394B56E0394B54E0FB1C1B78012B5B
:100520000AD002DC002B05D04BE0022B06D0032BB7
:1005300006D046E0324B45E0324B43E0324B41E0DF
:10054000324B3FE0FB1C1B78012B0AD002DC002B56
:1005500005D036E0022B06D0032B06D031E02C4B21
:1005600030E02C4B2EE02C4B2CE02C4B2AE0FB1CDB
:100570001B78012B0AD002DC002B05D021E0022BD6
:1005800006D0032B06D01CE0254B1BE0254B19E0C1
:10059000254B17E0254B15E0FB1C1B78012B0AD0DF
:1005A00002DC002B05D00CE0022B06D0032B06D07A
:1005B00007E01F4B06E01F4B04E01F4B02E01F4B00
:1005C00000E00023181CBD4602B080BD00100042B0
:1005D00000080042000C004200180042001C0042CB
:1005E000001400420300040003000500030006009D
:1005F000030007000300010003001E0003001F00AA
:10060000030008000300090003000A0003000B00B8
:100610000300100003001100030012000300130088
:1006200003000C0003000D0003000E0003000F0088
:100630000300160003001700030018000300190050
:1006400090B58BB000AF78603B1C0C330E4A13CAD8
:1006500013C313CA13C300237B620DE07A683B1CEB
:100660000C33796A8900CB589A4202D17B6ADBB29B
:1006700006E07B6A01337B627B6A052BEED900239F
:10068000181CBD460BB090BD6421000080B582B03F
:1006900000AF78607B6880221A707B6800225A70F5
:1006A0007B6801229A707B680022DA70BD4602B036
:1006B00080BDC04680B584B000AF021CFB1D1A701F
:1006C0003B1C0F33FA1D1278D2091A703B1C0E33F3
:1006D000FA1D127852091A700D4BBB603B1C0F3388
:1006E0001B78002B0ED13B1C0F331B789B00102274
:1006F000D219D318083B1A683B1C0E331B78DB0158
:10070000D31800E00023181CBD4604B080BDC046CD
:100710000044004180B586B000AF021CFB1D1A707A
:10072000FB1D1B78181C194B9847031C7B61FB1D94
:100730001A781F2313403B61796940233A698A186C
:10074000D3181B78DBB21A1C0123134001D180237C
:1007500017E03B695A08796930238A18D3181B7847
:10076000DBB2FB603A690123134005D0FA68F0233D
:1007700013401B09DBB204E0FB68DAB20F2313401D
:10078000DBB2181CBD4606B080BDC046B5060000F1
:1007900080B582B000AF021CFB1D1A70FB1D1B78D8
:1007A000181C034B9847031C181CBD4602B080BDA3
:1007B000B506000080B584B000AF0A1CFB1D011C0B
:1007C0001970BB1D1A70FB1D1B78181C0D4B984728
:1007D000031CFB60FB1D1A781F2313400122111C10
:1007E00099400B1CBB60BB1D1B78002B03D0FB6822
:1007F000BA689A6102E0FB68BA685A61BD4604B003
:1008000080BDC0469107000080B582B000AF78601F
:100810007B6800221A70BD4602B080BD80B582B0F0
:1008200000AF021C3960FB1D1A70FB1D1B78012BE9
:100830000AD0022B0FD0002B14D10E4B0D4A916918
:100840003A680A439A610FE00A4B0A4AD1693A684A
:100850000A43DA6108E0074B064A116A3A680A431C
:100860001A6201E0172300E00023181CBD4602B005
:1008700080BDC0460004004080B500AF054B9B78AA
:10088000DBB21A1C022313405A1E9341DBB2181C20
:10089000BD4680BD0020004180B584B000AF7860C7
:1008A0007B681B68FB60FB681B7EDBB21A1C0223A3
:1008B00013405A1E9341DBB2181CBD4604B080BDE4
:1008C00080B584B000AF78607B681B68FB60FB6814
:1008D0001B7EDBB21A1C012313405A1E9341DBB26C
:1008E000181CBD4604B080BD80B584B000AF7860F0
:1008F0007B681B68FB60FB681B7EDBB21A1C042351
:1009000013405A1E9341DBB2181CBD4604B080BD93
:1009100080B584B000AF78600A1CBB1C1A807B686D
:100920001B68FB607B68181C0A4B9847031C01225C
:100930005340DBB2002B01D0052306E0BB1C1B8813
:10094000DB05DA0DFB689A620023181CBD4604B073
:1009500080BDC046C108000080B584B000AF78609B
:1009600039607B681B68BB607B68181C1D4B98470F
:10097000031C01225340DBB2002B01D010232CE0DA
:100980003B1C0F3300221A70BB685B8B9BB21A1C96
:10099000042313400BD03B1C0F331E221A70BB687C
:1009A0005B8B9BB2042213439AB2BB685A837B6869
:1009B0009B79012B08D1BB689B6A9BB2DB05DB0DE1
:1009C0009AB23B681A8005E0BB689B6ADBB21A1CCE
:1009D0003B681A803B1C0F331B78181CBD4604B0C3
:1009E00080BDC046E908000090B593B000AF7860C4
:1009F00039607B681B687B637B681B683B633B1CBF
:100A00001C33181C764B98473B1C1C3300225A7031
:100A10003B681B78002B03D13B1C1C3300229A70CF
:100A20003B689A6A3B1C0C331A603B68DA6A3B1CD1
:100A30000C335A603B681A6B3B1C0C339A603B6862
:100A40005A6B3B1C0C33DA603B1C473300221A7094
:100A50002CE03B1C47331A783B1C0C339200D358D4
:100A60003B643B6C002B09D13A6B3B1C47331B7832
:100A7000101C191C5B4B9847031C3B643B6C0133F7
:100A80000DD03B6CDAB23B1C1C331A703B6C1B0C58
:100A9000DAB23B1C1C33101C191C534B98473B1CEF
:100AA00047331A783B1C473301321A703B1C4733DB
:100AB0001B78032BCDD93B681A787B685A713B6849
:100AC0001A7C7B689A713B689A7C7B68DA713B6818
:100AD0001A7D7B681A723B1C0A3300221A8000239D
:100AE000FB630023BB633B681B78012B2BD17B6826
:100AF0001B68181C3D4B9847031CFB62FB6A1433B0
:100B0000BB62BB6ADBB2181C394B9847031C7B6283
:100B10003B6899693C1C23347A6A3B1C0A33081CE5
:100B2000111C1A1C334B9847031C23703B1C2333A6
:100B30001B78002B01D017234EE03B1C0A331B8887
:100B4000DAB27B6B1A733B685B68FA6B1343FB6327
:100B50003B689B68FA6B1343FB633B68DB68FA6B8B
:100B60001343FB633B681B7CBA6B1343BB633B685B
:100B70005B7C002B04D1204B9847031C002B03D037
:100B8000FB6B80221343FB633B689B7C002B04D0F0
:100B9000BB6B802292021343BB633B68DB7C002B60
:100BA00004D0BB6B802292001343BB633B681B7D68
:100BB000002B04D0BB6B802292011343BB637B6B81
:100BC0001A68FB6B1A437B6B1A607B6B5A68BB6BB2
:100BD0001A437B6B5A600023181CBD4613B090BDAE
:100BE0008D06000085040000A11B000041060000E6
:100BF000D91900007D0300007908000090B591B07C
:100C000000AF786039607B681B68FB627B681B689B
:100C1000BB623B689A6A3B1C10331A603B68DA6A15
:100C20003B1C10335A603B681A6B3B1C10339A60B4
:100C30003B685A6B3B1C1033DA603B1C3F3300228D
:100C40001A7030E03B1C3F331A783B1C1033920083
:100C5000D358BB63BB6B002B09D1BA6A3B1C3F3333
:100C60001B78101C191C564B9847031CBB63BB6BAD
:100C7000013300D110E0BB6B1B041C0CBB6B1B0CC5
:100C8000DBB2181C4F4B9847031C9C4204D07B6876
:100C900000221A601C238FE03B1C3F331A783B1C58
:100CA0003F3301321A703B1C3F331B78032BC9D9E9
:100CB0001320454B9847031C7B6200237B63002372
:100CC0003B633B681B78012B23D13B6899693C1C33
:100CD00023347A6A3B1C0E33081C111C1A1C3B4B34
:100CE0009847031C23703B1C23331B78002B01D037
:100CF000172361E0FB6A1B7BDAB23B1C0E331B88B7
:100D0000DBB29A4201D01C2356E07B6B0C221343CA
:100D10007B633B685B687A6B13437B633B689B68D0
:100D20007A6B13437B633B68DB687A6B13437B63AB
:100D30003B681B7C3A6B13433B633B685B7C002B3B
:100D400003D07B6B802213437B633B689B7C002B2F
:100D500004D03B6B8022920213433B633B68DB7CF5
:100D6000002B04D03B6B8022920013433B633B6813
:100D70001B7D002B04D03B6B8022920113433B630D
:100D80007B6B022213437B63FB6A1A687B6B9A427C
:100D90000ED1FB6A5A683B6B9A4209D13B681A78BC
:100DA0007B685A713B681A7C7B689A71002303E068
:100DB0007B6800221A601C23181CBD4611B090BD30
:100DC0008504000015070000D91900007D0300000C
:100DD00080B58AB000AFF860B9607A60FB68BA6825
:100DE0001A60FB681B687B627B6A1A6802231340E7
:100DF00007D0FA687B68101C191C2A4B9847031C03
:100E00004CE07B6A1A680123134001D0052345E0BA
:100E1000FB681B68181C244B9847031C3B623B6A09
:100E20000233FB613B6A1433BB61FB690122111C75
:100E300099400B1C0220191C1C4B98473B1C143377
:100E4000181C1B4B98477A682423D25C3B1C143334
:100E50001A70BB69DAB23B1C1433101C191C154BF9
:100E60009847BB69DBB2181C134B98477A68242358
:100E7000D35C181C0021114B98477B681B78012B11
:100E800005D17B6A1B680C221A437B6A1A60FA68D8
:100E90007B68101C191C0A4B9847031C181CBD4684
:100EA0000AB080BDFD0B0000410600001D080000D7
:100EB00009080000BD180000FD180000F90300003B
:100EC000E909000080B586B000AFF860B960FB1D8D
:100ED0001A70FB685B79012B01D0152359E0FB6880
:100EE0001B7A01225340DBB2002B51D0FB1D1B7833
:100EF000002B47D0BB685B78002B3CD0FB68181CEC
:100F0000264B9847031C01225340DBB2002B07D02D
:100F1000BB681B78181C0121214B9847052338E03A
:100F2000BB681B78181C00211D4B9847BB689B7839
:100F3000FA68101C191C1B4B9847FB68DB790122CF
:100F40005340DBB2002B23D0C046FB68181C164B65
:100F50009847031C01225340DBB2002BF5D13B1C08
:100F6000163300221A80FA683B1C1633101C191C19
:100F70000E4B98470CE0BB681B78181C0021084BEF
:100F8000984705E0BB681B78181C0121044B984763
:100F90000023181CBD4606B080BDC046C108000035
:100FA000B507000011090000E90800005909000018
:100FB00090B589B000AFF860B9607A601A1CBB1CAC
:100FC0001A80BB1C1B88002B01D11723B2E0FB68E1
:100FD000DB7901225340DBB2002B01D01C23A9E0B6
:100FE0003B1C1E3300221A803B1C1C3300221A803B
:100FF0003B1C1A33BA1C12881A8083E0C046FB6877
:10100000181C4E4B9847031C01225340DBB2002BA7
:10101000F5D13B1C1E331B883A1C1E32591C118013
:10102000BA68D3181A783B1C18331A80FB689B796E
:10103000012B13D13B1C1E331B883A1C1E32591C3A
:101040001180BA68D3181B781B029AB23B1C183364
:101050001B8813439AB23B1C18331A80FA683B1C56
:1010600018331B88101C191C354B9847C046FB6869
:10107000181C344B9847031C01225340DBB2002B51
:10108000F5D13B1C143300221A803B1C1A331A88FA
:101090003B1C1A33013A1A803C1C1734FA683B1C7B
:1010A0001433101C191C284B9847031C23703B1C3D
:1010B00017331B78002B03D03B1C17331B7839E008
:1010C0003B1C1C331B883A1C1C32591C11807A684B
:1010D000D3183A1C14321288D2B21A70FB689B796A
:1010E000012B0FD13B1C1C331B883A1C1C32591C92
:1010F00011807A68D3183A1C14321288120A92B2FC
:10110000D2B21A70BB1C1B88BA1C591E1180002B4E
:1011100000D073E7FB685B79012B0AD1C046FB68FE
:10112000181C0A4B9847031C01225340DBB2002BCA
:10113000F5D10023181CBD4609B090BDC1080000C0
:1011400011090000E9080000590900009908000091
:1011500080B582B000AF78607B6801225A607B68FE
:1011600000225A707B6806221A707B6800221A726D
:101170007B6800225A72BD4602B080BD80B582B045
:1011800000AF78607B6803221A707B6800225A7077
:101190007B6801229A70BD4602B080BD80B582B0E6
:1011A00000AF021CFB1D1A70034BFA1D12781A7255
:1011B000BD4602B080BDC0460004004080B582B08C
:1011C00000AF0A1CFB1D011C1970BB1D1A70FB1D12
:1011D0001B78012B08D0022B0BD0002B0ED10B4B10
:1011E000BA1D12785A720BE0084BBA1D12789A7227
:1011F00006E0064BBA1D1278DA7201E0172300E010
:101200000023181CBD4602B080BDC046000400404B
:1012100080B582B000AF021CFB1D1A70084BFA1D8E
:1012200011780F220A40D1B20F220A4052005968A9
:101230001E2081430A435A60BD4602B080BDC046AD
:101240000040004180B500AFC046034BDA68102370
:101250001340FAD0BD4680BD0008004080B500AF05
:101260000C4A0D4B1B689BB280218B439BB293842D
:101270000A4B9847074B084A9268DA62054B064AC0
:1012800052689A62034A044B1B689BB29384BD4622
:1012900080BDC046000800403C0000204512000010
:1012A00080B582B000AF021CFB1D1A70FB1D1B78BD
:1012B000082B43D89A00244BD3181B689F46234B16
:1012C0001B693CE0224B1B6A1B0A1A1C03231340B8
:1012D000DBB2204A111CD9400B1C30E080231B02DA
:1012E0002DE080231B022AE0184B5B6927E0174B97
:1012F0001A680223134001D1002320E0164B9847BF
:10130000124B1A680423134009D00020134B98474E
:10131000021C0E4B9B681B041B0C53430FE0104B2D
:101320000DE00B4A5023D35CDBB21A1C042313409C
:1013300001D1002303E0054BDB6800E00023181C0B
:10134000BD4602B080BDC0467C2100003C000020AC
:101350000008004000127A0045120000D919000070
:10136000006CDC0280B584B000AF7860164B1B6A5D
:10137000FB607B681B781A1C03231340D9B23B1C0B
:101380000D3303220A401978032081430A431A705F
:101390007B689A783B1C0C33D20118787F2101407E
:1013A0000A431A707B6859783B1C0C3301220A40AF
:1013B00092011978402081430A431A70024BFA685F
:1013C0001A62BD4604B080BD0008004080B582B0FE
:1013D00000AF021CFB1D1A70FB1D1B78082B3BD8AD
:1013E0009A00214BD3181B689F46204B1F4A126A54
:1013F00002210A431A62002331E01C4B1B4A926906
:1014000002210A439A6129E0184B184A128A92B2C3
:1014100002210A4392B21A8220E0144B134A928AA4
:1014200092B202210A4392B29A8217E0104B1B68D3
:1014300002221A430E4B1A600E4B98470EE00B4ADD
:101440000A494423CB5CDBB202210B43D9B24423CB
:10145000D15403E0002302E0172300E00023181C0E
:10146000BD4602B080BDC046A0210000000800407B
:101470003C0000205D12000080B582B000AF3B1C34
:1014800001221A7000237B6009E07B68DAB23B1C02
:10149000101C191C054B98477B6801337B607B68E7
:1014A000242BF2D9BD4602B080BDC046BD18000055
:1014B00080B59CB000AF254BC222D2009A600020BC
:1014C000234B9847234B98473B1C6C33181C224BEB
:1014D00098473B1C6C3300221A703B1C6C33012272
:1014E0009A703B1C6C3300225A703B1C6C33181CE6
:1014F0001A4B984706201A4B98471A4B98470020DA
:10150000194B984700200021184B984701200021D3
:10151000164B98473B1C181C154B98473B1C062242
:101520001A703B1C01225A603B1C00221A723B1CA1
:1015300000225A723B1C0020191C0E4B98470020B9
:101540000D4B9847BD461CB080BDC046000800400A
:1015500011120000791400007D11000065130000D5
:10156000CD1300001D1600009D110000BD110000EC
:10157000511100004D1600007517000080B582B0B3
:1015800000AF021C3960FB1D1A70FB1D1B78012B7C
:101590000AD0022B0FD0002B14D10E4B0D4A9169AB
:1015A0003A680A439A610FE00A4B0A4AD1693A68DD
:1015B0000A43DA6108E0074B064A116A3A680A43AF
:1015C0001A6201E0172300E00023181CBD4602B098
:1015D00080BDC0460004004080B500AF014B984775
:1015E000BD4680BD1101000080B500AF014B98479A
:1015F000BD4680BD6101000080B500AF064B5B7841
:10160000DBB2DBB25BB2002B01DA012300E0002386
:10161000181CBD4680BDC046000C004080B500AF20
:1016200000200821074B9847074B01221A70C0463B
:10163000054B1B78DBB21A1C01231340F8D1BD46C1
:1016400080BDC0467D150000000C004080B586B00E
:1016500000AF021C3960FB1D1A70FB1D1B787B61FB
:10166000FB1D1B783B613B681B781B027A691343A7
:101670007B613B685B78002B04D07B698022D202BF
:1016800013437B613B685B7A002B04D07B6980222B
:10169000120313437B613B685B68012B2CD93B68C9
:1016A0005A683B685B68013B13401AD10023FB601A
:1016B0000223BB6005E0FB680133FB60BB685B0095
:1016C000BB603B685A68BB689A42F4D8FB681B024F
:1016D0003A6913433B617B698022520313437B6168
:1016E0000AE03B685B681B023A6913433B617B6914
:1016F0008022920213437B613B681B7A002B05D04A
:101700007B698022920313437B61FFE7C046144B41
:101710009847031C002BFAD1124B9847124BFA1D25
:1017200012781A70C0460E4B9847031C002BFAD152
:101730000E4B3A699A60C046094B9847031C002B30
:10174000FAD10A4B094A51688022520211407A6943
:101750000A435A60064B9847BD4606B080BDC04656
:10176000F9150000D9150000080C0040000C0040DD
:10177000E915000080B582B000AF021CFB1D1A7095
:10178000C0460E4B9847031C002BFAD10C4B9847D0
:101790000C4BFA1D12781A70C046084B9847031C70
:1017A000002BFAD1084B084A5268802149020A43AB
:1017B0005A60064B9847BD4602B080BDF91500003F
:1017C000D9150000040C0040000C0040E915000091
:1017D00080B586B000AF021CFB1D1A70C0462F4BAF
:1017E0009847031C002BFAD12D4B98472D4BFA1D1F
:1017F00012781A70C046294B9847031C002BFAD167
:10180000294B5B681B0A1A1C1F231340DBB2181CF0
:10181000264B9847031C7B61224BFA1D12781A70E5
:10182000214B5B681B0D1A1C01231340DAB23B1CD1
:1018300013331A701E4BFA1D12781A70C046174BDC
:101840009847031C002BFAD1174B9B681B0A0022F8
:1018500093439BB2FB60174B98473B1C13331B7899
:10186000002B09D1FB68012B06D9134B7869F96865
:101870009847031C7B610BE03B1C13331B78002B48
:1018800006D0FB6801337A69111CD9400B1C7B61BF
:101890007B69181CBD4606B080BDC046F915000026
:1018A000D9150000040C0040000C0040A1120000FB
:1018B000080C0040E91500006920000080B584B0E4
:1018C00000AF021C3960FB1D1A70FB1D1B78FB600A
:1018D0003B681B781B02FA681343FB60FB1D1B78F7
:1018E000181C044B9847044BFA6892B25A80BD46C4
:1018F00004B080BD41190000000C004080B582B0EA
:1019000000AF021CFB1D1A70094B9847094BFA1DCA
:1019100012781A70084B084A528892B28021C90185
:101920000A4392B25A80054B9847BD4602B080BD2B
:10193000D9150000020C0040000C0040E915000021
:1019400080B584B000AF021CFB1D1A701C4B984779
:101950001C4BFA1D12781A701B4B5B889BB21B0A3A
:101960001A1C0F231340DBB2FB60174B5988174A30
:101970000A405A80144B144A528891B2144A0A40C1
:1019800092B25A80C046104B5B889BB21A1C8023CF
:10199000DB011340F7D10C4BFA68D2B2111C0F22B5
:1019A0000A40D1B20F220A4012025888074901406A
:1019B0000A435A80074B9847BD4604B080BDC046D5
:1019C000D9150000020C0040000C0040FFF0FFFFA2
:1019D000FFBFFFFFE915000080B584B000AF021C17
:1019E000FB1D1A700E4B98470E4BFA1D12781A7099
:1019F0000D4B5B889BB21B0A1A1C0F231340DAB2F3
:101A00003B1C0F331A70094B98473B1C0F331B7854
:101A1000181C074B9847031C181CBD4604B080BD1A
:101A2000D9150000020C0040000C0040E915000030
:101A3000D117000080B584B000AF021CFB1D1A70E6
:101A40003B1C0F33FA1D1278D2091A703B1C0E335F
:101A5000FA1D127852091A700D4BBB603B1C0F33F4
:101A60001B78002B0ED13B1C0F331B789B001022E0
:101A7000D219D318083B1A683B1C0E331B78DB01C4
:101A8000D31800E00023181CBD4604B080BDC0463A
:101A90000044004180B588B000AFF860B9607A605A
:101AA0000023FB617B68DB7801225340DBB2002B13
:101AB00034D07B681B78802B0AD0FB6980225202CD
:101AC0001343FB617B681B781B06FA691343FB61B8
:101AD0007B685B78002B03D07B685B78022B10D18E
:101AE000FB69802292021343FB617B689B78002B89
:101AF00004D0FB698022D2021343FB61FB68BA6801
:101B00005A607B685B78012B03D07B685B78022B83
:101B100007D1FA69214B1340FB6102E0FB68BA6808
:101B20005A60BB681B041B0CBB61BB681B0C7B6150
:101B3000BA69FB691343A022D2051A43FB689A6273
:101B40007A69FB691343D02212061A43FB689A6232
:101B50007B68DB7801225340DBB2002B1AD0FA6994
:101B60008023DB0213400AD07B689B78012B03D1D2
:101B7000FB68BA689A6102E0FB68BA685A617B68E0
:101B80005B78012B03D07B685B78022B02D1FB686A
:101B9000BA689A60BD4608B080BDC046FFFFFBFF33
:101BA00080B584B000AF021C3960FB1D1A70FB1DAC
:101BB0001B78181C0B4B9847031CFB60FB1D1A7805
:101BC0001F2313400122111C99400B1CBB60F968B4
:101BD000BA683B68081C111C1A1C034B9847BD4689
:101BE00004B080BD351A0000951A000080B500AF22
:101BF000C046BD4680BDC04680B500AF044B984787
:101C0000044B9847044B9847044B9847BD4680BD0A
:101C1000B114000095020000ED1B0000ED1B000058
:101C200080B582B000AF2B4A90235B000221D150D7
:101C3000294BDA7803218A4302210A43DA70264BC2
:101C4000DA780C218A4308210A43DA70234B9A7B05
:101C500030218A4320210A439A73204B9A7B0C211E
:101C60008A4308210A439A731C4B9A7B03218A43B7
:101C700002210A439A731A4B7B601A4B3B607A68C5
:101C80003B689A420CD007E03B681A1D3A607A68BC
:101C9000111D796012681A603A68134B9A42F3D3A7
:101CA000124B3B6004E03B681A1D3A6000221A6048
:101CB0003A680F4B9A42F6D30E4B7B600E4B7A6814
:101CC0007F218A439A600D4B98470D4B9847BD463C
:101CD00002B080BD0070004100500041004800414A
:101CE000E421000000000020140000201400002067
:101CF000640000200000000000ED00E00921000069
:101D00000520000080B500AFBD4680BD80B584B021
:101D100000AF021CFB1D1A703B1C0F33FA1D12781A
:101D2000D2091A703B1C0E33FA1D127852091A7030
:101D30000D4BBB603B1C0F331B78002B0ED13B1CA3
:101D40000F331B789B001022D219D318083B1A6856
:101D50003B1C0E331B78DB01D31800E00023181C5A
:101D6000BD4604B080BDC0460044004180B582B08D
:101D700000AF021CFB1D1A70FB1D1B78181C034BC7
:101D80009847031C181CBD4602B080BD0D1D000005
:101D900080B582B000AF78607B6800221A707B68E3
:101DA00001225A707B6800229A70BD4602B080BD45
:101DB00080B584B000AF0A1CFB1D011C1970BB1D4F
:101DC0001A70FB1D1B78181C0D4B9847031CFB60F9
:101DD000FB1D1A781F2313400122111C99400B1C74
:101DE000BB60BB1D1B78002B03D0FB68BA689A61EF
:101DF00002E0FB68BA685A61BD4604B080BDC046C7
:101E00006D1D000080B584B000AF78607B681B68F2
:101E1000FB60FB68DB695A1E9341DBB2181CBD46B0
:101E200004B080BD80B582B000AF78607B680122CD
:101E30001A707B6800225A607B6800229A607B6877
:101E4000C0229203DA607B6800221A747B68002249
:101E50005A747B6801229A747B680122DA747B6869
:101E600000221A757A6824230021D1547B68183324
:101E7000181C00210C220A4B98477B68094A9A617A
:101E80007B6800229A627B680022DA627B6800220B
:101E90001A637B6800225A63BD4602B080BDC0460B
:101EA00055210000A086010080B582B000AF7860A7
:101EB0007B680A221A707B6800225A707B680022B5
:101EC0009A70BD4602B080BD80B584B000AF786026
:101ED00039603B681A787B681A703B685A787B686F
:101EE0005A703B689A787B689A703B1C0C33181CBC
:101EF0000B4B98473B1C0C3301221A707B681A78F5
:101F00003B1C0C33101C191C064B98477B681B7834
:101F1000181C0121044B9847BD4604B080BDC04643
:101F2000911D00000D030000B11D000080B584B0BC
:101F300000AF78607B681B68FB60C0467B68181C3C
:101F4000064B9847031C002BF8D1FB681B68022244
:101F50001A43FB681A60BD4604B080BD051E000030
:101F600080B590B000AF3B1D181C1B4B98473B1D24
:101F700005221A70194A3B1D101C191C184B984752
:101F80003B1C0833181C174B98473B1C0833802216
:101F90005202DA603B1C0833134A9A623B1C083336
:101FA00001225242DA623B1C0833104A1A633B1C7E
:101FB00008330F4A5A630F490F4A3B1C0833081C69
:101FC000111C1A1C0D4B98470A4B181C0C4B9847B8
:101FD000BD4610B080BDC046A91E000060000020B4
:101FE000C91E0000251E00000300040003000600B7
:101FF000030007005400002000080042D10D00003B
:102000002D1F000098B500AF0F4B98470F4B984716
:102010000F4A104B101C191C01220F4B98470C49FA
:102020000E4A0F4B081C111C1A1C05230D4CA0470F
:10203000074A084B101C191C0022074B9847002325
:10204000181CBD4698BDC046F91B0000611F00006A
:102050005400002060000020C50E00000400002095
:102060000C000020B10F0000002934D00123002211
:1020700010B488422CD301242407A14204D2814207
:1020800002D209011B01F8E7E400A14204D2814217
:1020900002D249005B00F8E7884201D3401A1A4394
:1020A0004C08A04202D3001B5C0822438C08A042CB
:1020B00002D3001B9C082243CC08A04202D3001B81
:1020C000DC082243002803D01B0901D00909E3E7FB
:1020D000101C10BC7047002801D00020C04307B47A
:1020E000024802A14018029003BDC046190000003A
:1020F0000029F0D003B5FFF7B9FF0EBC4243891A9F
:102100001847C0467047C04670B50E4B0E4D0024B0
:10211000ED1AAD101E1CAC4204D0A300F358984732
:102120000134F8E700F04EF8084B094D0024ED1A91
:10213000AD101E1CAC4204D0A300F35898470134E4
:10214000F8E770BDD0210000D0210000D0210000B0
:10215000D4210000031C8218934202D0197001336D
:10216000FAE7704700080042000C004200100042ED
:102170000014004200180042001C0042BE12000081
:102180003C1300003C130000E2120000DC120000CF
:10219000E8120000C4120000EE120000221300003A
:1021A00008140000581400005814000054140000D3
:1021B000FA1300001A140000EA1300002C140000A7
:1021C0003E140000F8B5C046F8BC08BC9E467047F7
:1021D000D9000000F8B5C046F8BC08BC9E46704760
:0421E000B10000004A
:1021E400010000000300000000000000FFFFFFFFEB
:0421F400FF000000E8
:0400000300001C21BC
:00000001FF
