S02900004932435F515549434B5F53544152545F4D41535445525F42415349435F555345312E737265630B
S113000048210020A5140000A1140000A114000040
S113001000000000000000000000000000000000DC
S1130020000000000000000000000000A114000017
S11300300000000000000000A1140000A114000052
S1130040A1140000A1140000A1140000A1140000D8
S1130050A1140000A1140000A1140000A1140000C8
S1130060A114000079090000890900009909000021
S1130070A9090000B9090000C9090000A114000081
S1130080A1140000A1140000A1140000A114000098
S1130090A1140000A1140000A1140000A114000088
S11300A0A1140000A1140000A1140000A114000078
S11300B010B5064C2378002B07D1054B002B02D03A
S11300C0044800E000BF0123237010BD7800002025
S11300D000000000A42B000008B5084B002B03D03F
S11300E00748084900E000BF07480368002B03D015
S11300F0064B002B00D0984708BDC0460000000006
S1130100A42B00007C000020A42B000000000000B1
S11301100C4B1B68002B10D1EFF31083002B09D17B
S113012072B6BFF35F8F0022074B1A700122074B90
S11301301A7002E00022054B1A70024B1A68013251
S11301401A607047940000200000002098000020EE
S1130150084B1A68013A1A601B68002B09D1064B38
S11301601B78002B05D00122044B1A70BFF35F8F5C
S113017062B6704794000020980000200000002020
S1130180F0B583B001AC012565700027A770257018
S11301903E20211C064EB0478022D205054B9A61B1
S11301A0277065700F20211CB04703B0F0BDC04616
S11301B0B90100008044004100B583B001AB802246
S11301C01A700A785A704A789A708A78DA70191C08
S11301D0014B984703B000BD4D140000016807228D
S11301E0CB691A42FCD17047F0B5474680B482B05F
S11301F0071C0C1C151C3960081C5D4B9847061C19
S11302005C4B196A821C01209040021C0A431A624A
S113021001A92B7B0B701436F6B2301C564B984751
S1130220301C564B9847287B0021554B9847236830
S11302301C20990700D597E023680520DA0700D52C
S113024092E0142323603C68201C494B9847804665
S1130250802369460B7000234B7001228A70CB7097
S1130260E8692E6A002803D1201C0021454B9847D9
S11302706A46107002226B465A70030CD8B2694663
S1130280414B9847002E04D1201C01213D4B984737
S1130290061C69460E7002234B70360CF0B23A4BC2
S11302A09847AB8AFB80EB8A3B812A7E8023002A15
S11302B004D1364B9B789B07DB0FDB012A69002AAC
S11302C000D01343AA6813432422AA5C002A02D054
S11302D08022D2051343AA6A002A00D013432C2299
S11302E0AA5C002A02D08022120513432D22AA5CA4
S11302F0002A02D08022120413432E22AA5C002A70
S113030002D08022D2031343226813432360802344
S11303105B00636046461436F6B2301C1C4B9847AB
S1130320FA21C9002B6859434B1E1818194B9847DA
S1130330471FFF2F0DD8301C154B98476B68FA21C7
S1130340C90059434B1E1818124B98470138FF280F
S113035001D9402008E00004FF231B041840FF23B8
S11303601F400743E760002002B004BC9046F0BD84
S1130370D10800000004004071130000E5120000E1
S1130380F9060000490700004D1400000020004158
S11303908D130000B518000003681A7E910706D576
S11303A002221A765B8B9A070BD541200CE05A8BFC
S11303B0510708D55968C02292020A435A6018208E
S11303C002E0002000E000207047C04630B502681B
S11303D000230124022504E001339BB201899942E0
S11303E007D9117E214206D1117E2942F4D0002082
S11303F002E0122000E0002030BDC04610B50468C1
S113040062688023DB02134363606162024B984796
S11304100123237610BDC046CD030000F0B55F462E
S113042056464D464446F0B483B0061C0F1C05687E
S11304304C88324B98477B7A002B03D0B97A301C16
S11304402F4B98476A682F4B13406B603B7A002B05
S113045009D07A7A92033B885B001343802212020C
S113046013436B6205E07A7A92033B885B00134383
S11304706B62301C244B9847031C002B36D1301C74
S1130480224B98470190002830D1A0460024202315
S113049099461A4A93461C4B9A4611E06B8B4A467E
S11304A0134222D0301CD8477B681A5D2823EA54B3
S11304B0301CD047002806D16B8B01345A0704D472
S11304C04445EBD103E0019001E01E230193B37A8C
S11304D00198002B0AD0301C084B98476A68C02347
S11304E09B0213436B60019800E0412003B03CBCC5
S11304F090469946A246AB46F0BDC046DD010000D9
S1130500FD030000FFFFFBFFCD0300009903000083
S113051008B501238372014B984708BD1D040000F0
S113052010B5031C4908402099420CD30024C91A71
S1130530601C80B28B4201D8041CF8E74020FF2CD9
S113054001D81480002010BDF0B55F4656464D46D4
S11305504446F0B487B0061C0D1C049210AA10780F
S1130560321C424340248A4200D9B3E0002B4BD1D1
S11305700021321C5E4CA04783462E1C002700201D
S11305800021002200233F24A4460125A84602900E
S113059003916146203903D440468840814605E0F2
S11305A0202165464C1B4046E04081464146644656
S11305B0A1408A46101C191C80185941021C0B1CAE
S11305C05D464C46254202D0424602430B1C9F42E4
S11305D00CD801D1964209D8921BBB415046029DCA
S11305E028434946039C2143029003916546013DFB
S11305F0AC46CED2029803993C4B3B4A121A8B412B
S1130600120C1B041A4362E00022012B5FD14F0F2E
S1130610B946CD00AB460021321C0023344CA04720
S1130620061C0F1C00230125029603979A46504688
S1130630C0B2059000218846002200233F24271CD5
S1130640203F03D42E1CBE40019604E02020071B4B
S1130650291CF94001912E1CA6400096101C191C5F
S113066080185941021C0B1C5F463740BC46019E52
S11306704F463E4067463E4302D02A1C02430B1CB1
S1130680039898420BD802D10299914207D8029E4E
S1130690039F921BBB41474600980743B846013C61
S11306A0CDD2414652468B1ADB08124CA34208D9DC
S11306B0059A0132D2B205920126B2445746082F58
S11306C0B5D140240598082804D042031A43049C59
S11306D022800024201C07B03CBC90469946A246C8
S11306E0AB46F0BDC046C04600000000010000005B
S11306F055190000FF1F000010B582B0041C0F4BF9
S11307001B78002B01D000290DD001A90C701320F7
S11307100B4B984713200B4B9847084B5C700122F6
S11307201A70002007E0054B5A781D20141B621E26
S113073094416442204002B010BDC0469C00002099
S113074071130000E5120000444B984233D006D8E0
S1130750434B98420DD0434B98421BD06FE0424B21
S113076098424AD0414B984258D0414B984266D166
S113077032E0012965D0002904D0022906D00329DA
S113078006D001E03B4867E0002065E03A4863E0BA
S11307903A4861E0012956D0002904D0022906D044
S11307A0032906D001E0032056E0002054E0344839
S11307B052E0344850E0012947D0002904D00229EE
S11307C006D0032906D001E02F4845E0002043E08D
S11307D02E4841E02E483FE0012938D0002904D0BA
S11307E0022906D0032906D001E02A4834E000207B
S11307F032E0294830E029482EE0012929D0002997
S113080004D0022906D0032906D001E0244823E0BD
S1130810002021E023481FE023481DE001291AD0CD
S1130820002904D0022906D0032906D001E01F487C
S113083012E0002010E01E480EE01E480CE00020EC
S11308400AE01D4808E01D4806E01D4804E01D4874
S113085002E01D4800E01D487047C04600100042F9
S113086000080042000C004200180042001C004234
S11308700014004203000400030006000300070004
S113088003001E0003001F000300080003000A0009
S113089003000B0003001000030012000300130008
S11308A003000C0003000E0003000F0003001600F9
S11308B003001800030019000300050003000100F1
S11308C0030009000300110003000D0003001700DA
S11308D070B586B00C4A6B4670CA70C332CA32C354
S11308E0009E864206D001239A00694652588242ED
S11308F003D100E00023D8B203E00133062BF3D187
S1130900002006B070BDC046E42900007047C04610
S1130910F0B50A4B1B78002B0CD1094F094E0A4D38
S11309200024DE515A1914600433182BF9D1012222
S1130930024B1A708000024BC150F0BDA000002091
S1130940A40000200D0900001401002010B582B09D
S1130950041C684605490622054B9847201C054B94
S113096098476B46185602B010BDC046FC290000DB
S1130970E5190000D108000008B5024B1B680020EF
S1130980984708BDA400002008B5024B5B6801200D
S1130990984708BDA400002008B5024B9B680220BC
S11309A0984708BDA400002008B5024BDB6803206B
S11309B0984708BDA400002008B5024B1B69042019
S11309C0984708BDA400002008B5024B5B690520C8
S11309D0984708BDA4000020F0B55F4656464D4632
S11309E04446F0B491B0051C0C1C161C2960081C6C
S11309F0AD4B9847021C23680520D90700D54BE16D
S1130A0023681C209F0700D546E1A84B186A911C57
S1130A1001278F40391C014319620FA92D27F35D6B
S1130A200B701432D2B29046101CA14B984740462A
S1130A30A04B9847F05D00219F4B9847F37A6B7168
S1130A402423F35CAB712523F35CEB71F37E2B72EF
S1130A50337F6B7229688846081C934B984714307F
S1130A6000226B46DA84328A02928023DB019A42A6
S1130A7021D08023DB019A4204D880239B019A422F
S1130A8011D008E0C023DB01029F9F420FD08023D6
S1130A901B029F4203D01027069700270EE003276E
S1130AA0069700270AE010270697012706E0082783
S1130AB00697012702E0082706970027316803916B
S1130AC0F268914673690493317E8A462623F35C67
S1130AD09B467368002B13D08022520593422ED17B
S1130AE02723F35C002B2ED1376AC0B2734B98478F
S1130AF0011C381C6A462632714B9847031C1FE0C0
S1130B002723F35C002B0AD0069A0092306AB16A5C
S1130B106A4626323B1C6B4FB847031C10E0316A0F
S1130B200791C0B2654B9847011C069A009207983A
S1130B306A4626323B1C634FB847031C00E000237F
S1130B40181E00D0A8E0737E002B02D0B37E41466D
S1130B508B732A68029FD369002BFCD102976B46E2
S1130B6026331B88424693814B46039F3B43049F95
S1130B703B4371680B43029F1F43524613021F43BA
S1130B8059464B071F432723F35C002B01D1042351
S1130B901F43717E8902337F5B021943F27AB37A71
S1130BA013431943737F1B0219432423F35C5B042F
S1130BB019432523F35C1B0419433389FF2B0BD002
S1130BC0F27E002A03D0A022D204174302E080223E
S1130BD052041743194305E0F37E002B02D080230F
S1130BE0DB041F432C23F35C002B03D1364B9B788F
S1130BF09A0701D580231F432A68D369002BFCD1AF
S1130C00434659602A68D369002BFCD141460F60E2
S1130C100EAB80221A7000225A70DA709A70326B0E
S1130C200A92736B0B93B76B0C97F66B0D960027B8
S1130C300EAEF9B2BB000AAA9858002802D1201CB3
S1130C40224A9047431C05D03070000CC0B2311CBE
S1130C501F4A90470137042FEBD10023EB602B612F
S1130C606B61AB61EB612B62AB626B620022EB8563
S1130C70AB853023EA543123EA543223EA54332334
S1130C80EA542868084B9847041C1249124B9847A9
S1130C90A400124BE550002011B03CBC904699468C
S1130CA0A246AB46F0BDC046D10800000004004097
S1130CB071130000E5120000F90600008D13000016
S1130CC021050000490500000020004149070000FB
S1130CD04D140000850D00001109000014010020CE
S1130CE010B5021C0368C4791C20002C0DD0D28DD1
S1130CF092B20520002A08D1DA69002AFCD11985AC
S1130D0002211A7E0A42FCD0002010BD10B5031C3B
S1130D10046882791C20002A33D09B8D9BB2052065
S1130D20002B2ED1237E5A072BD5E369002BFCD14F
S1130D30638BDBB29A0621D09A0703D5022363831F
S1130D401A201EE05A0703D5042363831E2018E0EB
S1130D50DA0703D501236383132012E0DA0605D5ED
S1130D60628B10231343638342200AE09A0605D55D
S1130D70628B202313436383412002E0238D0B8085
S1130D80002010BDF8B58000644BC5582C68E36999
S1130D90002BFCD1237EA67D1E403123EB5C302248
S1130DA0AF5C1F40F10720D5EB8D9BB2002B1AD00E
S1130DB0AB6A1A78D2B2591CA9626979012904D1A3
S1130DC0597809020A430233AB62D305DB0D23854C
S1130DD0EB8D013B9BB2EB85002B06D101232375E0
S1130DE00223A37501E001232375B20709D5022369
S1130DF0237500223323EA54FB0702D5281CE96833
S1130E00884772076AD5AB8D9BB2002B64D0638B85
S1130E10DBB2190702D43F22134001E0372213400A
S1130E20002B37D09A0707D51A223223EA54628B53
S1130E3002231343638327E0590707D51E22322375
S1130E40EA54628B0423134363831DE0DA0707D556
S1130E5013223223EA54628B01231343638313E086
S1130E60D90607D542223223EA54628B1023134356
S1130E70638309E020221A4206D041223223EA5435
S1130E80628B2023134363837A0727D5281C6B695D
S1130E90984723E0228DD205D20DD3B2696A0B7034
S1130EA06B6A591C69626979012904D1120A5A7062
S1130EB06B6A01336B62AB8D013B9BB2AB85002B3C
S1130EC00CD10423237500223223EA54BA0705D532
S1130ED0281C2B69984701E004232375F10607D5E4
S1130EE0102323752376FA0602D5281CEB6998474C
S1130EF0B10607D52023237523763A0702D5281C8B
S1130F00AB699847310707D5082323752376BA06BA
S1130F1002D52B6A281C9847F8BDC046140100204E
S1130F2008B5082834D880001B4B1B589F468020E6
S1130F30000230E0194B18692DE0194B186A80053E
S1130F40800F184BC340181C25E0144B586922E04D
S1130F50124B1B68022018401DD011491022CB6887
S1130F601A42FCD00D4B1B685A0713D500200E4BB8
S1130F7098470A4B9B681B041B0C58430BE05023F7
S1130F80074AD35C00205A0705D5044BD86802E011
S1130F90002000E0054808BD042A0000BC00002031
S1130FA00008004000127A008D130000006CDC027F
S1130FB070B50C4B1C6A017885784078012210408A
S1130FC080014026B44304432A40D0018022944344
S1130FD0221C0243032001400902034802400A4341
S1130FE01A6270BD00080040FFFCFFFF082843D8C8
S1130FF08000224B1B589F4600203EE0204B196A7C
S113100002220A431A62002037E01D4B996902222A
S11310100A439A61002030E0194B198A02220A43DC
S11310201A82002029E0164B998A02220A439A82E6
S1131030002022E0134B196802220A431A601A683E
S1131040114B1A400E4B9A84191C1022CB681A4279
S1131050FCD00C4A91680A4BD962516899621268B3
S113106092B29A84002008E0054A4423D05C02210D
S11310700143D154002000E017207047282A0000C3
S113108000080040BC0000207FFF0000F0B585B0E0
S1131090C222D200204B9A60204B5A681E218A43F8
S11310A05A6002236A46137000241D4DE0B269465B
S11310B0A8470134252CF9D103A800244470012544
S11310C085700470174B98470620174B9847174BA9
S11310D0984701956B465C701C725C7204236A46E7
S11310E0137001206946124FB8470120114EB047D2
S11310F0114B1C725C729C7201956B465C700623EA
S11311006A4613701472547200206946B84700206E
S1131110B04705B0F0BDC0460008004000400041A3
S113112071130000B10F0000ED0F00003D1100002D
S1131130611100001512000000040040064B99697B
S113114008220A439A610122044B1A70191C0B7875
S11311501342FCD17047C04600040040000C00401C
S1131160F8B5061C071C0D782D0205434B78002B9F
S113117002D08023DB021D434B7A002B02D0802354
S11311801B031D434C68012C17D9631E1C420FD14D
S1131190022C06D90223002201325B009C42FBD8B8
S11311A000E000221702374380235B031D4304E061
S11311B02702374380239B021D430B7A002B02D066
S11311C080239B031D430F4A53785BB2002BFBDB48
S11311D00D4B98470D4B1E700A4A53785BB2002B97
S11311E0FBDB084B9F601A1C53785BB2002BFBDBC4
S11311F0044B5968802252020A4015435D60044B37
S11312009847F8BD000C004011010000080C004094
S11312105101000010B5041C0B4A53785BB2002B3B
S1131220FBDB0A4B98470A4B1C70074A53785BB2A6
S1131230002BFBDB044B5968802252020A435A609C
S1131240044B984710BDC046000C0040110100003B
S1131250040C00405101000070B5041C1A4A537874
S11312605BB2002BFBDB194B9847194B1C70164AD9
S113127053785BB2002BFBDB134E7068C004C00EC6
S1131280144B9847051C124B1C707668F602F60F37
S1131290114B1C700C4A53785BB2002BFBDB0A4BDE
S11312A09C68240AA4B20D4B9847002E07D1012C48
S11312B007D9281C211C0A4B9847051C01E001345E
S11312C0E540281C70BDC046000C00401101000020
S11312D0040C0040210F0000080C004051010000E4
S11312E0B518000010B5041C064B9847064B1C703B
S11312F0064B59888022D2010A435A80044B9847EE
S113130010BDC04611010000020C0040000C00405A
S11313105101000010B5041C0F4B98470F4B1C7073
S11313200F4B58880005000F59880E4A0A405A800E
S113133059880D4A0A405A80191C8022D2014B88D0
S11313401342FCD1064B01025888064A02400A4364
S11313505A80064B984710BD11010000020C004052
S1131360000C0040FFF0FFFFFFBFFFFF5101000032
S113137010B50C7824020443024B9847A4B2024BE4
S11313805C8010BD15130000000C004010B5041C57
S1131390064B9847064B1C70064B5C882405240FAB
S11313A0054B9847201C054B984710BD11010000C0
S11313B0020C0040000C00405101000059120000D2
S11313C030B5D378002B1ED11378802B04D01B06A4
S11313D080246402234300E0002354780225AC43B4
S11313E00AD19478002C03D18024A402234302E080
S11313F0C024E402234341605478013C012C04D806
S1131400114C234001E0416000230D042D0CA02465
S1131410E4052C431C4384620D0CD02424062C4385
S11314201C438462D478002C0CD15C0305D59378DA
S1131430012B01D1816100E041615378013B012B13
S113144000D8816030BDC046FFFFFBFF08B5031C18
S11314500A1CC1090020002903D15809C00104490C
S113146040181F210B4001219940024B984708BDA9
S113147000440041C11300007047C04608B5044B46
S11314809847044B9847044B9847044B984708BD2A
S11314908D1000008101000079140000791400000F
S11314A0FEE7C04670B5022190235B00284AD15064
S11314B0284BD8780321884302221043D870DD7862
S11314C00C24A54308200543DD70234B9E7B302567
S11314D0AE43202535439D739D7BA54328439873D4
S11314E0987B884302439A731C4B1D4A9A4203D04B
S11314F01C4B1A4A9A4204D31B4B1C4A9A4210D3DF
S11315001BE01B4B17480330C01A800801308000D1
S113151000231249124AD458CC5004338342FAD1DE
S1131520EAE7124B1A1D10490331891A8908890008
S11315305218002102C39342FCD10E4B7F210E4A64
S11315408A439A600D4B98470D4B9847FEE7C04677
S1131550007000410050004100480041000000209C
S1131560A42B00007800002048010020780000200F
S11315700400002000ED00E00000000099190000C4
S11315806D170000F0B5474680B40C1C9046002847
S11315900CD1002A0DDD8F18094E0A4D3068211C2C
S11315A02B6898470134BC42F8D104E00120404242
S11315B002E0002000E0404604BC9046F0BDC04676
S11315C0340100202C010020F0B5474680B40E1CE5
S11315D0151C0138022810D8002A11D000240D4B04
S11315E098460D4F43461868315D3B68984700287C
S11315F008DB0134A542F5D107E00120404205E0B3
S1131600002003E00120404200E0201C04BC90467E
S1131610F0BDC0463401002030010020064B1B6899
S1131620002B02D1054A044B1A60034A13681818A8
S11316301060181C7047C046D400002048210020C8
S1131640012040427047C04680239B014B6000202C
S11316507047C046012070470020704770B582B0C3
S1131660051C0E1C00226B46DA80064C281C6946B9
S11316700631A0470028F9D16B4606331B88337026
S113168002B070BD0D0D000070B5061C0D1C034C9E
S1131690301C291CA0470028FAD170BDE10C0000C1
S11316A010B58CB0642300931C4B01930023029368
S11316B069460B730B7680229203049201225242F4
S11316C08A820793089324228B540A932C228B54E6
S11316D02D228B542E228B54114B6A46CB82114CF3
S11316E0201C1149114B984722680721D3691942DC
S11316F0FCD1116802230B4313600A4BDC880023DE
S1131700102005E00133A34202D31023538302E0E7
S1131710518B0142F6D00CB010BDC046480D0000FC
S1131720102700003801002000080042E9010000F1
S1131730F8B5071C084C094E094D07E0013CA4B25A
S1131740002C03D10748084B984704E0301C391C8F
S1131750A8470028F2D1F8BDE903000038010020B1
S1131760110500007C2A0000011B0000F0B595B0B3
S1131770384B984701AA8023DB050193002353606B
S1131780FF21118100219372D37201262420165463
S113179025201654262013542720135493622C20FA
S11317A013542D20135453611382D3761176117779
S11317B0517613239376517780235B03D360264BB2
S11317C01363264B536301235B429363D3639623D2
S11317D01B021362224C234B1C602349234B1960C8
S11317E02349244B1960201C2349244B9847244F38
S11317F03B6898680021234DA8473B68586800213E
S1131800A8472568281C204B98471F23184086406A
S11318101E4B1E602268D369002BFCD12A68022368
S113182013432B601A481B4CA0471B4B98471B487B
S1131830A04711AC1A4B221C23CB23C219481A4DC2
S1131840A847201C194B98471948A847002015B0F1
S1131850F0BDC0467D14000002001600020017000F
S1131860D800002034010020891600003001002037
S11318705D1600002C01002000140042D90900006C
S113188074000020151B00004D09000000E100E079
S1131890942A0000091A0000A1160000A42A0000DE
S11318A04C2A0000B82A0000011B00003117000078
S11318B0D42A0000002934D00123002210B4884225
S11318C02CD301242407A14204D2814202D209016B
S11318D01B01F8E7E400A14204D2814202D249008C
S11318E05B00F8E7884201D3401A1A434C08A0422F
S11318F002D3001B5C0822438C08A04202D3001BC5
S11319009C082243CC08A04202D3001BDC082243DB
S1131910002803D01B0901D00909E3E7101C10BCFF
S11319207047002801D00020C04307B4024802A138
S11319304018029003BDC046190000000029F0D0F1
S113194003B5FFF7B9FF0EBC4243891A1847C046D6
S11319507047C0469C460304F0B51B0C17043F0CAB
S1131960150C1E1C041C000C7E436B43474345436B
S1131970FB18300C1818874202D980235B02ED183B
S1131980030CED1863465C434A433604360CA11835
S1131990000480194919F0BD70B50E4B0E4D00249A
S11319A0ED1AAD101E1CAC4204D0A300F3589847A6
S11319B00134F8E701F0E6F8084B094D0024ED1A6C
S11319C0AD101E1CAC4204D0A300F3589847013458
S11319D0F8E770BD902B0000902B0000902B0000C6
S11319E0942B000010B50023934203D0CC5CC45464
S11319F00133F9E710BD031C8218934202D0197019
S1131A000133FAE7704700000FB40B4B13B51C68A1
S1131A10002C05D0A369002B02D1201C00F098FDF6
S1131A2005ABA168201C049A019300F02BF916BCA5
S1131A3008BC04B01847C0467400002070B5051CEB
S1131A400E1C002804D08269002A01D100F080FD18
S1131A50AC68A3891A0702D52369002B19D1281C65
S1131A60211C00F0F9FB002813D00120404245E07E
S1131A703178002B1BDAA269934211DA281C221C4C
S1131A8000F092FB013043425841C0B20028ECD12F
S1131A900136A3683278013BA360002AE8D10CE048
S1131AA023681970236819780A2903D1E6E72268A4
S1131AB01170236801332360EAE7002B17DAA26967
S1131AC0934208DB22680A231370236819780A29D1
S1131AD011D1281C01E0281C0A21221C00F064FBFF
S1131AE0013043425841C0B2002806D0BDE7226805
S1131AF00A2313702368013323600A2070BD000099
S1131B0008B5034B011C1868FFF798FF08BDC046D1
S1131B107400002008B54A424A4180235200DB0089
S1131B2000F002F808BD0000F7B51E1C3C4B041C75
S1131B301D680F1C0192002D05D0AA69002A02D14C
S1131B40281C00F005FD374B9C4201D16C6808E06D
S1131B50354B9C4201D1AC6803E0344B9C4200D12C
S1131B60EC68019B022B57D8002E55DB281C211C46
S1131B7000F06EFC00236360A361A3891A0603D5F9
S1131B80281C216900F0BAFDA38983229343A38111
S1131B90019B022B13D0002F25D1002E01D18026CA
S1131BA0F600301C00F094FD071E18D18020C00000
S1131BB000F08EFD071E10D10120404200E00020FD
S1131BC0A38902221343A3810023A360231C473368
S1131BD0236023610123636120E08026F600A3894A
S1131BE080221343A381019A012A04D1A3891343B8
S1131BF0A3817342A3610E4B0020AB62A3892760CB
S1131C00276166611A0709D5032213405A425341DA
S1131C105B421E40A66001E001204042FEBDC0467A
S1131C2074000020242B0000442B0000642B0000CF
S1131C30A9240000936810B5013B9360002B05DADA
S1131C409469A34208DBCBB20A2B05D01368581C55
S1131C5010601970C8B201E000F0A6FA10BDF8B522
S1131C60061C0F1C141CD518AC4208D02178301C5B
S1131C703A1CFFF7DFFF0134431CF5D100E00020DC
S1131C80F8BD0000F0B59FB0061C0F1C039205932D
S1131C90002804D08169002901D100F059FC754B5A
S1131CA09F4201D1776808E0734B9F4201D1B76826
S1131CB003E0724B9F4200D1F768BB891A070AD52B
S1131CC03B69002B07D006AD00236B6120236B76A4
S1131CD03023AB763BE0301C391C00F0BDFA002801
S1131CE0F1D001204042C2E0059A111D126805910D
S1131CF0002A76DB0992013423782E2B00D181E06F
S1131D0021785F48032200F0EDFC002807D05C49ED
S1131D102A68431A402098401043286001342178EF
S1131D20631C584806220393297600F0DBFC002844
S1131D3000D18AE0544B002B7ED1059B0722073348
S1131D409343083305936A69049953186B61039CA0
S1131D502378002B04D10399611A029110D003E077
S1131D60252BF8D00134F3E7301C391C039A029B6D
S1131D70FFF775FF013075D06A69029953186B61DA
S1131D802378002B6ED0012252426A606A460023F7
S1131D905B3201342B60EB60AB601370AB65217870
S1131DA03A48052200F09EFC002808D0374A013446
S1131DB0831A012098402B6818432860EFE72B68AA
S1131DC0D90603D56A4620215B3211701A0703D560
S1131DD06A462B215B32117022782A2A84D0099B0F
S1131DE005E05242EA60022213432B6083E7227823
S1131DF0303A092A04D80A214B4301349B18F6E7E8
S1131E00099379E763782A2B09D1059B02341A1DBB
S1131E101B680592002B0DDA01235B420AE00134B2
S1131E2000232278303A092A04D80A214B4301348A
S1131E309B18F6E7079363E705AB0093301C291C56
S1131E403A1C134B00E000BF07E005AB0093301CC5
S1131E50291C3A1C0E4B00F091F8049004990131AE
S1131E6000D070E7BB895A0600D53AE70B981FB03B
S1131E70F0BDC046242B0000442B0000642B00005E
S1131E80F62A0000FA2A000000000000F02A0000F0
S1131E905F1C0000F7B5151C01930A698B68061CCA
S1131EA00C1C934200DA131C221C2B604332127860
S1131EB0002A01D001332B602068800602D52B68EC
S1131EC002332B60216806270F401FD0231C4333A5
S1131ED01B785A1E9341226892061FD5E11840319F
S1131EE03020C870211C5A1C45310978A218403290
S1131EF00233D17012E0221C301C019919320123E3
S1131F00089FB847013011D0009F01370097E0685F
S1131F102968009F431A9F42EDDBD7E7221C301C3F
S1131F2001994332089FB847013002D10120404251
S1131F3023E0206806212B68E2680140002504297B
S1131F4003D1D51AEB43DB171D40A26823699A42DB
S1131F5001DDD31AED1800270097009FAF420BDA7A
S1131F60221C301C01991A320123089FB847013002
S1131F70DCD0009F0137EFE70020FEBDF0B50D1C5B
S1131F808BB0433506920590079304950B7E0C1C89
S1131F90109A6E2B00D1A7E011D8632B22D009D858
S1131FA0002B00D1B0E0582B00D0C0E045310B70BD
S1131FB07B4D4EE0642B1CD0692B1AD0B7E0732BF9
S1131FC000D1A5E009D86F2B29D0702B00D0AEE04A
S1131FD00E68202333430B6036E0752B1FD0782B1B
S1131FE032D0A4E013680D1C191D423511601B6822
S1131FF09FE0216813680E0603D5191D11601E6841
S113200005E04806F9D5191D116000215E5E644B98
S1132010002E3BDA049D2D2276422A7036E0216898
S113202013680E0603D5191D11601E6804E04806E6
S1132030F9D5191D1E881160594B227E0393082778
S11320406F2A1ED00A271CE0231C78214533554DE6
S1132050197011682368081D039510601E0601D5C8
S11320600E6802E05806FBD50E88D90702D5202257
S1132070134323601027002E03D1226820239A43A0
S11320802260231C002243331A7001E003930A27C1
S11320906368A360002B03DB256804229543256055
S11320A0002E02D1049D002B0ED0049D301C391C3F
S11320B0FFF744FC0398013D435C301C2B70391C32
S11320C0FFF7F8FB061EF1D1082F09D12168C907D3
S11320D006D5626823699A4202DC013D30232B70E5
S11320E0049E731B23612AE0086813684969050686
S11320F004D5181D10601B68196005E04606F8D564
S1132100181D10601B68198000232361049D16E0CC
S11321101368191D11601D68281C00F0E9FB636831
S11321202061984200D923612069606004E0251C85
S113213042352B7001232361049E00233370079ED4
S113214005980096211C09AA069BFFF7A3FE0130FF
S113215002D10120404221E02A1C059806992369F6
S1132160079DA8470130F4D02668B60705D4099B1B
S1132170E068984212DA181C10E00025E06809991A
S1132180431A9D42F3DA221C059806991932012359
S1132190079EB0470130DCD00135EFE70BB0F0BD4E
S11321A0012B0000122B000070B5051C0E1C141C22
S11321B0002804D08269002A01D100F0C9F9234B18
S11321C09C4201D16C6808E0214B9C4201D1AC686F
S11321D003E0204B9C4200D1EC68A369A360A3896F
S11321E01A070AD52369002B07D022682369F6B29F
S11321F0D01A626990420FDB08E0281C211C00F011
S11322002BF80028F1D0012040421DE0281C211C9D
S113221000F01EF90028F6D1A3680130013BA36049
S113222023685A1C22601E706369984205D0A389F2
S1132230301CDA0708D50A2E06D1281C211C00F010
S113224007F90028DFD1301C70BDC046242B0000E4
S1132250442B0000642B0000344B70B51D68061C31
S11322600C1C002D05D0A969002902D1281C00F0FE
S11322706FF92F4B9C4201D16C6808E02D4B9C42B6
S113228001D1AC6803E02C4B9C4200D1EC68A289DC
S113229093B2190721D4D90605D409233360402306
S11322A01A43A2813FE05A0713D5616B002908D075
S11322B0231C4433994202D0301C00F01FFA00233F
S11322C06363A38924229343A38100236360236966
S11322D02360A38908221343A381216900290BD118
S11322E0A389A02292001A4080239B009A4203D023
S11322F0301C211C00F09CF9A38901221A4005D04E
S113230061690022A2604A42A26103E0990700D4F5
S11323106269A26022690020824206D1190604D5AE
S113232040221343A3810120404270BD7400002069
S1132330242B0000442B0000642B0000F7B58B898C
S1132340051C0C1C19075ED46268002A02DC276C89
S1132350002F1ADDE76A002F17D000222E682A60AA
S1132360802252011A4001D0626D15E0281C216AB6
S11323700123B847021C411C0ED12B68002B0BD043
S11323801D2B01D0162B02D12E6000205EE0A38904
S113239040210B43A38159E0A3895F0706D56168F7
S11323A0636B521A002B01D0276CD21B281C216AA4
S11323B00023E76AB847A289411C06D12B68002B89
S11323C003D01D2B01D0162B19D100236360236980
S11323D02360D70405D5411C02D12A68002A00D104
S11323E06065616B2E600029CFD0231C4433994271
S11323F002D0281C00F082F90020606326E040230C
S11324001A43A28122E02669002EBED0276800224A
S1132410BF1B01972660990700D16269A260019FE2
S1132420002FB2DD281C216A321C019BA76AB84721
S1132430002806DCA389402213430120A3814042E3
S113244004E0019F36183F1A0197E8E7FEBD00003B
S11324500A6938B5051C0C1C002A01D100201CE0B7
S1132460002804D08369002B01D100F071F80B4BD4
S11324709C4201D16C6808E0094B9C4201D1AC68D4
S113248003E0084B9C4200D1EC680C22A35E002BB5
S1132490E4D0281C211CFFF751FF38BD242B000079
S11324A0442B0000642B0000F8B5041C071C4834BE
S11324B0002C12D0A5686668013E0CD4AB89012BB0
S11324C007D90E22AB5E013303D0381C291CFFF759
S11324D0BFFF6835F0E72468EAE7F8BD002310B5CC
S11324E0041C03604360836081814366C28103618D
S11324F043618361191C08225C30FFF77CFA054BA9
S113250024626362044BA362044BE362044B2363BF
S113251010BDC0465928000081280000B9280000D9
S1132520E528000070B54B1E68255D430E1C291C70
S1132530743100F02BF9041E08D0002101604660BC
S11325402A1C0C30A0606832FFF755FA201C70BDBD
S1132550836913B5041C002B27D18364C36403650A
S1132560124B134A1B688262984201D10123836192
S1132570201C00F01FF86060201C00F01BF8A06015
S1132580201C00F017F80421E06000226068FFF7C7
S1132590A5FFA06809210122FFF7A0FFE06812212E
S11325A00222FFF79BFF0123A36113BDEC2A000065
S11325B0A9240000F8B51D4B071C1E68B269002A47
S11325C002D1301CFFF7C4FF4836B4687368013B7E
S11325D005D40C22A55E002D10D06834F7E73368CB
S11325E0002B06D1381C0421FFF79CFF3060002823
S11325F001D03668E9E70C233B6016E001235B4217
S1132600E381201C0123A38165662560A5606560C4
S113261025616561A5615C30291C0822FFF7EBF98F
S11326206563A563A564E564201CF8BDEC2A00007D
S1132630F0B58B8991B0051C0C1C9A0725D40E2388
S1132640C95E002906DAA78980231F400FD000271E
S113265040260EE001AA00F079F90028F3DB029B82
S1132660F0273F02184A1F40BF187B425F41802673
S1132670F600281C311C00F089F800280CD1A3892D
S11326809A051FD402221343A381231C47332360DA
S113269023610123636115E00C4B8022AB62A389A3
S11326A020601343A38120616661002F0AD00E23AA
S11326B0E15E281C00F05CF9002803D0A389012204
S11326C01343A38111B0F0BD00E0FFFFA924000073
S11326D008B5034B011C186800F058F808BDC04643
S11326E074000020C9B28218904204D003788B424F
S11326F002D00130F8E700207047000030B500290F
S113270040D004390B68002B00DAC9181E4A13683C
S1132710141C002B02D14B60116033E099420FD29C
S113272008680A189A4205D113685268C0180860EC
S11327304A6000E04B60216024E08A4203D8131C05
S11327405A68002AF9D11D685C198C420BD10968BA
S1132750691858181960904214D1146852680919FC
S113276019605A600EE08C4202D90C23036009E020
S113277008680C18944203D1146852680019086060
S11327804A60596030BDC0461001002070B5032373
S1132790CD1C9D430835061C0C2D01D20C2501E0EF
S11327A0002D3FDB8D423DD3204B1C681A1C211C9D
S11327B0002913D00868431B0DD40B2B02D90B60DE
S11327C0CC181EE08C4202D1636813601AE048689A
S11327D060600C1C16E00C1C4968E9E7144C206886
S11327E0002803D1301C00F025F82060301C291C7F
S11327F000F020F8431C15D0C41C03239C438442DE
S11328000AD12560201C0B300722231D9043C31AD4
S11328100BD05A42E25008E0211A301C00F00AF8AA
S11328200130EED10C233360002070BD1001002074
S11328300C01002038B5074C0023051C081C23603C
S1132840FEF7ECFE431C03D12368002B00D02B6061
S113285038BDC0464401002038B50C1C0E25495F24
S113286000F0ACF8002803DB626D1318636503E025
S1132870A289024B1340A38138BDC046FFEFFFFF7E
S1132880F8B51E1C8B89051C0C1C171CDA0505D514
S11328900E23C95E0022022300F07CF8A289054BB6
S11328A0281C1340A3810E22A15E331C3A1C00F0A5
S11328B027F8F8BDFFEFFFFF38B50C1C0E25495F64
S11328C000F068F8A389421C03D1054A1340A38190
S11328D004E0802252011343A381606538BDC046E1
S11328E0FFEFFFFF08B50E23C95E00F01DF808BD19
S11328F00023C25C0133002AFBD1581E704700003C
S113290038B5084C051C00202060081C111C1A1C3A
S1132910FEF75AFE431C03D12368002B00D02B6022
S113292038BDC0464401002038B5074C0023051CBF
S1132930081C2360FEF784FE431C03D12368002B8C
S113294000D02B6038BDC0464401002038B5074C88
S11329500023051C081C111C2360FEF775FE431C94
S113296003D12368002B00D02B6038BD4401002024
S113297038B5074C0023051C081C2360FEF76AFECB
S1132980431C03D12368002B00D02B6038BDC04604
S11329904401002038B5084C051C00202060081CA8
S11329A0111C1A1CFEF758FE431C03D12368002B8C
S11329B000D02B6038BDC0464401002038B5084C17
S11329C0051C00202060081C111C1A1CFEF7DAFDEF
S11329D0431C03D12368002B00D02B6038BDC046B4
S11329E04401002000080042000C00420010004294
S11329F00014004200180042001C0042090A0B0C9B
S1132A000D0E0000340F0000900F0000900F000026
S1132A102E0F00002E0F00004A0F00003A0F000096
S1132A20500F00007E0F0000181000007810000006
S1132A3078100000F80F00000A10000026100000B3
S1132A40FC0F000034100000681000000F000300A9
S1132A500C000020000000001E00020010000020F6
S1132A60000000001E00020008000020000000001A
S1132A701E00020004000020000000004932432030
S1132A8077726974652074696D6564206F75742E3E
S1132A900D00000052756E6E696E672E2E2E0A0DA3
S1132AA00000000049324320436F6E666967757207
S1132AB065640A0D00000000676F696E6720746F1B
S1132AC02077726974652064697220636F6D6D612B
S1132AD06E640D0077726F74652064697220636F91
S1132AE06D6D616E640D0000430000001400002051
S1132AF0232D302B2000686C4C00656667454647E3
S1132B000030313233343536373839414243444565
S1132B1046003031323334353637383961626364D4
S1132B2065660000000000000000000000000000D6
S1132B300000000000000000000000000000000091
S1132B400000000000000000000000000000000081
S1132B500000000000000000000000000000000071
S1132B600000000000000000000000000000000061
S1132B700000000000000000000000000000000051
S1132B8000000000F8B5C046F8BC08BC9E4670477B
S1132B90D9000000F8B5C046F8BC08BC9E46704792
S1072BA0B10000007C
S1132BA4010000000201000001A00000AA060000C8
S1132BB40070000000000000242B0000442B0000DF
S1132BC4642B00000000000000000000000000006E
S1132BD400000000E82A00000000000000000000DB
S1132BE400000000000000000000000000000000DD
S1132BF400000000000000000000000000000000CD
S1132C0400000000000000000000000000000000BC
S10B2C14000000001400002080
S90314A543
