S01800004144435F515549434B5F5354415254322E7372656349
S1130000702100201D1600001916000019160000AA
S113001000000000000000000000000000000000DC
S1130020000000000000000000000000191600009D
S1130030000000000000000019160000191600005E
S113004019160000191600001916000019160000F0
S113005019160000191600001916000019160000E0
S113006019160000490B0000590B0000690B000031
S1130070790B0000890B0000990B00001916000091
S113008019160000191600001916000019160000B0
S113009019160000191600001916000019160000A0
S11300A01916000019160000191600001916000090
S11300B010B5064C2378002B07D1054B002B02D03A
S11300C0044800E000BF0123237010BDA0000020FD
S11300D000000000B466000008B5084B002B03D0F4
S11300E00748084900E000BF07480368002B03D015
S11300F0064B002B00D0984708BDC0460000000006
S1130100B4660000A4000020B466000000000000F3
S113011010B5031C4908402099420CD30024C91A85
S1130120601C80B28B4201D8041CF8E74020FF2CED
S113013001D81480002010BDF0B55F4656464D46E8
S11301404446F0B487B0061C0D1C049210AA107823
S1130150321C424340248A4200D9B3E0002B4BD1E5
S11301600021321C5E4CA04783462E1C0027002031
S11301700021002200233F24A4460125A846029022
S113018003916146203903D440468840814605E006
S1130190202165464C1B4046E0408146414664466A
S11301A0A1408A46101C191C80185941021C0B1CC2
S11301B05D464C46254202D0424602430B1C9F42F8
S11301C00CD801D1964209D8921BBB415046029DDE
S11301D028434946039C2143029003916546013D0F
S11301E0AC46CED2029803993C4B3B4A121A8B413F
S11301F0120C1B041A4362E00022012B5FD14F0F43
S1130200B946CD00AB460021321C0023344CA04734
S1130210061C0F1C00230125029603979A4650469C
S1130220C0B2059000218846002200233F24271CE9
S1130230203F03D42E1CBE40019604E02020071B5F
S1130240291CF94001912E1CA6400096101C191C73
S113025080185941021C0B1C5F463740BC46019E66
S11302604F463E4067463E4302D02A1C02430B1CC5
S1130270039898420BD802D10299914207D8029E62
S1130280039F921BBB41474600980743B846013C75
S1130290CDD2414652468B1ADB08124CA34208D9F0
S11302A0059A0132D2B205920126B2445746082F6C
S11302B0B5D140240598082804D042031A43049C6D
S11302C022800024201C07B03CBC90469946A246DC
S11302D0AB46F0BDC046C04600000000010000006F
S11302E0FD430000FF1F000010B582B0041C0F4B3B
S11302F01B78002B01D000290DD001A90C7013200C
S11303000B4B984713200B4B9847084B5C7001220A
S11303101A70002007E0054B5A781D20141B621E3A
S113032094416442204002B010BDC046BC0000208D
S1130330E91400005D140000444B984233D006D801
S1130340434B98420DD0434B98421BD06FE0424B35
S113035098424AD0414B984258D0414B984266D17A
S113036032E0012965D0002904D0022906D00329EE
S113037006D001E03B4867E0002065E03A4863E0CE
S11303803A4861E0012956D0002904D0022906D058
S1130390032906D001E0032056E0002054E034484D
S11303A052E0344850E0012947D0002904D0022902
S11303B006D0032906D001E02F4845E0002043E0A1
S11303C02E4841E02E483FE0012938D0002904D0CE
S11303D0022906D0032906D001E02A4834E000208F
S11303E032E0294830E029482EE0012929D00029AB
S11303F004D0022906D0032906D001E0244823E0D2
S1130400002021E023481FE023481DE001291AD0E1
S1130410002904D0022906D0032906D001E01F4890
S113042012E0002010E01E480EE01E480CE0002000
S11304300AE01D4808E01D4806E01D4804E01D4888
S113044002E01D4800E01D487047C046001000420D
S113045000080042000C004200180042001C004248
S11304600014004203000400030006000300070018
S113047003001E0003001F000300080003000A001D
S113048003000B000300100003001200030013001C
S113049003000C0003000E0003000F00030016000D
S11304A00300180003001900030005000300010005
S11304B0030009000300110003000D0003001700EE
S11304C070B586B00C4A6B4670CA70C332CA32C368
S11304D0009E864206D001239A0069465258824201
S11304E003D100E00023D8B203E00133062BF3D19B
S11304F0002006B070BDC046C4620000F0B5474697
S113050080B40C1C904600280CD1002A0DDD8F18F5
S1130510094E0A4D3068211C2B6898470134BC42AF
S1130520F8D104E00120404202E0002000E040460F
S113053004BC9046F0BDC046440100203C010020AC
S1130540F0B5474680B40E1C151C0138022810D89B
S1130550002A11D000240D4B98460D4F43461868CD
S1130560315D3B689847002808DB0134A542F5D18A
S113057007E00120404205E0002003E00120404262
S113058000E0201C04BC9046F0BDC046440100209D
S113059040010020F0B55F4656464D464446F0B44F
S11305A091B0051C0C1C161C2960081CAD4B984707
S11305B0021C23680520D90700D54BE123681C20C1
S11305C09F0700D546E1A84B186A911C01278F406C
S11305D0391C014319620FA92D27F35D0B701432E6
S11305E0D2B29046101CA14B98474046A04B984766
S11305F0F05D00219F4B9847F37A6B712423F35CE1
S1130600AB712523F35CEB71F37E2B72337F6B723A
S113061029688846081C934B9847143000226B467F
S1130620DA84328A02928023DB019A4221D0802329
S1130630DB019A4204D880239B019A4211D008E03E
S1130640C023DB01029F9F420FD080231B029F42E5
S113065003D01027069700270EE0032706970027EC
S11306600AE010270697012706E0082706970127C6
S113067002E008270697002731680391F268914643
S113068073690493317E8A462623F35C9B46736820
S1130690002B13D08022520593422ED12723F35CE2
S11306A0002B2ED1376AC0B2734B9847011C381CFB
S11306B06A462632714B9847031C1FE02723F35CDC
S11306C0002B0AD0069A0092306AB16A6A46263232
S11306D03B1C6B4FB847031C10E0316A0791C0B252
S11306E0654B9847011C069A009207986A46263281
S11306F03B1C634FB847031C00E00023181E00D0C6
S1130700A8E0737E002B02D0B37E41468B732A6827
S1130710029FD369002BFCD102976B4626331B88BA
S1130720424693814B46039F3B43049F3B4371687E
S11307300B43029F1F43524613021F4359464B0764
S11307401F432723F35C002B01D104231F43717E35
S11307508902337F5B021943F27AB37A1343194354
S1130760737F1B0219432423F35C5B041943252381
S1130770F35C1B0419433389FF2B0BD0F27E002A50
S113078003D0A022D204174302E08022520417436C
S1130790194305E0F37E002B02D08023DB041F43C2
S11307A02C23F35C002B03D1364B9B789A0701D59D
S11307B080231F432A68D369002BFCD14346596028
S11307C02A68D369002BFCD141460F600EAB80220E
S11307D01A7000225A70DA709A70326B0A92736B34
S11307E00B93B76B0C97F66B0D9600270EAEF9B210
S11307F0BB000AAA9858002802D1201C224A90471C
S1130800431C05D03070000CC0B2311C1F4A904705
S11308100137042FEBD10023EB602B616B61AB61DB
S1130820EB612B62AB626B620022EB85AB853023FC
S1130830EA543123EA543223EA543323EA5428682D
S1130840084B9847041C1249124B9847A400124BBA
S1130850E550002011B03CBC90469946A246AB46F8
S1130860F0BDC046C104000000040040E9140000CB
S11308705D140000E90200000515000011010000EC
S1130880390100000020004139030000C5150000B3
S113089041090000E10A00004801002010B5021CD3
S11308A00368C4791C20002C0DD0D28D92B205208F
S11308B0002A08D1DA69002AFCD1198502211A7E9E
S11308C00A42FCD0002010BD10B5031C04688279D4
S11308D01C20002A33D09B8D9BB20520002B2ED1E7
S11308E0237E5A072BD5E369002BFCD1638BDBB243
S11308F09A0621D09A0703D5022363831A201EE0A7
S11309005A0703D5042363831E2018E0DA0703D5AE
S113091001236383132012E0DA0605D5628B1023CA
S11309201343638342200AE09A0605D5628B202391
S113093013436383412002E0238D0B80002010BD0C
S1130940F8B58000644BC5582C68E369002BFCD1D2
S1130950237EA67D1E403123EB5C3022AF5C1F401A
S1130960F10720D5EB8D9BB2002B1AD0AB6A1A7815
S1130970D2B2591CA9626979012904D159780902B2
S11309800A430233AB62D305DB0D2385EB8D013BB8
S11309909BB2EB85002B06D1012323750223A3759B
S11309A001E001232375B20709D502232375002230
S11309B03323EA54FB0702D5281CE96888477207E9
S11309C06AD5AB8D9BB2002B64D0638BDBB2190765
S11309D002D43F22134001E037221340002B37D0CA
S11309E09A0707D51A223223EA54628B022313434F
S11309F0638327E0590707D51E223223EA54628B0A
S1130A000423134363831DE0DA0707D5132232233B
S1130A10EA54628B01231343638313E0D90607D599
S1130A2042223223EA54628B10231343638309E086
S1130A3020221A4206D041223223EA54628B202318
S1130A40134363837A0727D5281C6B69984723E0EF
S1130A50228DD205D20DD3B2696A0B706B6A591C10
S1130A6069626979012904D1120A5A706B6A0133E7
S1130A706B62AB8D013B9BB2AB85002B0CD1042385
S1130A80237500223223EA54BA0705D5281C2B69A2
S1130A90984701E004232375F10607D51023237535
S1130AA02376FA0602D5281CEB699847B10607D5C8
S1130AB02023237523763A0702D5281CAB6998476F
S1130AC0310707D5082323752376BA0602D52B6A86
S1130AD0281C9847F8BDC046480100207047C0460E
S1130AE0F0B50A4B1B78002B0CD1094F094E0A4D67
S1130AF00024DE515A1914600433182BF9D1012251
S1130B00024B1A708000024BC150F0BDC00000209F
S1130B10C4000020DD0A00004801002010B582B0A6
S1130B20041C684605490622054B9847201C054BC2
S1130B3098476B46185602B010BDC046DC620000F0
S1130B40291A0000C104000008B5024B1B680020EC
S1130B50984708BDC400002008B5024B5B6801201B
S1130B60984708BDC400002008B5024B9B680220CA
S1130B70984708BDC400002008B5024BDB68032079
S1130B80984708BDC400002008B5024B1B69042027
S1130B90984708BDC400002008B5024B5B690520D6
S1130BA0984708BDC40000200C4B1B68002B10D1D3
S1130BB0EFF31083002B09D172B6BFF35F8F0022CD
S1130BC0074B1A700122074B1A7002E00022054BF2
S1130BD01A70024B1A6801321A607047DC00002058
S1130BE000000020E0000020084B1A68013A1A6057
S1130BF01B68002B09D1064B1B78002B05D0012262
S1130C00044B1A70BFF35F8F62B67047DC0000209C
S1130C10E000002000000020F0B583B001AC012505
S1130C2065700027A77025703E20211C064EB04732
S1130C308022D205054B9A61277065700F20211C14
S1130C40B04703B0F0BDC04691100000804400419D
S1130C5010B500220023027042700021428001710D
S1130C6003760262C26182600373C0246401C4819A
S1130C70037443748374C37403752A24035543753E
S1130C80837524240355C2840285C1752B23C15462
S1130C902C23C15410BDC046F0B55F4656464D46A0
S1130CA04446F0B499B0061C151C0160B54B186A93
S1130CB08022520202431A620B780520DA0700D51B
S1130CC0D9E10B781C20990700D5D4E16B783371F6
S1130CD0002B04D1AC4B196C04220A431A64326809
S1130CE001922B78684603721E2002A9A74B9847ED
S1130CF01E20A74B98472C23EB5C002B42D02B22C1
S1130D00AC5C297B88460A19D2B2D318DBB2994667
S1130D109A4221D29F4A93469F4B9A460F272740D7
S1130D202B7BFF1804A859465022D047132F0CD808
S1130D30BF0004ABF85803A900234B70CB708B7031
S1130D4001230B70C0B2954A90470134E4B2404687
S1130D500319DBB29945E1D8EC8904A88D495022E6
S1130D608D4B9847132C37D8A40004ABE05803A943
S1130D7000234B70CB708B7001230B70C0B2874B78
S1130D80984729E02C7B04A882495022824B98473B
S1130D90132C0CD8A40004ABE05803A900234B7017
S1130DA0CB708B7001230B70C0B27C4B9847EC89DD
S1130DB004A878495022784B9847132C0CD8A400E7
S1130DC004ABE05803A900234B70CB708B70012354
S1130DD00B70C0B2714B98476B7D9B00DBB20199DD
S1130DE00B70AB7DDB016A781343DBB24B702B795C
S1130DF0342B00D93EE19B00694AD3589F46022216
S1130E00102401231AE06B7C2A7C102416E00622AD
S1130E101024012312E00822102400230EE00022F3
S1130E20302400230AE000222024002306E00022CC
S1130E300024002302E00422102402231B01702159
S1130E400B401343019A9370EB7D17203F2B00D97D
S1130E5011E1D3703268537E5BB2002BFBDBEA7C7A
S1130E606B8813432422AA5CD20013432A7D920088
S1130E701343AA7C520013432343019883802B7E9F
S1130E80002B01D1316895E0102C5BD002D8002CE6
S1130E9038D0F7E7202C19D0302CF3D1EA7C002A83
S1130EA00AD0EA6980321720FF2A00D9E3E02A6ACF
S1130EB08032FF2A00D9DEE01720E969FF2900DD2E
S1130EC0D9E02A6AFF2A00DDD5E0DBE7EA7C002AC4
S1130ED00DD0E8698022920081181720314A91428E
S1130EE000D9C8E0304A296A914200DBC3E01720E8
S1130EF02C4AE969914200DDBDE0296A914200DD96
S1130F00B9E0BFE7EA7C002A11D0EA698020000139
S1130F1011181720254A914200D9ACE02A6A802092
S1130F20000111181720214A914200D9A3E017208B
S1130F301E4AE969914200DD9DE0296A914200DD83
S1130F4099E09FE7EA7C002A11D0EA698020000238
S1130F5011181720164A914200D98CE02A6A802081
S1130F60000211181720124A914200D983E0172079
S1130F700F4AE969914200DD7DE0296A914200DD72
S1130F8079E07FE70004004000080040E914000015
S1130F905D140000B8630000291A0000C5150000A4
S1130FA0E4620000FF03000001FEFFFFFF0F0000EA
S1130FB0FFFF00004A7E52B2002AFBDB019A137243
S1130FC03268537E5BB2002BFBDBAB8B01988383CF
S1130FD03268537E5BB2002BFBDB2B8C01990B84B4
S1130FE02C23EB5C002B04D0013BDBB217200F2B2E
S1130FF041D82B22AA5C17200F2A3CD83168487E9E
S113100040B20028FBDBE889297B0143A86801433F
S113101012050A431B04134301990B612A23EB5C59
S11310200B750F238B752423EB5C002B10D0EB8CFA
S11310301720144A93421ED88B842B8D80200001E4
S1131040191889B217200F4A914214D80199CB84F8
S11310500D4B1A685201E023DB001A400B4B586811
S113106041011B68DB0E0B43DBB2134301990B8573
S1131070002000E0172019B03CBC90469946A246D7
S1131080AB46F0BDFF0F00002460800020608000AC
S113109000B583B001AB80221A700A785A704A787E
S11310A09A708A78DA70191C014B984703B000BD16
S11310B0C515000008B5082834D880001B4B1B5800
S11310C09F468020000230E0194B18692DE0194B2F
S11310D0186A8005800F184BC340181C25E0144B78
S11310E0586922E0124B1B68022018401DD0114998
S11310F01022CB681A42FCD00D4B1B685A0713D53B
S113110000200E4B98470A4B9B681B041B0C58434A
S11311100BE05023074AD35C00205A0705D5044B43
S1131120D86802E0002000E0054808BD086400001B
S1131130E40000200008004000127A0005150000B9
S1131140006CDC0270B50C4B1C6A01788578407821
S11311500122104080014026B44304432A40D001B8
S113116080229443221C02430320014009020348C5
S113117002400A431A6270BD00080040FFFCFFFFF2
S1131180082843D88000224B1B589F4600203EE08D
S1131190204B196A02220A431A62002037E01D4BD1
S11311A0996902220A439A61002030E0194B198A96
S11311B002220A431A82002029E0164B998A02224D
S11311C00A439A82002022E0134B196802220A4340
S11311D01A601A68114B1A400E4B9A84191C10227B
S11311E0CB681A42FCD00C4A91680A4BD962516808
S11311F09962126892B29A84002008E0054A442356
S1131200D05C02210143D154002000E01720704734
S11312102C64000000080040E40000207FFF000070
S113122030B585B0C222D200194B9A60194B5A6866
S11312301E218A435A6001236A4613700024164D06
S1131240E0B26946A8470134252CF9D103A800244B
S11312504470012585700470104B98470620104B8C
S11312609847104B9847104B1C725C729C72019506
S11312706B465C7006236A46137014725472002025
S113128069460A4B98470020094B984705B030BD82
S11312900008004000400041E9140000451100002E
S11312A081110000B512000000040040D9120000B2
S11312B08D130000064B996908220A439A610122A2
S11312C0044B1A70191C0B781342FCD17047C046AA
S11312D000040040000C0040F8B5061C071C0D7803
S11312E02D0205434B78002B02D08023DB021D43E3
S11312F04B7A002B02D080231B031D434C68012C26
S113130017D9631E1C420FD1022C06D902230022D6
S113131001325B009C42FBD800E0002217023743F5
S113132080235B031D4304E02702374380239B0291
S11313301D430B7A002B02D080239B031D430F4ACD
S113134053785BB2002BFBDB0D4B98470D4B1E70A3
S11313500A4A53785BB2002BFBDB084B9F601A1CD4
S113136053785BB2002BFBDB044B5968802252029A
S11313700A4015435D60044B9847F8BD000C0040DB
S1131380A90B0000080C0040E90B000010B5041C78
S11313900B4A53785BB2002BFBDB0A4B98470A4B92
S11313A01C70074A53785BB2002BFBDB044B596873
S11313B0802252020A435A60044B984710BDC0462B
S11313C0000C0040A90B0000040C0040E90B0000D5
S11313D070B5041C1A4A53785BB2002BFBDB194B23
S11313E09847194B1C70164A53785BB2002BFBDBF1
S11313F0134E7068C004C00E144B9847051C124B62
S11314001C707668F602F60F114B1C700C4A537868
S11314105BB2002BFBDB0A4B9C68240AA4B20D4B85
S11314209847002E07D1012C07D9281C211C0A4BF0
S11314309847051C01E00134E540281C70BDC046F6
S1131440000C0040A90B0000040C0040B510000083
S1131450080C0040E90B00002142000010B5041CF8
S1131460064B9847064B1C70064B59888022D201C4
S11314700A435A80044B984710BDC046A90B00008C
S1131480020C0040000C0040E90B000010B5041CE5
S11314900F4B98470F4B1C700F4B58880005000FDB
S11314A059880E4A0A405A8059880D4A0A405A807F
S11314B0191C8022D2014B881342FCD1064B010235
S11314C05888064A02400A435A80064B984710BD82
S11314D0A90B0000020C0040000C0040FFF0FFFFCD
S11314E0FFBFFFFFE90B000010B50C782402044392
S11314F0024B9847A4B2024B5C8010BD8D140000CF
S1131500000C004010B5041C064B9847064B1C7099
S1131510064B5C882405240F054B9847201C054B7B
S1131520984710BDA90B0000020C0040000C0040BD
S1131530E90B0000D113000030B5D378002B1ED185
S11315401378802B04D01B0680246402234300E01C
S1131550002354780225AC430AD19478002C03D19B
S11315608024A402234302E0C024E4022343416014
S11315705478013C012C04D8114C234001E0416013
S113158000230D042D0CA024E4052C431C43846289
S11315900D0CD02424062C431C438462D478002CE4
S11315A00CD15C0305D59378012B01D1816100E056
S11315B041615378013B012B00D8816030BDC046A6
S11315C0FFFFFBFF08B5031C0A1CC109002000290A
S11315D003D15809C001044940181F210B400121BF
S11315E09940024B984708BD00440041391500005A
S11315F07047C04608B5044B9847044B9847044BC2
S11316009847044B984708BD21120000190C0000AC
S1131610F1150000F1150000FEE7C04670B5022187
S113162090235B00284AD150284BD8780321884363
S113163002221043D870DD780C24A543082005430A
S1131640DD70234B9E7B3025AE43202535439D73AF
S11316509D7BA54328439873987B884302439A73E0
S11316601C4B1D4A9A4203D01C4B1A4A9A4204D37B
S11316701B4B1C4A9A4210D31BE01B4B17480330E8
S1131680C01A80080130800000231249124AD4583D
S1131690CC5004338342FAD1EAE7124B1A1D1049A5
S11316A00331891A890889005218002102C3934220
S11316B0FCD10E4B7F210E4A8A439A600D4B98470A
S11316C00D4B9847FEE7C0460070004100500041B2
S11316D00048004100000020B4660000A000002083
S11316E06C010020A00000200400002000ED00E0B8
S11316F000000000DD190000A1180000064B1B6863
S1131700002B02D1054A044B1A60034A13681818C7
S11317101060181C7047C046FC0000207021002097
S1131720012040427047C04680239B014B6000204B
S11317307047C046012070470020704770B582B0E2
S1131740051C0E1C00226B46DA80064C281C6946D8
S11317500631A0470028F9D16B4606331B88337045
S113176002B070BDC908000070B5061C0D1C034C06
S1131770301C291CA0470028FAD170BD9D08000028
S113178010B58CB06846114B9847F0231B050293A3
S113179000236A4653805370082313730023137184
S11317A00B4C201C0B490C4B984723685A7E52B2B1
S11317B0002AFBDB197802220A431A70044B1A68C8
S11317C0537E5BB2002BFBDB0CB010BD510C000050
S11317D06001002000400042990C0000000000005D
S11317E030B583B000900191011E32D04B7E5BB2C4
S11317F0002BFBDB0A7B022313430B734B7E5BB290
S1131800002BFBDB0120042502240A7ED2B2031C38
S11318101340154200D02343144200D02B431842F6
S1131820F3D04B7E5BB2002BFBDB488B80B20123F1
S11318300B760A7ED2B21340540701D50224234307
S1131840940701D5042213435A0704D502230B76C7
S113185001E00D480DE00D4B98470D4B9847074BA1
S1131860054A0C4CA047064A064B0B4CA0470B4BB1
S1131870984703B030BDC046F7F2D0B1626CDF3F89
S11318806B19807823661640000080BF4144000035
S1131890CD600000F9530000E144000071610000D4
S11318A0F0B591B0384B98478023DB0500930023B3
S11318B00193FF226846028100228372C3720126CB
S11318C02421465425214654262143542721435498
S11318D00A932C2143542D21435405930382C37648
S11318E002760277427613238376427780235B0362
S11318F00393264B0C93264B0D9301235B420E93CB
S11319000F9396231B020893224C234B1C60234AFB
S1131910234B1A60234A244B1A60201C23496A462D
S1131920234B9847234F3B6898680021224DA847D2
S11319303B6858680021A8472568281C1F4B984716
S11319401F23184086401E4B1E602268D369002B5B
S1131950FCD12A68022313432B601A4B9847642452
S1131960194D1A4F1A4E28686968B847194B984799
S1131970021C0B1C301C18498847013C002CF2D176
S1131980002011B0F0BDC046F5150000020016009D
S11319900200170000010020440100206917000024
S11319A0400100203D1700003C01002000140042CB
S11319B09505000064000020811A00001D0B000042
S11319C000E100E08117000060010020E117000041
S11319D050640000CD6000004D1A000070B50E4B3D
S11319E00E4D0024ED1AAD101E1CAC4204D0A30011
S11319F0F35898470134F8E704F04CFE084B094DBE
S1131A000024ED1AAD101E1CAC4204D0A300F35800
S1131A1098470134F8E770BDA0660000A066000096
S1131A20A0660000A466000010B50023934203D012
S1131A30CC5CC4540133F9E710BD031C82189342F3
S1131A4002D019700133FAE7704700000FB40B4B52
S1131A5013B51C68002C05D0A369002B02D1201CEF
S1131A6001F060FE05ABA168201C049A019300F00C
S1131A70BFF816BC08BC04B01847C0466400002078
S1131A8008B54A424A4180235200DB0000F002F8C4
S1131A9008BD0000F7B51E1C3C4B041C1D680F1C40
S1131AA00192002D05D0AA69002A02D1281C01F058
S1131AB039FE374B9C4201D16C6808E0354B9C429F
S1131AC001D1AC6803E0344B9C4200D1EC68019B2B
S1131AD0022B57D8002E55DB281C211C01F0A2FD37
S1131AE000236360A361A3891A0603D5281C216916
S1131AF002F0EEF9A38983229343A381019B022B75
S1131B0013D0002F25D1002E01D18026F600301CE1
S1131B1001F0CCFE071E18D18020C00001F0C6FEE3
S1131B20071E10D10120404200E00020A3890222B8
S1131B301343A3810023A360231C47332360236141
S1131B400123636120E08026F600A38980221343E9
S1131B50A381019A012A04D1A3891343A381734267
S1131B60A3610E4B0020AB62A389276027616661E5
S1131B701A0709D5032213405A4253415B421E40BF
S1131B80A66001E001204042FEBDC0466400002082
S1131B90B0640000D0640000F06400007D360000F2
S1131BA0936810B5013B9360002B05DA9469A34256
S1131BB008DBCBB20A2B05D01368581C10601970CF
S1131BC0C8B201E000F072FD10BDF8B5061C0F1C90
S1131BD0141CD518AC4208D02178301C3A1CFFF7ED
S1131BE0DFFF0134431CF5D100E00020F8BD000004
S1131BF0F0B59FB0061C0F1C03920593002804D077
S1131C008169002901D101F08DFD754B9F4201D1FD
S1131C10776808E0734B9F4201D1B76803E0724BC9
S1131C209F4200D1F768BB891A070AD53B69002B8C
S1131C3007D006AD00236B6120236B763023AB768F
S1131C403BE0301C391C00F089FD0028F1D0012054
S1131C504042C2E0059A111D12680591002A76DB04
S1131C600992013423782E2B00D181E021785F483A
S1131C70032201F025FE002807D05C492A68431A94
S1131C80402098401043286001342178631C584850
S1131C9006220393297601F013FE002800D18AE07E
S1131CA0544B002B7ED1059B072207339343083303
S1131CB005936A69049953186B61039C2378002B7C
S1131CC004D10399611A029110D003E0252BF8D0B6
S1131CD00134F3E7301C391C039A029BFFF775FFAC
S1131CE0013075D06A69029953186B612378002B0F
S1131CF06ED0012252426A606A4600235B3201348C
S1131D002B60EB60AB601370AB6521783A48052219
S1131D1001F0D6FD002808D0374A0134831A012087
S1131D2098402B6818432860EFE72B68D90603D541
S1131D306A4620215B3211701A0703D56A462B21AB
S1131D405B32117022782A2A84D0099B05E0524222
S1131D50EA60022213432B6083E72278303A092A8F
S1131D6004D80A214B4301349B18F6E7099379E719
S1131D7063782A2B09D1059B02341A1D1B6805922E
S1131D80002B0DDA01235B420AE0013400232278A0
S1131D90303A092A04D80A214B4301349B18F6E748
S1131DA0079363E705AB0093301C291C3A1C134BC3
S1131DB000F0C6F807E005AB0093301C291C3A1C60
S1131DC00E4B00F05DFB04900499013100D070E7E4
S1131DD0BB895A0600D53AE70B981FB0F0BDC04640
S1131DE0B0640000D0640000F0640000626400008D
S1131DF066640000411F00005C640000CB1B00000F
S1131E00F0B58BB0161C1C1C129904D58022120646
S1131E10A4182D2300E00023149F0B7020239F435C
S1131E20462F08D03A1C453A51424A4110990223A0
S1131E308918109100E003230093139B109A0293D6
S1131E4008AB039309AB01920493321C231C00F0EA
S1131E5083FD051C472F02D11199C9072CD5109970
S1131E6069180791462F14D12B78302B0CD1301CD4
S1131E70211C164B144A02F093FA002804D1109A3C
S1131E80012313999B1A0B60139A07991368C918B5
S1131E900791301C211C0D4B0B4A02F081FA0028DB
S1131EA001D0079A0992099B07998B4204D25A1CC4
S1131EB0099230221A70F6E7099B281C5A1B159BBD
S1131EC01A600BB0F0BDC046000000000000000026
S1131ED0F0B52B2385B0051C0C1C0270861C002950
S1131EE001DA4C422D236B70092C1EDD6F460E3730
S1131EF0201C0A21019702F037FA30313970201C76
S1131F000A2102F0DBF9013F041E092CF0DC019BDD
S1131F103034013B1C706A460F32301C934209D2A4
S1131F201A78013332700136F5E73023E418337040
S1131F30B01C7470401B05B0F0BD00000000000030
S1131F40F0B593B00C1C0A920B93189E051C01F07B
S1131F5059FC00680C9002F0DFF8002310933368FA
S1131F600722073393431A1C08320D90277E186802
S1131F7059683260A064E16402F046F8012819D17E
S1131F80A06CE16CB94BB84A02F010FA002803D0F7
S1131F90231C2D2243331A70472F01D8B44E00E07E
S1131FA0B44E032320682361042398430021206056
S1131FB0099191E0A06CE16C02F026F823680028F6
S1131FC00CD1472F01D8AC4E00E0AC4E0322226165
S1131FD0042293430022236009927DE06268561C28
S1131FE001D1062207E02021381C8843472803D169
S1131FF0002A01D1012262608022D20013432360AF
S113200001936B463B3302930FAB6168039310ABB0
S113201005930023009106930497A26CE36C281C9B
S1132020FFF7EEFE20233A1C061C9A430F99472A19
S113203007D1CB1C02DB606881422EDD023FFFB278
S113204001E0652F12D8201C01393A1C50300F9141
S1132050FFF73EFF109B0990C2182261012B02DC9E
S11320602168C9072FD5013222612CE0662F15D1D2
S11320706368002908DD2161002B02D12268D207A0
S11320801DD50133C91811E0002B03D120680122AA
S1132090104200D09A1C226111E06727109A9142E5
S11320A006DB22682161D20709D50131216106E0EE
S11320B00123002901DC02235B1AD31823610F9B3F
S11320C00020A36509906B463B331B78002B03D09B
S11320D0231C2D2243331A700B99281C009111AA3A
S11320E0211C0A9B00F058F9013002D10120404222
S11320F04CE12268530504D4281C0A99321C236934
S113210067E0652F00D8E0E0A06CE16C574B564ABD
S113211002F046F900282BD0281C0A99584A0123BA
S11321200B9EB0470130E1D00F9F1098874207DB28
S11321302168C90704D42768BF0700D50EE113E15D
S1132140281C0A990C9A0D9B0B9EB0470130CDD0E8
S11321500026109B013B9E42EDDA221C281C0A99A2
S11321601A3201230B9FB8470130BFD00136F0E784
S11321700F98002830DC281C0A99414A01230B9F40
S1132180B8470130B2D00F98002805D11099002922
S113219002D12268D207CED5281C0A990C9A0D9B2D
S11321A00B9FB8470130A1D000270F980997099FCA
S11321B043420A99281C9F4209DA221C1A3201233D
S11321C00B9FB847013091D0099F0137EDE7109B71
S11321D0321C0B9EB047B5E0109FA36D08979F4239
S11321E000DD0893089F002F01DC002714E0281C61
S11321F00A99321C089B0B9FB8470130F5D175E74B
S1132200221C281C0A991A3201230B9FB84701305B
S113221000D16BE7099F01370997089FA36DFA4323
S1132220D2173A40099F9A1A9742E9DB0F981099FE
S1132230F318099388420EDB2268D2070BD4109B53
S11322400F9FF618DB1B099FF61B9E4200DD1E1C28
S1132250002E17DC1FE0281C0A990C9A0D9B0B9F7B
S1132260B8470130EBD141E7000000000000000056
S11322706D640000716400007564000079640000FE
S11322807D640000281C0A99099A331C0B9FB847E7
S1132290013000D12AE700270BE0221C281C0A99F0
S11322A01A3201230B9FB847013000D11EE7099F62
S11322B00137099710980F99F343DB17099F421AC6
S11322C03340D31A9F42E8DB35E71098012802DC3B
S11322D001231A423AD0281C0A99321C01230B9F6D
S11322E0B847013000D101E7281C0A990C9A0D9BCC
S11322F0B847013000D1F9E6A06CE16C254B244AC3
S113230002F04EF8002801D0002610E0109B721C49
S1132310013B281C0A991CE0221C281C0A991A3229
S113232001230B9FB847013000D1DFE60136109B33
S1132330013B9E42F0DB221C281C0A995032099B67
S11323400B9FB847013000D0F5E6CFE60A99281C68
S1132350321C0B9EB0470130EDD1C7E60026E06881
S11323601199431A9E4205DB119BE06898420DDAED
S1132370181C0BE0221C281C0A99193201230B9FFC
S1132380B847013000D1B1E60136E8E713B0F0BD3B
S11323900000000000000000F7B5151C01930A6955
S11323A08B68061C0C1C934200DA131C221C2B6045
S11323B043321278002A01D001332B602068800652
S11323C002D52B6802332B60216806270F401FD0EB
S11323D0231C43331B785A1E9341226892061FD54F
S11323E0E11840313020C870211C5A1C453109784D
S11323F0A21840320233D17012E0221C301C019921
S113240019320123089FB847013011D0009F0137CA
S11324100097E0682968009F431A9F42EDDBD7E7E5
S1132420221C301C01994332089FB847013002D165
S11324300120404223E0206806212B68E268014025
S11324400025042903D1D51AEB43DB171D40A268EC
S113245023699A4201DDD31AED1800270097009FE3
S1132460AF420BDA221C301C01991A320123089F57
S1132470B8470130DCD0009F0137EFE70020FEBDF4
S1132480F0B50D1C8BB04335069205900793049567
S11324900B7E0C1C109A6E2B00D1A7E011D8632B75
S11324A022D009D8002B00D1B0E0582B00D0C0E0D6
S11324B045310B707B4D4EE0642B1CD0692B1AD038
S11324C0B7E0732B00D1A5E009D86F2B29D0702B6E
S11324D000D0AEE00E68202333430B6036E0752B4A
S11324E01FD0782B32D0A4E013680D1C191D42357F
S11324F011601B689FE0216813680E0603D5191D3F
S113250011601E6805E04806F9D5191D1160002107
S11325105E5E644B002E3BDA049D2D2276422A70C7
S113252036E0216813680E0603D5191D11601E6874
S113253004E04806F9D5191D1E881160594B227E06
S1132540039308276F2A1ED00A271CE0231C782136
S11325504533554D197011682368081D03951060A3
S11325601E0601D50E6802E05806FBD50E88D90771
S113257002D52022134323601027002E03D12268A2
S113258020239A432260231C002243331A7001E063
S113259003930A276368A360002B03DB25680422E6
S11325A095432560002E02D1049D002B0ED0049D7E
S11325B0301C391C01F078FE0398013D435C301C4B
S11325C02B70391C01F02CFE061EF1D1082F09D105
S11325D02168C90706D5626823699A4202DC013D75
S11325E030232B70049E731B23612AE00868136850
S11325F04969050604D5181D10601B68196005E0BB
S11326004606F8D5181D10601B6819800023236145
S1132610049D16E01368191D11601D68281C01F043
S11326207BFD63682061984200D923612069606062
S113263004E0251C42352B7001232361049E0023F2
S11326403370079E05980096211C09AA069BFFF784
S1132650A3FE013002D10120404221E02A1C05984A
S113266006992369079DA8470130F4D02668B60768
S113267005D4099BE068984212DA181C10E0002582
S1132680E0680999431A9D42F3DA221C05980699D9
S113269019320123079EB0470130DCD00135EFE742
S11326A00BB0F0BD7F6400009064000070B5051CA1
S11326B00E1C141C002804D08269002A01D101F0E8
S11326C031F8234B9C4201D16C6808E0214B9C42B9
S11326D001D1AC6803E0204B9C4200D1EC68A369B3
S11326E0A360A3891A070AD52369002B07D022689F
S11326F02369F6B2D01A626990420FDB08E0281C05
S1132700211C00F02BF80028F1D0012040421DE0EC
S1132710281C211C00F086FF0028F6D1A368013094
S1132720013BA36023685A1C22601E7063699842AF
S113273005D0A389301CDA0708D50A2E06D1281C37
S1132740211C00F06FFF0028DFD1301C70BDC04693
S1132750B0640000D0640000F0640000344B70B535
S11327601D68061C0C1C002D05D0A969002902D186
S1132770281C00F0D7FF2F4B9C4201D16C6808E065
S11327802D4B9C4201D1AC6803E02C4B9C4200D100
S1132790EC68A28993B2190721D4D90605D4092378
S11327A0336040231A43A2813FE05A0713D5616B7B
S11327B0002908D0231C4433994202D0301C01F074
S11327C087FB00236363A38924229343A38100230B
S11327D0636023692360A38908221343A3812169C9
S11327E000290BD1A389A02292001A4080239B00C8
S11327F09A4203D0301C211C01F008F8A38901225D
S11328001A4005D061690022A2604A42A26103E035
S1132810990700D46269A26022690020824206D12D
S1132820190604D540221343A3810120404270BD00
S113283064000020B0640000D0640000F064000074
S1132840F0B589B006910B690169051C002699420F
S11328507FDB069C5F1E143404940499BC000919A0
S1132860021C0B68143205911419191C01312068DB
S1132870039201F0D5FC0290B04238D00499039B36
S11328808C4601960796624604329446043A40CA3E
S11328900299B0B24843310C029E019A7143101858
S11328A0020C51180A0C01921A6880B296B2079A67
S11328B089B2B618301A1E68320C521A06149219CC
S11328C0111480B21204059E1043079101C366459A
S11328D0D9D2216800290AD1039E043CB44201D80C
S11328E02F6104E021680029FAD1013FF4E7281C94
S11328F0069901F005FA00282ADB029C039A0134A8
S1132900049B02940024116840CB88B20019146817
S1132910B1B2401A360C210C891B041409190C1489
S113292080B20904059E014302C29E42EBD2039C7D
S1132930BB00E3181E68002E0AD1039C043BA3428B
S113294001D82F6104E01E68002EFAD1013FF4E79C
S1132950029E301C09B0F0BDF0B5446A9BB00790EC
S1132960239D04920593002C08D1102000F09EFFB3
S113297007994862446084600460C460079C636A89
S1132980196800290AD05B6801229A404B608A606A
S1132990201C00F0D8FF636A00221A600598002802
S11329A005DA01232B6043005B08059301E0002353
S11329B02B60059EBE4B321C1A409A4218D1BD4B67
S11329C0229C049D2360002D01D1360301D0BA4816
S11329D000E0BA48249C002C01D100F093FDC27899
S11329E0C31C002A00D00533249D2B6000F08AFD0F
S11329F0049C059DA54BA44A201C291C01F0D0FC75
S1132A00071E0CD0229C249D01232360002D01D19C
S1132A1000F075FDAA482860013800F073FD19AB79
S1132A20009318AB019307982B1C221C01F0EAF9C0
S1132A3073000A905B0D09D0201CA24C2A03120BD0
S1132A40211C1143A04A16979E181BE0189B199C41
S1132A501D199E4B9D4209DB9D49049A9D4B6818A4
S1132A60C2405B1B101C9E40304304E09A48049B08
S1132A70401B8340181C03F0F5FA984C6E1E012588
S1132A8009191695824A834B02F046FF824A834B0A
S1132A9002F0B2FC824A834B01F022FD041C301C7C
S1132AA00D1C03F0A1FA804A804B02F0A5FC021C25
S1132AB00B1C201C291C01F013FD041C0D1C03F02D
S1132AC05FFA724B704A0690291C201C01F06EFCC0
S1132AD000280DD0069803F087FA0B1C021C291C51
S1132AE0201C01F05DFC069C43424341E41A069419
S1132AF0069C01251395162C10D8794AE300D318A7
S1132B0018685968049A059B01F064FC002804D0F5
S1132B10013C00250694139500E0139018980024B6
S1132B20861B351C0294013D099504D5099C00259A
S1132B30644202940995069C002C06DB099D1294BC
S1132B402D19002409950D9407E0069C029D2D1B68
S1132B500295654200240D951294209D0124092DAF
S1132B6024D8052D02DD043D209500242098023848
S1132B70032823D801F04AFB060E0204012502E0D3
S1132B80012508E000251095219D002D1FDD0C95E1
S1132B90089509E0002510950698219D2D180C959F
S1132BA001350895002D18DD2B1C17E06342002524
S1132BB00C93089320951094122306E001256B4290
S1132BC010950C93089300251223219506E0012506
S1132BD00C9508952B1C219500E0012307980022F1
S1132BE0456A6A600422101C14306968984203D84C
S1132BF0013169605200F6E7079800F06CFE286026
S1132C00079D6B6A089D1B680B930E2D00D987E105
S1132C10002C00D184E1049C059D14941595069D17
S1132C20002D61DD2A1C0F231A402D49D2008A1879
S1132C30146855680E940F95069D2A4C2F11022591
S1132C40F80617D51F4014981599226A636A01F093
S1132C5069FF0325049005910CE0F90708D50E9847
S1132C600F992268636802F0C7FB0E900F9101353B
S1132C707F100834002FF0D1049805990E9A0F9B09
S1132C8001F050FF4EE0C0460000000000000000CC
S1132C90000000000000F83F61436F63A787D23F44
S1132CA0B3C8608B288AC63FFB799F501344D33F37
S1132CB00000F07F0F270000AA640000A164000058
S1132CC07E6400000000F03F01FCFFFFEFFBFFFF0C
S1132CD0120400000EFCFFFFEEFBFFFF000010FEDD
S1132CE018650000E0650000069C02256742002F7D
S1132CF01AD00F233B40CC4ADB00D3181498159903
S1132D001A685B6802F078FBC84E3F11002F09D0A7
S1132D10FA0704D532687368013502F06DFB7F1041
S1132D200836F3E704900591139C002C1ED0049EF2
S1132D30059FB44BB24A301C391C01F037FB002804
S1132D4014D0089C002C11D00C9C002C00DCE3E077
S1132D50069C301C013C391CAB4AAC4B119402F06C
S1132D604BFB0135049005910C9C02E0069C1194E8
S1132D70089C281C049E059F0E9403F035F9321C10
S1132D803B1C02F039FBA24AA24B01F0A9FB041C34
S1132D90A74808180E990490051C00291BD19E4AC7
S1132DA09E4B301C391C02F0B7FD221C049B061CF0
S1132DB00F1C01F00FFB002800D05CE2221C8025D0
S1132DC0049C2D06301C391C631901F0EFFA00280D
S1132DD000D047E2A0E00E9A934B013A1098D2003B
S1132DE09B18002849D01A685B688D488D4901F00A
S1132DF099FE2B1C221C02F08FFD049005910B9D63
S1132E00391C301C03F0BCF8041C03F0EDF8021C60
S1132E100B1C301C391C02F07FFD01356B1E303455
S1132E201C70049A059B061C0F1C01F0BFFA0028B5
S1132E3000D053E3321C3B1C7249714802F06CFD14
S1132E40049A059B01F0B2FA002800D0CBE00B9C59
S1132E502B1B0E9CA3425FDA049805996A4A6B4BBC
S1132E6002F0CAFA684A694B04900591301C391C77
S1132E7002F0C2FA061C0F1CC2E718685968221C2B
S1132E802B1C02F0B9FA0B9C0E9D04900591651958
S1132E901795391C301C03F073F8051C03F0A4F8D3
S1132EA0021C0B1C301C391C02F036FD3035257019
S1132EB0179D0134061C0F1CAC4226D10E980B9CA6
S1132EC0574A584B25180498059901F009FB021C30
S1132ED00B1C301C391C01F07DFA002800D082E064
S1132EE0049A059B4E484F4902F016FD021C0B1C28
S1132EF0301C391C01F05AFA00280DD06B1E1A78C8
S1132F00302A00D0EAE21D1CF8E73F4A3F4B02F0AA
S1132F1073FA061C0F1CBCE7149C159D04940595BC
S1132F20199B002B00DA9FE0069D0E2D00DD9BE02F
S1132F303D4AEB00D3181C685D6802940395219DFB
S1132F40002D14DA089C002C11DC00D08CE1324AEC
S1132F50324B0298039902F04FFA049A059B01F050
S1132F6043FA089F3E1C002800D07FE187E10B9DB7
S1132F70049E059F029A039B301C391C01F0D2FD6C
S1132F8002F0FEFF041C03F02FF8029A039B02F0E8
S1132F9033FA021C0B1C301C391C02F0BDFC013539
S1132FA0021C201C30300B1C691E08700B98291A57
S1132FB00898814248D1101C191C01F091FA029A18
S1132FC0039B061C0F1C01F005FA00280DD1301CD0
S1132FD0391C029A039B01F0E3F9002800D17FE237
S1132FE0E10702D47CE2119C06946B1E1A78392AFC
S1132FF026D10B9CA3421DD01D1CF6E7C046C0463B
S1133000000000000000F03F000000000000244029
S11330100000000000001C400000000000001440FC
S1133020000000000000E03F18650000E0650000BB
S11330300000C0FC069C3022013406940B9C2270D4
S11330401A7801321A704BE2101C191CC94BC84A79
S113305002F0D2F9C84AC94B061C0F1C01F0A0F9B2
S1133060002800D186E73BE2109D002D31D0209C42
S1133070012C0BDC169D002D02D0C1481B1802E068
S1133080189936235B1A0D9D029C16E0089D0D9C31
S1133090013DAC4201DB651B06E00D9C0D952B1B2D
S11330A0129C0025E4181294089C002C03DA029860
S11330B00023041B01E0029C089B0299099AC91889
S11330C00291D21807980121099200F0DCFC061C39
S11330D002E00D9D029C109E002C0CD0099B002B3D
S11330E009DDA34200DD231C02980999C01AC91AFC
S11330F00290E41A09910D9A002A21DD109B002BFD
S113310018D0002D10DD311C2A1C079800F054FD46
S1133110061C311C0A9A079800F0BEFC0A99071C89
S1133120079800F010FC0A970D98421B08D00798E6
S11331300A9902E007980A990D9A00F03DFD0A9059
S11331400798012100F09FFC129D071C002D05DD4E
S1133150391C07982A1C00F02FFD071C2098002515
S1133160012810DC0499A9420DD1059A1303AB423E
S113317009D1844B134206D0029D01350295099D65
S113318001350995012512990120002908D03B69D0
S113319003339B00FB18586800F02CFC2023181AFA
S11331A0099A1F23801818400DD020231B1A042BC2
S11331B006DD1C23181A029B24181B18029308E02E
S11331C0042B08D0181C02991C300918099A029182
S11331D0241812180992029B002B05DD07980A99FE
S11331E01A1C00F03BFD0A900998002805DD391CE3
S11331F00798099A00F032FD071C139900291BD087
S11332000A98391C00F07CFD002815DA069A002380
S1133210013A069207980A990A2200F0ADFB0C9B2A
S11332200A9010980893002806D0311C07980A22A7
S1133230002300F0A1FB061C089900292ADC209A2F
S1133240022A27DD002911D1391C07980522089B81
S113325000F092FB071C391C0A9800F051FD00286D
S11332600DDC03E00E9F00E000273E1C219C0B9D1B
S1133270E44306940BE0119D0E9F06953E1C0B9CA7
S113328031232370069C0B9D01340135069402966C
S113329000260FE11098002800D1C5E0002C05DDC0
S11332A0311C0798221C00F0D9FC061C0296002D44
S11332B012D07168079800F00EFB3269311C02329B
S11332C0041C92000C310C30FEF7AEFB0798211C55
S11332D0012200F0C3FC02900B9C089D231C013BBF
S11332E05B1909941093391C0A98FFF7A9FA311C49
S11332F00D90041C0A9800F003FD391C0C90029AEE
S1133300079800F018FD051CC0683034002805D16A
S11333100A98291C00F0F4FC089001E001210891AE
S1133320291C079800F00FFB089B209D2B430DD10F
S113333004980123034209D1392C44D00C9D002D5B
S113334001DD0D9C3134099D013544E00C9D002DB7
S113335003DA089D002D17DC28E00C9B209D2B43ED
S113336029D104980123034225D1F2E7C046C0467F
S113337000000000000024400000000000000000E5
S1133380330400000000F07F0A990798012200F03E
S113339065FC391C0A9000F0B3FC002802DC05D15E
S11333A0E10703D5392C0ED00D9C3134099D099ABF
S11333B0013514707EE0099D01350C95089D002DA2
S11333C00CDD392C05D1099D099C39230135237065
S11333D05BE00C9D0134099804706BE00999109A24
S11333E00C9D0C7091423DD00A990A220023079843
S11333F000F0C2FA029C0A90311C07980A220023AA
S1133400A64204D100F0B8FA061C029009E000F0CC
S1133410B3FA0299061C0A220798002300F0ACFABA
S113342002900C9D09955EE70B9D391C0A98FFF7E5
S113343007FA041C30340B9808992C7001352B1AA8
S11334408B4207DB0B1E00DC01230B9A0296D51876
S1133450002607E007980A990A22002300F08CFA54
S11334600A90E2E70A990798012200F0F7FB391C59
S11334700A9000F045FC002807DC15D1E30704D4CA
S113348012E00B9CA34205D01D1C6B1E1A78392A2E
S1133490F7D006E0069C3123013406940B9C23707C
S11334A008E001321A7005E06B1E1A78302A01D147
S11334B01D1CF9E70798391C00F045FA029C002C02
S11334C00ED0002E05D0A64203D00798311C00F080
S11334D03AFA0798029900F036FA01E0119C069432
S11334E007980A9900F02FFA00232B70069B229C60
S11334F001332360249C002C03D0256001E00248A2
S113350000E00B981BB0F0BD7D640000C046C046CF
S1133510F7B58B89051C0C1C19075ED46268002A58
S113352002DC276C002F1ADDE76A002F17D0002277
S11335302E682A60802252011A4001D0626D15E083
S1133540281C216A0123B847021C411C0ED12B6898
S1133550002B0BD01D2B01D0162B02D12E60002086
S11335605EE0A38940210B43A38159E0A3895F074F
S113357006D56168636B521A002B01D0276CD21BED
S1133580281C216A0023E76AB847A289411C06D196
S11335902B68002B03D01D2B01D0162B19D100232F
S11335A0636023692360D70405D5411C02D12A68CE
S11335B0002A00D16065616B2E600029CFD0231CE6
S11335C04433994202D0281C00F082FC002060633E
S11335D026E040231A43A28122E02669002EBED0B1
S11335E027680022BF1B01972660990700D16269F2
S11335F0A260019F002FB2DD281C216A321C019BAE
S1133600A76AB847002806DCA38940221343012097
S1133610A381404204E0019F36183F1A0197E8E76E
S1133620FEBD00000A6938B5051C0C1C002A01D136
S113363000201CE0002804D08369002B01D100F095
S113364071F80B4B9C4201D16C6808E0094B9C4219
S113365001D1AC6803E0084B9C4200D1EC680C2219
S1133660A35E002BE4D0281C211CFFF751FF38BDBA
S1133670B0640000D0640000F0640000F8B5041CDD
S1133680071C4834002C12D0A5686668013E0CD48F
S1133690AB89012B07D90E22AB5E013303D0381C52
S11336A0291CFFF7BFFF6835F0E72468EAE7F8BD97
S11336B0002310B5041C036043608360818143666A
S11336C0C281036143618361191C08225C30FEF7E7
S11336D0B4F9054B24626362044BA362044BE362B6
S11336E0044B236310BDC04681400000A940000084
S11336F0E14000000D41000070B54B1E68255D439C
S11337000E1C291C743100F02BFC041E08D000216F
S1133710016046602A1C0C30A0606832FEF78DF907
S1133720201C70BD836913B5041C002B27D183644E
S1133730C3640365124B134A1B688262984201D129
S113374001238361201C00F01FF86060201C00F03E
S11337501BF8A060201C00F017F80421E060002290
S11337606068FFF7A5FFA06809210122FFF7A0FF09
S1133770E06812210222FFF79BFF0123A36113BD1E
S1133780586400007D360000F8B51D4B071C1E6808
S1133790B269002A02D1301CFFF7C4FF4836B4686E
S11337A07368013B05D40C22A55E002D10D068344B
S11337B0F7E73368002B06D1381C0421FFF79CFF80
S11337C03060002801D03668E9E70C233B6016E03E
S11337D001235B42E381201C0123A38165662560EC
S11337E0A560656025616561A5615C30291C0822BE
S11337F0FEF723F96563A563A564E564201CF8BDA1
S1133800586400000048704768000020F0B58B89B8
S113381091B0051C0C1C9A0725D40E23C95E0029FF
S113382006DAA78980231F400FD0002740260EE028
S113383001AA00F09FFC0028F3DB029BF0273F0263
S1133840184A1F40BF187B425F418026F600281C9F
S1133850311C00F085FB00280CD1A3899A051FD4E4
S113386002221343A381231C4733236023610123D2
S1133870636115E00C4B8022AB62A3892060134383
S1133880A38120616661002F0AD00E23E15E281C0B
S113389000F082FC002803D0A38901221343A381F2
S11338A011B0F0BD00E0FFFF7D36000008B5034B0A
S11338B0011C186800F054FB08BDC04664000020D9
S11338C0C9B28218904204D003788B4202D00130EE
S11338D0F8E70020704770B5456A041C0E1C002DE3
S11338E007D11020FFF7E2FF606245608560056044
S11338F0C560656AEB68002B09D0636AB200DB68B7
S11339009A18106800280ED00368136017E0201C72
S11339100421212200F0CEFA636AE860DB68002B00
S1133920EBD100200EE001210D1CB5406A1D920070
S1133930201C00F0BFFA0028F3D046608560002206
S11339400261C26070BD70B5446A061C0D1C002C77
S113395007D11020FFF7AAFF7062446084600460FE
S1133960C460002D07D0726A6968D2688B00D318CE
S11339701A682A601D6070BDF7B50C1C1E1C0D6909
S1133980071C143100230868013380B250438019A6
S11339908446060C0868000C50433018060C0004DA
S11339A00190604680B2844601988444604601C117
S11339B0AB42E8DB002E1BD0A3689D4212DB61689A
S11339C0381C0131FFF787FF2269211C0232019064
S11339D00C3192000C30FEF727F8211C381CFFF73D
S11339E0B2FF019C2B1D9B00E31801355E6025612D
S11339F0201CFEBD0022031C010C914201D10304D2
S1133A001022190E01D108321B02190F01D1043200
S1133A101B01990F01D102329B00002B04DB2020F3
S1133A20590002D5501C00E0101C7047036807229F
S1133A30011C1A400BD001220020134222D1022083
S1133A40034201D0D3401BE09B080B601AE098B2FC
S1133A50002801D11B0C1022D8B2002801D1083251
S1133A601B0A180701D104321B09980701D102323D
S1133A709B08D80704D45B082020002B02D0013215
S1133A800B60101C704710B50C1C0121FFF723FFBD
S1133A9001234461036110BDF0B50C1C151C0969B8
S1133AA012698BB0914202DA231C2C1C1D1C27695D
S1133AB02E69A268BB1961680293934200DD01314B
S1133AC0FFF709FF031C03900298143382009A182D
S1133AD0191C914202D2002001C1FAE714351434B2
S1133AE0BF00AC46B600E7196644049407970996EC
S1133AF0099EB44556D265462D880595002D1FD0E4
S1133B00049C191C00200F6840CCBFB2059D069789
S1133B10B7B26F43069D360CEF193F180868089139
S1133B20050C05984643380CAD192D18280CBFB266
S1133B302D043D4320C1079DAC42E4D3089E706030
S1133B4067467D88002D22D000261868049C191C25
S1133B500196278880B26F430697069E4F88059189
S1133B60F619019FF71906973F043843086001CC02
S1133B708F88000C6843C019069F04313E0C8019DD
S1133B80079F060C0196A742E3D8059948600425CF
S1133B90AC445B19ACE7043A1068002805D1029FD5
S1133BA0013F0297029D002DF5DC039F029E381C05
S1133BB03E610BB0F0BD00000323F7B51340051CB4
S1133BC00E1C141C002B07D0224A013B9B009A5860
S1133BD00023FFF7D1FE061CA410019437D06C6AB1
S1133BE0002C07D11020FFF761FE686244608460F6
S1133BF00460C4606F6ABC68002C10D1281C16498C
S1133C00FFF741FF0023B860041C036007E0019B39
S1133C105B1001931BD0206800280FD0041C019B6B
S1133C20DB07F4D5311C221C281CFFF735FF311C9F
S1133C30071C281CFFF787FE3E1CE8E7281C211CF4
S1133C40221CFFF729FF002320600360E6E7301CF5
S1133C50FEBDC0460866000071020000F0B50C1CF1
S1133C6085B00390206955112818029049680130E5
S1133C70A368171C0090009A9A4202DD01315B0090
S1133C80F9E70398FFF727FE021C061C14320023F1
S1133C90AB4204DA9900002050500133F8E7EB43BB
S1133CA0DB171D40AD0020695519221C1432830016
S1133CB09B189C461F231F4014D02023DB1B019319
S1133CC000231068291CB840034308C508CA01989A
S1133CD0C3409445F5D84B60002B07D002990231BC
S1133CE0009103E008CA08C59445FBD8009B0398DB
S1133CF0013B3361211CFFF726FE301C05B0F0BDEB
S1133D0010B502690C69031C101B13D11A1CA00006
S1133D101432143113180918043B04391C68086858
S1133D20844204D0844280410123184302E0934238
S1133D30F2D8002010BDF0B5071C85B0081C0D1C7E
S1133D40111C141CFFF7DCFF061E07D1381C311CA4
S1133D50FFF7C1FD01230361466150E0002801DB48
S1133D60002603E02B1C0126251C1C1C6968381C3A
S1133D70FFF7B1FD2A692B1C1433910059180291E5
S1133D802169251C143589006918041C0391C66037
S1133D901434002140CB80CDB446B6B27118BEB203
S1133DA08E1B614601963F0C0E0CF71B019E0434DA
S1133DB031147F1839143F040097019F261FB4461D
S1133DC0BEB2009F374366463760039FBD42E1D3CE
S1133DD0029E251CB3420BD280CBBDB26D182E14AB
S1133DE03F0CF6193114ADB23604354320C4EFE765
S1133DF0043D2F68002F01D1013AF9E7026105B0B3
S1133E00F0BD0000F7B501211D1C141CFFF763FD74
S1133E106F002B03061C1B0B7F0D02D08022520364
S1133E2013430193002C19D068460094FFF7FEFD5C
S1133E30009A002809D0019B20211C1C091A8C40DF
S1133E402243C3407261019300E07261019CB4613A
S1133E50634263410224E41A346107E001A8FFF7D6
S1133E60E5FD01990124716134612030002F09D0EE
S1133E700D4A089CBF183F1827603523099C181A5F
S1133E8020600EE00949089A401809491060631837
S1133E909B00F3185869FFF7ADFD6401099A241AD1
S1133EA01460301CFEBDC046CDFBFFFFCEFBFFFF00
S1133EB0FFFFFF3F38B5151C4D43291C00F050F897
S1133EC0041E03D000212A1CFDF7B7FD201C38BDB9
S1133ED030B5002940D004390B68002B00DAC9182A
S1133EE01E4A1368141C002B02D14B60116033E08E
S1133EF099420FD208680A189A4205D11368526889
S1133F00C01808604A6000E04B60216024E08A42E7
S1133F1003D8131C5A68002AF9D11D685C198C4215
S1133F200BD10968691858181960904214D11468A3
S1133F305268091919605A600EE08C4202D90C23A8
S1133F40036009E008680C18944203D114685268AD
S1133F50001908604A60596030BDC046380100202D
S1133F6070B50323CD1C9D430835061C0C2D01D2CE
S1133F700C2501E0002D3FDB8D423DD3204B1C6816
S1133F801A1C211C002913D00868431B0DD40B2BC9
S1133F9002D90B60CC181EE08C4202D16368136016
S1133FA01AE0486860600C1C16E00C1C4968E9E7DC
S1133FB0144C2068002803D1301C00F04FF8206016
S1133FC0301C291C00F04AF8431C15D0C41C0323E0
S1133FD09C4384420AD12560201C0B300722231DF8
S1133FE09043C31A0BD05A42E25008E0211A301C05
S1133FF000F034F80130EED10C233360002070BDA2
S1134000380100203401002030B50B1C041C021CB4
S11340101C430220002C17D080242406A34201D183
S1134020002A11D0094859004908094C0D180420E8
S1134030A54209D9074C0320A14205D9064C00200A
S1134040A14201D15042504130BDC0460000F0FFB2
S1134050FFFFDF7FFFFF0F000000F07F38B5074C44
S11340600023051C081C2360FDF748FB431C03D1F7
S11340702368002B00D02B6038BDC04668010020A7
S113408038B50C1C0E25495F00F0ACF8002803DBA2
S1134090626D1318636503E0A289024B1340A38188
S11340A038BDC046FFEFFFFFF8B51E1C8B89051C09
S11340B00C1C171CDA0505D50E23C95E0022022349
S11340C000F07CF8A289054B281C1340A3810E2222
S11340D0A15E331C3A1C00F027F8F8BDFFEFFFFF88
S11340E038B50C1C0E25495F00F068F8A389421C02
S11340F003D1054A1340A38104E0802252011343F3
S1134100A381606538BDC046FFEFFFFF08B50E23ED
S1134110C95E00F01DF808BD0023C25C0133002A0B
S1134120FBD1581E7047000038B5084C051C002010
S11341302060081C111C1A1CFCF702FA431C03D152
S11341402368002B00D02B6038BDC04668010020D6
S113415038B5074C0023051C081C2360FDF7E0FA62
S1134160431C03D12368002B00D02B6038BDC0460C
S11341706801002038B5074C0023051C081C111CDD
S11341802360FDF7D1FA431C03D12368002B00D030
S11341902B6038BD6801002038B5074C0023051C8E
S11341A0081C2360FDF7C6FA431C03D12368002BC7
S11341B000D02B6038BDC0466801002038B5084CDB
S11341C0051C00202060081C111C1A1CFDF7B4FA01
S11341D0431C03D12368002B00D02B6038BDC0469C
S11341E06801002038B5084C051C00202060081C1C
S11341F0111C1A1CFCF782F9431C03D12368002B01
S113420000D02B6038BDC0466801002002B471465E
S113421049084900095C49008E4402BC7047C04605
S1134220002934D00123002210B488422CD3012465
S11342302407A14204D2814202D209011B01F8E7FA
S1134240E400A14204D2814202D249005B00F8E7B3
S1134250884201D3401A1A434C08A04202D3001BDF
S11342605C0822438C08A04202D3001B9C08224312
S1134270CC08A04202D3001BDC082243002803D050
S11342801B0901D00909E3E7101C10BC7047002882
S113429001D00020C04307B4024802A14018029094
S11342A003BDC046D90000000029F0D003B5FFF7D4
S11342B0B9FF0EBC4243891A1847C046002941D0B1
S11342C010B4041C4C40A44601230022002900D54C
S11342D04942002800D5404288422CD301242407B7
S11342E0A14204D2814202D209011B01F8E7E40091
S11342F0A14204D2814202D249005B00F8E788421D
S113430001D3401A1A434C08A04202D3001B5C0894
S113431022438C08A04202D3001B9C082243CC08F1
S1134320A04202D3001BDC082243002803D01B094F
S113433001D00909E3E7101C6446002C00D5404273
S113434010BC7047002806D003DB0020C04340089F
S113435001E08020000607B4024802A14018029040
S113436003BDC046190000000029EBD003B5FFF7D8
S1134370A7FF0EBC4243891A1847C0467047C0467F
S11343808446101C62468C46191C634600E0C046F5
S11343901FB500F0B3FF002801D40021C8421FBD9F
S11343A010B500F0E3FE4042013010BD10B500F03E
S11343B0A5FF002801DB002010BD012010BDC04670
S11343C010B500F09BFF002801DD002010BD012086
S11343D010BDC04610B500F013FF002801DC00201A
S11343E010BD012010BDC04610B500F009FF002823
S11343F001DA002010BD012010BDC0469C46030414
S1134400F0B51B0C17043F0C150C1E1C041C000CEF
S11344107E436B4347434543FB18300C18188742CF
S113442002D980235B02ED18030CED1863465C434C
S11344304A433604360CA118000480194919F0BD0A
S113444010B5041E33D001F01FFF9E231B1A962BB8
S113445009DC083884406402640ADBB26402DB05C8
S1134460600A184310BD992B0ADD0522121A211C7B
S1134470D1400A1C011C1B318C40611E8C41144329
S1134480052801DD421F9440144A2240610704D0EC
S11344900F210C40042C00D0043251010AD59F2373
S11344A0181AFF2816D09401640AC3B2D6E7002371
S11344B00024D3E7D208FF2B03D05402640ADBB2F2
S11344C0CCE7002A06D08024E40314436402640A7F
S11344D0FF23C3E7FF230024C0E7C046FFFFFFFB21
S11344E0F8B55F46564644464D46F0B40C034D00BD
S11344F0CE0F610A440F2143C400180380465800BC
S1134500400D8246D80F84464046400A530F034369
S1134510D0006D0D371C83465246664500D1A4E099
S1134520AF1A002F00DC09E1002A3BD1184300D068
S1134530EAE0630700D187E00F232340042B00D176
S113454082E0221DA242A4416442802309191B0473
S11345500B40371C141C002B00D17CE0CE4B0135E2
S11345609D4200D105E1CD4BE408194048074902BA
S113457004430B0B002000211B031A0B0B0D6D05CC
S11345801B0513436A08C64DFF071D4015436D0004
S11345906D08291C3943201C3CBC90469946A24610
S11345A0AB46F8BDBC488542C3D080200004034319
S11345B0382F00DDF0E01F2F00DD24E12020C01B98
S11345C01A1C814682405846F84002439446584695
S11345D04A469040421E9041FB40624602431F1CE3
S11345E0A21A9442A4416442C91B091B141C0B0265
S11345F09FD549024F0A002F00D1C8E0381C01F0B2
S113460043FE021C083A1F2A00DDB5E02821091ADE
S1134610201C9740C84007439440954200DDB2E017
S1134620551B691C1F2900DDDCE01F22551B3B1CA8
S1134630221CAB40CA40AC40651EAC411343CF4082
S11346401C43391C002574E780231B040B40371CD2
S1134650002B00D082E7904B4807E4080443C908C4
S11346609D4248D009030B0B84E7AA1A9446002AFA
S113467000DC98E05046002852D08748854200D19B
S113468057E78020000403436246382A00DDFCE03B
S11346901F2A00DD4AE120226046101A1A1C8240BB
S11346A08246914658466246D0404A460243904666
S11346B0584652469040421E90414246024360464C
S11346C0C3401219A242A441644259180919141C86
S11346D0080200D42DE7704B01359D4200D122E140
S11346E06E4B60081940012323401C1C0443CB0774
S11346F01C4349081DE7231C0B433AD080231B03AA
S11347000B431B031B0B35E7013F002F65D15846B4
S1134710221A9442A4416442C91A091B141C66E774
S11347205846184300D104E701225242944460469B
S1134730002800D0C5E058460219C3E7002F73D102
S1134740681C4005400D012800DCDEE05A46A21A30
S11347509442BF41C81A7F42C71B380200D489E083
S11347605A46141BA3459241591A52428F1A66465F
S113477041E700230024FDE6271C28388740002455
S1134780954200DC4CE74549AD1A3940D1E6201C7E
S113479001F07AFD203034E75A461A43531E9A41F9
S11347A0D2B200271CE7002A00D0DCE0681C4205D6
S11347B0520D012A00DC8DE0374DA84200D1F3E010
S11347C05D462A19A242A441644259180919CC072A
S11347D0520814434908051CABE62F48854200D013
S11347E0E6E6A6E62B1C1F3B3A1CDA40131C2029E4
S11347F06CD03F22551BAF403C43601E84411C4398
S11348000021002595E6381C20381A1CC240101CD3
S1134810202F5DD04022D71BBB405A461A43531E5B
S11348209A4102430027DBE6002D3BD01A4DAA45EE
S113483000D193E080252D047F422943382F00DDE9
S1134840ACE01F2F00DD29E12025ED1B081C261CF0
S1134850A840FE40AC400643651EAC413443F940D9
S11348605D462C1BA34592415B1A5242991A554648
S11348706646BCE6131C3B43141C002B00D0BAE66E
S11348800027002100250024E5E65A461A43531E5A
S11348909A41D2B2002314E7FF070000FFFF7FFF15
S11348A0FFFF0F800D1C254358D0FF43002F51D12B
S11348B0041BA3459241591A5242891A5546664629
S11348C095E69648854200D0DEE632E6002793E777
S11348D00023A2E7081C2043002D00D0C4E00028D8
S11348E000D1F7E05846184300D122E65846021991
S11348F0A242A441644259180919141C0A0200D4A2
S113490017E6874B0125194013E6081C2043002DA8
S113491039D1002871D15946194303D0191C5C467A
S1134920664606E600270021002494E66046203807
S11349301A1CC24060469146202800D1ACE04022B7
S1134940121A93405A461A43531E9A414B461A432D
S11349500023B6E6714DAA4500D06FE7191C5C46EA
S113496055466646E5E5002D22D10D1C254377D03A
S1134970D543002D71D15C445C4592415918524293
S113498089185546A4E600284DD15946194300D14B
S113499094E0191C5C466646604DCAE50C43611EF2
S11349A08C41E4B200215BE7051C0021002452E69F
S11349B05A4DAA4554D05542802210040143382D43
S11349C000DD81E01F2D00DD92E02022501B0A1C37
S11349D084468240201CE84002439046624694404C
S11349E0601E844142461443E9405C445C45924164
S11349F0CB185242991855466AE65846184300D1D6
S1134A0097E55846271ABC429241C81A5242801A66
S1134A10020266D55846041BA3459241591A5242D4
S1134A20891A664685E55846184333D04807E40892
S1134A3004438020C9080003014208D0DD08054270
S1134A4005D15946CA085C071443291C6646630FFE
S1134A50C9001943E400314D6BE5304A9245AED1AB
S1134A60191C5C46554664E5002836D05846184360
S1134A7010D080254807E408C9082D0304432942BF
S1134A80E5D0D8082842E2D15D46EA085C07144321
S1134A90011CDCE7214D4CE5002353E73D1C203D80
S1134AA00A1CEA40151C202F34D04026F71BB940BD
S1134AB00C43611E8C412C430021D1E68021002748
S1134AC0C903164D0024C6E50C43611E8C41E4B2B3
S1134AD000218AE7191C5C462BE5191C5C460F4D26
S1134AE027E5031C3B4300D11CE7011C3C1C20E5CB
S1134AF02020404240190A1CC2409046202D0BD071
S1134B004020451BA9400C43611E8C4145462C4363
S1134B1000216AE70021CBE70021F4E7FF0700004A
S1134B20FFFF7FFFF0B5564644465F464D46F0B45E
S1134B301F1C0B031B0B98464B0087B0041C8146BB
S1134B405B0DC80F161C9A460090002B51D06A4B7F
S1134B509A4531D08022414652030A43630FD20062
S1134B601A43664B90460025E20091469A4400247D
S1134B7002953B031B0B9B46FD0F7B00311C5B0D19
S1134B80019560D05C4A934254D080215846490331
S1134B900143720FC9001143584A8B469B18F10018
S1134BA00020009A04436A4003920F2C00D9ADE020
S1134BB0534EA4003459A746404604436ED1002105
S1134BC002250824884689460295D2E7009C02986B
S1134BD0C34649460194022864D0032800D1ABE2BD
S1134BE0012800D038E2019A002402400025A146A1
S1134BF060E0434623434AD04046002800D1C0E148
S1134C0001F042FB031E272B00DDB3E128210D1A1E
S1134C10211C083B4246E9409A400D1C1543221CC6
S1134C209A40A8469146374B00251B1A9A46002401
S1134C3002959EE75A4616430320002EB1D1B3468F
S1134C4000210220ADE75A4632431BD05B46002BBD
S1134C5000D18AE1584601F017FB272800DD7DE1E9
S1134C602822171A011C321C08395B46FA408B4073
S1134C70171C1F43331C8B40BB46191C214B1B1AAA
S1134C8000208EE70027BB460021012089E7002091
S1134C90012504248046814602956AE703250C24F5
S1134CA0029566E7019C0394039D01222A40002497
S1134CB0114DA146002000212403260B0C0D2405D0
S1134CC0114B34432D0523402B435B005B08D20773
S1134CD0191C4846114307B03CBC90469946A2466D
S1134CE0AB46F0BD0022802424039146024DE1E747
S1134CF000240025A146DDE7FF07000001FCFFFFBB
S1134D00146600000DFCFFFFFFFF0F805546ED1AEF
S1134D100495D84500D953E100D14EE1049C002507
S1134D20013C4E4604944746A946584603020C0EDD
S1134D301C430902250C23041B0C0091381C291C5C
S1134D400193FFF76DFA019983464143381C8A4663
S1134D50291CFFF7A9FA330C090419438A450CD915
S1134D605B460919013B8C4200D947E18A4500D8CA
S1134D7044E102225242934409195346CB1A181CA7
S1134D80291C9846FFF74CFA071C0198291C784304
S1134D9082464046FFF788FA36040B04360C334348
S1134DA09A4509D91B197A1E9C4200D924E19A45D7
S1134DB000D821E1023F1B195E4632041743380C28
S1134DC0BB46009E009F51463F0C32045B1A594675
S1134DD0BA46120C0F043F0C904651467A434F4397
S1134DE04146414356467043CF19160CBE19B14291
S1134DF002D980277F02C019310C12043604120C28
S1134E004018B618834200D2C4E000D1BEE0191A9B
S1134E104846861BB145BF417F42CF1BA74200D104
S1134E2013E1291C381CFFF7FBF901990290414357
S1134E30381C8946291CFFF737FA330C0904194337
S1134E4089450CD9029B0919013B8C4200D9FFE02A
S1134E50894500D8FCE0029F0919023F02974F469A
S1134E60CF1B381C291C0597FFF7DAF9071C01989A
S1134E70291C784381460598FFF716FA360409047D
S1134E80360C0E43B14509D936197B1EB44200D9FC
S1134E90E0E0B14500D8DDE0023F3619029D494605
S1134EA0761A290439430B0457460A0C1B0C404656
S1134EB04546584355437B437A43EB18070CDB19AB
S1134EC09D4202D980256D0252191D0C00041B0459
S1134ED0000C52191B18964235D300D1FCE0012373
S1134EE01943049E994FF519002D00DCA1E04807F1
S1134EF009D00F230B40042B05D00B1D8B42894195
S1134F0049428B44191C5A46D20107D5904B5C4642
S1134F10049E80271C40FF00A346F5198D4B9D423B
S1134F207ADD039C0122224000248B4DA146C1E678
S1134F3080242403474627424CD13C432403240BBA
S1134F40009A854DB6E63619481EB4425ED9011C56
S1134F509642C4D1009E9E42C1D1C2E7031C283BA5
S1134F60311C99408B46002188E6301C01F08CF9F5
S1134F70203072E6283B211C994000228846914645
S1134F8051E6201C01F080F920303BE60021B145B8
S1134F9000D33DE7009F5A46B944B945BF417F421B
S1134FA03F19FB18013A9C421ED2984200D97EE078
S1134FB000D1B5E0191A93462AE7894500D8ADE631
S1134FC04846464642467708D3074608C0071E436C
S1134FD08146AAE65846204212D1044324032A1CDF
S1134FE0240B89465C4D65E6A342E3D1009F4F45FF
S1134FF0DBD9211A93460BE7171CDDE69B46BCE67A
S11350003C432403240B009A534D53E6B24259D82F
S113501000D18AE0011C62E75F46C9087B07039E52
S11350200B437C026D0501229946240B6D0D324021
S113503040E64A4B049FDB1B382B10DD039C012206
S1135040224000240025A14634E60121494248E7D4
S1135050029304E71F1C21E7019C039441E71F2BE3
S113506040DC3F48049F0C1C3A1858469140DC40F1
S1135070904020430A1C511E8A41011C11435A4688
S1135080DA40131C480709D00F220A40042A05D02D
S11350900A1D8A42894149425B18111C1A0234D5FF
S11350A0039C0122224000240125A14602E6009F20
S11350B002214942B9448B44B945894149420919FD
S11350C0CB18A4E6009D881E6900A942AD416D423B
S11350D02C19361900913AE7002B00D033E700244D
S11350E0009437E71F4A049C5D46121BD5402A1CD6
S11350F0202B1FD01C4E5F46A3199F403B1C194315
S11351004B1E994111430023BCE75A07C9080A43BF
S1135110039F91465B0201221C0B3A400025C9E51E
S11351204E45C4D89346002172E6009F9F42C9D3DE
S1135130011C0FE70023E2E7802424035F463C437D
S11351402403240B019A8946034DB3E5FF030000B1
S1135150FFFFFFFEFE070000FF07000002FCFFFF49
S11351601E040000E2FBFFFF3E040000F0B55F46B2
S113517056464D464446F0B40D1C041C8046E80FC8
S1135180814618030F03000B3F0B83B084461B4872
S1135190009749005E00DF0F490D9246760DBB462D
S11351A081420CD01548864210D00120B14215D05E
S11351B003B03CBC90469946A246AB46F0BD009F66
S11351C001202743F4D10D488642EED160460243C4
S11351D00120002AECD10120B142E9D1009B6345B2
S11351E0E6D1D045E4D1D94506D00029E0D11C430D
S11351F0201C441EA041DBE70020D9E7FF07000084
S1135200F0B55F4656464D464446F0B4CD0FDE0F2A
S1135210AC461D032D0BB146374E0F034C00AB4675
S11352205D0080463F0B640D92466D0DB44232D052
S1135230314EB54235D0002C0ED138434142414164
S1135240081C002D0BD0002919D1CC452DD0654662
S113525068420123184318E0002DF6D1281C594652
S11352600A4353425341002806D1002BEDD0634634
S113527058420123184308E00020002B05D14A4678
S1135280504250414042012318433CBC9046994649
S1135290A246AB46F0BD3E1C0643C9D002204042A4
S11352A0F3E75E461643C6D0F8E7AC4207DC0BDAF8
S11352B0614648424841404201231843E5E76646B7
S11352C0704201231843E0E75F450AD80ED000205E
S11352D05F45DAD26546684268414042012318437B
S11352E0D3E76246504201231843CEE7D045F8D8AD
S11352F00020D045EED3C8E7FF070000F0B55646BE
S11353004D4644465F46F0B40D1C83B0041C019026
S1135310E80F814618030F03000B3F0B8446354802
S1135320009749005E00DF0F490D9246760DB8469E
S1135330814234D02F48864236D0002918D0002E1E
S11353401FD1341C67463A4353425341002C1FD0AB
S11353500020002B05D142465042504140420123D7
S1135360184303B03CBC90469946A246AB46F0BDF8
S11353700098044360426041041C002EE2D00028DF
S1135380E9D1C14515D04F46784201231843E8E7D7
S1135390002BF6D04B46584201231843E1E7009F07
S11353A002202743DDD1C5E7674602201743D8D141
S11353B0C3E7B14204DD4A46504201231843D0E713
S11353C0B14207DB00986045E4D80AD0009F002072
S11353D06745C6D24F46784278414042012318437C
S11353E0BFE7019A5245D5D8019A00205245F1D31E
S11353F0B7E7C046FF070000F0B5564644465F468F
S11354004D46F0B41F1C0B031B0B9A464B0087B090
S1135410041C80465B0DC80F161C02938146002BAA
S113542068D0694B0299994232D080225346520384
S11354301A43D200630F1A439246644AE000891863
S113544080460291002400253B031B0B9B467800F9
S1135450FB0F321C400D039300D175E05A4B984268
S113546069D08022594652030A43730FD2001A436B
S1135470564B9346C018F200002303994E467140E0
S11354801C430F2C00D9A9E0514EA4003459A7465F
S113549053461C4300D087E00025AA46A8460824AA
S11354A00225D1E74946022D6CD0032D00D117E225
S11354B0012D00D058E10D40EDB20024A94600238F
S11354C0A0460020002125030A0D1C052D0B120502
S11354D0404B2A43134023435B004C465B08E207DE
S11354E0191C4046114307B03CBC90469946A2465D
S11354F0AB46F0BD5346234350D05346002B00D156
S113550084E1504600F0C0FE031E272B00DD76E147
S113551028210D1A211C083B5246E9409A400D1CD3
S11355201543221C9A40AA4690462B4B00241B1A72
S11355300293002588E75B461E430323002E9CD17B
S1135540B3460022022398E75B46334321D05846F2
S1135550002800D14EE100F097FE272800DD42E14B
S113556028210F1A021C311C083A5B46F94093406B
S11355700F1C1F43331C9340BB461A1C164B181AAE
S113558000237AE701230B4000249946A0460E4BE2
S113559097E70027BB46002201236EE7002104247D
S11355A08A46884601254FE70C2403254CE700254D
S11355B08024A9462403A846034B82E7DA46904692
S11355C003991D1C6FE7C046FF07000001FCFFFFA5
S11355D054660000FFFF0F800DFCFFFF029F160CB6
S11355E0381804904046070C0004000C1204120CF6
S11355F0031C5343041C3D1C7443554398463B1CF5
S113560073436419A44644460293230C63449D42A5
S113561004D9029D802464022D1902951D0C039562
S113562045462C041B04240C1C1905945C46230CCD
S1135630051C58432404240C8446381C60436543E9
S11356405F438146CC44280C6044BB46814502D963
S113565080277F02BB442D04070C2D0C0004401945
S11356605546BC462F04E3448446280C3D0C2F1CAD
S11356705743B8462F1C77434243B94647463F0C2D
S11356809144BA46D14446434A4502D98022520243
S1135690B6184F463A0CB6183A0447463F043F0C36
S11356A0B8462F1C67435D43444358436519019032
S11356B0380C2D184244B846AC4204D901988023D2
S11356C05B02C0180190039C029F201C6044C01917
S11356D06045A44147466442A4462B043C049946D1
S11356E0240C4C44A046D8448018C246E24490425C
S11356F09241574652429146F219E245BF417F42D8
S11357004B46BC46D845BF41D4187F4263461F432D
S11357102D0C7F19B24292414C45AD4152426D422B
S11357201543019E7D19AB19E20D5B02059F1343DE
S113573042023A439A46531E9A41C30D101C184321
S11357406402204380465046C0010DD545460122DF
S11357505646049C6B082A401A43F30701341A4343
S1135760760804949046B246049E634FF319002BC6
S113577061DD404640070BD00F2244462240042AF4
S113578006D042460432424580414042824490461B
S11357905546ED0107D5594B5646049F80201E40BF
S11357A0C000B2463B18564A934200DDEAE644463E
S11357B05546E2086807104301226C025B050A4063
S11357C08046240B5B0D91467BE6DA4690461D1C11
S11357D069E680242403574627421CD13C43240312
S11357E0240B484B6DE6031C283B311C99408B4627
S11357F00022C3E6301C00F047FD2030ADE6283B14
S1135800211C994000228A4690468EE6201C00F016
S11358103BFD203078E65846204207D104430399E3
S11358202403240B89469046364B4AE63C43240322
S1135830240B344B45E6344B049E9B1B382B06DD6E
S113584001230B4000249946A046002339E61F2B70
S113585025DC049C2D4D464660195246444686403C
S1135860DC4082405746301C2243DF40441EA041A6
S113587002433B1C540709D00F201040042805D0D4
S1135880101D9042924152429B18021C1D021AD5CF
S113589001230B4000249946A046012311E61C482D
S11358A0049C5546001BC540281C202B16D0194EBD
S11358B05746A21997403A1C43461A43531E9A412D
S11358C002430023D6E758075B02D2081C0B0123CE
S11358D00B401043994680460023F2E50022EBE793
S11358E08024240350460123044319402403240B39
S11358F08946044BE5E5C046FF030000FFFFFFFEB9
S1135900FE070000FF07000002FCFFFF1E0400006A
S1135910E2FBFFFF3E040000F8B55F4656464446EE
S11359204D46F0B40C034D00CF0F610A440F2143E0
S1135930C4001803DE0F8046B44646465800760A73
S1135940530F3343D600D14A6D0DBA46400DB346CA
S1135950904200D1F5E062460126724094466745C4
S113596000D1ABE02F1A002F00DC11E100283ED15A
S11359705846184300D0F1E0600700D197E00F23A8
S11359802340042B00D122E1221DA242A4416442FF
S1135990802309191B04012750460B400740141C9F
S11359A0002B00D179E0B94B01359D4200D10BE1C8
S11359B0B74BE40819404807490204430B0B002085
S11359C000211B031A0B0B0D6D051B0513436A08FD
S11359D0B04DFF071D4015436D006D08291C394368
S11359E0201C3CBC90469946A246AB46F8BDA7484D
S11359F08542C1D0802000040343382F00DDFDE040
S1135A001F2F00DD31E12020C01B1A1C5E4682409E
S1135A10FE40324394465A468240101C421E904136
S1135A20FB40624602431F1CA21A9442A4416442F2
S1135A30C91B091B141C0A029ED549024F0A002FD8
S1135A4000D1D6E0381C00F01FFC021C083A1F2AC3
S1135A5000DDC3E02821231C091A9740CB401F43D3
S1135A609440954200DDC0E0551B691C1F2900DDF0
S1135A70EAE01F22551B3B1C221CAB40CA40AC4031
S1135A80651EAC411343CF401C43391C002573E70A
S1135A9080217E4D0027C90300247C4B4807E4087D
S1135AA00443C9089D4250D009030B0B87E78023A8
S1135AB01B04012752460B40174071E72A1A9446EB
S1135AC0002A00DCA1E0002854D07048854200D1AF
S1135AD052E78020000403436046382800DD0EE1CD
S1135AE01F2800DD57E162462020801A1E1C8640D4
S1135AF0B1465E46D6404A4632435E4686409046AC
S1135B00301C421E9041424602436046C340121973
S1135B10A242A441644259180919141C080200D471
S1135B202AE75A4B01359D4200D131E1584B6008B8
S1135B301940012323401C1C0443CB071C43490880
S1135B401AE71E4300D00AE705E7231C0B433BD0AA
S1135B5080231B030B431B031B0B30E7013F002F68
S1135B606DD15E46A21B9442A4416442C91A091B2A
S1135B70141C60E75846184300D1FDE6012676421E
S1135B80B4446046002800D0D0E05E463219BFE736
S1135B90002F00D080E0681C4005400D012800DC87
S1135BA0E8E05A46A21A9442BF41C81A7F42C71B72
S1135BB03E0200D498E05846041BA3459241591A6A
S1135BC052428F1AE2463AE700230024F7E6802384
S1135BD01B04012756460B403740E1E6271C2838B2
S1135BE087400024954200DC3EE72949AD1A39403C
S1135BF0C2E6201C00F048FB203026E75A461A4330
S1135C00531E9A41D2B200270EE7002A00D0DEE0EC
S1135C10681C4605760D012E00DC90E01B4DA84261
S1135C2000D1F5E05E463219A242A44164425918FB
S1135C300919CC07520814434908051C9CE613486B
S1135C40854200D0D9E697E62B1C1F3B3E1CDE4064
S1135C50331C20296FD03F22551BAF403C43601EAC
S1135C6084411C430021002586E6381C20381E1C74
S1135C70C640301C202F60D04022D71BBB405A4660
S1135C801A43531E9A4102430027CDE6FF07000042
S1135C90FFFF7FFFFFFF0F80002D37D0B64DA842D6
S1135CA000D18FE080252D047F422943382F00DD69
S1135CB0A8E01F2F00DD24E12025ED1B0E1CAE40C3
S1135CC0B046261CFE404246AC401643651EAC411D
S1135CD03443F9405A46141BA34592415B1A52427D
S1135CE0991A051CE246A6E6131C3B43141C002B20
