:1000000060200020D5190000C51A0000C51A0000A4
:1000100000000000000000000000000000000000E0
:10002000000000000000000000000000C51A0000F1
:100030000000000000000000C51A0000C51A000002
:10004000C51A0000C51A0000C51A0000C51A000034
:10005000C51A0000C51A0000C51A0000C51A000024
:10006000C51A0000A9060000C1060000D90600005C
:10007000F10600000907000021070000C51A000072
:10008000C51A0000C51A0000C51A0000C51A0000F4
:10009000C51A0000C51A0000C51A0000C51A0000E4
:1000A000C51A0000C51A0000C51A0000C51A0000D4
:1000B00010B5064C2378002B07D1054B002B02D03E
:1000C000044800E000BF0123237010BD040000209D
:1000D00000000000B8200000084B10B5002B03D032
:1000E0000749084800E000BF07480368002B00D11B
:1000F00010BD064B002BFBD09847F9E7000000002D
:1001000008000020B8200000B82000000000000017
:1001100080B582B000AF104B1B68002B12D1EFF3FB
:1001200010837B607B68002B09D172B6BFF35F8FB1
:100130000A4B00221A700A4B01221A7002E0084B87
:1001400000221A70044B1B685A1C034B1A60C046ED
:10015000BD4602B080BDC046200000200000002047
:100160002400002080B500AF0B4B1B685A1E0A4BC1
:100170001A60094B1B68002B0AD1084B1B78DBB2B5
:10018000002B05D0064B01221A70BFF35F8F62B6B9
:10019000C046BD4680BDC04620000020240000208F
:1001A0000000002080B584B000AF0200FB1D1A7073
:1001B0000F23FB18FA1D1278D2091A700E23FB18B0
:1001C000FA1D127852091A700D4BBB600F23FB18F1
:1001D0001B78002B0FD10F23FB181B789B001022DC
:1001E0009446BC446344083B1A680E23FB181B78F2
:1001F000DB01D31800E000231800BD4604B080BD29
:100200000044004180B582B000AF0200FB1D1A70AF
:10021000FB1D1B781800034B984703001800BD46D0
:1002200002B080BDA501000080B582B000AF78604B
:100230007B6800221A707B6801225A707B6800225A
:100240009A70C046BD4602B080BDC04680B584B03D
:1002500000AF0200FB1D1A70BB1D0A1C1A70FB1DAB
:100260001B7818000D4B98470300FB60FB1D1B78A3
:100270001F22134001229A401300BB60BB1D1B7854
:10028000002B03D0FB68BA689A6102E0FB68BA6889
:100290005A61C046BD4604B080BDC046050200009C
:1002A00080B582B000AF3B1D18000E4B98473B1D38
:1002B00001221A703B1D19003E200B4B984701216B
:1002C0003E200A4B98473B1D00221A703B1D01221D
:1002D0005A703B1D19000F20034B9847C046BD467E
:1002E00002B080BD29020000190300004D02000089
:1002F00080B582B000AF78607B6880221A707B681E
:1003000000225A707B6801229A707B680022DA70A2
:10031000C046BD4602B080BD80B584B000AF0200CB
:100320003960FB1D1A700C23FB181800104B9847FE
:100330000C23FB1880221A703B681A780C23FB18D8
:100340005A703B685A780C23FB189A703B689A786D
:100350000C23FB18DA700C23FA18FB1D1B78110014
:100360001800044B9847C046BD4604B080BDC04647
:10037000F10200005519000080B582B000AF78602E
:100380007B6800221A70C046BD4602B080BDC046E0
:1003900080B586B000AFF860B9607A601623FB18AC
:1003A00000221A80BB683B61BB685A08FB689A420E
:1003B00001D2402326E0BB685B083B610AE03A6952
:1003C000FB68D31A3B611623FB181A881623FB1807
:1003D00001321A803A69FB689A42F0D21623FB1860
:1003E0001622BA181288013A1A801623FB181B88A5
:1003F000FF2B01D9402305E07B681622BA1812882A
:100400001A8000231800BD4606B080BD80B584B0B8
:1004100000AF0200FB1D1A70BB1D0A1C1A701A4B9C
:100420001B7801225340DBB2002B03D1BB1D1B788C
:10043000002B1BD00C23FB181800144B98470C23DF
:10044000FB18FA1D12781A700C23FB1819001320E0
:100450000F4B984713200F4B98470B4BFA1D127800
:100460005A70094B01221A70002308E0064B5B7892
:10047000FA1D12789A4201D1002300E01D231800D2
:10048000BD4604B080BDC0462800002079030000AE
:1004900069160000AD16000080B582B000AF78602C
:1004A0000A00FB1C1A707B684D4A93423FD04C4AAD
:1004B000934206D84B4A93420FD04B4A934221D0E5
:1004C00089E04A4A934200D15BE0494A934200D115
:1004D0006CE0484A93423FD07DE0FB1C1B78012B27
:1004E0000AD002DC002B05D075E0022B06D0032BCE
:1004F00006D070E0404B6FE0404B6DE0404B6BE04E
:10050000404B69E0FB1C1B78012B0AD002DC002B5E
:1005100005D060E0022B06D0032B06D05BE03A4BFF
:100520005AE03A4B58E03A4B56E03A4B54E0FB1C49
:100530001B78012B0AD002DC002B05D04BE0022BEC
:1005400006D0032B06D046E0334B45E0334B43E067
:10055000334B41E0334B3FE0FB1C1B78012B0AD0AF
:1005600002DC002B05D036E0022B06D0032B06D090
:1005700031E02D4B30E02D4B2EE02D4B2CE02D4B60
:100580002AE0FB1C1B78012B0AD002DC002B05D0D3
:1005900021E0022B06D0032B06D01CE0264B1BE0EB
:1005A000264B19E0264B17E0264B15E0FB1C1B7869
:1005B000012B0AD002DC002B05D00CE0022B06D068
:1005C000032B06D007E0204B06E0204B04E0204B35
:1005D00002E0204B00E000231800BD4602B080BDC1
:1005E0000010004200080042000C004200180042C7
:1005F000001C004200140042020008000200090032
:1006000002000A0002000B000200100002001100AC
:10061000020012000200130002000C0002000D0094
:1006200002000E0002000F00020016000200170078
:10063000020018000200190002002C0002002D0028
:1006400002002E0002002F000200300002003100E4
:10065000020014000200150090B58BB000AF786066
:100660000C23FB180F4A13CA13C313CA13C3002366
:100670007B620EE00C23FB187A6A9200D3581A1E94
:100680007B689A4202D17B6ADBB206E07B6A013367
:100690007B627B6A052BEDD900231800BD460BB0A9
:1006A00090BDC0463820000080B500AF034B1B68EA
:1006B00000209847C046BD4680BDC0462C000020A3
:1006C00080B500AF034B5B6801209847C046BD462C
:1006D00080BDC0462C00002080B500AF034B9B6856
:1006E00002209847C046BD4680BDC0462C00002071
:1006F00080B500AF034BDB6803209847C046BD467A
:1007000080BDC0462C00002080B500AF034B1B69A4
:1007100004209847C046BD4680BDC0462C0000203E
:1007200080B500AF034B5B6905209847C046BD46C6
:1007300080BDC0462C00002080B582B000AF78603C
:100740007B6880221A707B6800225A707B680122C5
:100750009A707B680022DA70C046BD4602B080BD48
:1007600080B584B000AF0200FB1D1A700F23FB1888
:10077000FA1D1278D2091A700E23FB18FA1D12788E
:1007800052091A700D4BBB600F23FB181B78002B0E
:100790000FD10F23FB181B789B0010229446BC44FA
:1007A0006344083B1A680E23FB181B78DB01D3183F
:1007B00000E000231800BD4604B080BD00440041A5
:1007C00080B586B000AF0200FB1D1A70FB1D1B78C0
:1007D0001800194B984703007B61FB1D1B781F22F3
:1007E00013403B617A6940213B69D3185B181B7841
:1007F000DBB21A000123134001D1802318E03B69CA
:100800005B087A693021D3185B181B78DBB2FB6078
:100810003B690122134006D0FB681B09DBB20F22A3
:100820001340DBB204E0FB68DBB20F221340DBB203
:100830001800BD4606B080BD6107000080B582B0DB
:1008400000AF78607B6800221A70C046BD4602B0D7
:1008500080BDC04680B582B000AF02003960FB1D8C
:100860001A70FB1D1B78012B0AD0022B0FD0002B16
:1008700014D10E4B0D4A91693A680A439A610FE010
:100880000A4B0A4AD1693A680A43DA6108E0074B21
:10089000064A116A3A680A431A6201E0172300E027
:1008A00000231800BD4602B080BDC04600040040D1
:1008B00080B500AF054B9B78DBB21A0002231340D2
:1008C0005A1E9341DBB21800BD4680BD0020004196
:1008D00080B584B000AF78607B681B68FB60FB6804
:1008E000DB695A1E9341DBB21800BD4604B080BDDF
:1008F00080B584B000AF78607B681B68FB60C04641
:100900007B681800064B9847031EF9D1FB681B68EB
:1009100002221A43FB681A60C046BD4604B080BD7F
:10092000D108000080B584B000AF78607B681B6898
:10093000FB60C0467B681800074B9847031EF9D13F
:10094000FB681B68022293431A00FB681A60C046CA
:10095000BD4604B080BDC046D108000090B589B046
:1009600000AF786039600C23FB1800221A807B6886
:100970001B68FB617B681800244B9847C0467B6866
:100980001800234B9847031EF9D17B681B68180099
:10099000204B98470300BB61BB6914337B617B69C3
:1009A000DBB218001C4B984703003B610F23FC1877
:1009B0000C23FA1839693B681800184B9847030054
:1009C00023700F23FB181B78002B01D0172318E08E
:1009D0000C23FB181B88DAB2FB691A73C0467B68CC
:1009E00018000B4B9847031EF9D17B6818000C4B7D
:1009F0009847C0467B681800054B9847031EF9D1FD
:100A000000231800BD4609B090BDC046250900006E
:100A1000D1080000590600008D1700009103000066
:100A2000F108000090B593B000AF786039607B6842
:100A30001B687B637B681B683B631C23FB181800E7
:100A4000754B98471C23FB1800225A703B681B7893
:100A5000002B03D11C23FB1800229A703B689A6A72
:100A60000C23FB181A603B68DA6A0C23FB185A60E7
:100A70003B681A6B0C23FB189A603B685A6B0C237B
:100A8000FB18DA604723FB1800221A702CE047237A
:100A9000FB181A780C23FB189200D3583B643B6C6C
:100AA000002B09D14723FB181A783B6B1100180063
:100AB0005A4B984703003B643B6C01330DD03B6CB1
:100AC000DAB21C23FB181A703B6C1B0CDBB21C2225
:100AD000BA1811001800524B98474723FB181A7890
:100AE0004723FB1801321A704723FB181B78032B8E
:100AF000CDD93B681A787B685A713B681A7C7B6851
:100B00009A713B689A7C7B68DA713B681A7D7B68D6
:100B10001A720A23FB1800221A800023FB630023A9
:100B2000BB633B681B78012B29D17B681B681800CD
:100B30003C4B98470300FB62FB6A1433BB62BB6A01
:100B4000DBB21800384B984703007B623B689B6917
:100B50002322BC180A22BA18796A1800334B984726
:100B6000030023702323FB181B78002B01D01723CD
:100B70004EE00A23FB181B88DAB27B6B1A733B68C2
:100B80005B68FA6B1343FB633B689B68FA6B134328
:100B9000FB633B68DB68FA6B1343FB633B681B7CBE
:100BA0001A00BB6B1343BB633B685B7C002B03D118
:100BB0001F4B9847031E03D0FB6B80221343FB633C
:100BC0003B689B7C002B04D0BB6B802292021343BA
:100BD000BB633B68DB7C002B04D0BB6B80229200A4
:100BE0001343BB633B681B7D002B04D0BB6B80228F
:100BF00092011343BB637B6B1A68FB6B1A437B6BDD
:100C00001A607B6B5A68BB6B1A437B6B5A6000237C
:100C10001800BD4613B090BD3907000099040000CC
:100C200055190000590600008D17000091030000BF
:100C3000B108000090B591B000AF786039607B6872
:100C40001B68FB627B681B68BB623B689A6A102367
:100C5000FB181A603B68DA6A1023FB185A603B687D
:100C60001A6B1023FB189A603B685A6B1023FB1811
:100C7000DA603F23FB1800221A7030E03F23FB1894
:100C80001A781023FB189200D358BB63BB6B002B60
:100C900009D13F23FB181A78BB6A11001800564B84
:100CA00098470300BB63BB6B013310D0BB6B1B04C5
:100CB0001C0CBB6B1B0CDBB21800504B984703009D
:100CC0009C4205D07B6800221A601C238FE0C0463E
:100CD0003F23FB181A783F23FB1801321A703F2379
:100CE000FB181B78032BC9D91320454B98470300E9
:100CF0007B6200237B6300233B633B681B78012BF3
:100D000021D13B689B692322BC180E22BA18796A4C
:100D100018003C4B9847030023702323FB181B78D3
:100D2000002B01D0172362E0FB6A1B7BDAB20E2393
:100D3000FB181B88DBB29A4201D01C2357E07B6B67
:100D40000C2213437B633B685B687A6B13437B63C2
:100D50003B689B687A6B13437B633B68DB687A6B09
:100D600013437B633B681B7C1A003B6B13433B6361
:100D70003B685B7C002B03D07B6B802213437B633F
:100D80003B689B7C002B04D03B6B80229202134378
:100D90003B633B68DB7C002B04D03B6B80229200E2
:100DA00013433B633B681B7D002B04D03B6B8022CD
:100DB000920113433B637B6B022213437B63FB6A09
:100DC0001A687B6B9A420ED1FB6A5A683B6B9A4257
:100DD00009D13B681A787B685A713B681A7C7B683A
:100DE0009A71002303E07B6800221A601C2318001C
:100DF000BD4611B090BDC04699040000C107000077
:100E00008D1700009103000080B58AB000AFF86034
:100E1000B9607A60FB68BA681A60FB681B687B621D
:100E20007B6A1B680222134007D07A68FB681100B6
:100E300018002A4B984703004BE07B6A1B6801228D
:100E4000134001D0052344E0FB681B681800244BC5
:100E5000984703003B623B6A0233FB613B6A1433F1
:100E6000BB610122FB699A401300190002201D4B4F
:100E700098471423FB1818001B4B98477B682422C3
:100E80009A5C1423FB181A70BB69DBB21422BA18DF
:100E900011001800154B9847BB69DBB21800144BC2
:100EA00098477B6824229B5C00211800114B9847CF
:100EB0007B681B78012B05D17B6A1B680C221A43C7
:100EC0007B6A1A607A68FB68110018000A4B984721
:100ED00003001800BD460AB080BDC046350C0000B6
:100EE00059060000550800003D0800006916000082
:100EF000AD1600000D040000250A000080B582B088
:100F000000AF78607B6801225A607B6800225A70CB
:100F10007B6806221A707B6800221A727B680022A6
:100F20005A72C046BD4602B080BDC04680B582B090
:100F300000AF78607B6803221A707B6800225A70C9
:100F40007B6801229A70C046BD4602B080BDC04693
:100F500080B582B000AF0200FB1D1A70034AFB1D72
:100F60001B781372C046BD4602B080BD000400402D
:100F700080B582B000AF0200FB1D1A70BB1D0A1CB9
:100F80001A70FB1D1B78012B08D0022B0BD0002BF5
:100F90000ED10B4ABB1D1B7853720BE0084ABB1DD8
:100FA0001B78937206E0064ABB1D1B78D37201E0E2
:100FB000172300E000231800BD4602B080BDC046E4
:100FC0000004004080B582B000AF0200FB1D1A7023
:100FD000084AFB1D1B780F210B40D9B253680F2024
:100FE000014049001E2083430B435360C046BD4669
:100FF00002B080BD0040004180B500AFC046044B48
:10100000DB6810221340FAD0C046BD4680BDC04602
:101010000008004080B500AF0C4A0D4B1B689BB226
:1010200080218B439BB293840A4B9847074A084B15
:101030009B68D362054A064B5B689362034A044B84
:101040001B689BB29384C046BD4680BD000800402B
:1010500044000020F90F000080B582B000AF02000C
:10106000FB1D1A70FB1D1B78082B40D89A00224BE1
:10107000D3181B689F46214B1B6939E0204B1B6A24
:101080009B059B0FDBB21A001E4BD34030E0802340
:101090001B022DE080231B022AE0184B5B6927E02E
:1010A000164B1B680222134001D1002320E0164B8F
:1010B0009847124B1B680422134009D00020134BA1
:1010C000984702000D4B9B681B041B0C53430FE019
:1010D0000F4B0DE00A4A5023D35CDBB21A00042305
:1010E000134001D1002303E0044BDB6800E0002340
:1010F0001800BD4602B080BD502000004400002012
:101100000008004000127A00F90F00008D1700005F
:10111000006CDC0280B584B000AF78601A4B1B6AAB
:10112000FB607B681B781A1C03231340DAB20D2383
:10113000FB1803210A4010001A7803218A43111C6E
:10114000021C0A431A707B689A780C23FB18D001A2
:101150001A787F210A40111C021C0A431A707B680E
:101160005A780C23FB1801210A4090011A7840217B
:101170008A43111C021C0A431A70034BFA681A6254
:10118000C046BD4604B080BD0008004080B582B0B6
:1011900000AF0200FB1D1A70FB1D1B78082B3BD80B
:1011A0009A00214BD3181B689F46204B1F4A126A96
:1011B00002210A431A62002331E01C4B1B4A926948
:1011C00002210A439A6129E0184A184B1B8A9BB2F4
:1011D00002210B439BB2138220E0144A134B9B8ADB
:1011E0009BB202210B439BB2938217E0104B1B680A
:1011F00002221A430E4B1A600E4B98470EE00B4A20
:101200000A494423CB5CDBB202210B43D9B244230D
:10121000D15403E0002302E0172300E0002318006C
:10122000BD4602B080BDC0467420000000080040EA
:10123000440000201510000080B582B000AF3B00D4
:1012400001221A7000237B6009E07B68DBB23A0060
:1012500011001800054B98477B6801337B607B6861
:10126000242BF2D9C046BD4602B080BD69160000ED
:1012700080B59CB000AF254BC222D2009A600020FE
:10128000234B9847234B98476C23FB181800224B9D
:1012900098476C23FB1800221A706C23FB1801225C
:1012A0009A706C23FB1800225A706C23FB181800EC
:1012B0001A4B984706201A4B98471A4B984700201C
:1012C000194B984700210020184B98470021012016
:1012D000164B98473B001800154B98473B000622D9
:1012E0001A703B0001225A603B0000221A723B0038
:1012F00000225A723B00190000200E4B9847002034
:101300000D4B9847C046BD461CB080BD000800404C
:10131000C50F0000391200002D0F0000151100004C
:101320008D110000E1130000510F0000710F00004B
:10133000FD0E0000111400003515000080B582B0CC
:1013400000AF02003960FB1D1A70FB1D1B78012BDA
:101350000AD0022B0FD0002B14D10E4B0D4A9169ED
:101360003A680A439A610FE00A4B0A4AD1693A681F
:101370000A43DA6108E0074B064A116A3A680A43F1
:101380001A6201E0172300E000231800BD4602B0F6
:1013900080BDC0460004004080B500AF024B9847B6
:1013A000C046BD4680BDC0461101000080B500AFFB
:1013B000024B9847C046BD4680BDC046650100004F
:1013C00080B500AF054B5B78DBB25BB2002B01DA76
:1013D000012300E000231800BD4680BD000C004042
:1013E00080B500AF08210020074B9847074B01222A
:1013F0001A70C046054B1B78DBB21A00012313405C
:10140000F8D1C046BD4680BD3D130000000C004031
:1014100080B586B000AF02003960FB1D1A70FB1D5D
:101420001B787B61FB1D1B783B613B681B781B02B3
:101430001A007B6913437B613B685B78002B04D007
:101440007B698022D20213437B613B685B7A002B6D
:1014500004D07B698022120313437B613B685B6885
:10146000012B2CD93B685A683B685B68013B1340F1
:101470001AD10023FB600223BB6005E0FB68013347
:10148000FB60BB685B00BB603B685A68BB689A4204
:10149000F4D8FB681B023A6913433B617B698022E5
:1014A000520313437B610AE03B685B681B023A69A5
:1014B00013433B617B698022920213437B613B684B
:1014C0001B7A002B04D07B698022920313437B613B
:1014D000C046134B9847031EFBD1124B9847124A44
:1014E000FB1D1B781370C0460D4B9847031EFBD1A4
:1014F0000E4B3A699A60C046094B9847031EFBD1D0
:101500000A4B0A4A51688022520211407A690A4302
:101510005A60074B9847C046BD4606B080BDC046DE
:10152000C113000099130000080C0040000C00409B
:10153000AD13000080B582B000AF0200FB1D1A7031
:10154000C0460E4B9847031EFBD10D4B98470D4AE2
:10155000FB1D1B781370C046084B9847031EFBD138
:10156000094B094A5268802149020A435A60074BD5
:101570009847C046BD4602B080BDC046C1130000BA
:1015800099130000040C0040000C0040AD13000053
:1015900080B586B000AF0200FB1D1A70C0462A4B12
:1015A0009847031EFBD1294B9847294AFB1D1B78FE
:1015B0001370C046244B9847031EFBD1254B5B6834
:1015C000DB04DB0EDBB21800234B984703007B6182
:1015D0001F4AFB1D1B7813701E4B5B68DB02DB0F81
:1015E000DAB21323FB181A701C4AFB1D1B78137008
:1015F000C046154B9847031EFBD1164B9B681B0238
:101600001B0C9BB2FB60164B98471323FB181B78EF
:10161000002B09D1FB68012B06D9124BF9687869B8
:10162000984703007B610AE01323FB181B78002B0B
:1016300005D0FB6801337A69DA4013007B617B696E
:101640001800BD4606B080BDC1130000991300000C
:10165000040C0040000C004059100000080C004031
:10166000AD130000C51E000080B584B000AF0200BD
:101670003960FB1D1A70FB1D1B78FB603B681B78F3
:101680001B021A00FB681343FB60FB1D1B7818004C
:10169000044B9847044BFA6892B25A80C046BD4644
:1016A00004B080BDF5160000000C004080B582B08B
:1016B00000AF0200FB1D1A700A4B98470A4AFB1D37
:1016C0001B7813700949094B5B889BB28022D201B9
:1016D00013439BB24B80064B9847C046BD4602B0B1
:1016E00080BDC04699130000020C0040000C004071
:1016F000AD13000080B584B000AF0200FB1D1A706E
:101700001C4B98471C4AFB1D1B7813701B4B5B88B6
:101710001B051B0FDBB2FB60184A538818490B40AE
:101720005380164A154B5B889BB216490B409BB2FF
:101730005380C046114B5B889BB21A008023DB01AB
:101740001340F7D10D4AFB68DBB2191C0F230B4085
:10175000D9B25388081C0F210140080208490B40E8
:10176000191C031C0B435380074B9847C046BD46CA
:1017700004B080BD99130000020C0040000C004032
:10178000FFF0FFFFFFBFFFFFAD13000080B584B087
:1017900000AF0200FB1D1A700D4B98470D4AFB1D50
:1017A0001B7813700C4B5B881B051B0FDAB20F23E1
:1017B000FB181A70094B98470F23FB181B78180069
:1017C000074B984703001800BD4604B080BDC046D3
:1017D00099130000020C0040000C0040AD13000003
:1017E0009115000080B584B000AF0200FB1D1A7097
:1017F0000F23FB18FA1D1278D2091A700E23FB185A
:10180000FA1D127852091A700D4BBB600F23FB189A
:101810001B78002B0FD10F23FB181B789B00102285
:101820009446BC446344083B1A680E23FB181B789B
:10183000DB01D31800E000231800BD4604B080BDD2
:101840000044004180B588B000AFF860B9607A60AC
:101850000023FB617B68DB7801225340DBB2002B65
:1018600035D07B681B78802B0BD0FB69802252021D
:101870001343FB617B681B781B061A00FB6913434B
:10188000FB617B685B78002B03D07B685B78022B65
:1018900010D1FB69802292021343FB617B689B7825
:1018A000002B04D0FB698022D2021343FB61FB684A
:1018B000BA685A607B685B78012B03D07B685B78E1
:1018C000022B07D1FB69224A1340FB6102E0FB684F
:1018D000BA685A60BB681B041B0CBB61BB681B0C5D
:1018E0007B61BA69FB691343A022D2051A43FB68E6
:1018F0009A627A69FB691343D02212061A43FB6885
:101900009A627B68DB7801225340DBB2002B1AD04D
:10191000FA698023DB0213400AD07B689B78012B95
:1019200003D1FB68BA689A6102E0FB68BA685A6141
:101930007B685B78012B03D07B685B78022B02D13C
:10194000FB68BA689A60C046BD4608B080BDC04614
:10195000FFFFFBFF80B584B000AF02003960FB1DC4
:101960001A70FB1D1B7818000A4B98470300FB6098
:10197000FB1D1B781F22134001229A401300BB60FD
:101980003A68B968FB681800034B9847C046BD46E3
:1019900004B080BDE51700004518000080B500AF19
:1019A000C046BD4680BDC04680B500AF054B9847D8
:1019B000054B9847054B9847054B9847C046BD4691
:1019C00080BDC04671120000A10200009D190000F8
:1019D0009D19000080B582B000AF2E4A90235B00B5
:1019E0000221D1502C4AD37803218B43191C0223A6
:1019F0000B43D370284AD3780C218B43191C08233E
:101A00000B43D370254A937B30218B43191C202331
:101A10000B439373214A937B0C218B43191C08239E
:101A20000B4393731D4A937B03218B43191C0223A1
:101A30000B4393731A4B7B601A4B3B607A683B688D
:101A40009A420CD007E03B681A1D3A607A68111D73
:101A5000796012681A603A68134B9A42F3D3134BB9
:101A60003B6004E03B681A1D3A6000221A603A6845
:101A70000F4B9A42F6D30F4B7B600F4B7A687F2156
:101A80008A439A600D4B98470D4B9847C046BD4618
:101A900002B080BD0070004100500041004800418C
:101AA000B8200000000000200400002004000020F6
:101AB0005C0000200000000000ED00E0DD1F0000E1
:101AC000851E000080B500AFC046BD4680BDC04643
:101AD00080B584B000AF0200FB1D1A700F23FB1805
:101AE000FA1D1278D2091A700E23FB18FA1D12780B
:101AF00052091A700D4BBB600F23FB181B78002B8B
:101B00000FD10F23FB181B789B0010229446BC4476
:101B10006344083B1A680E23FB181B78DB01D318BB
:101B200000E000231800BD4604B080BD0044004121
:101B300080B582B000AF0200FB1D1A70FB1D1B7840
:101B40001800034B984703001800BD4602B080BD43
:101B5000D11A000080B582B000AF78607B680022A7
:101B60001A707B6801225A707B6800229A70C04606
:101B7000BD4602B080BDC04680B584B000AF020053
:101B8000FB1D1A70BB1D0A1C1A70FB1D1B78180068
:101B90000D4B98470300FB60FB1D1B781F22134071
:101BA00001229A401300BB60BB1D1B78002B03D0A1
:101BB000FB68BA689A6102E0FB68BA685A61C0467D
:101BC000BD4604B080BDC046311B000080B584B066
:101BD00000AF78607B681B68FB60FB68DB695A1E9E
:101BE0009341DBB21800BD4604B080BD80B582B021
:101BF00000AF78607B6801221A707B6800225A600F
:101C00007B6800229A607B68C0229203DA607B685E
:101C100000221A747B6800225A747B6801229A742D
:101C20007B680122DA747B6800221A757B682422A3
:101C3000002199547B6818330C22002118000A4BAC
:101C400098477B68094A9A617B6800229A627B68A0
:101C50000022DA627B6800221A637B6800225A63E2
:101C6000C046BD4602B080BD29200000A08601000C
:101C700080B582B000AF78607B680A221A707B68FA
:101C800000225A707B6800229A70C046BD4602B09E
:101C900080BDC04680B584B000AF786039603B68D5
:101CA0001A787B681A703B685A787B685A703B6870
:101CB0009A787B689A700C23FB1818000B4B984796
:101CC0000C23FB1801221A707B681B780C22BA18AF
:101CD00011001800064B98477B681B7801211800FB
:101CE000044B9847C046BD4604B080BD551B00005C
:101CF00019030000791B000080B584B000AF786044
:101D00007B681B68FB60C0467B681800064B9847E1
:101D1000031EF9D1FB681B6802221A43FB681A6094
:101D2000C046BD4604B080BDCD1B000090B593B049
:101D300000AF786039600C23FB181800184B9847E7
:101D40000C23FB1880225202DA600C23FB18154A80
:101D50009A620C23FB1801225242DA620C23FB1810
:101D6000114A1A630C23FB18104A5A630C23FA1801
:101D70000F497B6818000F4B98474723FC183A68B7
:101D80007B68110018000C4B9847030023707B6898
:101D900018000A4B9847C0461800BD4613B090BDC6
:101DA000ED1B0000020010000200120002001300F0
:101DB000000C0042090E00005D090000F91C000043
:101DC00080B584B000AF78600C23FB181800094B75
:101DD00098470C23FB1811221A700C23FA187B6801
:101DE00011001800044B9847C0461800BD4604B0C7
:101DF00080BDC046711C0000951C000080B584B0F9
:101E000000AF1D4B1B68FB60FB6801332DD01B4BE3
:101E1000BB60BB68802212025A60BB684F22062159
:101E20009954BB68802212029A61BB681A6A8023A7
:101E30001B0213405A1E9341DAB2FB1C1A70FB1CA2
:101E40001B78DBB201225340DBB2002B0FD1C02341
:101E50009B011B687B607B6883F30888084BC0226A
:101E600092019A60FB68184702E0C04600E0C04655
:101E7000BD4604B080BDC0460430000000440041AF
:101E800000ED00E080B584B000AF094B9847094AE7
:101E90003B1D11001800084B98473B001800074BEA
:101EA0009847074B984700231800BD4604B080BDF3
:101EB000A9190000809698002D1D0000C11D00008A
:101EC000FD1D0000002243088B4274D303098B429E
:101ED0005FD3030A8B4244D3030B8B4228D3030CFA
:101EE0008B420DD3FF22090212BA030C8B4202D39C
:101EF0001212090265D0030B8B4219D300E0090AC4
:101F0000C30B8B4201D3CB03C01A5241830B8B42CC
:101F100001D38B03C01A5241430B8B4201D34B03B5
:101F2000C01A5241030B8B4201D30B03C01A52411A
:101F3000C30A8B4201D3CB02C01A5241830A8B429F
:101F400001D38B02C01A5241430A8B4201D34B0288
:101F5000C01A5241030A8B4201D30B02C01A5241EC
:101F6000CDD2C3098B4201D3CB01C01A52418309A0
:101F70008B4201D38B01C01A524143098B4201D3DA
:101F80004B01C01A524103098B4201D30B01C01A05
:101F90005241C3088B4201D3CB00C01A524183087F
:101FA0008B4201D38B00C01A524143088B4201D3AC
:101FB0004B00C01A5241411A00D20146524110460C
:101FC0007047FFE701B5002000F006F802BDC046EB
:101FD0000029F7D076E770477047C0460E4B70B5C2
:101FE00000251E000D4CE41AA410A54204D0AB003D
:101FF000F35898470135F8E700F04EF8084B0025F4
:102000001E00084CE41AA410A54204D0AB00F358FB
:1020100098470135F8E770BDA4200000A420000017
:10202000A4200000A820000003008218934202D0E0
:1020300019700133FAE7704700080042000C0042B3
:10204000001000420014004200180042001C004230
:1020500076100000EE100000EE100000941000005A
:102060008E1000009A1000007C100000A0100000EC
:10207000D4100000C811000018120000181200004F
:1020800014120000BA110000DA110000AA110000B9
:10209000EC110000FE110000F8B5C046F8BC08BC09
:1020A0009E467047D9000000F8B5C046F8BC08BC91
:1020B0009E467047B1000000010000007B680022CE
:1020C0001A637B6800225A63C046BD4602B080BDD9
:1020D0007D270000A086010080B582B000AF786047
:1020E0007B680A221A707B6800225A707B68002283
:1020F0009A70C046BD4602B080BDC04680B584B06F
:1021000000AF786039603B681A787B681A703B686A
:102110005A787B685A703B689A787B689A700C236F
:10212000FB1818000B4B98470C23FB1801221A7060
:102130007B681B780C22BA1811001800064B9847D0
:102140007B681B7801211800044B9847C046BD46A8
:1021500004B080BDBD1F000019030000E11F000096
:1021600080B584B000AF78607B681B68FB60C046B8
:102170007B681800064B9847031EF9D1FB681B6863
:1021800002221A43FB681A60C046BD4604B080BDF7
:102190003520000080B584B000AF78607B681B6894
:1021A000FB60FB681B7EDBB21A00012313405A1E42
:1021B0009341DBB21800BD4604B080BD80B584B049
:1021C00000AF78600A00BB1C1A807B681B68FB604C
:1021D0007B6818000A4B984703001A0001235340FC
:1021E000DBB2002B01D0052306E0BB1C1B88DB05FE
:1021F000DA0DFB689A6200231800BD4604B080BD6A
:102200009521000080B582B000AF78600800110011
:10221000BB1C021C1A807B1C0A1C1A707B687A1C6F
:1022200012781A707B680133BA1C1288D2B21A7005
:102230007B68033300221A70C046BD4602B080BDE1
:1022400090B593B000AF786039600C23FB1818008C
:10225000184B98470C23FB1880225202DA600C239B
:10226000FB18154A9A620C23FB1801225242DA62CB
:102270000C23FB18114A1A630C23FB18104A5A63EB
:102280000C23FA180F497B6818000F4B9847472317
:10229000FC183A687B68110018000C4B9847030043
:1022A00023707B6818000A4B9847C0461800BD464B
:1022B00013B090BD55200000020010000200120073
:1022C00002001300000C0042D10F0000250B00009B
:1022D0006121000080B584B000AF78600C23FB184A
:1022E0001800094B98470C23FB1811221A700C2375
:1022F000FA187B6811001800044B9847C046180074
:10230000BD4604B080BDC046D9200000FD200000BD
:1023100090B585B000AF786039600F23FB180622B6
:102320001A7039687B68002218000F4B984739688B
:102330007B68012218000C4B98470F23FB181B7871
:102340009AB20E23FC187B6811001800074B9847BF
:102350000300237039687B6800221800024B9847FD
:10236000C046BD4605B090BDC5100000BD210000AF
:10237000F0B5A1B000AF78663966FA65BB656B460B
:102380001E007A6E3B6E19001000664B98470423BE
:10239000013BFB670423BB620023FB62B96AFA6A54
:1023A0000B005B0F1000C5001D430B00DC00042375
:1023B0003B6200237B62396A7A6A0B005B0F100074
:1023C000C0007865786D184378650B00DB003B65CD
:1023D00004230733DB08DB006A46D31A9D466B46AD
:1023E0000033BB67BA6D531E7B671300BB610023CC
:1023F000FB61B869F96903005B0F0C00E400FC6441
:10240000FC6C1C43FC640300DB00BB6413003B61F9
:1024100000237B613869796903005B0F0C00E400DD
:102420007C647C6C1C437C640300DB003B64130015
:102430000733DB08DB006A46D31A9D466B46003340
:102440003B670423013BFB660423BB600023FB6066
:10245000B968FA680B005B0F1000C000F863F86BF6
:102460001843F8630B00DB00BB6304233B600023CD
:102470007B6039687A680B005B0F1000C0007863DE
:10248000786B184378630B00DB003B63042307334E
:10249000DB08DB006A46D31A9D466B460033BB66F9
:1024A000BB6F0320402258218C46BC4462441188F3
:1024B000020018001C4B984708235822BA18D1185C
:1024C0000C2358229446BC44634401221800174B45
:1024D0009847B96FBA6EBB6D9BB20C205824A446C6
:1024E000BC446044124CA0473A6FBB6D9BB2F96D7F
:1024F0000C205824A446BC4460440D4CA04708233B
:102500005822BA18D1180C2358229446BC4463446C
:1025100000221800054B9847B546C046BD4621B07D
:10252000F0BDC0461123000005220000C5100000C8
:10253000B511000080B584B000AF1D4B1B68FB6077
:10254000FB6801332DD01B4BBB60BB68802212029D
:102550005A60BB684F2206219954BB688022120240
:102560009A61BB681A6A80231B0213405A1E93416A
:10257000DAB2FB1C1A70FB1C1B78DBB20122534041
:10258000DBB2002B0FD1C0239B011B687B607B68F3
:1025900083F30888084BC02292019A60FB681847B1
:1025A00002E0C04600E0C046BD4604B080BDC04663
:1025B000043000000044004100ED00E090B587B019
:1025C00002AF0E4B98470E4A3B1D110018000D4BF1
:1025D00098473B0018000C4B98470C4CC0239A01BD
:1025E0003900381D002300932300094CA047094BF4
:1025F000984700231800BD4605B090BD111E00008D
:102600008096980041220000D5220000A80A000010
:102610007123000035250000002243088B4274D34B
:1026200003098B425FD3030A8B4244D3030B8B42D3
:1026300028D3030C8B420DD3FF22090212BA030CDC
:102640008B4202D31212090265D0030B8B4219D3BD
:1026500000E0090AC30B8B4201D3CB03C01A5241DD
:10266000830B8B4201D38B03C01A5241430B8B4225
:1026700001D34B03C01A5241030B8B4201D30B030E
:10268000C01A5241C30A8B4201D3CB02C01A524135
:10269000830A8B4201D38B02C01A5241430A8B42F8
:1026A00001D34B02C01A5241030A8B4201D30B02E1
:1026B000C01A5241CDD2C3098B4201D3CB01C01AFB
:1026C000524183098B4201D38B01C01A5241430905
:1026D0008B4201D34B01C01A524103098B4201D3F3
:1026E0000B01C01A5241C3088B4201D3CB00C01A60
:1026F000524183088B4201D38B00C01A52414308D8
:102700008B4201D34B00C01A5241411A00D20146FC
:10271000524110467047FFE701B5002000F006F86F
:1027200002BDC0460029F7D076E770477047C04623
:102730000E4B70B500251E000D4CE41AA410A542E6
:1027400004D0AB00F35898470135F8E700F04EF895
:10275000084B00251E00084CE41AA410A54204D022
:10276000AB00F35898470135F8E770BDF827000033
:10277000F8270000F8270000FC270000030082185B
:10278000934202D019700133FAE770470008004203
:10279000000C0042001000420014004200180042E9
:1027A000001C0042DE140000561500005615000003
:1027B000FC140000F614000002150000E4140000F0
:1027C000081500003C1500003016000080160000BF
:1027D000801600007C160000221600004216000041
:1027E000121600005416000066160000F8B5C04628
:1027F000F8BC08BC9E467047D9000000F8B5C0463A
:10280000F8BC08BC9E467047B10000000100000003
:10281000FFFFFFFFFFFFFFFFFFFFFFFFFFFFFFFFC8
:10282000FFFFFFFFFFFFFFFFFFFFFFFFFFFFFFFFB8
:10283000FFFFFFFFFFFFFFFFFFFFFFFFFFFFFFFFA8
:10284000FFFFFFFFFFFFFFFFFFFFFFFFFFFFFFFF98
:1030000048200020410400003D0400003D04000071
:1030100000000000000000000000000000000000B0
:103020000000000000000000000000003D0400005F
:1030300000000000000000003D0400003D0400000E
:103040003D0400003D0400003D0400003D0400007C
:103050003D0400003D0400003D0400003D0400006C
:103060003D0400003D0400003D0400003D0400005C
:103070003D0400003D0400003D0400003D0400004C
:103080003D0400003D0400003D0400003D0400003C
:103090003D0400003D0400003D0400003D0400002C
:1030A0003D0400003D0400003D0400003D0400001C
:1030B0000000000010B5064C2378002B07D1054B0B
:1030C000002B02D0044800E000BF0123237010BD94
:1030D0000C000020000000002C070000084B10B579
:1030E000002B03D00749084800E000BF07480368E9
:1030F000002B00D110BD064B002BFBD09847F9E701
:1031000000000000100000202C0700002C07000029
:103110000000000070B50020084B98470500084CDF
:10312000FA218900A047074B186007492800A047EB
:10313000064B18600522064B1A6070BDA502000000
:10314000850500000400002040420F000000002020
:1031500010E000E030B5084B1C68084A00258021CB
:10316000490206E0002C04D05460956013680B42BD
:10317000FCD00138F6D230BD0400002010E000E0A1
:1031800000B583B001AB80221A700A785A704A7871
:103190009A708A78DA701900014B984703B000BD25
:1031A0000D0400000C4B1B68002B10D1EFF31083B3
:1031B000002B09D172B6BFF35F8F0022074B1A7044
:1031C0000132074B1A7002E00022054B1A70024AC6
:1031D00013680133136070472800002008000020A6
:1031E0002C000020084B1A68013A1A601B68002B5B
:1031F00009D1064B1B78002B05D00122044B1A7015
:10320000BFF35F8F62B67047280000202C000020BB
:103210000800002010B5082803D880001B4B1B585D
:103220009F46002030E01A4B18692DE0194B1B6AAD
:103230009B059B0F1848D84026E0154B586923E0A2
:10324000134B1B68022018401ED012491022CB6875
:103250001A42FCD00E4B1B685B0714D500200F4BA5
:1032600098470B4B9B681B041B0C58430CE05023E6
:10327000084AD35C00205B0706D5054BD86803E0FD
:103280008020000200E0064810BDC046E8060000AD
:10329000300000200008004000127A0031030000D6
:1032A000006CDC0270B504001A4A53785BB2002B44
:1032B000FBDB194B9847194B1C70164A53785BB2CD
:1032C000002BFBDB134E7068C004C00E144B9847F4
:1032D0000500124B1C707668F602F60F114B1C703D
:1032E0000C4A53785BB2002BFBDB0A4B9C68240230
:1032F000240C0D4B9847002E07D1012C07D9210033
:1033000028000A4B9847050001E00134E5402800F9
:1033100070BDC046000C0040A5010000040C004038
:1033200015020000080C0040E501000085050000C2
:1033300010B50400064B9847064B1C70064B5C8882
:103340002405240F054B98472000054B984710BDD6
:10335000A5010000020C0040000C0040E501000047
:10336000A502000030B5D378002B1ED11378802B36
:1033700004D01B0680246402234300E00023547819
:103380000225AC430AD19478002C03D18024A402F6
:10339000234302E0C024E402234341605478013C0B
:1033A000012C12D8184C23400FE041600B041B0C79
:1033B000A024E405234383620B0CD024240623437A
:1033C0008362D378002B18D01CE00C04240CA025B9
:1033D000ED052C431C4384620C0CD0252D062C4398
:1033E0001C438462D478002C0CD15B0305D5937800
:1033F000012B01D1816100E041615378013B012B38
:1034000000D8816030BDC046FFFFFBFF10B5030050
:103410000A00C1090020002904D15809C00105494A
:103420008C4660441F210B401E399940024B98473F
:1034300010BDC0460044004165030000FEE7C046E1
:1034400070B52E4B2E4A9A4203D02E4B2B4A9A42ED
:1034500004D32D4B2D4A9A4210D31EE02C4A294BFF
:1034600003339B1A9B0801339B0000222348244905
:103470008C58845004329A42FAD1EAE7254A224B0A
:1034800003339B1A9B0801339B0000221F48002135
:103490001418216004329A42FAD11F4AFF211F4BAF
:1034A0008B439360FD3990235B001D4AD1501D482A
:1034B000C3780324A34302221343C370C3780C26AA
:1034C000B34308210B43C370174B987B3025A843A7
:1034D0000500202028439873987BB04301439973DB
:1034E000997BA1430A439A73104A516880230B4386
:1034F00053600F4B98470F4B9847FEE700000020A2
:103500002C0700000C000020480000200C000020C8
:10351000040000201000002000ED00E0000000008A
:10352000007000410050004100480041004000414F
:103530009D06000039050000F0B583B001A9012304
:103540004B7000228A700B7018200A4B984780221B
:103550005204094B5A61094B9847074D802676045F
:103560003700AF61C820064CA0476E61C820A04755
:10357000F7E7C0468101000000440041150100004A
:1035800055010000002243088B4274D303098B428B
:103590005FD3030A8B4244D3030B8B4228D3030C23
:1035A0008B420DD3FF22090212BA030C8B4202D3C5
:1035B0001212090265D0030B8B4219D300E0090AED
:1035C000C30B8B4201D3CB03C01A5241830B8B42F6
:1035D00001D38B03C01A5241430B8B4201D34B03DF
:1035E000C01A5241030B8B4201D30B03C01A524144
:1035F000C30A8B4201D3CB02C01A5241830A8B42C9
:1036000001D38B02C01A5241430A8B4201D34B02B1
:10361000C01A5241030A8B4201D30B02C01A524115
:10362000CDD2C3098B4201D3CB01C01A52418309C9
:103630008B4201D38B01C01A524143098B4201D303
:103640004B01C01A524103098B4201D30B01C01A2E
:103650005241C3088B4201D3CB00C01A52418308A8
:103660008B4201D38B00C01A524143088B4201D3D5
:103670004B00C01A5241411A00D201465241104635
:103680007047FFE701B5002000F006F802BDC04614
:103690000029F7D076E770477047C0460E4B70B5EB
:1036A00000251E000D4CE41AA410A54204D0AB0066
:1036B000F35898470135F8E700F028F8084B002543
:1036C0001E00084CE41AA410A54204D0AB00F35825
:1036D00098470135F8E770BD18070000180700008B
:1036E000180700001C07000026020000220200004C
:1036F0002202000080020000800200003A02000066
:103700002C020000400200006E020000F8B5C04626
:10371000F8BC08BC9E467047DD000000F8B5C04606
:10372000F8BC08BC9E467047B500000008000000C9
:10373000401F0000010000008C4660441F210B4028
:103740001E399940024B984710BDC04600440041C5
:103750007D0600007047C04610B5054B9847054BE5
:103760009847054B9847054B9847054B984710BD20
:103770008D030000A501000055070000550700005B
:1037800055070000FEE7C04670B52E4B2E4A9A4200
:1037900003D02E4B2B4A9A4204D32D4B2D4A9A42EA
:1037A00010D31EE02C4A294B03339B1A9B0801338C
:1037B0009B000022234824498C58845004329A42AA
:1037C000FAD1EAE7254A224B03339B1A9B080133BF
:1037D0009B0000221F4800211418216004329A42E5
:1037E000FAD11F4AFF211F4B8B439360FD39902371
:1037F0005B001D4AD1501D48C3780324A343022215
:103800001343C370C3780C26B34308210B43C37022
:10381000174B987B3025A843050020202843987338
:10382000987BB04301439973997BA1430A439A73F0
:10383000104A516880230B4353600F4B98470F4B3E
:103840009847FEE700000020A00A00000C000020BE
:10385000480000200C000020040000201000002080
:1038600000ED00E000000000007000410050004149
:103870000048004100400041ED09000081080000BF
:10388000F0B583B00E4B984701A901234B7000227D
:103890008A700B7018200B4B9847802252040A4BF9
:1038A0005A610A4B9847084D802676043700AF616D
:1038B000C820074CA0476E61C820A047F7E7C04664
:1038C000590700008101000000440041150100007B
:1038D00055010000002243088B4274D303098B4238
:1038E0005FD3030A8B4244D3030B8B4228D3030CD0
:1038F0008B420DD3FF22090212BA030C8B4202D372
:103900001212090265D0030B8B4219D300E0090A99
:10391000C30B8B4201D3CB03C01A5241830B8B42A2
:1039200001D38B03C01A5241430B8B4201D34B038B
:10393000C01A5241030B8B4201D30B03C01A5241F0
:10394000C30A8B4201D3CB02C01A5241830A8B4275
:1039500001D38B02C01A5241430A8B4201D34B025E
:10396000C01A5241030A8B4201D30B02C01A5241C2
:10397000CDD2C3098B4201D3CB01C01A5241830976
:103980008B4201D38B01C01A524143098B4201D3B0
:103990004B01C01A524103098B4201D30B01C01ADB
:1039A0005241C3088B4201D3CB00C01A5241830855
:1039B0008B4201D38B00C01A524143088B4201D382
:1039C0004B00C01A5241411A00D2014652411046E2
:1039D0007047FFE701B5002000F006F802BDC046C1
:1039E0000029F7D076E770477047C0460E4B70B598
:1039F00000251E000D4CE41AA410A54204D0AB0013
:103A0000F35898470135F8E700F03AF8084B0025DD
:103A10001E00084CE41AA410A54204D0AB00F358D1
:103A200098470135F8E770BD8C0A00008C0A000049
:103A30008C0A0000900A00002A0200002602000002
:103A40002602000084020000840200003E02000002
:103A50003002000044020000720200001003000067
:103A6000F0020000F00200007C03000002030000EE
:103A70001E030000F40200002C0300006C03000091
:103A8000F8B5C046F8BC08BC9E467047DD00000093
:103A9000F8B5C046F8BC08BC9E467047B5000000AB
:103AA00008000000401F000001000000FFFFFFFFB2
:103AB000FFFFFFFFFFFFFFFFFFFFFFFFFFFFFFFF16
:103AC000FFFFFFFFFFFFFFFFFFFFFFFFFFFFFFFF06
:103AD000FFFFFFFFFFFFFFFFFFFFFFFFFFFFFFFFF6
:103AE000FFFFFFFFFFFFFFFFFFFFFFFFFFFFFFFFE6
:020000023000CC
:00000001FF
