:10000000D82000209D1000009910000099100000D9
:1000100000000000000000000000000000000000E0
:100020000000000000000000000000009910000027
:10003000000000000000000099100000991000006E
:10004000991000009910000099100000991000000C
:1000500099100000991000009910000099100000FC
:1000600099100000991000009910000099100000EC
:1000700099100000991000009910000099100000DC
:1000800099100000991000009910000099100000CC
:1000900099100000991000009910000099100000BC
:1000A00099100000991000009910000099100000AC
:1000B00010B5064C2378002B07D1054B002B02D03E
:1000C000044800E000BF0123237010BD6800002039
:1000D000000000005425000008B5084B002B03D099
:1000E0000748084900E000BF07480368002B03D019
:1000F000064B002B00D0984708BDC046000000000A
:10010000542500006C000020542500000000000071
:10011000F0B5474680B40C1C904600280CD1002A4C
:100120000DDD8F18094E0A4D3068211C2B68984749
:100130000134BC42F8D104E00120404202E000203A
:1001400000E0404604BC9046F0BDC046C800002018
:10015000C0000020F0B5474680B40E1C151C0138C5
:10016000022810D8002A11D000240D4B98460D4FBC
:1001700043461868315D3B689847002808DB013426
:10018000A542F5D107E00120404205E0002003E050
:100190000120404200E0201C04BC9046F0BDC04657
:1001A000C8000020C400002010B5002909DD031C90
:1001B000401800221C781219D2B201338342F9D1BF
:1001C00000E00022D243D0B210BDC04608B5011CE9
:1001D0000148024B984708BD302400002915000053
:1001E00070B5002907DD041C4618044D2078A84787
:1001F0000134B442FAD1002070BDC046CD010000E8
:1002000010B5041C0B1C1068211C1A1C014B9847CC
:1002100010BDC0469D0A000070B582B0051C0E1CC2
:1002200001A804210D4CA0470123002813D16846E2
:10023000053002210A4A904701ABDA780123824255
:1002400009D101AB5A780123AA4204D101AB9B78B2
:100250009B1B5E1EB341181C02B070BD0102000062
:10026000A901000010B582B0041C01A807490322AF
:10027000074B984701A80321221C064B98479E2054
:100280000021221C044B984702B010BD2C24000012
:1002900005150000E1010000190200000C4B1B686D
:1002A000002B10D1EFF31083002B09D172B6BFF3EE
:1002B0005F8F0022074B1A700122074B1A7002E071
:1002C0000022054B1A70024B1A6801321A607047FF
:1002D000840000200000002088000020084B1A68DD
:1002E000013A1A601B68002B09D1064B1B78002BC2
:1002F00005D00122044B1A70BFF35F8F62B67047BE
:10030000840000208800002000000020F0B583B0A9
:1003100001AC012565700027A77025703E20211CC7
:10032000064EB0478022D205054B9A612770657052
:100330000F20211CB04703B0F0BDC04645030000AC
:100340008044004100B583B001AB80221A700A7866
:100350005A704A789A708A78DA70191C014B98475B
:1003600003B000BD3D10000010B5031C490840203B
:1003700099420CD30024C91A601C80B28B4201D868
:10038000041CF8E74020FF2C01D81480002010BD89
:10039000F0B55F4656464D464446F0B487B0061C5D
:1003A0000D1C049210AA1078321C424340248A4249
:1003B00000D9B3E0002B4BD10021321C5E4CA0478A
:1003C00083462E1C002700200021002200233F240A
:1003D000A4460125A846029003916146203903D422
:1003E00040468840814605E0202165464C1B40463A
:1003F000E040814641466446A1408A46101C191CD3
:1004000080185941021C0B1C5D464C46254202D007
:10041000424602430B1C9F420CD801D1964209D898
:10042000921BBB415046029D28434946039C2143F1
:10043000029003916546013DAC46CED202980399E5
:100440003C4B3B4A121A8B41120C1B041A4362E0CC
:100450000022012B5FD14F0FB946CD00AB460021E2
:10046000321C0023344CA047061C0F1C002301251E
:10047000029603979A465046C0B2059000218846DE
:10048000002200233F24271C203F03D42E1CBE4003
:10049000019604E02020071B291CF94001912E1C25
:1004A000A6400096101C191C80185941021C0B1CF8
:1004B0005F463740BC46019E4F463E4067463E433E
:1004C00002D02A1C02430B1C039898420BD802D17D
:1004D0000299914207D8029E039F921BBB41474657
:1004E00000980743B846013CCDD2414652468B1A8C
:1004F000DB08124CA34208D9059A0132D2B2059208
:100500000126B2445746082FB5D140240598082843
:1005100004D042031A43049C22800024201C07B00C
:100520003CBC90469946A246AB46F0BDC046C0468C
:10053000000000000100000075140000FF1F000013
:1005400010B582B0041C0F4B1B78002B01D0002982
:100550000DD001A90C7013200B4B984713200B4BA7
:100560009847084B5C7001221A70002007E0054B89
:100570005A781D20141B621E94416442204002B030
:1005800010BDC0468C000020610F0000D50E000099
:10059000444B984233D006D8434B98420DD0434B3E
:1005A00098421BD06FE0424B98424AD0414B984250
:1005B00058D0414B984266D132E0012965D00029DC
:1005C00004D0022906D0032906D001E03B4867E0A9
:1005D000002065E03A4863E03A4861E0012956D0DE
:1005E000002904D0022906D0032906D001E0032007
:1005F00056E0002054E0344852E0344850E00129ED
:1006000047D0002904D0022906D0032906D001E0F2
:100610002F4845E0002043E02E4841E02E483FE0CF
:10062000012938D0002904D0022906D0032906D098
:1006300001E02A4834E0002032E0294830E029482F
:100640002EE0012929D0002904D0022906D003294F
:1006500006D001E0244823E0002021E023481FE0E9
:1006600023481DE001291AD0002904D0022906D010
:10067000032906D001E01F4812E0002010E01E48C8
:100680000EE01E480CE000200AE01D4808E01D486E
:1006900006E01D4804E01D4802E01D4800E01D483A
:1006A0007047C0460010004200080042000C0042A3
:1006B00000180042001C0042001400420300040025
:1006C000030006000300070003001E0003001F00D4
:1006D0000300080003000A0003000B0003001000E1
:1006E000030012000300130003000C0003000E00BF
:1006F00003000F0003001600030018000300190098
:1007000003000500030001000300090003001100BD
:1007100003000D000300170070B586B00C4A6B464D
:1007200070CA70C332CA32C3009E864206D001230B
:100730009A0069465258824203D100E00023D8B2A1
:1007400003E00133062BF3D1002006B070BDC04694
:1007500038240000F0B55F4656464D464446F0B496
:1007600091B0051C0C1C161C2960081C9A4B98475C
:10077000021C23680520D90700D526E123681C2028
:100780009F0700D521E1954B186A911C01278F40E6
:10079000391C014319620FA92D27F35D0B70143228
:1007A000D2B29046101C8E4B984740468D4B9847CE
:1007B000F05D00218C4B9847F37A6B712423F35C36
:1007C000AB712523F35CEB71F37E2B72337F6B727D
:1007D00029688846081C804B9847143000226B46D5
:1007E000DA84328A02928023DB019A4221D080236C
:1007F000DB019A4204D880239B019A4211D008E081
:10080000C023DB01029F9F420FD080231B029F4227
:1008100003D01027069700270EE00327069700272E
:100820000AE010270697012706E008270697012708
:1008300002E008270697002731680391F268914685
:1008400073690493317E8A462623F35C9B46736862
:10085000002B13D08022520593422ED12723F35C24
:10086000002B2ED1376AC0B2604B9847011C381C50
:100870006A4626325E4B9847031C1FE02723F35C31
:10088000002B0AD0069A0092306AB16A6A46263274
:100890003B1C584FB847031C10E0316A0791C0B2A7
:1008A000524B9847011C069A009207986A462632D6
:1008B0003B1C504FB847031C00E00023181E00D01B
:1008C00083E0737E002B02D0B37E41468B732A688F
:1008D000029FD369002BFCD102976B4626331B88FD
:1008E000424693814B46039F3B43049F3B437168C1
:1008F0000B43029F1F43524613021F4359464B07A7
:100900001F432723F35C002B01D104231F43717E77
:100910008902337F5B021943F27AB37A1343194396
:10092000737F1B0219432423F35C5B0419432523C3
:10093000F35C1B0419433389FF2B04D0802252043B
:100940001743194305E0F37E002B02D08023DB041C
:100950001F432C23F35C002B03D1274B9B789A0772
:1009600001D580231F432A68D369002BFCD143465D
:1009700059602A68D369002BFCD141460F600EAB49
:1009800080221A7000225A70DA709A70326B0A92C2
:10099000736B0B93B76B0C97F66B0D9600250EAE31
:1009A000164FE9B2AB000AAA9858002802D1201CC1
:1009B000134A9047431C04D03070000CC0B2311C65
:1009C000B8470135042DECD1002011B03CBC904655
:1009D0009946A246AB46F0BD19070000000400404E
:1009E000610F0000D50E0000410500007D0F0000E2
:1009F0006903000091030000002000413D10000049
:100A00009105000010B50368C2791C20002A0CD0A3
:100A10001A7E0520D40708D5DA69002AFCD1198589
:100A200002211A7E0A42FCD0002010BD10B50368D6
:100A300082791C20002A2FD01A7E052054072BD53E
:100A4000DA69002AFCD15A8BD2B2900621D09407E1
:100A500003D502225A831A201EE0500703D5042230
:100A60005A831E2018E0D40703D501225A8313208D
:100A700012E0D00605D5598B10220A435A83422032
:100A80000AE0940605D5598B20220A435A83412057
:100A900002E01B8D0B80002010BDC046F0B557460C
:100AA0004E464546E0B482B0061C88461720002A10
:100AB00039D0B3791C20002B35D0356892460027F9
:100AC00004241C48814629E02A7E224204D1012BBD
:100AD00021D0013B002BF7D16946063100230B8062
:100AE000301C154A904700281DD17B1C9BB26A46DA
:100AF000063212884046C2557179012903D1B91CCA
:100B0000120AC2548BB25246013A92B29246002A5D
:100B100003D1002007E0122005E01F1C2B7E23429A
:100B2000DAD14B46D0E702B01CBC90469946A246AB
:100B3000F0BDC046FFFF00002D0A000008B50828E0
:100B400034D880001B4B1B589F468020000230E0A9
:100B5000194B18692DE0194B186A8005800F184B46
:100B6000C340181C25E0144B586922E0124B1B6847
:100B7000022018401DD011491022CB681A42FCD027
:100B80000D4B1B685A0713D500200E4B98470A4B94
:100B90009B681B041B0C58430BE05023074AD35C93
:100BA00000205A0705D5044BD86802E0002000E079
:100BB000054808BD502400009000002000080040B7
:100BC00000127A007D0F0000006CDC0270B50C4B47
:100BD0001C6A017885784078012210408001402607
:100BE000B44304432A40D00180229443221C024390
:100BF000032001400902034802400A431A6270BD03
:100C000000080040FFFCFFFF082843D88000224B6B
:100C10001B589F4600203EE0204B196A02220A43DF
:100C20001A62002037E01D4B996902220A439A613B
:100C3000002030E0194B198A02220A431A82002050
:100C400029E0164B998A02220A439A82002022E068
:100C5000134B196802220A431A601A68114B1A4092
:100C60000E4B9A84191C1022CB681A42FCD00C4AF5
:100C700091680A4BD96251689962126892B29A845B
:100C8000002008E0054A4423D05C02210143D154EE
:100C9000002000E017207047742400000008004086
:100CA000900000207FFF000030B585B0C222D20046
:100CB0001A4B9A601A4B5A681E218A435A600123C4
:100CC0006A4613700024174DE0B26946A847013404
:100CD000252CF9D103A800244470012585700470E7
:100CE000114B98470620114B9847114B9847114BD1
:100CF0001C725C729C72DC7201956B465C70062300
:100D00006A46137014725472002069460A4B984761
:100D100000200A4B984705B030BDC046000800408F
:100D200000400041610F0000CD0B0000090C0000E5
:100D3000410D000000040040650D0000050E00009C
:100D4000064B996908220A439A610122044B1A70E2
:100D5000191C0B781342FCD17047C04600040040B8
:100D6000000C004070B5061C0D782D0205434B7831
:100D7000002B02D08023DB021D434B7A002B02D0D4
:100D800080231B031D434C68012C17D9631E1C4292
:100D90000FD1022C06D90223002201325B009C42B3
:100DA000FBD800E000221602064380235B031D43AC
:100DB00004E02602064380239B021D430B7A002B8E
:100DC00002D080239B031D430B494B785BB2002B61
:100DD000FBDB0A4B9847084B9E601A1C53785BB2AA
:100DE000002BFBDB044B5968802252020A4015435A
:100DF0005D60034B984770BD000C00409D020000F1
:100E0000DD02000010B5041C0B4A53785BB2002BC6
:100E1000FBDB0A4B98470A4B1C70074A53785BB2BE
:100E2000002BFBDB044B5968802252020A435A60B4
:100E3000044B984710BDC046000C00409D020000C6
:100E4000040C0040DD02000070B5041C1A4A5378FF
:100E50005BB2002BFBDB194B9847194B1C70164AF1
:100E600053785BB2002BFBDB134E7068C004C00EDE
:100E7000144B9847051C124B1C707668F602F60F4F
:100E8000114B1C700C4A53785BB2002BFBDB0A4BF6
:100E90009C68240AA4B20D4B9847002E07D1012C60
:100EA00007D9281C211C0A4B9847051C01E0013476
:100EB000E540281C70BDC046000C00409D020000AB
:100EC000040C00403D0B0000080C0040DD02000057
:100ED000D513000010B5041C064B9847064B1C7038
:100EE000064B59888022D2010A435A80044B984706
:100EF00010BDC0469D020000020C0040000C0040E6
:100F0000DD02000010B5041C0F4B98470F4B1C70FE
:100F10000F4B58880005000F59880E4A0A405A8026
:100F200059880D4A0A405A80191C8022D2014B88E8
:100F30001342FCD1064B01025888064A02400A437C
:100F40005A80064B984710BD9D020000020C0040DD
:100F5000000C0040FFF0FFFFFFBFFFFFDD020000BD
:100F600010B50C7824020443024B9847A4B2024BFC
:100F70005C8010BD050F0000000C004010B5041C83
:100F8000064B9847064B1C70064B5C882405240FC3
:100F9000054B9847201C054B984710BD9D0200004B
:100FA000020C0040000C0040DD020000490E000071
:100FB00030B5D378002B1ED11378802B04D01B06BC
:100FC00080246402234300E0002354780225AC43CC
:100FD0000AD19478002C03D18024A402234302E098
:100FE000C024E402234341605478013C012C04D81E
:100FF000114C234001E0416000230D042D0CA0247E
:10100000E4052C431C4384620D0CD02424062C439D
:101010001C438462D478002C0CD15C0305D59378F2
:10102000012B01D1816100E041615378013B012B2B
:1010300000D8816030BDC046FFFFFBFF08B5031C30
:101040000A1CC1090020002903D15809C001044924
:1010500040181F210B4001219940024B984708BDC1
:1010600000440041B10F00007047C04608B5054B71
:101070009847054B9847054B9847054B9847054BB4
:10108000984708BDA90C00000D030000691000007E
:101090006910000069100000FEE7C04670B52C4BD7
:1010A0002C4A9A4203D02C4B294A9A4204D32B4B08
:1010B0002B4A9A4210D31BE02A4B27480330C01A10
:1010C00080080130800000232149224AD458CC50A6
:1010D00004338342FAD1EAE7214B1A1D1F49033139
:1010E000891A890889005218002102C39342FCD151
:1010F0001D4BFF211D4A8A439A60022190235B0009
:101100001B4AD1501B4BD87803218843022210433D
:10111000D870DD780C24A54308200543DD70164BFC
:101120009E7B3025AE43202535439D739D7BA54393
:1011300028439873987B884302439A730F4B5968EE
:1011400080220A435A600E4B98470E4B9847FEE7A1
:10115000000000205425000068000020D800002076
:10116000680000200400002000ED00E00000000006
:101170000070004100500041004800410040004123
:10118000B9140000D9120000064B1B68002B02D1D5
:10119000054A044B1A60034A136818181060181C9B
:1011A0007047C046A8000020D820002001204042FF
:1011B0007047C04680239B014B6000207047C046AB
:1011C000012070470020704770B582B0051C0E1CCE
:1011D00000226B46DA80064C281C69460631A0477F
:1011E0000028F9D16B4606331B88337002B070BDFE
:1011F0002D0A000070B5061C0D1C034C301C291C68
:10120000A0470028FAD170BD050A000070B590B063
:101210008023DB05009300230193FF2268460281AF
:1012200000228372C3729621890108910121242032
:101230006C462154252021542621635427216354D0
:101240000A932C2163542D21635405932382E37662
:101250002276227762761323A376627780235B035C
:101260000393184B0C93184B0D9301235B420E9381
:101270000F93164E164D174C7068291C6A46A047EE
:101280000028F9D1114E124D124C3068291C6A46C3
:10129000A0470028F9D10D4B5B681A68D369002B71
:1012A000FCD1116802230B431360084B1B681A68BA
:1012B000D369002BFCD1116802230B43136010B0DB
:1012C00070BDC0460200160002001700CC000020CE
:1012D000001400425507000070B590B02D4B9847A0
:1012E0002D4B98478023DB05009300230193FF22B9
:1012F0006846028100228372C372012124206C4659
:1013000021542520215426216354272163540A9314
:101310002C2163542D21635405932382E376227696
:10132000227762761323A376627780235B0303938D
:101330001A4B0C931A4B0D9301235B420E930F93A0
:1013400096231B020893174C174B1C60174A184B27
:101350001A60184A184B1A60201C18496A46184B24
:101360009847184E336898680021174DA84733688E
:1013700058680021A8472268D369002BFCD1116866
:1013800002230B4313601148114B9847002010B003
:1013900070BDC0466D1000000D1200000200160066
:1013A00002001700AC000020C8000020F51100006A
:1013B000C4000020C9110000C00000200014004239
:1013C00055070000640000205D150000CC000020DF
:1013D00065020000002934D00123002210B48842A5
:1013E0002CD301242407A14204D2814202D2090154
:1013F0001B01F8E7E400A14204D2814202D2490075
:101400005B00F8E7884201D3401A1A434C08A04217
:1014100002D3001B5C0822438C08A04202D3001BAD
:101420009C082243CC08A04202D3001BDC082243C4
:10143000002803D01B0901D00909E3E7101C10BCE8
:101440007047002801D00020C04307B4024802A121
:101450004018029003BDC046190000000029F0D0DA
:1014600003B5FFF7B9FF0EBC4243891A1847C046BF
:101470007047C0469C460304F0B51B0C17043F0C94
:10148000150C1E1C041C000C7E436B434743454354
:10149000FB18300C1818874202D980235B02ED1824
:1014A000030CED1863465C434A433604360CA1181E
:1014B000000480194919F0BD70B50E4B0E4D002483
:1014C000ED1AAD101E1CAC4204D0A300F35898478F
:1014D0000134F8E701F02EF8084B094D0024ED1A0D
:1014E000AD101E1CAC4204D0A300F3589847013441
:1014F000F8E770BD402500004025000040250000B1
:101500004425000010B50023934203D0CC5CC454A2
:101510000133F9E710BD031C8218934202D0197001
:101520000133FAE7704700000FB40B4B13B51C688A
:10153000002C05D0A369002B02D1201C00F02CFD4B
:1015400005ABA168201C049A019300F0BFF816BCFB
:1015500008BC04B01847C0466400002008B54A42E1
:101560004A4180235200DB0000F002F808BD000071
:10157000F7B51E1C3C4B041C1D680F1C0192002D6E
:1015800005D0AA69002A02D1281C00F005FD374BBE
:101590009C4201D16C6808E0354B9C4201D1AC689B
:1015A00003E0344B9C4200D1EC68019B022B57D8DE
:1015B000002E55DB281C211C00F06EFC002363600C
:1015C000A361A3891A0603D5281C216900F0BAFD7E
:1015D000A38983229343A381019B022B13D0002F65
:1015E00025D1002E01D18026F600301C00F094FD9C
:1015F000071E18D18020C00000F08EFD071E10D1FC
:101600000120404200E00020A38902221343A3816D
:101610000023A360231C47332360236101236361FC
:1016200020E08026F600A38980221343A381019A3B
:10163000012A04D1A3891343A3817342A3610E4BF2
:101640000020AB62A3892760276166611A0709D56C
:10165000032213405A4253415B421E40A66001E000
:1016600001204042FEBDC04664000020D42400009A
:10167000F424000014250000F11E0000936810B54A
:10168000013B9360002B05DA9469A34208DBCBB2DF
:101690000A2B05D01368581C10601970C8B201E0FD
:1016A00000F0A6FA10BDF8B5061C0F1C141CD518C6
:1016B000AC4208D02178301C3A1CFFF7DFFF013420
:1016C000431CF5D100E00020F8BD0000F0B59FB04C
:1016D000061C0F1C03920593002804D08169002981
:1016E00001D100F059FC754B9F4201D1776808E0A9
:1016F000734B9F4201D1B76803E0724B9F4200D108
:10170000F768BB891A070AD53B69002B07D006ADDD
:1017100000236B6120236B763023AB763BE0301CDB
:10172000391C00F0BDFA0028F1D001204042C2E08F
:10173000059A111D12680591002A76DB0992013481
:1017400023782E2B00D181E021785F48032200F01E
:10175000EDFC002807D05C492A68431A40209840D5
:101760001043286001342178631C584806220393F3
:10177000297600F0DBFC002800D18AE0544B002BD6
:101780007ED1059B072207339343083305936A698B
:10179000049953186B61039C2378002B04D103999F
:1017A000611A029110D003E0252BF8D00134F3E741
:1017B000301C391C039A029BFFF775FF013075D06E
:1017C0006A69029953186B612378002B6ED001224D
:1017D00052426A606A4600235B3201342B60EB6040
:1017E000AB601370AB6521783A48052200F09EFC8F
:1017F000002808D0374A0134831A012098402B680A
:1018000018432860EFE72B68D90603D56A462021E4
:101810005B3211701A0703D56A462B215B321170B7
:1018200022782A2A84D0099B05E05242EA600222EB
:1018300013432B6083E72278303A092A04D80A211F
:101840004B4301349B18F6E7099379E763782A2B19
:1018500009D1059B02341A1D1B680592002B0DDA75
:1018600001235B420AE0013400232278303A092A3E
:1018700004D80A214B4301349B18F6E7079363E72A
:1018800005AB0093301C291C3A1C134B00E000BF31
:1018900007E005AB0093301C291C3A1C0E4B00F0EE
:1018A00091F804900499013100D070E7BB895A0681
:1018B00000D53AE70B981FB0F0BDC046D424000015
:1018C000F424000014250000A6240000AA2400002F
:1018D00000000000A0240000A7160000F7B5151CAA
:1018E00001930A698B68061C0C1C934200DA131CD6
:1018F000221C2B6043321278002A01D001332B6066
:101900002068800602D52B6802332B6021680627E9
:101910000F401FD0231C43331B785A1E934122686B
:1019200092061FD5E11840313020C870211C5A1C86
:1019300045310978A21840320233D17012E0221CDE
:10194000301C019919320123089FB847013011D08A
:10195000009F01370097E0682968009F431A9F4263
:10196000EDDBD7E7221C301C01994332089FB847B2
:10197000013002D10120404223E0206806212B687B
:10198000E26801400025042903D1D51AEB43DB1797
:101990001D40A26823699A4201DDD31AED18002781
:1019A0000097009FAF420BDA221C301C01991A32BB
:1019B0000123089FB8470130DCD0009F0137EFE7D3
:1019C0000020FEBDF0B50D1C8BB04335069205908E
:1019D000079304950B7E0C1C109A6E2B00D1A7E088
:1019E00011D8632B22D009D8002B00D1B0E0582B9E
:1019F00000D0C0E045310B707B4D4EE0642B1CD015
:101A0000692B1AD0B7E0732B00D1A5E009D86F2B52
:101A100029D0702B00D0AEE00E68202333430B603A
:101A200036E0752B1FD0782B32D0A4E013680D1C44
:101A3000191D423511601B689FE0216813680E066E
:101A400003D5191D11601E6805E04806F9D5191D5A
:101A5000116000215E5E644B002E3BDA049D2D2256
:101A600076422A7036E0216813680E0603D5191DE8
:101A700011601E6804E04806F9D5191D1E88116022
:101A8000594B227E039308276F2A1ED00A271CE099
:101A9000231C78214533554D197011682368081DA2
:101AA000039510601E0601D50E6802E05806FBD5AE
:101AB0000E88D90702D52022134323601027002E59
:101AC00003D1226820239A432260231C002243333F
:101AD0001A7001E003930A276368A360002B03DBFD
:101AE0002568042295432560002E02D1049D002B19
:101AF0000ED0049D301C391CFFF7B0FC0398013D4B
:101B0000435C301C2B70391CFFF764FC061EF1D1BE
:101B1000082F09D12168C90706D5626823699A424E
:101B200002DC013D30232B70049E731B23612AE0ED
:101B3000086813684969050604D5181D10601B68FC
:101B4000196005E04606F8D5181D10601B6819805D
:101B500000232361049D16E01368191D11601D68A0
:101B6000281C00F0E9FB63682061984200D92361DA
:101B70002069606004E0251C42352B70012323613D
:101B8000049E00233370079E05980096211C09AA25
:101B9000069BFFF7A3FE013002D10120404221E065
:101BA0002A1C059806992369079DA8470130F4D09F
:101BB0002668B60705D4099BE068984212DA181C1B
:101BC00010E00025E0680999431A9D42F3DA221CCF
:101BD0000598069919320123079EB0470130DCD0E1
:101BE0000135EFE70BB0F0BDB1240000C2240000C6
:101BF00070B5051C0E1C141C002804D08269002A34
:101C000001D100F0C9F9234B9C4201D16C6808E076
:101C1000214B9C4201D1AC6803E0204B9C4200D197
:101C2000EC68A369A360A3891A070AD52369002B6E
:101C300007D022682369F6B2D01A626990420FDB9E
:101C400008E0281C211C00F02BF80028F1D001200E
:101C500040421DE0281C211C00F01EF90028F6D18E
:101C6000A3680130013BA36023685A1C22601E70E8
:101C70006369984205D0A389301CDA0708D50A2E7B
:101C800006D1281C211C00F007F90028DFD1301CE8
:101C900070BDC046D4240000F424000014250000C8
:101CA000344B70B51D68061C0C1C002D05D0A969AD
:101CB000002902D1281C00F06FF92F4B9C4201D162
:101CC0006C6808E02D4B9C4201D1AC6803E02C4BC2
:101CD0009C4200D1EC68A28993B2190721D4D9069D
:101CE00005D40923336040231A43A2813FE05A07F9
:101CF00013D5616B002908D0231C4433994202D0CC
:101D0000301C00F01FFA00236363A389242293434D
:101D1000A3810023636023692360A38908221343FE
:101D2000A381216900290BD1A389A02292001A4026
:101D300080239B009A4203D0301C211C00F09CF9A8
:101D4000A38901221A4005D061690022A2604A429B
:101D5000A26103E0990700D46269A26022690020B1
:101D6000824206D1190604D540221343A3810120E3
:101D7000404270BD64000020D4240000F424000020
:101D800014250000F7B58B89051C0C1C19075ED4BF
:101D90006268002A02DC276C002F1ADDE76A002F38
:101DA00017D000222E682A60802252011A4001D0EA
:101DB000626D15E0281C216A0123B847021C411CF2
:101DC0000ED12B68002B0BD01D2B01D0162B02D16E
:101DD0002E6000205EE0A38940210B43A38159E0DF
:101DE000A3895F0706D56168636B521A002B01D087
:101DF000276CD21B281C216A0023E76AB847A289F6
:101E0000411C06D12B68002B03D01D2B01D0162BB3
:101E100019D10023636023692360D70405D5411CD1
:101E200002D12A68002A00D16065616B2E6000290A
:101E3000CFD0231C4433994202D0281C00F082F9F1
:101E40000020606326E040231A43A28122E0266935
:101E5000002EBED027680022BF1B0197266099077D
:101E600000D16269A260019F002FB2DD281C216AA7
:101E7000321C019BA76AB847002806DCA3894022D0
:101E800013430120A381404204E0019F36183F1A0A
:101E90000197E8E7FEBD00000A6938B5051C0C1C77
:101EA000002A01D100201CE0002804D08369002B07
:101EB00001D100F071F80B4B9C4201D16C6808E035
:101EC000094B9C4201D1AC6803E0084B9C4200D115
:101ED000EC680C22A35E002BE4D0281C211CFFF729
:101EE00051FF38BDD4240000F42400001425000064
:101EF000F8B5041C071C4834002C12D0A56866688D
:101F0000013E0CD4AB89012B07D90E22AB5E013305
:101F100003D0381C291CFFF7BFFF6835F0E72468A1
:101F2000EAE7F8BD002310B5041C0360436083603A
:101F300081814366C281036143618361191C082268
:101F40005C30FFF7E8FA054B24626362044BA3623E
:101F5000044BE362044B236310BDC046A122000082
:101F6000C9220000012300002D23000070B54B1E84
:101F700068255D430E1C291C743100F02BF9041EEA
:101F800008D00021016046602A1C0C30A060683235
:101F9000FFF7C1FA201C70BD836913B5041C002B28
:101FA00027D18364C3640365124B134A1B688262A2
:101FB000984201D101238361201C00F01FF860606A
:101FC000201C00F01BF8A060201C00F017F8042172
:101FD000E06000226068FFF7A5FFA06809210122E8
:101FE000FFF7A0FFE06812210222FFF79BFF012309
:101FF000A36113BD9C240000F11E0000F8B51D4B29
:10200000071C1E68B269002A02D1301CFFF7C4FF0A
:102010004836B4687368013B05D40C22A55E002DD8
:1020200010D06834F7E73368002B06D1381C042140
:10203000FFF79CFF3060002801D03668E9E70C23E9
:102040003B6016E001235B42E381201C0123A38156
:1020500065662560A560656025616561A5615C3088
:10206000291C0822FFF757FA6563A563A564E56498
:10207000201CF8BD9C240000F0B58B8991B0051C94
:102080000C1C9A0725D40E23C95E002906DAA789FD
:1020900080231F400FD0002740260EE001AA00F049
:1020A00079F90028F3DB029BF0273F02184A1F4012
:1020B000BF187B425F418026F600281C311C00F0CF
:1020C00089F800280CD1A3899A051FD40222134352
:1020D000A381231C4733236023610123636115E03F
:1020E0000C4B8022AB62A38920601343A381206143
:1020F0006661002F0AD00E23E15E281C00F05CF917
:10210000002803D0A38901221343A38111B0F0BD9D
:1021100000E0FFFFF11E000008B5034B011C18682A
:1021200000F058F808BDC04664000020C9B282180B
:10213000904204D003788B4202D00130F8E70020AF
:102140007047000030B5002940D004390B68002BDF
:1021500000DAC9181E4A1368141C002B02D14B6008
:10216000116033E099420FD208680A189A4205D1EB
:1021700013685268C01808604A6000E04B60216034
:1021800024E08A4203D8131C5A68002AF9D11D683A
:102190005C198C420BD10968691858181960904273
:1021A00014D114685268091919605A600EE08C4203
:1021B00002D90C23036009E008680C18944203D18B
:1021C00014685268001908604A60596030BDC04602
:1021D000BC00002070B50323CD1C9D430835061CB0
:1021E0000C2D01D20C2501E0002D3FDB8D423DD3AB
:1021F000204B1C681A1C211C002913D00868431BA3
:102200000DD40B2B02D90B60CC181EE08C4202D1EE
:10221000636813601AE0486860600C1C16E00C1CD0
:102220004968E9E7144C2068002803D1301C00F00D
:1022300025F82060301C291C00F020F8431C15D024
:10224000C41C03239C4384420AD12560201C0B300C
:102250000722231D9043C31A0BD05A42E25008E0D4
:10226000211A301C00F00AF80130EED10C23336043
:10227000002070BDBC000020B800002038B5074C1D
:102280000023051C081C2360FEF77EFF431C03D1BE
:102290002368002B00D02B6038BDC046D40000203E
:1022A00038B50C1C0E25495F00F0ACF8002803DBA4
:1022B000626D1318636503E0A289024B1340A3818A
:1022C00038BDC046FFEFFFFFF8B51E1C8B89051C0B
:1022D0000C1C171CDA0505D50E23C95E002202234B
:1022E00000F07CF8A289054B281C1340A3810E2224
:1022F000A15E331C3A1C00F027F8F8BDFFEFFFFF8A
:1023000038B50C1C0E25495F00F068F8A389421C03
:1023100003D1054A1340A38104E0802252011343F4
:10232000A381606538BDC046FFEFFFFF08B50E23EF
:10233000C95E00F01DF808BD0023C25C0133002A0D
:10234000FBD1581E7047000038B5084C051C002012
:102350002060081C111C1A1CFDF7FCFE431C03D155
:102360002368002B00D02B6038BDC046D40000206D
:1023700038B5074C0023051C081C2360FEF716FF28
:10238000431C03D12368002B00D02B6038BDC0460E
:10239000D400002038B5074C0023051C081C111C74
:1023A0002360FEF707FF431C03D12368002B00D0F6
:1023B0002B6038BDD400002038B5074C0023051C25
:1023C000081C2360FEF7FCFE431C03D12368002B8E
:1023D00000D02B6038BDC046D400002038B5084C72
:1023E000051C00202060081C111C1A1CFEF7EAFEC8
:1023F000431C03D12368002B00D02B6038BDC0469E
:10240000D400002038B5084C051C00202060081CB2
:10241000111C1A1CFDF77CFE431C03D12368002B02
:1024200000D02B6038BDC046D4000020011EE10062
:102430003078253032780A0000080042000C004253
:10244000001000420014004200180042001C00422C
:10245000500B0000AC0B0000AC0B00004A0B00005E
:102460004A0B0000660B0000560B00006C0B0000CE
:102470009A0B0000340C0000940C0000940C000037
:10248000140C0000260C0000420C0000180C000088
:10249000500C0000840C00004300000004000020E9
:1024A000232D302B2000686C4C006566674546473D
:1024B00000303132333435363738394142434445C0
:1024C000460030313233343536373839616263642F
:1024D0006566000000000000000000000000000031
:1024E00000000000000000000000000000000000EC
:1024F00000000000000000000000000000000000DC
:1025000000000000000000000000000000000000CB
:1025100000000000000000000000000000000000BB
:1025200000000000000000000000000000000000AB
:1025300000000000F8B5C046F8BC08BC9E467047D5
:10254000D9000000F8B5C046F8BC08BC9E467047EC
:04255000B1000000D6
:102554000100000000000000D4240000F424000066
:10256400142500000000000000000000000000002E
:10257400000000009824000000000000000000009B
:102584000000000000000000000000000000000047
:102594000000000000000000000000000000000037
:1025A4000000000000000000000000000000000027
:0825B4000000000004000020FB
:040000030000109D4C
:00000001FF
