S01A000055534152545F515549434B5F5354415254312E7372656381
S1130000E0200020E5100000E1100000E1100000F5
S113001000000000000000000000000000000000DC
S1130020000000000000000000000000E1100000DB
S11300300000000000000000E1100000E1100000DA
S1130040E1100000E1100000E1100000E1100000E8
S1130050E1100000E1100000E1100000E1100000D8
S1130060E1100000E1100000E1100000E1100000C8
S1130070E1100000E1100000E1100000E1100000B8
S1130080E1100000E1100000E1100000E1100000A8
S1130090E1100000E1100000E1100000E110000098
S11300A0E1100000E1100000E1100000E110000088
S11300B010B5064C2378002B07D1054B002B02D03A
S11300C0044800E000BF0123237010BD700000202D
S11300D0000000009426000008B5084B002B03D054
S11300E00748084900E000BF07480368002B00D117
S11300F008BD064B002BFBD09847F9E70000000031
S113010094260000740000209426000000000000E3
S113011010B50020084B9847084CFA218900A047E5
S1130120074B1860FA218900A047064B1860052286
S1130130054B1A6010BDC046710E00005D1400002E
S1130140040000200000002010E000E030B5084B5F
S11301501C68084A00258021490206E0002C04D0CE
S11301605460956013680B42FCD00138F6D230BD60
S11301700400002010E000E0F0B5474680B40C1CF9
S11301809046002810D1002A0ADD8F18094E0A4D26
S11301903068211C2B6898470134BC42F8D101E037
S11301A000239846404601E00120404204BC9046AA
S11301B0F0BDC046D0000020C8000020F0B547467E
S11301C080B40138022815D8002A10D0151C0E1C42
S11301D000240C4B98460C4F43461868315D3B682D
S11301E09847002809DB0134A542F5D100E000243A
S11301F0201C04E00120404201E00120404204BCF4
S11302009046F0BDD0000020CC00002008B5011CB1
S11302100148024B984708BD6425000031160000D0
S1130220F0B54F4680B482B001900E1E914607DDB2
S1130230041C4718074D2078A8470134BC42FAD162
S11302404B465868B2B20199034B984702B004BCBC
S11302509146F0BD0D020000AD0A00000C4B1B6876
S1130260002B10D1EFF31083002B09D172B6BFF32A
S11302705F8F0022074B1A700132074B1A7002E09D
S11302800022054B1A70024A136801331360704749
S11302908C0000200800002090000020084B1A6801
S11302A0013A1A601B68002B09D1064B1B78002BFE
S11302B005D00122044B1A70BFF35F8F62B67047FA
S11302C08C0000209000002008000020F0B583B0CE
S11302D001AC012565700027A77025703E20211C04
S11302E0064EB0478022D205054B9A61277065708F
S11302F00F20211CB04703B0F0BDC0460503000029
S11303008044004100B583B001AB80221A700A78A2
S11303105A704A789A708A78DA70191C014B984797
S113032003B000BD8110000010B54908402481428B
S11303300CD30023091A01339BB28842FAD9013B3A
S11303409BB24024FF2B01D813800024201C10BD35
S1130350F0B55F4656464D464446F0B489B01C1C81
S113036012AB1B78061C5E4340258E4200D9C7E0C1
S1130370251C07920C1C021C002D51D1181C0021B5
S11303800023634DA8478346261C0027002300242E
S113039002930394002200233F2020218C461F391E
S11303A00096019720246442041903D40D1CA5402F
S11303B0A84604E06446241A0D1CE540A8460C1C1B
S11303C08440A146141C1D1CA4185D41221C2B1C36
S11303D05E4647463E4203D00E1C2643321C2B1C6D
S11303E0019C9C4210D802D1009C94420CD8009CE1
S11303F0019D121BAB414D46029E039F35433C1C9D
S113040046463443029503940138CBD2002201239B
S113041002980399121A8B41110C1B0419436CE0C6
S11304200021012D69D1610F0F1CE1008846181CC1
S113043000210023364CA047041C0D1C00239C46BD
S113044020339B46012663460593B9466B461B7DC4
S1130450069300239C46002000213F22009401952E
S113046020235B42D31803D4341C9C40231C04E097
S11304705B469B1A341CDC40231C371C9740041C2D
S11304800D1C24184D41201C291C02900391444644
S11304903C40A2464C4623405446234305D0029B8D
S11304A0039C1D1C3543281C211C019B8B420AD82C
S11304B002D1009B834206D8009B019CC01AA14133
S11304C063463B439C46013ACAD2009C019D624666
S11304D00599531ADB080F4A934208D9069A013248
S11304E0D2B206920A1C01320592082AAED14025E6
S11304F0069A082A04D051031943079B1980002542
S1130500281C09B03CBC90469946A246AB46F0BDB7
S113051081150000FF1F000010B582B0041C0E4BB3
S11305201B78002B01D000290DD001A90C701320D9
S11305300A4B984713200A4B9847074B5C700122DB
S11305401A70002006E0044B5B78834201D01D2022
S113055000E0002002B010BD94000020890F0000CC
S1130560FD0E0000444B984233D006D8434B9842CA
S11305700DD0434B98421BD06FE0424B98424AD077
S1130580414B984258D0414B984266D132E0012900
S113059006D0002963D0022906D0032906D001E041
S11305A03B4867E0002065E03A4863E03A4861E090
S11305B0012906D0002954D0022906D0032906D0E7
S11305C001E0364856E0002054E0354852E0354812
S11305D050E0012906D0002945D0022906D003297C
S11305E006D001E0304845E0002043E02F4841E0D8
S11305F02F483FE0012906D0002936D0022906D031
S1130600032906D001E02B4834E0002032E02A48D8
S113061030E02A482EE0012906D0002927D00229FB
S113062006D0032906D001E0254823E0002021E07C
S113063024481FE024481DE0012906D0002918D0D1
S1130640022906D0032906D001E0204812E0002048
S113065010E01F480EE01F480CE000200AE01E488E
S113066008E0032006E01D4804E01D4802E01D48A0
S113067000E01D487047C0460010004200080042D8
S1130680000C004200180042001C0042001400420A
S11306900300050003000600030007000300010037
S11306A003001E0003001F000300090003000A00EA
S11306B003000B00030011000300120003001300E9
S11306C003000D0003000E0003000F0003001700D9
S11306D003001800030019000300040003000800CD
S11306E00300100003000C000300160030B587B0AF
S11306F00C4B6A4632CB32C232CB32C2009B8342AD
S113070006D001239A0069465258824203D100E080
S11307100023D8B203E00133062BF3D1002007B045
S113072030BDC0466C250000F0B55F4656464D46C8
S11307304446F0B491B0061C0C1C151C3160081C16
S1130740AA4B984722680523D20700D546E12268C0
S11307501733920700D541E1A5490A6A871C1B3B60
S1130760BB4013430B620FA92D27EB5D0B701430B4
S1130770C3B20393181C9F4B984703989E4B98470A
S1130780E85D00219D4B9847EB7A73712423EB5C61
S1130790B3712523EB5CF371EB7E33722B7F7372A1
S11307A033689A46181C914B9847143000220E2344
S11307B006A98C4663441A802B8A99468023DB0160
S11307C0994519D004D880239B0199450AD0E7E0C4
S11307D0C023DB0199450AD080231B02994500D12F
S11307E0E3E0DDE0102306930F3B0793E1E00823E9
S11307F00693073B0793DCE02B689B46EB68039367
S11308006B6904932B7E98462623EB5C05936B68F7
S1130810002B15D080225205934236D12723EB5C5E
S1130820002B36D12B6A1F1CC0B2754B9847011C94
S1130830381C0E2206AB9C466244724B984725E056
S113084008230693002307932723EB5C002B0BD08C
S1130850069B0093286AA96A0E2206AB9C46624452
S1130860079B694FB84711E02B6A1F1CC0B2644B49
S11308709847011C069B0093381C0E2206AB9C462D
S11308806244079B604FB84700E00020031E00D07D
S1130890A4E06B7E002B02D0AB7E52469373326889
S11308A0059FD369002BFCD10E3306AA94466344FA
S11308B01B8852469381039B5A461343049A13435D
S11308C06A6813434A4613434246120213437F079E
S11308D01F432723EB5C002B01D104331F43697EA4
S11308E089022B7F5B021943EB7AAA7A13431943DB
S11308F06A7F120211432423EA5C52040B1C134343
S11309002522A95C090419432B89FF2B04D08022DA
S113091052041743194305E0EB7E002B02D08023D9
S1130920DB041F432C23EB5C002B03D1374B9B7858
S11309309B0701D580231F433268D369002BFCD168
S1130940534659603268D369002BFCD153461F606B
S11309500EAB80221A7000225A70DA709A702B6BD8
S11309600A936B6B0B93AB6B0C93EB6B03930D9331
S113097000270EAD264EF9B2BB000AAA98580028EB
S113098002D1201C234B9847431C04D02870000C30
S1130990C0B2291CB0470137042FECD100231DE05D
S11309A0102306930023079303E0032306930023F5
S11309B007932B689B46EB6803936B6904932B7E28
S11309C098462623EB5C05936B68002B00D13BE72C
S11309D080225205934200D120E75AE7181C11B037
S11309E03CBC90469946A246AB46F0BDED060000DD
S11309F000040040890F0000FD0E000019050000EE
S1130A00A50F00002903000051030000002000414D
S1130A1081100000650500000368C2791C20002ACB
S1130A200CD01A7E1738D20708D5DA69002AFCD10F
S1130A30198502211A7E0A42FCD000207047C04664
S1130A40036882791C20002A2FD01A7E1738520797
S1130A502BD5DA69002AFCD15A8BD2B2900621D068
S1130A60900703D502225A831A201EE0500703D5AB
S1130A7004225A831E2018E0D00703D501225A838A
S1130A80132012E0D00605D5598B10220A435A834D
S1130A9042200AE0920605D5598B20220A435A8344
S1130AA0412002E01B8D0B8000207047F8B55746AB
S1130AB04E46C0B41723002A49D0C4790533002C0C
S1130AC045D00468E369002BFCD18A468146171C93
S1130AD0002601251FE0227E2A4204D1012B28D0C2
S1130AE0013B002BF7D1721C92B253469B5D4946E1
S1130AF04979012902D099B2161C05E0B11C8EB2C5
S1130B005146895C090219434846134B98477A1E9B
S1130B1097B2002F15D0237E2B42E4D10F4BDAE796
S1130B20227E0A4207D1012B07D0013B002BF7D1CB
S1130B300DE012230BE0002309E0122307E0002359
S1130B4005E0237E9B07FAD4044B0221E8E7181C36
S1130B500CBC91469A46F8BD190A0000FFFF00003C
S1130B6008B5082803D880001B4B1B589F4600205B
S1130B7031E01A4B18692EE0194B186A8005800F72
S1130B80184BC340181C26E0144B586923E0134B40
S1130B901B68022018401ED011491022CB681A424B
S1130BA0FCD00E4B1B685B0714D500200E4B9847F6
S1130BB00A4B9B681B041B0C58430CE05023084A47
S1130BC0D35C00205B0706D5044BD86803E0802083
S1130BD0000200E0054808BD8425000098000020BC
S1130BE00008004000127A00A50F0000006CDC022F
S1130BF070B50C4C236A0178857842780120024054
S1130C0092014026B3431343021C2A40D2017F3091
S1130C108343134303220A40120203490B40134344
S1130C20236270BD00080040FFFCFFFF082803D8C2
S1130C308000224B1B589F4617203EE0204A116A31
S1130C4002230B431362002037E01D4A91690223FB
S1130C500B439361002030E0194A118A02230B43AD
S1130C601382002029E0164A918A02230B439382BF
S1130C70002022E0134B196802220A431A601A6802
S1130C80114B13400E4A9384111C1022CB681A4254
S1130C90FCD00C4A91680A4BD96251689962126877
S1130CA092B29A84002008E005494422885C022319
S1130CB003438B54002000E000207047A825000067
S1130CC000080040980000207FFF000030B585B088
S1130CD0C222D2001A4B9A601A4A53681E218B43CF
S1130CE0536001236A4613700024174DE0B269462D
S1130CF0A8470134252CF9D103A800244470012508
S1130D0085700470114B98470620114B9847114B7E
S1130D109847114B1C725C729C72DC7201956B4695
S1130D205C7006236A46137014725472002069467C
S1130D300A4B984700200A4B984705B030BDC0467F
S1130D400008004000400041890F0000F10B000042
S1130D502D0C0000650D000000040040890D00000A
S1130D602D0E0000064A916908230B43936101226A
S1130D70044B1A70191C0B781342FCD17047C046FF
S1130D8000040040000C004070B5041C0D782D02D6
S1130D9005434B78002B02D08023DB021D434B7AA2
S1130DA0002B02D080231B031D434E68012E18D94B
S1130DB0731E1E4210D1022E06D9022300220132D4
S1130DC05B009E42FBD800E0002212021043041C88
S1130DD080235B031D4304E03402044380239B020D
S1130DE01D430B7A002B02D080239B031D430C4A26
S1130DF053785BB2002BFBDB0A4B9847084B9C6093
S1130E001A1C53785BB2002BFBDB054A5168802324
S1130E105B020B401D435560034B984770BDC046B1
S1130E20000C00405D0200009D02000010B5041C8F
S1130E300B4A53785BB2002BFBDB0A4B98470A4BF7
S1130E401C70074A53785BB2002BFBDB044A5368DF
S1130E50802149020B435360044B984710BDC046A0
S1130E60000C00405D020000040C00409D020000E4
S1130E7070B5041C1A4A53785BB2002BFBDB194B88
S1130E809847194B1C70164A53785BB2002BFBDB56
S1130E90134E7068C004C00E144B9847051C124BC7
S1130EA01C707668F602F60F114B1C700C4A5378CE
S1130EB05BB2002BFBDB0A4B9C68240AA4B20D4BEB
S1130EC09847002E07D1012C07D9281C211C0A4B56
S1130ED09847051C01E00134E540281C70BDC0465C
S1130EE0000C00405D020000040C0040610B000097
S1130EF0080C00409D0200005D14000010B5041CA5
S1130F00064B9847064B1C70064A51888023DB0128
S1130F100B435380044B984710BDC0465D0200004C
S1130F20020C0040000C00409D02000010B5041C9F
S1130F300F4B98470F4B1C700F4B5A881205100F1C
S1130F4059880E4A0A405A8059880D4A0A405A80E4
S1130F50191C8022D2014B881342FCD1064902029B
S1130F604888064B034013434B80064B984710BDFB
S1130F705D020000020C0040000C0040FFF0FFFF87
S1130F80FFBFFFFF9D02000010B50C78240204434C
S1130F90024B9847A4B2024B5C8010BD2D0F000099
S1130FA0000C004010B5041C064B9847064B1C70FF
S1130FB0064B5C882405240F054B9847201C054BE1
S1130FC0984710BD5D020000020C0040000C004078
S1130FD09D020000710E000030B5D378002B1ED1A5
S1130FE01478802C04D0240680235B021C4300E088
S1130FF0002453780225AB430AD19378002B03D104
S113100080239B021C4302E0C023DB021C4341609B
S11310105378013B012B12D8184B1C400FE0416060
S11310200B041B0CA024E405234383620B0CD02483
S1131030240623438362D378002B18D01CE00B04CE
S11310401B0CA025ED052B43234383620B0CD025F9
S11310502D062B4323438362D378002B0CD16303E7
S113106005D59378012B01D1816100E0416153786A
S1131070013B012B00D8816030BDC046FFFFFBFF60
S113108008B5031C0A1CC1090020002904D1580911
S1131090C00105498C4660441F210B401E3999400C
S11310A0024B984708BDC04600440041D90F0000D8
S11310B07047C04608B5054B9847054B9847054B04
S11310C09847054B9847054B984708BDCD0C000041
S11310D0CD020000B1100000B1100000B1100000FA
S11310E0FEE7C04670B52E4B2E4A9A4203D02E4BD3
S11310F02B4A9A4204D32D4B2D4A9A4210D31EE018
S11311002C4A294B03339B1A9B0801339B00002272
S1131110234824498C58845004329A42FAD1EAE78D
S1131120254A224B03339B1A9B0801339B00002260
S11311301F4800211418216004329A42FAD11F4A30
S1131140FF211F4B8B439360FD3990235B001D4AA5
S1131150D1501D48C3780324A34302221343C37010
S1131160C3780C26B34308210B43C370174B987BF9
S11311703025A843051C202028439873987BB0434E
S113118001439973997BA1430A439A73104A5168A6
S113119080230B4353600F4B98470F4B9847FEE750
S11311A0000000209426000070000020E0000020D1
S11311B070000020040000207400002000ED00E016
S11311C00000000000700041005000410048004150
S11311D000400041D515000061130000031C064ABD
S11311E01268002A02D10549034A1160024A1068B4
S11311F0C31813607047C046B0000020E0200020F0
S1131200012040427047C04680239B014B60002070
S11312107047C046012070470020704770B582B007
S1131220051C0E1C00226B46DA80064C281C6B46FB
S1131230991DA0470028F9D16B4606331B883370EB
S113124002B070BD410A000070B5051C8CB2034E9B
S1131250281C211CB0470028FAD170BD190A0000CF
S113126070B590B08023DB05009300230193FF2227
S113127069460A8100228B72CB72962189010891FA
S1131280012124206C46215401302154253163541A
S1131290013163540A930531635401316354059356
S11312A02382E3762276227762761323A37662770B
S11312B080235B030393144B0C93144B0D93012372
S11312C05B420E930F93124C124E6068311C6A46B7
S11312D0114DA8472068311C6A46A84763681A68FC
S11312E0D369002BFCD1116802330B431360084B04
S11312F01B681A68D369002BFCD1116802330B43B5
S1131300136010B070BDC046020016000200170042
S1131310D4000020001400422907000030B583B037
S1131320FA25AD00281C094CA04701A82B23037003
S1131330437083700321064A064B9847011C0648F4
S1131340064B9847281CA04703B030BD4D01000050
S1131350D400002021020000CC250000311600003A
S113136070B590B02D4B98478023DB050093002384
S11313700193FF2269460A8100228B72CB720121FC
S113138024206C4621540130215425316354013109
S113139063540A93053163540131635405932382E2
S11313A0E3762276227762761323A376627780230C
S11313B05B0303931A4B0C931A4B0D9301235B426B
S11313C00E930F9396231B020893174C174B1C6024
S11313D0174A184B1A60184A184B1A60201C1849EF
S11313E06A46184B9847184E336898680021174D81
S11313F0A847336858680021A8472268D369002B9E
S1131400FCD1116802330B431360114B9847114B05
S11314109847114B9847002010B070BDB5100000DC
S11314200200160002001700B4000020D0000020C3
S113143049120000CC0000201D120000C80000204A
S113144000140042290700006C000020651600000B
S113145061120000110100001D1300000022430866
S11314608B4274D303098B425FD3030A8B4244D368
S1131470030B8B4228D3030C8B420DD3FF220902AA
S113148012BA030C8B4202D31212090265D0030B69
S11314908B4219D300E0090AC30B8B4201D3CB035F
S11314A0C01A5241830B8B4201D38B03C01A5241A1
S11314B0430B8B4201D34B03C01A5241030B8B42A3
S11314C001D30B03C01A5241C30A8B4201D3CB028E
S11314D0C01A5241830A8B4201D38B02C01A524173
S11314E0430A8B4201D34B02C01A5241030A8B4276
S11314F001D30B02C01A5241CDD2C3098B4201D38E
S1131500CB01C01A524183098B4201D38B01C01A0B
S1131510524143098B4201D34B01C01A5241030982
S11315208B4201D30B01C01A5241C3088B4201D331
S1131530CB00C01A524183088B4201D38B00C01ADE
S1131540524143088B4201D34B00C01A5241411A05
S113155000D20146524110467047FFE701B5002012
S113156000F00CF802BDC0460029F7D003B5FFF720
S113157075FF0EBC4243891A1847C0467047C046DF
S1131580F0B54F46464605042D0C2C1CC0B4170478
S1131590160C3F0C9946030C7C4375435F4373431D
S11315A07D19260CAD199C46AF4203D980235B02FA
S11315B09846C4444B465143434324042E0C240C04
S11315C02D0466442C1959188919201C0CBC90460A
S11315D09946F0BD0E4B70B500251E1C0D4CE41A47
S11315E0A410A54204D0AB00F35898470135F8E79E
S11315F001F040F8084B00251E1C084CE41AA41006
S1131600A54204D0AB00F35898470135F8E770BD04
S1131610802600008026000080260000842600002A
S1131620031C8218934202D019700133FAE7704701
S11316300FB40B4B13B51C68002C05D0A369002B09
S113164002D1201C00F096F905AB201CA168049A75
S1131650019300F0F1FA16BC08BC04B01847C04668
S11316606C00002008B54A424A4180235200DB0046
S113167000F002F808BD0000F7B51E1C3C4B041C2A
S11316801D680F1C0192002D05D0AB69002B02D1FF
S1131690281C00F06FF9374B9C4201D16C6808E0BC
S11316A0354B9C4201D1AC6803E0344B9C4200D1E1
S11316B0EC68019B022B58D8002E56DB281C211CF9
S11316C000F0EAF800236360A361A3891B0603D535
S11316D0281C216900F0EAF98322A3899343A3819A
S11316E0019B022B13D0002F25D1002E01D180267F
S11316F0F600301C00F0D0F9071E18D18020C0007D
S113170000F0CAF9071E10D10120404200E0002079
S11317100222A3891343A3810023A360231C47331C
S1131720236023610123636121E08026F600802287
S1131730A3891343A381019B012B05D1A389019A9A
S11317401A437342A281A3610D4B0020AB62A289AC
S1131750276027616661130709D503231A405342A2
S113176053415B421E40A66001E001204042FEBDA1
S11317706C000020E0250000002600002026000068
S1131780F1180000F7B58A89051C0C1C13075ED4F8
S11317904B68002B02DC0B6C002B1ADDE76A002F70
S11317A017D000232E682B6080235B011A4001D0E0
S11317B0626D15E0281C216A0123B847021C431CF2
S11317C00ED12B68002B0BD01D2B01D0162B02D170
S11317D02E6000205EE04021A3890B43A38159E0E1
S11317E0A3895B0706D56368D21A636B002B01D00B
S11317F0236CD21A0023281C216AE76AB847A389FC
S1131800421C06D12A68002A03D01D2A01D0162AB8
S113181019D10022626022692260DB0405D5431CD1
S113182002D12B68002B00D16065616B2E6000290A
S1131830CFD0231C4433994202D0281C00F036F93F
S11318400020606326E040221343A38122E00F6955
S1131850002FBED00B680F60DB1B0193002392079F
S113186000D14B69A360019B002BB2DD281C216AC7
S11318703A1C019BA66AB047002806DC40220120DE
S1131880A38940421343A38104E0019B3F181B1A20
S11318900193E8E7FEBD000038B50B69051C0C1C7C
S11318A0002B01D100201CE0002804D08369002B08
S11318B001D100F05FF80B4B9C4201D16C6808E049
S11318C0094B9C4201D1AC6803E0084B9C4200D117
S11318D0EC680C22A35E002BE4D0281C211CFFF72B
S11318E051FF38BDE025000000260000202600003E
S11318F008B5024900F0AEF808BDC04699180000CA
S1131900002310B5041C0360436083608181436637
S1131910C281036143618361191C08225C30FFF7B3
S11319207FFE054B24626362044BA362044BE362B3
S1131930044B236310BDC04689210000B12100007F
S1131940E92100001522000070B568254B1E5D4397
S11319500E1C291C743100F0EFF8041E08D000217D
S11319602A1C016046600C30A0606832FFF758FE04
S1131970201C70BD836913B5002B28D18364C36414
S11319800365134B134A1B6882620193984201D189
S113199001238361041C00F01FF86060201C00F028
S11319A01BF8A060201C00F017F80421E06000225E
S11319B06068FFF7A5FFA06809210122FFF7A0FFD7
S11319C0E06812210222FFF79BFF0123A36113BDEC
S11319D0DC250000F1180000F8B51D4B061C1D683D
S11319E0AB69002B02D1281CFFF7C4FF4835AC6853
S11319F06B68013B05D40C22A75E002F10D068341D
S1131A00F7E72B68002B06D1301C0421FFF79CFF5D
S1131A102860002801D02D68E9E70C23336016E024
S1131A200123201C5B42E3810233A38167662760A4
S1131A30A760676027616761A7615C30391C082271
S1131A40FFF7EEFD201C6763A763A764E764F8BD96
S1131A50DC250000F7B5041C071C0026019148345E
S1131A60002C16D06368A5680093009B013B00938B
S1131A700DD4AB89012B08D90E22AB5E013304D0FF
S1131A80381C291C019B984706436835EDE72468F8
S1131A90E6E7301CFEBD000008B5034B011C1868C6
S1131AA000F04AF808BDC0466C00002030B500299B
S1131AB03ED004390B68002B00DAC9181D4A13689C
S1131AC0141C002B02D14B60116031E099420DD2FD
S1131AD008680A189A4203D11368C3180B60536844
S1131AE04B60216024E08A4203D8131C5A68002A00
S1131AF0F9D11D685C198C420BD109686918581812
S1131B001960904214D110685268091819605A601B
S1131B100EE08C4202D90C23036009E008680C181B
S1131B20944203D114685268001908604A605960ED
S1131B3030BDC046C4000020032370B5CC1C9C43B8
S1131B400834051C0C2C01D20C2405E0002C03DA0B
S1131B500C2300202B6042E08C42F9D3204A136806
S1131B60101C191C002913D00A68121B0DD40B2A4F
S1131B7002D90A608B181FE08B4202D15A680260B6
S1131B801BE04A685A600B1C17E00B1C4968E9E724
S1131B90144E3368002B03D1281C00F0E3FA3060A4
S1131BA0281C211C00F0DEFA031C421CD0D00322A6
S1131BB0C61C964386420AD11C60181C07210B30B0
S1131BC01A1D8843821A0AD05142995007E0311AEB
S1131BD0281C00F0C7FA431CBAD0331CECE770BDD4
S1131BE0C4000020C0000020936810B5013B93603E
S1131BF0002B05DA9469A34208DBCBB20A2B05D08B
S1131C001368581C10601970C8B201E000F008FB9A
S1131C1010BDF8B5061C0F1C141CD518AC4208D016
S1131C202178301C3A1CFFF7DFFF0134431CF5D147
S1131C3000E00020F8BD0000F0B59FB0061C0F1CAA
S1131C4002920593002804D08369002B01D1FFF789
S1131C5091FE794B9F4201D1776808E0774B9F4210
S1131C6001D1B76803E0764B9F4200D1F768BB8986
S1131C701B070AD53B69002B07D0002306AD6B6117
S1131C8020336B761033AB763DE0301C391C00F00A
S1131C9033FB0028F1D001204042CAE0059A111D0F
S1131CA012680591002A7EDB0992013423782E2BD9
S1131CB000D189E021786348032200F00FFC00285A
S1131CC008D0604B0134C01A40238340181C2B6891
S1131CD0184328602178631C5B4806220293297606
S1131CE000F0FCFB002800D191E0584B002B00D001
S1131CF084E00722059B07339343083305936B69FC
S1131D00039A9B186B61029C2378002B04D1029BDD
S1131D10E31A049311D003E0252BF8D00134F3E740
S1131D20049B301C391C029AFFF773FF431C7BD0C1
S1131D306A69049B944663446B612378002B73D0D7
S1131D400122002352426A6002A95432521801341B
S1131D502B60EB60AB601370AB6521783C480522C7
S1131D6000F0BCFB002809D0394B0134C01A012310
S1131D708340181C2B6818432860EEE72B68DA06AA
S1131D8004D55322202102A8121811701A0704D571
S1131D9053222B2102A81218117022782A2A00D16A
S1131DA07CE7099B05E05242EA60022213432B6060
S1131DB07BE72278303A092A04D80A214B430134BC
S1131DC09B18F6E7099371E763782A2B09D1059BE1
S1131DD002341A1D1B680592002B0DDA01235B42A5
S1131DE00AE0002301342278303A092A04D80A216F
S1131DF04B4301349B18F6E707935BE705AB00936D
S1131E00301C291C3A1C134B00E000BF07E005AB53
S1131E100093301C291C3A1C0E4B00F08BF80390E5
S1131E20039B013300D06AE7BB895B0600D532E728
S1131E300B981FB0F0BDC046E0250000002600004E
S1131E4020260000462600004A260000000000006C
S1131E5040260000131C0000F7B5171C01930A6903
S1131E608B6800900C1C934200DA131C221C3B600C
S1131E7043321278002A01D001333B6023689B0669
S1131E8002D53B6802333B60062523681D401ED003
S1131E90231C43331B785A1E9341226892061CD597
S1131EA03020E1184031C870211C5A1C4531097892
S1131EB0A21840320233D1700FE0221C0123009893
S1131EC001991932089EB047431C0ED00135E368CE
S1131ED03A689B1A9D42F0DBDAE7221C00980199CC
S1131EE04332089DA847431C02D10120404220E010
S1131EF006232068E1683A6803400025042B03D1D7
S1131F008D1AEB43DB171D40A3682269934201DD60
S1131F109B1AED180027AF420ADA221C012300980D
S1131F2001991A32089EB047431CDED00137F2E70C
S1131F300020FEBDF0B58BB006920A1C4332079315
S1131F40059004920A7E0C1C109B6E2A00D1A8E016
S1131F5011D8632A22D009D8002A00D1B2E0582A25
S1131F6000D0C2E045310A707C4A4FE0642A1DD09B
S1131F70692A1BD0B9E0732A00D1A7E009D86F2AD7
S1131F8029D0702A00D0B0E0202209680A432260D8
S1131F9037E0752A1FD0782A33D0A6E00E1C1A68C1
S1131FA04236111D196013683370A1E021681A6864
S1131FB0080606D4490604D5111D19600023D55E10
S1131FC002E0111D19601568002D3BDA2D23049AD7
S1131FD06D42137036E021681A68080606D4490673
S1131FE004D51568111D1960ADB202E0111D196008
S1131FF015685A4B227E03930A276F2A1DD108279E
S11320001BE0221C782145321170554A196803924D
S1132010081D226818600D68100602D4500600D509
S1132020ADB2D30702D520231A4322601027002D16
S113203003D1202322689A432260231C00224333C5
S11320401A7002E00A27454B03936368A360002BD0
S113205003DB0422216891432160002D02D1049EF8
S1132060002B0ED0049E281C391CFFF77DFA039B1D
S1132070013E5B5C281C3370391CFFF7EFF9051E29
S1132080F1D1082F09D12368DB0706D563682269DB
S1132090934202DC3023013E3370049B9B1B23617B
S11320A02BE009681A68080607D4490605D5111DEE
S11320B019601368A28A1A8004E0111D196013685C
S11320C062691A600023049E236116E01A68111DD8
S11320D0196016680021301C626800F0FFF90028BE
S11320E001D0801B6060636803E0261C42363270B6
S11320F0012323610023049A1370079B059800931E
S1132100211C069B09AAFFF7A7FE431C02D101204C
S1132110404221E0236905980699321C079DA8478F
S1132120431CF4D023689B0705D4099BE0689842BC
S113213012DA181C10E00025E368099A9B1A9D42E4
S1132140F3DA221C0123059806991932079EB04739
S1132150431CDCD00135EFE70BB0F0BD5126000085
S11321606226000038B50023064C051C081C2360B9
S1132170FFF734F8431C03D12368002B00D02B60F5
S113218038BDC046DC00002038B50C1C0E25495F64
S113219000F0B0F9002803DB636D1B18636503E0EE
S11321A0A289024B1340A38138BDC046FFEFFFFF55
S11321B0F8B51E1C8B89051C0C1C171CDB0505D5EA
S11321C00E23C95E0022022300F01CF9A289054BEC
S11321D0281C1340A3813A1C0E23E15E331C00F03B
S11321E077F8F8BDFFEFFFFF38B50C1C0E25495FEB
S11321F000F008F9A389421C03D1054A1340A381C6
S113220004E0802252011343A381606538BDC046B7
S1132210FFEFFFFF08B50E23C95E00F0E1F808BD2B
S113222070B5051C0E1C141C002804D08369002BF7
S113223001D1FFF79FFB234B9C4201D16C6808E05E
S1132240214B9C4201D1AC6803E0204B9C4200D15D
S1132250EC68A369A360A3891B070AD52369002B33
S113226007D023682269F6B2981A636998420FDB93
S113227008E0281C211C00F03FF80028F1D00120C0
S113228040421DE0281C211CFFF706FB0028F6D164
S1132290A3680130013BA36023685A1C22601E70AE
S11322A06369984205D0A389301CDB0708D50A2E40
S11322B006D1281C211CFFF7EFFA0028DFD1301CBF
S11322C070BDC046E0250000002600002026000066
S11322D038B5051C0020074C2060081C111C1A1C72
S11322E0FDF76CFF431C03D12368002B00D02B6047
S11322F038BDC046DC000020354B70B51D68061C97
S11323000C1C002D05D0AB69002B02D1281CFFF753
S113231031FB304B9C4201D16C6808E02E4B9C424F
S113232001D1AC6803E02D4B9C4200D1EC68A38939
S11323309AB2110723D4D10607D4092201203260AE
S113234037321343A381404240E0530713D5616BF6
S1132350002908D0231C4433994202D0301CFFF7D3
S1132360A5FB002363632422A3899343A381002351
S11323706360236923600822A3891343A38123692B
S1132380002B0BD1A023A2899B0013408022920032
S1132390934203D0301C211C00F048F80123A28989
S11323A0134005D00023A36063695B42A36103E08B
S11323B0910700D46369A36000202369834205D197
S11323C0130603D540231A43A281013870BDC046C9
S11323D06C000020E02500000026000020260000FC
S11323E038B50023064C051C081C2360FEF708FFC3
S11323F0431C03D12368002B00D02B6038BDC0469A
S1132400DC00002038B5051C0020074C2060081CA7
S1132410111C1A1CFEF700FF431C03D12368002B78
S113242000D02B6038BDC046DC000020F0B58B899D
S113243091B09B0706D50B1C47330B600B6101233E
S11324404B6145E00C1C0E23C95E061C002904DA0E
S11324508023A5891D4010D10CE001AA00F05EF88C
S11324600028F5DBF023029D1B021D40194BED18DB
S11324706B425D418027FF0001E000254027301CAE
S1132480391CFFF759FB00280CD1A3899A051FD4E6
S113249002221343A381231C4733236023610123B6
S11324A0636115E080220C4BB362A389206013435F
S11324B0A38120616761002D0AD00E23E15E301CE8
S11324C000F03EF8002803D00122A3891343A3811E
S11324D011B0F0BD00E0FFFFF1180000C9B282188E
S11324E0904204D003788B4202D00130F8E70020F8
S11324F07047000038B5051C0020074C2060081CFC
S1132500111C1A1CFDF738FE431C03D12368002B51
S113251000D02B6038BDC046DC00002038B5002355
S1132520064C051C081C111C2360FEF76DFE431CA1
S113253003D12368002B00D02B6038BDDC000020C1
S113254038B50023064C051C081C2360FEF762FE08
S1132550431C03D12368002B00D02B6038BDC04638
S1132560DC0000203078253032780A000008004270
S1132570000C004200100042001400420018004207
S1132580001C0042720B00006E0B00006E0B00007A
S1132590CE0B0000CE0B0000880B0000780B00006F
S11325A08E0B0000BC0B0000580C0000380C00001F
S11325B0380C0000B80C00004A0C0000660C000047
S11325C03C0C0000740C0000A80C0000535441544F
S11325D055533A2025640000430000000C000020FD
S11325E000000000000000000000000000000000E7
S11325F000000000000000000000000000000000D7
S113260000000000000000000000000000000000C6
S113261000000000000000000000000000000000B6
S113262000000000000000000000000000000000A6
S11326300000000000000000000000000000000096
S1132640232D302B2000686C4C0065666745464797
S1132650003031323334353637383941424344451A
S11326604600303132333435363738396162636489
S113267065660000F8B5C046F8BC08BC9E467047C5
S1132680D9000000F8B5C046F8BC08BC9E467047A7
S1072690B100000091
S113269408000000401F00000100000000000000CA
S11326A4E0250000002600002026000000000000B1
S11326B4000000000000000000000000D825000015
S11326C40000000000000000000000000000000002
S11326D400000000000000000000000000000000F2
S11326E400000000000000000000000000000000E2
S11326F40000000000000000000000000C000020A6
S90310E507
